:0200000460009A
:100000004643464200000156000000000101020084
:1000100000000000000000000000000000000000E0
:1000200000000000000000000000000000000000D0
:1000300000000000000000000000000000000000C0
:1000400000000000010403000000000000000000A8
:100050000000200000000000000000000000000080
:100060000000000000000000000000000000000090
:100070000000000000000000000000000000000080
:10008000EB04180A063204260000000000000000FD
:10009000050404240000000000000000000000002F
:1000A0000000000000000000000000000000000050
:1000B0000604000000000000000000000000000036
:1000C0000000000000000000000000000000000030
:1000D00020041808000000000000000000000000DC
:1000E0000000000000000000000000000000000010
:1000F0000000000000000000000000000000000000
:1001000000000000000000000000000000000000EF
:100110000204180804200000000000000000000095
:1001200000000000000000000000000000000000CF
:10013000600400000000000000000000000000005B
:1001400000000000000000000000000000000000AF
:10015000000000000000000000000000000000009F
:10016000000000000000000000000000000000008F
:10017000000000000000000000000000000000007F
:10018000000000000000000000000000000000006F
:10019000000000000000000000000000000000005F
:1001A000000000000000000000000000000000004F
:1001B000000000000000000000000000000000003F
:1001C000000100000010000001000000000000001D
:1001D000000000000000000000000000000000001F
:1001E000000000000000000000000000000000000F
:1001F00000000000000000000000000000000000FF
:10020000D4D4D4D4D4D4D4D4D4D4D4D4D4D4D4D4AE
:10100000D10020400020006000000000000000002F
:1010100020100060001000600000000000000000D0
:1010200000000060ACD7000000000000EFBEADDEA5
:10103000124880F3088812481249016000F036F81F
:10104000114812490022814201D004C0FBE7104838
:101050001049114A814202D008CA08C0FAE70F4875
:101060004FF47001026842EA01020260BFF34F8F41
:10107000BFF36F8F00F014F800DE00000040002086
:1010800008ED00E000400020005000209485002082
:10109000B84200205C440020B8D7006088ED00E032
:1010A00040F29D6CC0F2000C6047D4D41C4840F262
:1010B000924188420CBF1B4A1B4A1C4B5360136869
:1010C00023F0800313601A481A4901BF1A480A0C1A
:1010D0008264C1F30F014164016C41F004010164B9
:1010E0001648174A824205D01649814202D008CAE2
:1010F00008C0FAE71448154A824205D014498142D3
:1011000002D008CA08C0FAE71248134A824205D042
:101110001249814202D008CA08C0FAE770470000AD
:10112000240400000080034000C00B4020C528D9E3
:1011300000C00A40AAAAFAFF00400E4000000000CA
:10114000B82200605C9D000000400020002000608C
:10115000B84200200000202020C000609817202006
:10116000D4D4D4D4D4D4D4D4D4D4D4D4D4D4D4D43F
:10117000D4D4D4D4D4D4D4D4D4D4D4D4D4D4D4D42F
:10118000D4D4D4D4D4D4D4D4D4D4D4D4D4D4D4D41F
:10119000D4D4D4D4D4D4D4D4D4D4D4D4D4D4D4D40F
:102000000040002031100060D73C0000419D0000DE
:10201000D73C0000D73C0000D73C00000000000087
:10202000000000000000000000000000D73C00009D
:10203000D73C000000000000D73C00004F0D00001E
:10204000D73C0000D73C0000D73C0000D73C000044
:10205000D73C0000D73C0000D73C0000D73C000034
:10206000D73C0000D73C0000D73C0000D73C000024
:10207000D73C0000D73C0000D73C0000D73C000014
:10208000D73C00000000000000000000000000003D
:10209000D73C0000D73C0000D73C0000D73C0000F4
:1020A000D73C0000D73C0000D73C0000D73C0000E4
:1020B000D73C0000D73C0000D73C0000D73C0000D4
:1020C000D73C0000D73C0000D73C0000D73C0000C4
:1020D000D73C0000D73C0000D73C0000D73C0000B4
:1020E000D73C0000D73C0000D73C0000D73C0000A4
:1020F000D73C0000D73C0000D73C0000D73C000094
:10210000D73C0000D73C0000D73C0000D73C000083
:1021100000000000D73C000000000000D73C000099
:10212000D73C0000D73C0000D73C0000D73C000063
:10213000D73C0000D73C000000000000D73C000066
:10214000D73C0000D73C0000D73C0000D73C000043
:10215000D73C0000D73C0000000000000000000059
:10216000D73C0000D73C0000D73C0000D73C000023
:10217000D73C0000D73C0000D73C0000D73C000013
:10218000D73C0000D73C0000D73C0000D73C000003
:10219000D73C0000D73C0000D73C0000D73C0000F3
:1021A000D73C0000D73C0000D73C0000D73C0000E3
:1021B000D73C0000D73C0000D73C0000D73C0000D3
:1021C000D73C0000D73C0000D73C000000000000D6
:1021D000D73C00007F020000D73C0000D73C000045
:1021E000D73C0000D73C0000D73C0000D73C0000A3
:1021F000D73C0000D73C0000D73C0000D73C000093
:10220000D73C0000673B0000D73C0000D73C0000F3
:10221000D73C0000D73C0000D73C0000D73C000072
:10222000D73C0000D73C0000D73C0000D73C000062
:10223000D73C0000D73C0000D73C00000000000065
:1022400000000000D73C0000D73C0000D73C000055
:10225000D73C0000D73C0000D73C0000D73C000032
:10226000D73C0000D73C0000D73C0000D73C000022
:10227000D73C0000D73C0000D73C0000D73C000012
:10228000D73C0000D73C0000D73C0000D73C000002
:10229000D73C0000D73C0000D73C0000D73C0000F2
:1022A000D73C0000D73C0000D73C000000000000F5
:0822B000D73C0000D73C000000
:1022B800F0B503AF2DE9000F85B04D680446686995
:1022C800C00111D499468BB128690E460821904661
:1022D80040F44070286102A805F082FD02980228A7
:1022E80006D19DF80C0097E0042095E0052093E0C6
:1022F8009DF810104FF0000B9DF80C004FF0010AEC
:102308009DF80DC09DF80EE089049DF80F306CF320
:102318000B20366840EA8E509DF8122041EAC341EE
:10232800019241EA00034FEAC65E01200022012122
:102338000BE0CB454FF0000038BF01204A454FF075
:10234800000134BF0121CB456DD2C90750D018F820
:1023580002600132B2EB090C08BFE246696909055F
:1023680059D4E96DC90611D56969090553D4E96DD0
:10237800C9060BD5696909054DD4E96DC90605D5A6
:102388006969090547D4E96DC906E7D40199F44696
:102398000093B6465FFA8AF643EA01512B6E41EA8A
:1023A80046514FF20006CFF6037633407646E646AE
:1023B80043EA0C0319432966696909052BD4E96DB9
:1023C800C90611D56969090525D4E96DC9060BD572
:1023D800696909051FD4E96DC90605D56969090543
:1023E80019D4E96DC906E7D46E6601210191009BF5
:1023F800C0079ED06869C0041BD4286F800798D492
:10240800686FB0F5807F28BF4FF0FF3008F80B00E9
:102418000BF1010B8DE7002000212071216005B030
:10242800BDE8000FF0BDC4E9008905B0BDE8000FA4
:10243800F0BD0120F0E7F0B503AF2DE9000B8046B1
:1024480008F097FB08F07DFB10E02069C8F8000051
:10245800D4E90010096888470646207B05F001008A
:10246800894608F09AFB71684846884708F08AFB55
:10247800BFF35F8F0546D8F8004014B3A66808F08C
:102488003FFBA168401A0021B0F1FF3FB0FA80F08D
:10249800C8BF0121400908432073D6D105F00100C7
:1024A80008F07BFB08F065FB304608F041FB08F0BC
:1024B80027FB801BDAD0B0F1FF3FD7DCBDE8000B6B
:1024C800F0BD284608F069FBBDE8000BBDE8F04008
:1024D80008F04FBB084640F2A301C2F220010222D5
:1024E80009F06EB845F200000121C2F20000BFF306
:1024F8005F8F80F869104EF20C20CEF20000202188
:102508000160704745F26C000121C2F20000BFF380
:102518005F8F41754EF20C20CEF200002021016041
:102528007047704780B56F4608F049FBFCE7F0B587
:1025380003AF2DE9000B8AB045F26C0945F200049F
:10254800C2F20009C2F2000499F8140020B309F19C
:1025580015000021D0E84F2F012A1BD1C0E8421FE7
:10256800002AF7D1BFF35F8F99F81000002840F0D8
:10257800B38109F1040207CA0B788BB104AB07C316
:1025880003A804A901F0C5FF04F16800D0E84F1FB3
:1025980011BB15E0BFF32F8F94F86800A8BB3EE18C
:1025A80013680DF1100C019301AB8CE80F0003A820
:1025B80004A902F03BFA04F16800D0E84F1F59B9AA
:1025C8000121BFF35F8FC0E8421F002A00F0B580E9
:1025D800D0E84F2F002AF6D0BFF32F8F012089F8BB
:1025E80010000020BFF35F8F89F8140041F2CC304F
:1025F800C2F22000C16840F25520C0F200008847AE
:1026080094F86800002800F00A8104F169000021AC
:10261800D0E84F2F012A34D1C0E8421F002AF7D151
:1026280040F23520BFF35F8FC0F2000001A902908D
:1026380041F2CC30C2F220000391019094F864007A
:1026480010B3032840F0488194F8600010B30328C1
:1026580040F0648194F85C0030B3032840F06A814C
:1026680094F8590080B303284DD040F2800040F21E
:102678007012C2F22000C2F22002232108F0F2FCFC
:10268800FEDEBFF32F8FCAE0002084F860004FF40D
:102698007A702060002048F27C5184F85C00C2F215
:1026A80000012068C4E90110D4E9016508F028FA9E
:1026B8000021024684F8591029186665002D18BFB4
:1026C8004A1CE262C4E90302606D0021E26A84F8F0
:1026D800581022630279002A00F00A81224642F843
:1026E800501F134642E90D0243F81C1D01211172C7
:1026F800114641F8043D42F8083CA2F1200342E9A2
:102708000F3142E90B0204F1140003A902F07FFB28
:1027180048B1032084F8640084F8600084F85C0001
:1027280084F8590077E0A06C0168B9B1007B0028F3
:1027380049D194F8580078BB45E00020BFF35F8F7B
:1027480084F864000120BFF35F8F84F869004EF2BB
:102758000C202021CEF2000001603FE70021D4E9DF
:10276800096084F85810D0F8008008F00BFABFF31D
:102778005F8F316859B10A69414501D1326006E07D
:102788002AB1424540F08880D8F810200A6108F044
:1027980004FA94F85800B0B1D4E90960D0F8008080
:1027A80008F0F0F9BFF35F8F316851B10A6941450C
:1027B80001D1326005E022B1424537D1D8F8102066
:1027C8000A6108F0EAF9606B002184F858100028C3
:1027D8001EBFC168A06B8847012009F1140184F865
:1027E800600084F85C0084F85900D1E84F2F42B9A2
:1027F800BFF35F8FC1E8420F8AB3D1E84F2F002A99
:10280800F8D0BFF32F8F012084F864000020BFF3B5
:102818005F8F84F86800DDE90110C96888470020E7
:1028280008F0D3F90AB0BDE8000BF0BD1369002B1E
:10283800C7D043451146C1D01A69002AC1D04245C4
:102848001946BBD01369002BBBD043451146B5D000
:102858001A69002AB5D042451946E7D1AEE70020EB
:10286800BFF35F8F41F2987189F8100044F2B820E5
:10287800C2F22001C2F20000C9F80C90C9E90110A7
:102888000120BFF35F8F89F815004EF20C2020213C
:10289800CEF200000160B6E71369002B3FF477AF72
:1028A800434511463FF470AF1A69002A3FF46FAFF1
:1028B800424519463FF468AF1369002B3FF467AFF0
:1028C800434511463FF460AF1A69002A3FF45FAFF1
:1028D80042451946E0D157E740F2800040F2A8127D
:1028E800C2F22000C2F22002232108F0BBFBFEDE68
:1028F80001200891059040F2F800C2F220000791EB
:10290800049040F20000C2F2200040F260110690EC
:1029180004A8C2F2200108F08FFBFEDE40F280001E
:1029280040F26802C2F22000C2F22002232108F01D
:1029380099FBFEDE40F2800040F28012C2F22000D5
:10294800C2F22002232108F08DFBFEDE80B56F461F
:1029580008F028F948F288500121C2F200000170FD
:102968004EF26540CEF20000F02101704EF20C10DC
:10297800CEF200002021016000F003F8FFF7D2FD3D
:10298800FEDEF0B503AF2DE9000FADF2545DCFAC1C
:10299800204603F074F804F1340004F1380104F11E
:1029A800540202F02AFBDDF8040405F076FBDDF89A
:1029B8006404016841F001010160DDF86404016804
:1029C80021F002010160FF9E0021C0F80811C0F843
:1029D8001811C0F82811C0F83811316821F0010128
:1029E8003160316841F400413160CDE90600CDE93C
:1029F80004003068000409D53068000444BF30681A
:102A08005FEA004002D530680004F2D43F20B0608D
:102A1800306820F001003060DDF80044206820F0C4
:102A280001002060206840F4004020602068000415
:102A380009D52068000444BF20685FEA004002D539
:102A480020680004F2D43F20A060206820F0010034
:102A58002060DDF8980405F07BFACF9940F26342D4
:102A6800886C40F001008864486C10434864486CE6
:102A7800012262F383004864486C20F080004864B7
:102A8800886C40F020008864486C40F440404864FA
:102A9800486C40F444704864886C40F08000886456
:102AA800886D000709D0886D00071CBF886D5FEA34
:102AB800007002D0886D0007F2D1886C40F02000C9
:102AC8008864486C20F4404048644A6CD09822F4EA
:102AD800447202F588724A64816C40F2634241F0A4
:102AE80001018164416C11434164416C012262F32C
:102AF80083014164416C21F080014164816C41F0A3
:102B080020018164416C41F440414164416C41F4CD
:102B180044714164816C41F080018164816D0907D1
:102B280009D0816D09071CBF816D5FEA017102D070
:102B3800816D0907F2D1816C41F020018164416CFB
:102B480021F440414164416C21F4447101F58871DC
:102B58004164DDF8B88405F0EFF8054605F0EEF8B5
:102B68000346A7F1740041462A4605F0E9F8DDF866
:102B7800A414A7F12C004FF4805205F0ABF9F89893
:102B88000390F9980290FA98019004A8DDE9E612FA
:102B980000F59070DDF8D8B3DDF8C084DDF8CC948A
:102BA800DDF8D4A405F043FADDF86C140F25DDF840
:102BB800702401F59073219301F1C003209301F172
:102BC80060031F9302F59073269302F1C003DDF8AA
:102BD8007404259302F1600324934FF47043A1F821
:102BE8008C31A1F88E51A2F88C31A2F88E51A0F840
:102BF8008C31A0F88E51CDE91D1100F590712B9103
:102C080000F1C0012A9100F16001CDE92700DDF84B
:102C18007804299100F59071CDE92222A0F88C3131
:102C2800A0F88E51309100F1C0012F9100F16001A0
:102C3800CDE92C000EA880E8000701980D900298B5
:102C48000C900398CDE9086404AC2E91CDE90AB044
:102C5800A7F1740080E80007204603F0BAF8A7F14E
:102C68007401204603F0BAF84EF2100848F27C517D
:102C7800CEF20008C2F20001D8F8000040F2E732B4
:102C880048F22C144CF2100520F00100C8F800009E
:102C9800D8F80000C4F21F04C4F239054FF0000947
:102CA80040F00400C8F8000042F2BF704FF0030A79
:102CB800C0F20900C8F80400D8F8000040F002008B
:102CC800C8F80000D8F8000040F00100C8F800007B
:102CD8000120BFF35F8F0871BFF35F8F316821F068
:102CE80001013160716862F30B017160316821F490
:102CF800B86180313160316821F001013160B1681B
:102D080041F02001B160F16821F02001F1603168E3
:102D180021F400713160316841F002013160B1681D
:102D280041F00101B160F16821F00101F160B16881
:102D380041F00201B160F16821F00201F160B1686F
:102D480041F00401B160F16821F00401F160CE9610
:102D58000221A26861F30302A260A26842F0100295
:102D6800A26048F20C52C4F21F02D060636861F39B
:102D780003036360636843F0100363609060E36873
:102D880061F30303E360E36843F01003E36050601A
:102D9800236861F303032360236843F0100323606F
:102DA80010602960C5F80090C5F814A029682A6841
:102DB80022F001022A602A6D22F040422A652A6820
:102DC80061F300022A60A5F110024FF00F11A96407
:102DD80049F280612860C0F2980147E90B9228689F
:102DE80040F4407028602E68286820F001002860B0
:102DF80042F60010C0F2DE7005F005F8286D0521D6
:102E08004FF4006220F040402865286866F300000F
:102E1800286054F8640C61F3030044F8640CDBF890
:102E2800040040F00800CBF80400E06B61F30300F5
:102E3800E063039E706840F4006070600820CBF87F
:102E48008800C6F88420CBF88800CE98C6F884207D
:102E58008DF820106421CDF82590CDF821908DF8BB
:102E680029908DF82C90ADF82A9001610B21CDE9BD
:102E78000661CDE904BA016841F001010160816889
:102E8800C90709D18168C90704BF81685FEAC171B0
:102E980002D18168C907F2D081680DF54E7941F0F9
:102EA8000101816001684A4621F00101016004A81E
:102EB800A7F12C0100F0ABF8C0B2232840F08880BD
:102EC80004ACA7F12C0601214B46204632460125C9
:102ED80000F0FCFD2046042132464B4600F0BCFFC2
:102EE8006FF01800CFA98DF840034FF0E730CF906E
:102EF800204632464B4601F01AFAC120CFAA8DF877
:102F080040034FF0C330CF90204601213346CDF81F
:102F1800009001F0FDF8204631464A4600F062FE76
:102F280045F26C00C2F2000000F11401D1E84F2F05
:102F380042B9BFF35F8FC1E8425FBAB1D1E84F2F02
:102F4800002AF8D040F2F41040F2E413C2F2200054
:102F5800BFF32F8F009040F2B810CFAAC2F2200022
:102F6800C2F220032B2108F0B4F8FEDE0021BFF3E3
:102F78005F8F41F29872017444F2B821C2F22002C4
:102F8800C2F20001C060C0E901210121BFF35F8FD7
:102F980041752020C8F8FC0157E90BE1DDF838C37A
:102FA80069CC69C294E8690069C241F2B870C2F29A
:102FB8002000C0E900E141F2C070C2F22000C0F870
:102FC80000C007F0F1FD0DF2545DBDE8000FF0BD43
:102FD80000200121D09140F22421D390C2F2200197
:102FE800D29040F20000C2F22000CF9140F22C2192
:102FF800D190CFA8C2F2200108F01EF8FEDE80B5FD
:103008006F4607F078FDBDE88040FFF714BAF0B5C9
:1030180003AF2DE9000F85B016680446052001921C
:1030280006F1080589463061306840F001003060DB
:103038002868C00709D12868C00704BF28685FEA64
:10304800C07002D12868C007F2D0B06840F0010013
:10305800B060306820F00100306040F20140ADF807
:103068000C0003A801F07CFF5F2107F8260C07F885
:10307800251C4FF00108D4E90201A7F1260201F04E
:103088001F01022308FA01F1C0F8881003A8494675
:10309800FFF70EF9D4E9020101F01F0108FA01F166
:1030A800C0F8841000203061306840F001003060C2
:1030B8002868C00709D12868C00704BF28685FEAE4
:1030C800C07002D12868C007F2D0B0684FF0010A7A
:1030D80040F00100B060306817F8261C20F00100AD
:1030E80030604FF4C0606174ADF80C0003A807F8B5
:1030F80027AC01F035FFFF2107F8260C07F8251C3F
:10310800A7F12602D4E90201022301F01F010AFAFD
:1031180001F1C0F8881003A84946FFF7C9F8D4E9B7
:10312800020101F01F010AFA01F1C0F88410002021
:103138003061306840F0010030602868C00709D16C
:103148002868C00704BF28685FEAC07002D12868F1
:10315800C007F2D0B06840F00100B060306817F8DE
:10316800261C20F0010017F8258C306005206174BA
:1031780001F03DFF8246032001F039FF8346A7F1A5
:103188002700062101F01EFF40F20161ADF80C1086
:103198004BEA0A0128EA010141EA000803A801F004
:1031A800DFFE07F8260CA7F12602D4E90201022364
:1031B80001F01F0107F8258C4FF0010808FA01F10A
:1031C800C0F8881003A84946FFF772F8D4E902014D
:1031D80001F01F0108FA01F1C0F8841000203061E5
:1031E800306840F0010030602868C00709D12868BD
:1031F800C00704BF28685FEAC07002D12868C0070A
:10320800F2D0B06840F00100B060306817F8261CB2
:1032180020F0010030604FF4C0606174ADF80C001C
:1032280003A801F09DFEFF2107F8260C07F8251CCE
:103238004FF00108D4E90201A7F1260201F01F01AD
:10324800022308FA01F1C0F8881003A84946FFF7DD
:103258002FF8D4E9020101F01F0108FA01F1C0F8C2
:10326800841000203061306840F001003060286828
:10327800C00709D12868C00704BF28685FEAC07082
:1032880002D12868C007F2D0B06840F00100B060F1
:10329800306817F8261C20F0010030604FF4E85021
:1032A8006174ADF80C0003A801F05AFEFF2107F87D
:1032B800260C07F8251C4FF00108D4E90201A7F1F4
:1032C800260201F01F01022308FA01F1C0F8881054
:1032D80003A84946FEF7ECFFD4E9020101F01F01FB
:1032E80008FA01F1C0F8841000203061306840F01D
:1032F800010030602868C00709D12868C00704BFEA
:1033080028685FEAC07002D12868C007F2D0B068A8
:1033180040F00100B060306817F8261C20F001006A
:1033280017F825AC306040F24020C2F220006174EA
:1033380001F016FED4E902124FF0010802F01F0254
:10334800012308FA02F2C1F88820A7F1260207F83B
:10335800260C03A84946FEF7ABFFD4E9020101F0A9
:103368001F0108FA01F1C0F88410002030613068AC
:1033780040F0010030602868C00709D12868C007FC
:1033880004BF28685FEAC07002D12868C007F2D07D
:10339800B06840F00100B060306817F8261C20F0D3
:1033A800010030604FF4E8506174ADF80C0003A8D8
:1033B80001F0D6FDFF2107F8260C07F8251C4FF071
:1033C8000108D4E90201A7F1260201F01F01022336
:1033D80008FA01F1C0F8881003A84946FEF768FF0B
:1033E800D4E9020101F01F0108FA01F1C0F88410C4
:1033F80000203061306840F0010030602868C00764
:1034080009D12868C00704BF28685FEAC07002D1E4
:103418002868C007F2D0B06840F00100B060316899
:1034280017F8250C21F0010117F8262C3160AAEBBA
:103438000001B1FA81F1002862744FEA5111E17676
:1034480000F0858082453ED140F24020C2F2200043
:1034580001F086FDD4E902124FF0010802F01F02C4
:10346800012308FA02F2C1F88820A7F1260207F81A
:10347800260C03A84946FEF71BFFD4E9020101F018
:103488001F0108FA01F1C0F884100020306130688B
:1034980040F0010030602868C00709D12868C007DB
:1034A80004BF28685FEAC07002D12868C007F2D05C
:1034B800B06840F00100B060306817F8261C20F0B2
:1034C80001003060617441F60150ADF80C0003A8AA
:1034D80001F046FD07F8260C4FF0010AD4E9020175
:1034E8004FF0000801F01F0107F8258CA7F126020C
:1034F80002230AFA01F1C0F8881003A84946FEF72A
:10350800D7FED4E9020101F01F010AFA01F1C0F85F
:103518008410C6F81080306840F0010030602868D8
:10352800C00709D12868C00704BF28685FEAC070CF
:1035380002D12868C007F2D0B06840F00100B0603E
:10354800306817F8261C20F001003060617441F6DD
:1035580001404FF0000AADF80C0003A884F819A048
:1035680001F0FEFC07F8260C4FF00108D4E902012F
:10357800A7F1260201F01F0107F825AC022308FA7B
:1035880001F1C0F8881003A84946FEF791FED4E976
:10359800020101F01F0108FA01F1C0F88410C6F811
:1035A80010A0306840F0010030602868C00709D1D9
:1035B8002868C00704BF28685FEAC07002D128687D
:1035C800C007F2D0B0684FF0000A40F00100B060C8
:1035D800306817F8261C20F00100306040F2011016
:1035E8006174ADF80C0003A884F81AA001F0B8FCC7
:1035F8003F2107F8260C07F8251C4FF00108D4E9ED
:103608000201A7F1260201F01F01022308FA01F1C5
:10361800C0F8881003A84946FEF74AFED4E902011B
:1036280001F01F0108FA01F1C0F88410C6F810A0D3
:10363800306840F0010030602868C00709D1286868
:10364800C00704BF28685FEAC07002D12868C007B5
:10365800F2D0B06840F00100B060306817F8261C5E
:1036680020F00100306040F201206174ADF80C00D8
:1036780003A801F075FC032107F8260C07F8251CA0
:103688004FF00108D4E90201A7F1260201F01F0159
:10369800022308FA01F1C0F8881003A84946FEF78A
:1036A80007FED4E9020101F01F0108FA01F1C0F890
:1036B800841000203061306840F0010030602868D4
:1036C800C00709D12868C00704BF28685FEAC0702E
:1036D80002D12868C007F2D0B0684A4640F001001D
:1036E800B060306817F8261C20F001003060019B9C
:1036F80020466174202100F0AFFB0320032107F866
:10370800270CA7F1270001F057FC804640F2013052
:10371800ADF80C0003A801F023FC07F8260CA7F16C
:103728002602D4E90201022301F01F0107F8258CC3
:103738004FF0010808FA01F1C0F8881003A84946BB
:10374800FEF7B6FDD4E9020101F01F0108FA01F104
:10375800C0F8841000203061306840F0010030600B
:103768002868C00709D12868C00704BF28685FEA2D
:10377800C07002D12868C007F2D0B06840F00100DC
:10378800B060306817F8261C20F001003060A7F1FF
:103798002700617401F00CFC207440F20150ADF870
:1037A8000C0003A801F0DCFB4C2107F8260C07F8F5
:1037B800251C4FF00108D4E90201A7F1260201F007
:1037C8001F01022308FA01F1C0F8881003A849462E
:1037D800FEF76EFDD4E9020101F01F0108FA01F1BC
:1037E800C0F8841000203061306840F0010030607B
:1037F8002868C00709D12868C00704BF28685FEA9D
:10380800C07002D12868C007F2D0B06840F001004B
:10381800B060306817F8261C20F00100306040F2D4
:1038280001706174ADF80C0003A801F099FB7021D8
:1038380007F8260C07F8251C4FF00108D4E9020107
:10384800A7F1260201F01F01022308FA01F1C0F8CE
:10385800881003A84946FEF72BFDD4E9020101F0C0
:103868001F0108FA01F1C0F88410002030613068A7
:1038780040F0010030602868C00709D12868C007F7
:1038880004BF28685FEAC07002D12868C007F2D078
:10389800B06840F00100B060306817F8261C20F0CE
:1038A8000100306040F242206174C2F2200001F051
:1038B80057FBD4E902124FF0010802F01F0202235D
:1038C80008FA02F2C1F88820FF2107F8260C03A89D
:1038D800A7F1260207F8251C4946FEF7E9FCD4E9BA
:1038E800020101F01F0108FA01F1C0F8841000205C
:1038F8003061306840F0010030602868C00709D1A5
:103908002868C00704BF28685FEAC07002D1286829
:10391800C007F2D0B06840F00100B060306820F015
:103928000100306040F24420C2F2200001F018FB90
:10393800D4E902124FF0010802F01F02022308FA2C
:1039480002F2C1F88820FF2107F8260C03A8A7F186
:10395800260207F8251C4946FEF7AAFCD4E902010D
:1039680001F01F0108FA01F1C0F88410002030614D
:10397800306840F0010030602868C00709D1286825
:10398800C00704BF28685FEAC07002D12868C00772
:10399800F2D0B0684FF0010840F00100B060306824
:1039A80020F00100306003A8ADF80C8001F0D8FACF
:1039B8000C2107F8260C07F8251CA7F12602D4E9E4
:1039C8000201022301F01F0108FA01F1C0F8881072
:1039D80003A84946FEF76CFCD4E9020101F01F0177
:1039E80008FA01F1C0F8841000203061306840F016
:1039F800010030602868C00709D12868C00704BFE3
:103A080028685FEAC07002D12868C007F2D0B068A1
:103A18004FF0000840F00100B060306817F8261C2D
:103A280020F00100306003A86174ADF80C8001F04B
:103A380097FAFF2107F8260C07F8251C4FF0010A12
:103A4800D4E90201A7F1260201F01F0102230AFAB4
:103A580001F1C0F8881003A84946FEF729FCD4E90B
:103A6800020101F01F010AFA01F1C0F88410C6F83A
:103A78001080306840F0010030602868C00709D124
:103A88002868C00704BF28685FEAC07002D12868A8
:103A9800C007F2D0B06840F00100B060306817F895
:103AA800261C17F8252C20F0010030602046617490
:103AB80049462276324600F0BBFC217E22200E29A0
:103AC80008BF232005B0BDE8000FF0BDF0B503AF77
:103AD8002DE9000784B081464FF4C060ADF80800B6
:103AE80002A81E46904607F8231C01F039FA07F889
:103AF800220CFF21D9E902A0A7F1220200F01F0041
:103B080007F8211C0121022301FA00F402A841460A
:103B1800CAF88840FEF7CCFB36680020CAF8844013
:103B28003061306840F001003060B068C00709D1EA
:103B3800B068C00704BFB0685FEAC07002D1B0685F
:103B4800C007F2D0B06817F8221C17F8215C40F0C3
:103B58000100B060306889F81110062120F00100DA
:103B68003060A7F1230001F03BFA40F20161ADF8A3
:103B7800081005F0F80140EA010502A801F0F0F983
:103B880007F8220C02A8A7F122024146022307F8EF
:103B9800215CCAF88840FEF78BFB0020CAF88440F5
:103BA8003061306840F001003060B068C00709D16A
:103BB800B068C00704BFB0685FEAC07002D1B068DF
:103BC800C007F2D0B06817F8221C40F00100B060BE
:103BD800306889F8111020F00100306004B0BDE8A9
:103BE8000007F0BDF0B503AF2DE9000F85B01468EC
:103BF80088460546224600F01BFC002001F0F7F934
:103C0800297E4FF0010BADF80CB041EA000603A87D
:103C18002E7601F0A5F907F82A0CA7F12A02D5E9B2
:103C28000290414600F01F00022307F8296C0BFAA6
:103C380000FA03A8C9F888A0FEF73AFB0020C9F8E3
:103C480084A02061206840F001002060A068C007BF
:103C580009D1A068C00704BFA0685FEAC07002D19C
:103C6800A068C007F2D0A06817F82A1C40F001002D
:103C7800A0602068697420F00100206040F20170A3
:103C8800ADF80C0003A801F06BF9702107F82A0CB5
:103C980003A8A7F12A0207F8291C41460223C9F8FC
:103CA80088A0FEF705FB0020C9F884A020612068E1
:103CB80040F001002060A068C00709D1A068C007D3
:103CC80004BFA0685FEAC07002D1A068C007F2D044
:103CD800A068012240F00100A060206820F00100E7
:103CE8002060D5E9000101F01F012B7F02FA01F1E4
:103CF800C0F88410D3B340F60120D5F813B0ADF85E
:103D08000C0003A8EE7D01F02BF907F82A0CA7F1A7
:103D18002A02687403A841460623C9F888A007F850
:103D2800256C47F829BCFEF7C3FA0020C9F884A01F
:103D38002061206840F001002060A068C00709D118
:103D4800A068C00704BFA0685FEAC07002D1A0687D
:103D5800C007F2D0A06840F00100A060206820F001
:103D68000100206005B0BDE8000FF0BD4FF4007001
:103D7800ADF80C0003A801F0F3F8FF2107F82A0CAE
:103D880003A8A7F12A0207F8291C41460223C9F80B
:103D980088A0FEF78DFA0020C9F884A02061206869
:103DA80040F001002060A068C00709D1A068C007E2
:103DB80004BFA0685FEAC07002D1A068C007F2D053
:103DC800A068002617F82A1C17F829BC40F0010043
:103DD800A0602068697420F001002060002001F0D4
:103DE80006F92BEA000B03A840F20121ADF80C10EC
:103DF80001F0B6F807F82A0C03A8A7F12A024146F1
:103E0800022307F829BCC9F888A0FEF751FAC9F8B7
:103E180084A02661206840F001002060A068C007E7
:103E280009D1A068C00704BFA0685FEAC07002D1CA
:103E3800A068C007F2D0A06817F82A1C40F001005B
:103E4800A0602068697420F00100206000202877B5
:103E580005B0BDE8000FF0BDF0B503AF2DE9000FC8
:103E680083B0CDB2202D28BF2025002D08BF012505
:103E78008146857441F20110ADF8040001A81E4680
:103E8800904601F06DF807F8260C0121D9E902A047
:103E9800A7F1260200F01F00022307F8255C01FAAB
:103EA80000FB01A84146CAF888B0FEF701FA366857
:103EB8000020CAF884B006F108043061306840F088
:103EC800010030602068C00709D12068C00704BF1E
:103ED80020685FEAC07002D12068C007F2D0B068DD
:103EE80017F8261C40F00100B060306889F81110FE
:103EF80020F00100306041F20120ADF8040001A873
:103F080001F02EF807F8260C01A8A7F12602414671
:103F1800022307F8255CCAF888B0FEF7C9F9002023
:103F2800CAF884B03061306840F001003060206821
:103F3800C00709D12068C00704BF20685FEAC070C5
:103F480002D12068C007F2D0B06817F8261C40F0EC
:103F58000100B060306889F8111020F0010030606D
:103F680041F20130ADF8040001A800F0F9FF07F8AC
:103F7800260C01A8A7F126024146022307F8255C72
:103F8800CAF888B0FEF794F90020CAF884B0306106
:103F9800306840F0010030602068C00709D120680F
:103FA800C00704BF20685FEAC07002D12068C0075C
:103FB800F2D0B06817F8261C40F00100B0603068F5
:103FC80089F8111020F00100306041F20140ADF88D
:103FD800040001A800F0C4FF07F8260C01A8A7F107
:103FE80026024146022307F8255CCAF888B0FEF786
:103FF8005FF90020CAF884B03061306840F00100F1
:1040080030602068C00709D12068C00704BF206855
:104018005FEAC07002D12068C007F2D0B06817F814
:10402800261C40F00100B060306889F8111020F0BB
:104038000100306041F20150ADF8040001A800F021
:104048008FFF07F8260C01A8A7F126024146022394
:1040580007F8255CCAF888B0FEF72AF90020CAF8E4
:1040680084B03061306840F0010030602068C007DB
:1040780009D12068C00704BF20685FEAC07002D178
:104088002068C007F2D0B06817F8261C40F001007D
:10409800B060306889F8111020F00100306041F2FA
:1040A8000160ADF8040001A800F05AFF07F8260CDB
:1040B80001A8A7F126024146022307F8255CCAF8A1
:1040C80088B0FEF7F5F80020CAF884B0306130688F
:1040D80040F0010030602068C00709D12068C0079F
:1040E80004BF20685FEAC07002D12068C007F2D020
:1040F800B06817F8261C40F00100B060306889F8F5
:10410800111020F00100306003B0BDE8000FF0BDD1
:10411800F0B503AF2DE9000F85B08346080647D0F8
:104128005FFA81F9B9F1060F45D2BC689846164680
:10413800B9F1020F43D240F60130ADF80C0003A8E4
:1041480000F00EFFDBE902A101F01F0107F82A0CBD
:104158008BF81100012000FA01F53279336803A8C1
:10416800CAF88850414607F8252CA7F12A0247F8D3
:10417800293C0623FEF79CF826680020CAF88450DC
:104188003061306840F001003060B068C00709D184
:10419800B068C00704BFB0685FEAC07002D1B068F9
:1041A800C007F2D0B06840F00100B060306845E068
:1041B80001208BF81C0005B0BDE8000FF0BD0846D3
:1041C80000F0C4FEC0B235788DF80D0003A80126B2
:1041D8008DF80C6000F0C4FE07F82A0CA7F12A023B
:1041E800DBE902A0414600F01F0007F8295C022322
:1041F80006FA00F503A8CAF88850FEF759F82668A9
:104208000020CAF884503061306840F00100306006
:10421800B068C00709D1B068C00704BFB0685FEADA
:10422800C07002D1B068C007F2D0B06817F82A1C75
:1042380040F00100B06030688BF8111020F00100E8
:1042480030604FF40070ADF80C0003A800F088FE51
:10425800FF2107F82A0C03A8A7F12A0207F8291C4E
:1042680041460223CAF88850FEF722F80020CAF80F
:1042780084503061306840F001003060B068C00799
:1042880009D1B068C00704BFB0685FEAC07002D146
:10429800B068C007F2D0B06817F82A1C17F8292CA4
:1042A80040F00100B06030688BF8111020F0010078
:1042B800306040F20120ADF80C00012000FA09F04E
:1042C80042EA000403A800F04BFE07F82A0C03A8F2
:1042D800A7F12A024146022307F8294CCAF8885058
:1042E800FDF7E6FF0020CAF884503061306840F0DE
:1042F80001003060B068C00709D1B068C00704BFCA
:10430800B0685FEAC07002D1B068C007F2D0B06888
:1043180017F82A1C40F00100B06030688BF81110C3
:1043280020F00100306005B0BDE8000FF0BDF0B529
:1043380003AF2DE9000784B0814640F60120ADF8AF
:10434800080002A81C4690460D4600F009FED9E96F
:1043580002A101F01F0107F8260C01202A7900FAB2
:1043680001F62B68CAF8886002A807F8212CA7F183
:10437800260247F8253C41460623FDF799FF2468A5
:104388000020CAF884602061206840F001002060A5
:10439800A068C00709D1A068C00704BFA0685FEA89
:1043A800C07002D1A068C007F2D0A06840F0010038
:1043B800A060206820F00100206041F20100ADF803
:1043C800080002A800F0CCFD07F8260CA7F1260289
:1043D80089F81100062328682979CAF8886047F8FF
:1043E800250C02A807F8211C4146FDF761FF0020B3
:1043F800CAF884602061206840F001002060A0684D
:10440800C00709D1A068C00704BFA0685FEAC070F0
:1044180002D1A068C007F2D0A06840F00100A060F7
:10442800206820F00100206004B0BDE80007F0BD5E
:10443800F0B503AF2DE9000784B00546067E0120DC
:10444800144689464FF0010800F0D1FD064203D01A
:1044580004B0BDE80007F0BD012000F0C8FD064328
:1044680001A82E76ADF8048000F07AFD07F8260C36
:10447800A7F12602D5E902A0494600F01F0007F877
:10448800256C022308FA00F602A8CAF88860FDF72E
:104498000FFF0020CAF884602061206840F0010006
:1044A8002060A068C00709D1A068C00704BFA06841
:1044B8005FEAC07002D1A068C007F2D0A06817F800
:1044C800261C40F00100A0602068697420F00100FB
:1044D800206040F2DC502061206840F0010020603C
:1044E800A068C00709D1A068C00704BFA0685FEA38
:1044F800C07002D1A068C007F2D0A06840F00100E7
:10450800A060206820F00100206004B0BDE800072A
:10451800F0BDF0B503AF2DE9000F8FB0D1E9005B16
:10452800D1F808A006F04DFB8046F02006F04DFBC0
:1045380006F047FB0646F02006F047FB4FF4B8505C
:10454800ADF8100004A800F00BFDFF218DF8340031
:104558008DF835100124D5E902010DAA01F01F01DB
:10456800022304FA01F1C0F8881041F2B87104A8D6
:10457800C2F22001FDF79CFED5E9021241F2C07992
:1045880002F01F02C2F22009D9F8000004FA02F270
:10459800C1F8842000210161016841F00101016036
:1045A8008168C90709D18168C90704BF81685FEAC2
:1045B800C17102D18168C907F2D0816841F0010157
:1045C800816001689DF835309DF8342021F00101A3
:1045D8000160D8076A7440F01F824FF0FF30CDE9C0
:1045E8000268CDF82D00CDF82900CDF82500CDF8CA
:1045F8002100CDF81D00CDF81900CDF81500CDF833
:10460800110040F23E20C2F2200000F0A9FCD5E9DA
:104618000212012402F01F02052304FA02F2C1F873
:10462800882041F2B8718DF810000DA804AAC2F2D2
:104638002001FDF73DFED5E9021202F01F02D9F86C
:10464800000004FA02F2C1F8842000210161016827
:1046580041F0010101608168C90709D18168C90772
:1046680004BF81685FEAC17102D18168C907F2D0CD
:10467800816841F001018160016821F00101016058
:104688009DF8100068740620DDF8118000F0AFFC7A
:10469800064640F20170ADF8100004A800F060FC76
:1046A8008DF834000124D5E90201022301F01F012D
:1046B8008DF835600DAE04FA01F1C0F8881041F2AA
:1046C800B87104A8C2F220013246FDF7F1FDD5E920
:1046D800021202F01F02D9F8000004FA02F2C1F82F
:1046E800842000210161016841F0010101608168B5
:1046F800C90709D18168C90704BF81685FEAC17128
:1047080002D18168C907F2D0816841F00101816056
:1047180001689DF8342021F00101016048F29050B1
:104728006A74CAF80080C2F200000168C81E18BF87
:104738000120032988BF4FF0FF30411C1CBFC0B2C5
:1047480000281AD1012140F268220020C2F220027A
:1047580005918A23CDE9066149F67B01049240F26E
:104768008022C0F200010890009004A8CDE90DA1B4
:10477800C2F22002032106F03FFB002101268BF83C
:104788000010D5E9002303F01F03D9F8000006FA4A
:1047980003F3C2F888300161016841F0010101604A
:1047A8008168C90709D18168C90704BF81685FEAC0
:1047B800C17102D18168C907F2D0816841F0010155
:1047C8008160016821F001010160687E002841D004
:1047D80040F24420C2F2200000F0C2FBD5E90212E8
:1047E800012402F01F02022304FA02F2C1F8882011
:1047F800FF218DF8351041F2B8718DF8340004A806
:104808000DAAC2F22001FDF753FDD5E9021202F00C
:104818001F02D9F8000004FA02F2C1F8842000212E
:104828000161016841F0010101608168C90709D18E
:104838008168C90704BF81685FEAC17102D18168D4
:10484800C907F2D0816841F001018160016821F057
:104858000101016000202C7E4FF0000800F0C7FB2A
:1048680024EA000604A801242E76ADF8104000F0D2
:1048780077FB8DF834000DAAD5E90201022301F077
:104888001F018DF8356004FA01F1C0F8881041F273
:10489800B87104A8C2F22001FDF70AFDD5E9021299
:1048A80002F01F02D9F8000004FA02F2C1F88420CD
:1048B800C0F81080016841F0010101608168C907F2
:1048C80009D18168C90704BF81685FEAC17102D153
:1048D8008168C907F2D0816841F0010181600168EF
:1048E8009DF8342021F0010101604FF400706A74D2
:1048F800ADF8100004A800F033FBFF218DF8340058
:104908008DF835100124D5E902010DAA01F01F0127
:10491800022304FA01F1C0F8881041F2B87104A822
:10492800C2F22001FDF7C4FCD5E9021202F01F0211
:10493800D9F8000004FA02F2C1F8842000210161CC
:10494800016841F001010160DDE902688168C90779
:1049580009D18168C90704BF81685FEAC17102D1C2
:104968008168C907F2D0816841F00101816001685E
:104978009DF835309DF8342021F00101016040F2A6
:104988000120ADF8100004A86A7443F0010400F097
:10499800E7FA8DF834000DAAD5E90201022301F0E7
:1049A8001F018DF83540012404FA01F1C0F8881080
:1049B80041F2B87104A8C2F22001FDF779FCD5E9EB
:1049C800021202F01F02D9F8000004FA02F2C1F83C
:1049D800842000210161016841F0010101608168C2
:1049E800C90709D18168C90704BF81685FEAC17135
:1049F80002D18168C907F2D0816841F00101816064
:104A080001689DF8342021F0010101606A74DAF828
:104A180000000130CAF80000304606F0D6F84046DB
:104A280006F0D3F80FB0BDE8000FF0BDF0B503AF46
:104A38002DE9000F93B0D1E90060CC680490886834
:104A4800039006F0BEF80690F02006F0BEF806F0D7
:104A5800B8F80590F02006F0B8F805208DF81C008D
:104A68004FF0FF30CDF83D00CDF83900CDF83500D6
:104A7800CDF83100CDF82D00CDF82900CDF825006E
:104A880007A800F06DFAD6E90212012502F01F020C
:104A9800052305FA02F2C1F8882008AA21688DF8D2
:104AA800200011A8CDF8211041F2B871C2F22001FE
:104AB800FDF7FEFB41F2C074D6E9021202F01F02B4
:104AC800C2F22004206805FA02F2C1F8842000210D
:104AD8000161016841F0010101608168C90709D1DC
:104AE8008168C90704BF81685FEAC17102D1816822
:104AF800C907F2D081684FF001094FF0000A41F070
:104B080001018160016821F0010101609DF8200028
:104B18007074D6E9000101F01F0109FA01F1C0F82B
:104B2800841007E0816841F001018160016821F08B
:104B38000101016040F23C20C2F2200000F010FAAE
:104B4800D6E90212012302F01F0209FA02F2C1F8A3
:104B5800882041F2B8718DF8440008A811AAC2F261
:104B68002001FDF7A5FBD6E90212254602F01F0237
:104B7800206809FA02F2C1F88420C0F810A0016880
:104B880041F0010101608168C90709D18168C9073D
:104B980004BF81685FEAC17102D18168C907F2D098
:104BA800816841F00101816001689DF844B021F0FD
:104BB80001010160052086F811B000F018FA80465E
:104BC800042000F014FA40EA080000EA0B0000068E
:104BD80015D128682C46C0F810A0016841F00101E1
:104BE80001608168C9079DD18168C90704BF8168D0
:104BF8005FEAC17196D18168C907F2D092E7D6E918
:104C080000014FF0010901F01F0109FA01F1C0F894
:104C1800881040F20170ADF8200008A800F0A0F953
:104C280070218DF844008DF845100DF14408D6E93F
:104C38000201022301F01F01424609FA01F1C0F8FE
:104C4800881041F2B87108A8C2F22001FDF730FBC4
:104C5800D6E902122C4602F01F02286809FA02F26D
:104C6800C1F8842000210161016841F0010101605F
:104C78008168C90709D18168C90704BF81685FEAEB
:104C8800C17102D18168C907F2D0816841F0010180
:104C9800816001689DF8445021F001010160042001
:104CA800757400F0A4F9284000066BD040F2442047
:104CB800C2F2200000F054F9D6E90212012502F0F0
:104CC8001F02022305FA02F2C1F88820FF218DF89D
:104CD800451041F2B8718DF8440008A811AAC2F233
:104CE8002001FDF7E5FAD6E9021202F01F0220685A
:104CF80005FA02F2C1F8842000210161016841F03F
:104D0800010101608168C90709D18168C90704BF29
:104D180081685FEAC17102D18168C907F2D08168F0
:104D280041F001018160016821F00101016048F250
:104D38009050C2F200000168C81E18BF0120032964
:104D480088BF4FF0FF30411C1CBFC0B2002854D1AF
:104D580001210020099140F2B021C2F2200140F265
:104D68008022089140F24821C2F220010C900B9059
:104D7800C2F22002009008A80A9103219B2306F0A2
:104D88003BF83AE048F29050C2F200000168C81EB1
:104D980018BF0120032988BF4FF0FF30411C1CBFFA
:104DA800C0B200281BD1012140F2C0220991002085
:104DB800CDE90A8149F67B01C2F22002C0F2000166
:104DC800089240F280221291C2F22002039997239E
:104DD8000C90009008A81191032106F00DF8049991
:104DE800012041F2C072C2F22002087041F2B8718B
:104DF800C2F220013046FEF7F5FE059805F0E5FE03
:104E0800069805F0E2FE13B0BDE8000FF0BDF0B55E
:104E180003AF2DE9000F81B082460E6805F070FEE1
:104E2800DAF800402168421A18BF0122401A4FF0F0
:104E3800000048BF012002EA0005012D06D1DAF87A
:104E48000400D0F800B0DBF8000020B1284601B01B
:104E5800BDE8000FF0BDD6E9001009688847814613
:104E6800DBF800008846266800281EBFC168DBF80A
:104E7800040088470020DAF80840CBF810008BF8C7
:104E88000C00CBE90098CBF8086005F07BFEBFF377
:104E98005F8F216841B18B68DBF80820D31A12D0E4
:104EA800002B10D5CBF81010C4F800B005F075FE33
:104EB800DAF80C00C0F800B005F03BFE284601B057
:104EC800BDE8000FF0BDD1F810C0BCF1000F30D024
:104ED800DCF80830D31A07D0002B05D50B46CBF8E1
:104EE80010C0C3F810B026E0DCF81030614600E0CE
:104EF8000B69F3B19E68961B01D0002E16D4196970
:104F0800B1B18E68961B01D0002E0DD40B6983B108
:104F18009E68961B01D0002E08D4196941B18E688D
:104F2800961BE5D0002EE3D58C46D8E79C46D5E7FE
:104F38001946C1F810B005F030FEDAF80C00C0F8D8
:104F480000B0284601B0BDE8000FF0BD411ECAB24E
:104F58000A21052A38BF00F10A0108467047D4D44F
:104F680001461F200A78DFE802F00709220D0F1119
:104F7800131517191B1F210048787047487840F00F
:104F8800200070475020704761207047A02070476C
:104F9800E1207047E2207047E320704760207047A7
:104FA800487860F057007047B0207047FF2070477E
:104FB80000780230C0B270470078C9B2032918BF20
:104FC8000020704700782023C9B2C0F208030629E0
:104FD8004FEAC0024FF0000008BF23FA02F0704702
:104FE80002780020C9B2062908BF5000704700F0B7
:104FF8000700012101FA00F07047F0B503AF4DF842
:1050080004BD0E4600211546044602F0DCFF284682
:1050180040F2E24102F0DEFF304602F09FFF40F22C
:1050280028352146C2F2200500222846366802F0BB
:105038001BFFA81C2146002202F016FF281D21464E
:10504800002202F011FFA81D2146002202F00CFFE9
:1050580005F108002146002202F006FF05F10A00CA
:105068002146002202F000FF05F10C002146002233
:1050780002F0FAFE05F10E002146002202F0F4FECD
:1050880005F110002146002202F0EEFE05F11200A3
:105098002146002202F0E8FE05F114002146002214
:1050A80002F0E2FE05F116002146002202F0DCFEC5
:1050B80005F118002146002202F0D6FE05F11A007B
:1050C8002146002202F0D0FE05F11C0021460022F4
:1050D80002F0CAFE05F11E002146002202F0C4FEBD
:1050E80020684169890107D5416921F00071416152
:1050F800204602F059FF20684169012221F06051E1
:1051080041612068816962F30D318161204602F0B6
:105118004BFF2068416941F000714161204602F06F
:1051280043FF4FF480503060642030604FF40050EB
:1051380070603068002809D4306800285CBF306887
:10514800002803D43068B0F1FF3FF2DC2068012268
:10515800016962F302010161204602F025FF20681F
:10516800416921F4E0514161204602F01DFF2068A9
:10517800816941F4402181612068416921F0007111
:105188004161204602F010FF206840F2BC35C2F2AF
:1051980020050022416941F44071416128462146B9
:1051A80002F062FEA81C2146002202F05DFE281DC6
:1051B8002146002202F058FEA81D2146002202F0D6
:1051C80053FE2068022640F2B4350022C2F22005C0
:1051D800816B66F3D84181632068816B41F480213B
:1051E80081632846214602F03FFEA81C2146002282
:1051F80002F03AFE281D2146002202F035FEA81DC5
:105208002146002202F030FE206840F26835032271
:10521800C2F22005816966F3051181612068816900
:1052280062F39C61816128462146002202F01CFE3F
:10523800A81C2146002202F017FE281D2146002244
:1052480002F012FEA81D2146002202F00DFE05F113
:1052580008002146002202F007FE2068172240F2CB
:105268009435C2F22005C16962F30501C161206865
:105278000022C16941F04001C1612846214602F07F
:10528800F3FDA81C2146002202F0EEFD281D214650
:10529800002202F0E9FDA81D2146002202F0E4FDEB
:1052A80005F108002146002202F0DEFD05F10A00A2
:1052B8002146002202F0D8FD05F10C00214600220B
:1052C80002F0D2FD05F10E002146002202F0CCFDCD
:1052D800206840F2C435C2F220050322416A41F039
:1052E800400141622068416A66F30501416228462F
:1052F800214602F0B9FDA81C2146032202F0B4FDA4
:10530800281D2146032202F0AFFDA81D21460322D5
:1053180002F0AAFD05F108002146032202F0A4FDCF
:1053280005F10A002146032202F09EFD05F10C005A
:105338002146032202F098FD05F10E0021460322C2
:1053480002F092FD05F110002146032202F08CFDC7
:1053580005F112002146032202F086FD05F1140032
:105368002146032202F080FD05F1160021460322A2
:1053780002F07AFD05F118002146032202F074FDBF
:1053880005F11A002146032202F06EFD05F11C000A
:105398002146032202F068FD05F11E002146032282
:1053A80002F062FD05F120002146032202F05CFDB7
:1053B80005F122002146032202F056FD05F12400E2
:1053C8002146032202F050FD05F126002146032262
:1053D80002F04AFD05F128002146032202F044FDAF
:1053E80005F12A002146032202F03EFD05F12C00BA
:1053F8002146032202F038FD05F12E002146032242
:1054080002F032FD05F130002146032202F02CFDA6
:1054180005F132002146032202F026FD05F1340091
:105428002146032202F020FD05F136002146032221
:1054380002F01AFD05F138002146032202F014FD9E
:1054480005F13A002146032202F00EFD05F13C0069
:105458002146032202F008FD05F13E002146032201
:1054680002F002FD05F14000214603225DF804BB6D
:10547800BDE8F04002F0F8BCF0B503AF4DF8048D7C
:1054880084B00468216879BBD0E901124FF0FF337A
:10549800C06823600968D0F8008004F120001678FD
:1054A80004F045FE01ADCDE90101284604F059FE9E
:1054B800284604F09DFE002E18BF012628463146D6
:1054C80004F0A2FE2846012104F063FE2846414666
:1054D80004F06DFE284604F050FE2068013020607C
:1054E80004B05DF8048BF0BD40F2784040F2084308
:1054F800C2F2200003AA009040F28430C2F22000D9
:10550800C2F22003102105F0E4FDFEDE704770476B
:105518007047084640F2A061C2F22001122206F04C
:1055280051B9F0B503AF2DE9000FB3B048F230110F
:10553800044648F24850C2F20001C2F2000001607D
:1055480001208DF8100005F043FB46F2000541F2FA
:105558003810C2F200052918BFF35F8F51E8000F19
:1055680040F0004241E80023002BF7D1B0F1FF3FA3
:10557800BFF35F8F40F3118245F2A8000122C2F207
:105588000000BFF35F8F00F5C070D0E84F1FC0E880
:10559800432F002BF9D103940029BFF35F8F40F00C
:1055A800088245F2A8004FF4C071C2F2000003F06F
:1055B8000DFFCDE9300149F20000C4F20D0005F5F8
:1055C80086512F900020C4F22E000DF19C0B2E90D6
:1055D80041F2381028442D9006204FF0000ACDE9FA
:1055E8002A0105F58051299101212C904FF00109DC
:1055F800CDE927505846ADF8C8A002F04FFDBBE8EA
:105608007E000DF1140808F104007EC09BE87E00BE
:105618007EC040469DF810108DF84890CDF814A033
:1056280003F0D6FE03999DF848002A9104A9299110
:1056380026A9CDF898A0CDE9278118B127A8FFF7AA
:105648001BFF0DE005F0B8FA044605F0ABFA05F0CB
:10565800BFFA27A8FFF710FFE00708BF05F0A4FA74
:1056680048F2000AB8E85C00C2F2000A0AF10C0B22
:1056780040F2014158465CC0B8E87C007CC098E81C
:105688007C007CC000200322CAF844008023CAF8AA
:1056980000004FF0FF30AAF804100821CAF80800EB
:1056A800FF20CDE90021802102905846002204F015
:1056B800CDF80D46DAF80810C00701F10101CAF863
:1056C800081040F08281DAF80000002840F0848158
:1056D8009AF8046000200029CAF8000006F10102C7
:1056E8008AF8042040F054814FF0FF310222CAF8B2
:1056F80008104021CDE900210021029058460022DF
:10570800002304F0A3F80C46DAF80810C00701F1EA
:105718000101CAF8081040F06481002940F038817E
:105728004FF0FF304FF04009CAF8080002204FF050
:105738000008CDE900095846802100228023CDF8D1
:10574800088004F083F8DAF80820C00702F10102A3
:10575800CAF8082040F0488148F24C504FF40073D2
:10576800C2F20000002A80F8261040F2FF3180F8CB
:105778002D600AF14406A0F80F104FF0080181814E
:1057880081804FF4FA51A0F82E8080F82C80A0F880
:105798002730A0F824900662A0F81B308476A0F881
:1057A800189046618573866080F80680016040F035
:1057B800EF804FF0FF304021CAF808000020CDE903
:1057C80000010021029058460122002304F03EF80F
:1057D8008946DAF80810C00701F10101CAF8081073
:1057E80040F01681002940F0D3804FF0FF3040216F
:1057F800CAF808000020CDE900018021029058462F
:105808000122802304F022F88846DAF80810C0073D
:1058180001F10101CAF8081040F00181DAF800002E
:10582800002840F010814FF0FF300029CAF800002E
:1058380040F00E81CAF80800584604F092F8DAF8E9
:1058480008000130CAF80800C0F007814FF0FF30A7
:1058580005ADCAF80800E81CBFF35F8FCAF844B06A
:105868008021BFF35F8F06F0BDFB5846812103F00E
:1058780006FE5846012103F002FE5846822103F035
:10588800FEFD5846022103F0FAFD5846832103F035
:10589800F6FD5846032103F0F2FD5846842103F033
:1058A800EEFD5846042103F0EAFD5846852103F031
:1058B800E6FD5846052103F0E2FD5846862103F02F
:1058C800DEFD5846062103F0DAFD5846872103F02D
:1058D800D6FD5846072103F0D2FD48F24804DDE919
:1058E8002701C2F20004BDF8A4206281BDF8982007
:1058F800C4F806109DF89A10C4F8020004F12100BB
:10590800A4F815208322E175294606F0A0F94FF086
:10591800806140F2B262C4E937B13221C4F8D610CE
:105928000221C4F20001C2F22002C4F8D2101021F0
:10593800A4F8D01045F62401C2F2DD710020C4F8A5
:10594800CC100921C4E92F21402117F8D52C37F8AC
:10595800D73C84F8E400C4F8C400C4E92B00C4F8B8
:10596800B400C4F8A400A4F81F0084F81E80A18322
:10597800A661A4F8130084F812902182E6602080C2
:10598800A4F8E53084F8E72033B0BDE8000FF0BD97
:1059980040F2BC50C2F2200063E040F2884040F27E
:1059A8000C52C2F22000C2F220021F2105F0A2FA16
:1059B800FEDE40F2083040F21C52C2F22000C2F271
:1059C8002002202105F096FAFEDE40F20C608DF8E8
:1059D8001450C2F220000DE040F2FC50C2F2200048
:1059E8003FE08DF8144001E08DF8141040F2AC50FF
:1059F800C2F2200040F23C53009040F22C5005AA1D
:105A0800C2F22000C2F220030F2105F062FBFEDE85
:105A180040F290608DF81490C2F2200005E040F248
:105A280080608DF81480C2F2200040F23C53009050
:105A380040F2C82005AAC2F22000C2F220032021A9
:105A480005F047FBFEDE40F2EC50C2F2200008E011
:105A580040F2DC50C2F2200003E040F2CC50C2F227
:105A6800200040F20843009040F2843005AAC2F2B8
:105A78002000C2F22003102105F02BFBFEDEF0B55A
:105A880003AF2DE9000F81B045F284014FF0010CFE
:105A9800C2F20001BFF35F8FD1E84F2FC1E843CFB7
:105AA800002BF9D1BFF35F8F002A01BF48F2000134
:105AB800C4F20D010022C4F22F0201BF02F5542CDA
:105AC80002F5502E02F54C28A1F5004401BFA1F5BE
:105AD800003501F5F61601F5F413C0E9683601BF83
:105AE800C0E96A54C0E96C8EC0E96EC101F5005E78
:105AF80001BF01F5805640F2040CC4F22E0C01F5EA
:105B0800021401BF0CF5FE7501F5004300F5C078DD
:105B180088E8380001BF00F5C67383E81210C0E9B1
:105B2800666EA1F5404C01BF01F5881E01F5861887
:105B380001F5841401F5821301BF01F5003602F561
:105B48001025C0E9585600F5B47501BF85E81A411B
:105B5800C0F87CC1A1F5804C02F51C2E01BF02F5EE
:105B6800182802F51424A1F5E03301F5282601BF11
:105B780001F5EE15C0E9505600F5A47585E8184101
:105B880001BFC0E9562C02F5782802F5742902F500
:105B9800702401BF02F56C234CF2000CC4F2070C10
:105BA8000CF5004601BF01F5E03E01F58E15C0E990
:105BB800485EC0E94A6101BF00F5987585E818029A
:105BC800C0F83C8101F5482801BF01F5442901F5D9
:105BD800402A01F53C2B01F5382301BF01F5342497
:105BE80001F5302501F52C26C0E9406501BFC0E963
:105BF8004243C0E944BAC0E9469802F5302801BFDB
:105C080002F52C2902F5282A02F5242B02F5861321
:105C180001BF02F5841402F5821502F58016C0E969
:105C2800386501BFC0E93A43C0E93CBAC0E93E98CB
:105C380001F5F01801BF01F59219A1F5503AA1F547
:105C4800403BA1F5303301BF01F5901401F58C15E7
:105C580001F58A16C0E9306501BFC0E93243C0E9E1
:105C680034BAC0E9369844F2000B01BFC4F2002BE5
:105C78000BF500490BF5804A4FF0844801BF01F548
:105C88006C2601F5682401F56425A1F5C03301BF30
:105C9800C0E9283500F1A80383E85009C0E92EA916
:105CA80001BF01F5602801F5E61901F5E81AA1F52B
:105CB800203601BF0BF5E03301F5582401F55425D2
:105CC800C0E9205401BF00F1880484E84804C0E911
:105CD800259EC0F89C8001BFA1F5103E01F5FE1875
:105CE80001F5001902F5642A01BF02F5602302F5E7
:105CF8005C2602F5582501F5A03401BF00F1600BC0
:105D08008BE87000C0E91B3AC0E91D9801BFC0F8D4
:105D18007CE001F5803E02F540480CF5804901BF62
:105D280001F5804A01F5F21344F20806C4F20906A7
:105D380001BF06F1100506F10804C0E91064C0E9C6
:105D4800125301BFC0E914A9C0E9168E0CF5C03E74
:105D580001F5103801BF01F5801901F57C2401F522
:105D6800782302F57C2601BF02F54825C0E90856CC
:105D780000F1280585E8180201BFC0E90D81C0F8C7
:105D88003CE002F5442E02F50C2601BF01F5D215C0
:105D980001F5242402F54022A1F5803301BFA1F5C5
:105DA800A031C0E90013C0E9022C103001BF80E81F
:105DB800704001B0BDE8000FF0BD40F2BB6040F29A
:105DC8005472C2F22000C2F22002352105F04AF9CD
:105DD800FEDE80B56F4600F077FD80BD80B56F466A
:105DE8004EF20C1C4FF4003ECEF2000C44F2BC22E2
:105DF800CCF880E0C2F20002BFF35F8FD0E9003137
:105E08008068C2E900319060BFF35F8FCCF800E191
:105E1800CCF800E080BDF0B503AF4DF8048D86B036
:105E280045F28808C2F20008D8F8000028B106B088
:105E38005DF8048BBDE8F040004744F2BC20C2F294
:105E480000000068062832D100F08EFE00F08BFEBC
:105E5800039048F23010C2F20000012200F2124012
:105E6800BFF35F8FD0E84F1FC0E8432F002BF9D155
:105E78000029BFF35F8F58D148F230144FF4806186
:105E8800C2F20004204606F0B1F804F07BFE064694
:105E9800204600F029FC03A8FFF743FB44F20B70EF
:105EA800C0F2000000F04EFF0546304635E000F035
:105EB8005BFE00F058FE029048F23010C2F200007B
:105EC800012200F21240BFF35F8FD0E84F1FC0E8F5
:105ED800432F002BF9D1BFF35F8FC1BB48F23015B8
:105EE8004FF48061C2F20005284606F07FF804F0FE
:105EF80049FE44F2BC210446C2F20001284600F0E3
:105F0800C5FC08BB02A8FFF70CFB44F20B70C0F2FB
:105F1800000000F017FF0546204604F03EFEC8F8D2
:105F2800005006B05DF8048BF0BD49F20000C4F2E1
:105F38000D0005900020C4F22E00CDE9030040F6C4
:105F48001000C2F2200010E0204604F026FE49F2BC
:105F58000000C4F20D0005900020C4F22E00CDE927
:105F6800030040F60000C2F2200040F29073009057
:105F780040F2647003AAC2F22000C2F220032B216F
:105F880005F0A7F8FEDEFEE7F0B503AF4DF804BD57
:105F980084B0044690F834000E68D8B12068002810
:105FA80058D14FF0FF31204640F8201B314604F00D
:105FB800BEF8CDE9010101A804F00BF960B301AD09
:105FC800284604F015F9284604F003F90028F7D10B
:105FD800012626E004F0F0FD054604F0E3FD04F098
:105FE800F7FD2068B0BB4FF0FF31204640F8201B7A
:105FF800314604F09CF8CDE9010101A804F0E9F864
:10600800B8B101AE304604F0F3F8304604F0E1F8D8
:106018000028F7D1012611E001A804F098F880F0D3
:106028000106206801302060304604B05DF804BBEA
:10603800F0BD01A804F08BF880F00106206801305B
:106048002060E80708BF04F0AFFD304604B05DF8F3
:1060580004BBF0BD40F6900040F62003C2F22000D9
:1060680003AA009040F28430C2F22000C2F220035A
:10607800102105F02EF8FEDEF0B503AF4DF804BD93
:1060880084B0044690F834000E68E0B12068002817
:1060980040D14FF0FF31204640F8201B314604F034
:1060A80046F8CDE9010101A804F0C6F800281CBF94
:1060B8000DF1040004F03FF820680130206004B0BE
:1060C8005DF804BBF0BD04F077FD054604F06AFDF9
:1060D80004F07EFD2068E8B94FF0FF31204640F813
:1060E800201B314604F023F8CDE9010101A804F092
:1060F800A3F800281CBF0DF1040004F01CF8206868
:1061080001302060E80708BF04F04EFD04B05DF8D8
:1061180004BBF0BD40F6900040F62003C2F2200018
:1061280003AA009040F28430C2F22000C2F2200399
:10613800102104F0CEFFFEDEF0B503AF4DF804BD2C
:1061480084B0044690F834000D68A8B12068A0BB5C
:106158004FF0FF302946206004F1200003F0E7FFEC
:10616800CDE9010101A803F0FCFF2068013020609F
:1061780004B05DF804BBF0BD04F01EFD064604F053
:1061880011FD04F025FD2068B8B94FF0FF3029460D
:10619800206004F1200003F0CAFFCDE9010101A845
:1061A80003F0DFFF206801302060F00708BF04F02B
:1061B800FBFC04B05DF804BBF0BD40F6900040F66F
:1061C8002003C2F2200003AA009040F28430C2F2F9
:1061D8002000C2F22003102104F07BFFFEDE002025
:1061E80070477047082070477047006804F097BFF1
:1061F8000A46D0E90031184605F0EABA70477047F8
:10620800F0B503AF4DF804BD84B000688029066876
:106218004FF00000029003D28DF80810012434E0FA
:10622800B1F5006F09D20224084664F39F108DF877
:106238000900C02040EA911025E002200A4660F3D8
:106248009F12B1F5803F0DD28DF80A208A0960F3BC
:106258009F12E02040EA11308DF809208DF80800DF
:10626800032412E08DF80B208A0960F39F128DF841
:106278000A200A0B042460F39F12880C1E218DF853
:10628800092061F3DF008DF8080004F07BFC054667
:10629800B068B8B94FF0FF3006F10C02B06002A840
:1062A800214600F064FC0446B0680130B06028461E
:1062B80004F073FCE0B2033818BF012004B05DF8A5
:1062C80004BBF0BD40F6C41040F62003C2F2200023
:1062D80003AA009040F28430C2F22000C2F22003E8
:1062E800102104F0F6FEFEDEF0B503AF4DF8048D84
:1062F80088B0D0F800C002AA91E8714140F61811A0
:106308001346C2F2200183E8714101A8CDF804C008
:1063180004F00AFF08B05DF8048BF0BDF0B503AFD8
:106328004DF8048D82B0006815460E46046804F0E6
:1063380029FC8046A068B8B94FF0FF3004F10C0280
:10634800A0603046294600F012FC0546A0680130DE
:10635800A060404604F021FCE8B2033818BF0120D1
:1063680002B05DF8048BF0BD40F6C41040F620037F
:10637800C2F2200001AA009040F28430C2F220004C
:10638800C2F22003102104F0A4FEFEDEF0B503AF34
:106398004DF8048D0546507A012802BF1646107A3A
:1063A800012802D05DF8048BF0BD95F82C008846D2
:1063B800748803F071FFC0B28442F3D1B079212808
:1063C80004BFB088072830D0B8F8000040F00200B9
:1063D8000628E7D1D8F80C000921A8F800100068B1
:1063E800BFF35F8FA8B198F81210012203F0C2FC26
:1063F800D8F818000068BFF35F8F00281FBF98F80F
:106408001E1001225DF8048BBDE8F04018BF03F0B0
:10641800B1BC40F6A42040F62C32C2F22000C2F2F1
:106428002002222104F01EFEFEDEB8F80000042837
:10643800B8D1B8F80600002329796A790728C8F87E
:10644800AC30AB792E684FF00105A8F80050C8F8B9
:10645800246088F8283088F8292088F82A1028BF6E
:106468000720C8F8B00040465DF8048BBDE8F0404E
:1064780001F033B9F0B503AF4DF8048D84B005468B
:10648800507A012802BF1646107A012803D004B0BA
:106498005DF8048BF0BD95F82C008846748803F0ED
:1064A800FBFEC0B28442F2D1B07988B1202814D062
:1064B800222847D13078B8F8001000F0010285F89A
:1064C8002E20C0F3400085F82F000629DFD121E0F7
:1064D800B8F800000628DAD11CE0D8F8B000812806
:1064E80062D206282ED998F82800D8F824102960F6
:1064F80001F010FC98F82910C0B2A871084601F004
:106508000EFC98F82A20C0B2B8F8001068712A71F9
:106518000629BCD1D8F818000168BFF35F8FB9B35A
:1065280098F81E20002040F60043009002A8C2F20E
:10653800200303F09BFA0820A8F8000004B05DF8D7
:10654800048BF0BDB8F8000040F0020006289ED188
:10655800D8F80C000921A8F800100068BFF35F8F75
:10656800B0B198F81210012203F004FCD8F8180012
:106578000068BFF35F8F00281FBF98F81E10012224
:1065880004B05DF8048B1CBFBDE8F04003F0F2BB1B
:1065980040F6A42040F62C32C2F22000C2F22002BB
:1065A800222104F05FFDFEDE40F608128021C2F2CF
:1065B800200205F033F9FEDEF0B503AF2DE9000B3C
:1065C80084B090F82C60814600250220CDE90005B2
:1065D8000C46084631460222022303F0CCFFC0B223
:1065E80008286ED12046314602220223009504F085
:1065F80018F8C0B2082864D140F630122046C2F21A
:1066080020022421032303F053FEC0B2082858D1E6
:1066180040F633122046C2F220022421022303F05E
:1066280047FEC0B208284CD1304603F035FE99F831
:106638002D800646404603F02FFE07F81C0C062066
:10664800A7F11E0207F81E0C20462421032307F891
:106658001D6C03F02DFEC0B2082832D1404603F06D
:106668001BFE07F8190C0120A7F11B0227F81B0CC9
:1066780020462421032303F01BFEC0B2082820D1A2
:1066880009F10801204600F029F9C0B2082818D1FC
:1066980000204146009020460A22002303F0C1FF53
:1066A800C0B208280DD109F12001204600F016F9E2
:1066B800C0B2082805D109F11401204600F00EF9EE
:1066C800C0B204B0BDE8000BF0BDD0B502AF82B0D7
:1066D8000446684601F028FBDDE90001C4E9000131
:1066E8000020E08502B0D0BD45F29C01C2F2000155
:1066F80088600120BFF35F8F08707047F0B503AF63
:106708002DE9000748F29052D1F80080C2F2000249
:106718001368B8EB030218BF0122984538BF4FF041
:10672800FF32531C1CBFD2B2002A29D142685AB387
:1067380000680025D1E9019A061D02EB4200840099
:1067480005E00C3C06F10C0605F1010518D030688F
:106758008245F6D156F8040C4946524605F019FB15
:106768000028EED1706800218045A0F10600B0FA3B
:1067780080F098BF012140090843BDE80007F0BD3B
:106788000020BDE80007F0BD0120BDE80007F0BD0E
:10679800F0B503AF2DE9000F93B0009048F2905088
:1067A800C2F200008A46D1F820900168B9EB0100D6
:1067B80018BF0120894538BF4FF0FF30411C1CBF6E
:1067C800C0B2002822D10099486818B3096800EBC4
:1067D8004000DAE909B54FF000080C1D860005E015
:1067E8000C3E04F10C0408F101080FD02068854222
:1067F800F6D154F8040C59462A4605F0CAFA00287E
:10680800EED16068062818BF814505D913B0BDE8E8
:10681800000FF0BDDAE909B5009840F618110190AB
:1068280001A8029043F63B70C0F200000DAA089040
:106838000CA8079043F64170C0F20000C2F2200194
:1068480006900AA8059048F69320C0F20000CDF8FB
:106858002490049009A803900AF12C000C900020C1
:1068680011900320109003A80F9004200E9040F67A
:106878003C10C2F22000CDE90AB50D9002A804F040
:1068880053FC13B0BDE8000FF0BD7047D0B502AFA0
:106898000C4645F28C024968C2F20002A3684FF028
:1068A800000C82E80A1040F6E011C2F22001D06024
:1068B800104604F058FA002801BF216848F29052A7
:1068C800C2F200021160D0BD40F630120021C2F2BF
:1068D80020020523C0E9003281607047F0B503AF9C
:1068E8004DF8048D8C46816881B3C36841698B4239
:1068F80049D20269D0F818E0D45C0134D4540EF1BE
:1069080002038B421ED80EF58074A14238BF0C4694
:106918009C4248D3E41A052C14D39CF80640BCF8D2
:106928000450D45413440EF107049CF808608C42B8
:106938009CF807805E704FEA15269D7083F80480E6
:10694800DE7007D902205DF8048BF0BD07205DF8E2
:10695800048BF0BD8E451ED2072302F80E300EF1CF
:1069680001038B423FBF0521D154846108203CBFFD
:106978005DF8048BF0BD40F68422C2F2200218466E
:1069880004F087FBFEDE40F69422C2F2200218468D
:1069980004F07FFBFEDE40F674227046C2F220024D
:1069A80004F077FBFEDE40F664221846C2F22002AD
:1069B800214604F053FFFEDE7047F0B503AF2DE922
:1069C800000B84B040F63C3048F2445848F2480581
:1069D800C2F220000390C2F2000808F10800C2F2D7
:1069E800000502A902902846012200F0CDFB0446CA
:1069F8000021D5F8DC00029102A9FFF7C5FA064686
:106A080095F8E21098F80000022937D168B9D5F84E
:106A1800DC0002F0DAFE0021D5F8DC00029102A9C0
:106A2800FFF72AFB012088F80000D8F81C0001684D
:106A3800BFF35F8F002900F08A80002098F8222099
:106A480040F63C33009002A8C2F22003344303F01E
:106A5800CFF87CB1D8F804000122BFF35F8F00F5AE
:106A68008264D4E84F1FC4E8432F002BF9D1BFF349
:106A78005F8F91B104B0BDE8000BF0BD30B10021CB
:106A8800D5F8DC00029102A9FFF756FB002088F830
:106A9800000004B0BDE8000BF0BDD0F80014BFF34F
:106AA8005F8FD0F80824BFF35F8FD0F8043400F26A
:106AB8000445BFF35F8F934205D199423EBFBFF3B0
:106AC8005F8F00232B60994228BF0A469A4236D02E
:106AD800D8F828100968BFF35F8FC1B3A2EB030988
:106AE80098F82E20034402A84E46B9F1400F28BF5B
:106AF8004026009602F0BAFF9DF8080068B1207899
:106B0800BFF35F8F0028B5D0BFF35F8F55E8000F44
:106B180045E800010029F9D111E003982178BFF375
:106B28005F8F0029A6D0814538BF4846BFF35F8FE5
:106B380055E8001F014445E80012002AF8D100205A
:106B4800BFF35F8F207004B0BDE8000BF0BD40F6C6
:106B5800A42040F62C32C2F22000C2F220022221E8
:106B680004F080FAFEDE70474FF47A607047F0B5A3
:106B780003AF2DE9000F81B0D2F8008089460446A2
:106B8800012108F21145BFF35F8FD5E84F0FC5E823
:106B9800421F002AF9D1BFF35F8F20B1012001B055
:106BA800BDE8000FF0BDD8F80004BFF35F8FD8F838
:106BB8000414BFF35F8F814204D9C24311EB020B67
:106BC8000BD176E0B0F5806F05D1012971D9A1F11B
:106BD800010B002001E0C0F5806BCA46CB4538BFE9
:106BE800DA460AEB00014044BFF35F8FC8F80C1483
:106BF8002146524605F02BF898F8110408F20C4685
:106C0800BFF35F8F58B3D8F80004BFF35F8FBFF3AB
:106C18005F8F56E8001F46E80012002AF9D1BFF33B
:106C28005F8FB0F5806FD8F80824BFF35F8FD8F86E
:106C38000C14BFF35F8F01D0814203D3914205D971
:106C48004FF48060BFF35F8FC8F80804BFF35F8F0D
:106C5800C8F800140020BFF35F8F88F81104CB45F3
:106C68006BD204EB0A01A9EB0A020123BFF35F8F81
:106C7800D5E84F0FC5E8443F002CF9D10028BFF3F1
:106C88005F8F7FF48BAFD8F80004BFF35F8FD8F81D
:106C98000434BFF35F8F834203D9C4431B1913D154
:106CA80007E0B0F5806F0DD1012B02D9013B002020
:106CB8000AE000200021BFF35F8F297001B0BDE812
:106CC800000FF0BDC0F58063934238BF1A46131811
:106CD8004044BFF35F8FC8F80C3404F0B8FF98F84D
:106CE8001104BFF35F8F40B3D8F80004BFF35F8F80
:106CF800BFF35F8F56E8001F46E80012002AF9D15B
:106D0800BFF35F8FB0F5806FD8F80824BFF35F8FAB
:106D1800D8F80C14BFF35F8F01D0814203D391429E
:106D280005D94FF48060BFF35F8FC8F808040320CB
:106D3800BFF35F8FC8F80014BCE7032001B0BDE8BB
:106D4800000FF0BD7047D4D4F0B503AF2DE9000FA4
:106D580087B01D469246884683468AB108EBCA0624
:106D68004446D4E900012A464B6A59469847BBF87D
:106D7800000040F00200062828D10834B442F0D1BF
:106D8800687A38B3BBF8000040F0020006281DD12D
:106D98001CD1DBF80C000921ABF800100068BFF328
:106DA8005F8F002800F013819BF81210012202F077
:106DB800E1FFDBF818000068BFF35F8F002800F0E0
:106DC80006819BF81E10012202F0D4FF07B0BDE82F
:106DD800000FF0BD297AA879022921D0012930D0E5
:106DE8000029CFD1002859D0062868D0082804BF28
:106DF800BBF800000428C5D1BBF8061001229BF897
:106E0800E2300020ABF80020002918BF0121CBE9AF
:106E18002B01981EB0FA80F040098BF8240039E065
:106E28000028AFD16988DBF8DC0001F08F0103F09E
:106E380022F8BBF800100429A4D1ABF824000020E4
:106E48001CE098B10A2804BFBBF80000042899D1B7
:106E5800BBF80610002001228BF82400ABF80020B4
:106E6800002918BF0121CBE92B0113E0BBF8000072
:106E780004287FF487AF0020ABF82400BBF8062075
:106E88000121ABF80010022A28BF0222CBF8AC007F
:106E9800CBF8B020584600F020FC73E79BF8E000E0
:106EA80002229BF8E110059201AA41EA400004A9D8
:106EB800ADF804005846049200F0BAFD62E728894C
:106EC8000BF1B4096A68ADF80C0001A82968CDF87F
:106ED8000090CDE9011203F0DCF94FF0FF3252FACD
:106EE80080F00E2852D8DFE800F0080D16515151F5
:106EF800515151515151515121006946584600F0A4
:106F080038FE3FE7684604A904905846CDE9058A4B
:106F180000F0B7FD36E7C8B203280DD8DFE800F067
:106F2800021F2227584600F025FD2BE75846414608
:106F3800524600F077FE25E7084603F0ADF9BDF8A4
:106F4800065081464FEACA0606B3F8E802012A4607
:106F58004B6949469847083E0028F5D00FE00BF1E9
:106F6800B80108E00BF1C0010BF1BC0903E00BF11B
:106F7800C8010BF1C409D9F8000038B10968CDE996
:106F8800040104A9584600F09AFCFBE6BBF800008F
:106F980040F0020006287FF4F5AEDBF80C0009216A
:106FA800ABF800100068BFF35F8F80B19BF8121038
:106FB800012202F0DFFEDBF818000068BFF35F8FE4
:106FC80028B19BF81E10012202F0D4FEDAE640F642
:106FD800A42040F62C32C2F22000C2F22002222164
:106FE80004F040F8FEDED4D4F0B503AF4DF8048DBC
:106FF80084B01D4680468AB101EBC2040E46D6E92C
:1070080000012A460B6A41469847B8F8000040F04C
:107018000200062832D10836A642F0D1687A88B331
:10702800B8F8000040F00200062827D1B8F80000A0
:1070380040F00200062821D1D8F80C000921A8F850
:1070480000100068BFF35F8F002850D098F8121026
:10705800012202F08FFED8F818000068BFF35F8F96
:1070680000281FBF98F81E10012204B05DF8048B99
:107078001CBFBDE8F04002F07DBE38E004B05DF80A
:10708800048BF0BD2A7AA8792988022A3BD0012AE4
:1070980010D0002ACAD101380828C7D8DFE800F084
:1070A80006054F05560505056000BFE70129BDD156
:1070B800002048E00B2808BF0029B7D1B8F8000025
:1070C8000628ADD1D8F818000168BFF35F8F71B1F9
:1070D80098F81E20002040F60043009002A8C2F253
:1070E800200302F0C3FC0820A8F8000098E740F647
:1070F800A42040F62C32C2F22000C2F22002222143
:1071080003F0B0FFFEDE01280DD0032808BF0029D8
:107118007FF48CAF69880122D8F8DC0001F08F0178
:1071280002F028FE28E000297FF480AF6988002259
:10713800D8F8DC0001F08F0102F01CFE1CE00129E8
:107148007FF474AF012088F8E00015E0481E80B293
:107158007F28BFF46BAFD8F8DC0002F0B5FB08E07D
:1071680021B101297FF462AF022003E098F8E20020
:1071780030B1012088F8E200404600F03EF94FE7C0
:10718800404600F070FB4BE7F0B503AF2DE9000F68
:107198008DB0D0F8DC40064605A8884692462146C0
:1071A80002F0BBFE96F8E200BDF81450032816D191
:1071B800002D4FF0000018BF032D03D10DB0BDE81E
:1071C800000FF0BD204602F0A7FE96F8E300042861
:1071D80000F00781042186F8E20086F8E310DFE872
:1071E80005F00308274A030000200DB0BDE8000F92
:1071F800F0BDD6F8DC0002F0F8FB00204FF4806107
:10720800BAF1000F86F8E40086F8E000A6F8E2106C
:107218003080E9D008EBCA04A8F1080555F8080F32
:1072280069688969884705F10800A042F6D1DBE75B
:10723800BDF81600BDF81810BDF81A2002900843D2
:1072480040EA0209049103925FEAC97052D0049897
:10725800C00702D0304600F09FFA0398C0071AD141
:107268000298C00720D104208DF825009DF825003C
:10727800042821D13CE0D6F8DC0002F04DFE96F857
:10728800E20086F8E300032086F8E20000200DB053
:10729800BDE8000FF0BD07A8314600F06FF99DF872
:1072A8002500042808D123E007A8314600F0CEF8CD
:1072B8009DF8250004281BD09DF8230000287AD0CB
:1072C800802815D1DDE907010AABBDF82420CDE9F6
:1072D8000A013046ADF8302041465246FFF734FDEA
:1072E80029F00109B9F1000FCDE9008A07D14DE075
:1072F80029F00109B9F1000FCDE9008A46D00199BA
:10730800002953D0009801264FF0020B00EBC1086A
:10731800A0F1080503982C461BEA000F0AD054F880
:10732800080F61688A6A3146904704F108004045B1
:10733800F5D10EE002981BEA000F0AD02C4654F84B
:10734800080F6168CA6A3146904704F10800404551
:10735800F5D104981BEA000F0DD066F07F04AA4609
:107368005AF8080FDAF804100A6B214690470AF118
:1073780008004045F4D129EA0B095FEA094005D025
:10738800701C0F2E4FEA4B0B0646C3D3019969B107
:10739800009800EBC104A0F1080555F8080F6968CA
:1073A800C969884705F10800A042F6D101200DB04F
:1073B800BDE8000FF0BDDDE907010AABBDF82420E8
:1073C800CDE90A013046ADF8302041465246FFF774
:1073D8000BFE29F00109B9F1000FCDE9008A8ED121
:1073E800D4E740F6703040F6F032C2F22000C2F224
:1073F80020021C2103F07EFDFEDED0B502AF84B072
:1074080004460088062812D1A0690168BFF35F8F7F
:1074180081B10020A27F40F60043009002A8C2F28A
:10742800200302F023FB0820208004B0D0BD0720F1
:1074380004B0D0BD40F6A42040F62C32C2F22000A1
:10744800C2F22002222103F00DFEFEDEF0B503AFEA
:107458004DF804BD86B0044608880D46411E032930
:1074680028D3052826D0072836D1D5F8AC00D5F87A
:10747800063069898128D5F80220ADF80C10CDE9CD
:10748800012373D2E9680968BFF35F8F002961D0CF
:10749800C0F18003AA7C2844009300F1240304A8C7
:1074A80002F0A6FB9DF8100000283ED09DF81100C0
:1074B80008BB34E0E8680168BFF35F8F002949D052
:1074C800AA7C40F6004304A80026C2F220030096D6
:1074D80002F08EFB2E8022E0E8680168BFF35F8F20
:1074E800C1B30020AA7C40F60043009004A8C2F271
:1074F800200302F07DFBE868092129800068BFF3BA
:107508005F8F38B3A97C012202F034FCA8690068B7
:10751800BFF35F8FF0B1A97F012202F02BFC04209A
:10752800607206B05DF804BBF0BD0598D5E92B1272
:107538000844C5F8AC009042F1D3DDE90101062307
:10754800BDF80C202B8020606160228106B05DF8B8
:1075580004BBF0BD40F6A42040F62C32C2F2200055
:10756800C2F22002222103F07DFDFEDE40F66842D1
:107578008021C2F2200204F031F9FEDEF0B503AF3B
:107588002DE9000F85B00446C8680D460168BFF3B1
:107598005F8F002900F08B8005F124068020AA7CEB
:1075A800009002A8334602F023FB9DF8080018B1AA
:1075B8009DF8090060B921E0039A812A80F0838050
:1075C80002A8314602F047FE9DF8110004281BD19D
:1075D800E868092129800068BFF35F8F002866D01A
:1075E800A97C012202F0C6FBA8690068BFF35F8F7F
:1075F80000285CD0A97F012202F0BCFB0420607245
:1076080005B0BDE8000FF0BDE868BDF810A09DF812
:107618000F609DF80E90BDF80CB0DDF8088000688A
:10762800BFF35F8F002842D0A97C002202F0A2FBA2
:10763800BEB10420A5F80AA06E7285F80890A5F8D6
:1076480006B0C5F802802880A4F808A0E67184F87E
:107658000690A4F804B0C4F8008005B0BDE8000F97
:10766800F0BDBBF1000F11D0BBF1800FB0D80020E6
:10767800A5F80AA0C5E92B0B6872072085F80890C1
:10768800A5F806B0C5F802802880B7E70620A4F858
:1076980008A028800020C5F8B000E07184F80690A2
:1076A800A080C4F8008005B0BDE8000FF0BD40F62A
:1076B800A42040F62C32C2F22000C2F2200222217D
:1076C80003F0D0FCFEDE40F678431046C2F22003F9
:1076D80080211A4604F0A2F8FEDEB0B502AF84B0ED
:1076E8000446D0E92951D0F8AC00D4F8B0C0002D38
:1076F800A38BAE46ACEB000208BF04F1240E9A42FD
:1077080038BF1346002D03EB000C08BF80219C45B1
:1077180025D38C452BD8A1690968BFF35F8F71B356
