:0200000460009A
:100000004643464200000156000000000101020084
:1000100000000000000000000000000000000000E0
:1000200000000000000000000000000000000000D0
:1000300000000000000000000000000000000000C0
:1000400000000000010403000000000000000000A8
:100050000000200000000000000000000000000080
:100060000000000000000000000000000000000090
:100070000000000000000000000000000000000080
:10008000EB04180A063204260000000000000000FD
:10009000050404240000000000000000000000002F
:1000A0000000000000000000000000000000000050
:1000B0000604000000000000000000000000000036
:1000C0000000000000000000000000000000000030
:1000D00020041808000000000000000000000000DC
:1000E0000000000000000000000000000000000010
:1000F0000000000000000000000000000000000000
:1001000000000000000000000000000000000000EF
:100110000204180804200000000000000000000095
:1001200000000000000000000000000000000000CF
:10013000600400000000000000000000000000005B
:1001400000000000000000000000000000000000AF
:10015000000000000000000000000000000000009F
:10016000000000000000000000000000000000008F
:10017000000000000000000000000000000000007F
:10018000000000000000000000000000000000006F
:10019000000000000000000000000000000000005F
:1001A000000000000000000000000000000000004F
:1001B000000000000000000000000000000000003F
:1001C000000100000010000001000000000000001D
:1001D000000000000000000000000000000000001F
:1001E000000000000000000000000000000000000F
:1001F00000000000000000000000000000000000FF
:10020000D4D4D4D4D4D4D4D4D4D4D4D4D4D4D4D4AE
:10100000D10020400020006000000000000000002F
:1010100020100060001000600000000000000000D0
:101020000000006038AC000000000000EFBEADDE44
:10103000124880F3088812481249016000F036F81F
:10104000114812490022814201D004C0FBE7104838
:101050001049114A814202D008CA08C0FAE70F4875
:101060004FF47001026842EA01020260BFF34F8F41
:10107000BFF36F8F00F014F800DE00000040002086
:1010800008ED00E00040002000500020888500208E
:10109000B84200205844002038AC006088ED00E0E1
:1010A00040F2E14CC0F2000C6047D4D41C4840F23E
:1010B000924188420CBF1B4A1B4A1C4B5360136869
:1010C00023F0800313601A481A4901BF1A480A0C1A
:1010D0008264C1F30F014164016C41F004010164B9
:1010E0001648174A824205D01649814202D008CAE2
:1010F00008C0FAE71448154A824205D014498142D3
:1011000002D008CA08C0FAE71248134A824205D042
:101110001249814202D008CA08C0FAE770470000AD
:10112000240400000080034000C00B4020C528D9E3
:1011300000C00A40AAAAFAFF00400E4000000000CA
:10114000B8220060F8740000004000200020006019
:10115000B842002000002020B097006088142020B2
:10116000D4D4D4D4D4D4D4D4D4D4D4D4D4D4D4D43F
:10117000D4D4D4D4D4D4D4D4D4D4D4D4D4D4D4D42F
:10118000D4D4D4D4D4D4D4D4D4D4D4D4D4D4D4D41F
:10119000D4D4D4D4D4D4D4D4D4D4D4D4D4D4D4D40F
:10200000004000203110006081150000DD740000E8
:1020100081150000811500008115000000000000FE
:10202000000000000000000000000000811500001A
:1020300081150000000000008115000081150000DE
:102040008115000081150000811500008115000038
:102050008115000081150000811500008115000028
:102060008115000081150000811500008115000018
:102070008115000081150000811500008115000008
:1020800081150000000000000000000000000000BA
:1020900081150000811500008115000081150000E8
:1020A00081150000811500008115000081150000D8
:1020B00081150000811500008115000081150000C8
:1020C00081150000811500008115000081150000B8
:1020D00081150000811500008115000081150000A8
:1020E0008115000081150000811500008115000098
:1020F0008115000081150000811500008115000088
:102100008115000081150000811500008115000077
:102110000000000081150000000000008115000093
:102120008115000081150000811500008115000057
:1021300081150000811500000000000081150000DD
:102140008115000081150000811500008115000037
:102150008115000081150000000000000000000053
:102160008115000081150000811500008115000017
:102170008115000081150000811500008115000007
:1021800081150000811500008115000081150000F7
:1021900081150000811500008115000081150000E7
:1021A00081150000811500008115000081150000D7
:1021B00081150000811500008115000081150000C7
:1021C000811500008115000081150000000000004D
:1021D00081150000630400008115000081150000D6
:1021E0008115000081150000811500008115000097
:1021F0008115000081150000811500008115000087
:1022000081150000111400008115000081150000E7
:102210008115000081150000811500008115000066
:102220008115000081150000811500008115000056
:1022300081150000811500008115000000000000DC
:1022400000000000811500008115000081150000CC
:102250008115000081150000811500008115000026
:102260008115000081150000811500008115000016
:102270008115000081150000811500008115000006
:1022800081150000811500008115000081150000F6
:1022900081150000811500008115000081150000E6
:1022A000811500008115000081150000000000006C
:0822B0008115000081150000FA
:1022B800F0B503AF2DE9000FADB00D46044601F1AE
:1022C8003400383105F1540200F0ECFAD5F8C800B2
:1022D80003F0F3FAD5F82801016841F00101016023
:1022E800D5F82811086820F0020008600020C1F81D
:1022F8000801C1F81801C1F828011691C1F8380180
:10230800D5F8C090D9F8000020F00100C9F8000005
:10231800D9F8000040F40040C9F80000D9F80000DE
:1023280000040CD5D9F80000000444BFD9F8000017
:102338005FEA004003D5D9F800000004EED43F203E
:10234800C9F80800D9F8000020F00100C9F8000019
:10235800D5F8C4A0DAF8000020F00100CAF800009F
:10236800DAF8000040F40040CAF80000DAF800008B
:1023780000040CD5DAF80000000444BFDAF80000C5
:102388005FEA004003D5DAF800000004EED43F20ED
:10239800CAF80800DAF8000020F00100CAF80000C6
:1023A800D5F85C0103F0E4F9D5F80080CDE9141004
:1023B80040F26341D8F8480040F00100C8F84800EE
:1023C800D8F844000843C8F84400D8F8440001216C
:1023D80061F38300C8F84400D8F8440020F0800076
:1023E800C8F84400D8F8480040F02000C8F8480071
:1023F800D8F8440040F44040C8F84400D8F84400F5
:1024080040F44470C8F84400D8F8480040F0800010
:10241800C8F84800D8F8580000070CD0D8F8580079
:1024280000071CBFD8F858005FEA007003D0D8F83E
:1024380058000007EED1D8F8480040F2634140F058
:102448002000C8F84800D8F8440020F44040C8F8F4
:102458004400D8F8440020F4447000F58870C8F8A7
:102468004400D5F804B0DBF8480040F00100CBF890
:102478004800DBF844000843CBF84400DBF844008C
:10248800012161F38300CBF84400DBF8440020F01D
:102498008000CBF84400DBF8480040F02000CBF87F
:1024A8004800DBF8440040F44040CBF84400DBF837
:1024B800440040F44470CBF84400DBF8480040F096
:1024C8008000CBF84800DBF8580000070CD0DBF898
:1024D800580000071CBFDBF858005FEA007003D003
:1024E800DBF858000007EED1DBF8480040F0200088
:1024F800CBF84800DBF8440020F44040CBF8440017
:10250800DBF8440020F4447000F58870CBF84400F0
:10251800D5F87C01139003F063F8064603F062F8DF
:102528001399034617A8324603F05EF8D5F86811E8
:1025380029A84FF4805203F0DDF8D5F89C001390D9
:10254800D5F8A4001290D5F8A8000E90D5F8AC00E4
:102558000D90D5F884010C90D5F890010B90D5F822
:102568009801D5E91712079004F5907003F06FF9F8
:10257800D5F830010F22D5F888E000F59071616731
:1025880000F1C0012167696B1191A96B1091696D08
:102598000F91D5F880100A91D5F884100291D5F8DA
:1025A800E0100691D5F8E8100591D5F8FC100491D3
:1025B800D5E94031D5F814C10991D5F80811089129
:1025C800D5F80C110191D5F81C1103914FF4704105
:1025D800C4E91900A0F88C11A0F88E216030E066DB
:1025E800D5F8340100F59076C4F8886000F1C0068B
:1025F800C4F88460A0F88C11C4E91E00A0F88E21EC
:102608006030C4F88000D5F8380100F59076C4F839
:102618009C6000F1C006C4F89860A0F88C11C4E969
:102628002300A0F88E216030C4F89400D5F83C014E
:1026380000F59075C4F8B05000F1C005C4F8AC506E
:10264800A0F88C1100F16001C4F8A81017A9C4E91A
:102658002800A0F88E2148221498C4F82003159861
:10266800C4F82403079820630B98E0620C98A062D2
:102678000D9860620E9820621698C4E9049AC4F80E
:10268800C4B0C4E90000C4E902001398A06112981C
:10269800E0610298C4F8B8000A98C4F8B400069833
:1026A8002064059860640498C4E9120C01982065B8
:1026B800099860650898A0650398E0650F98E0633D
:1026C8001098A0631198606304F1C800C4E92FE86A
:1026D800236607F057F829AB04F5887C0FCB8CE804
:1026E8000F002DB0BDE8000FF0BD45F2000001213C
:1026F800C2F20000BFF35F8F41724EF20C20CEF29F
:10270800000020210160704780B56F4605F028FE63
:10271800FCE780B56F4645F20000C2F20000017A7E
:10272800F1B100F109010022D1E84F3F012B1CD182
:10273800C1E8432F002BF7D1BFF35F8F0179D9B9D7
:10274800012101710021BFF35F8F017241F2BC00CA
:10275800C2F22000C16840F23B40C0F20000884746
:102768000020BDE8804005F0FDBDBFF32F8F00209D
:10277800BDE8804005F0F6BD40F2300040F2180296
:10278800C2F22000C2F22002232106F038F8FEDE51
:1027980080B56F4605F0D7FD48F27C500121C2F2A2
:1027A800000001704EF26540CEF20000F021017089
:1027B8004EF20C10CEF200002021016000F003F868
:1027C800FFF7A2FFFEDEB0B502AFADF59F6DCEAC50
:1027D800204600F0A9FD04A82146FFF769FD0EAACE
:1027E80004AC01AB0B9D07CA07C3204600F046FFA7
:1027F80001A9204600F047FF48F23C100522C4F228
:102808001F00C16A62F30301C162696841F4006193
:102818006960016862F303010160696841F00101C0
:102828006960816862F303018160686845F20001AC
:10283800C2F2000101F1080240F004006860D2E829
:102848004F0F002841F28840C2F2200009D101232D
:10285800BFF35F8FC2E8443F34B1D2E84F4F002C3A
:10286800F8D0BFF32F8F0EE00022BFF35F8F0A71FD
:1028780001220860BFF35F8F4A724EF20C212022BA
:10288800CEF200010A60022100220B23C0E90252A5
:10289800C0E90053C0E904510DF59F6DBDE8B04093
:1028A80005F053BDF0B503AF4DF804BD0E46002149
:1028B8001546044602F097FF284640F2E24102F02E
:1028C80099FF304602F05AFF40F2B4052146C2F2A1
:1028D800200500222846366802F0D6FEA81C2146AC
:1028E800002202F0D1FE281D2146002202F0CCFE73
:1028F800A81D2146002202F0C7FE05F10800214666
:10290800002202F0C1FE05F10A002146002202F071
:10291800BBFE05F10C002146002202F0B5FE05F1D0
:102928000E002146002202F0AFFE05F110002146FC
:10293800002202F0A9FE05F112002146002202F051
:10294800A3FE05F114002146002202F09DFE05F1C8
:1029580016002146002202F097FE05F118002146D4
:10296800002202F091FE05F11A002146002202F031
:102978008BFE05F11C002146002202F085FE05F1C0
:102988001E002146002202F07FFE2068416989016D
:1029980007D5416921F000714161204602F014FF1A
:1029A80020684169012221F06051416120688169F4
:1029B80062F30D318161204602F006FF206841690B
:1029C80041F000714161204602F0FEFE4FF4805054
:1029D8003060642030604FF4005070603068002828
:1029E80009D4306800285CBF3068002803D43068F8
:1029F800B0F1FF3FF2DC20680122016962F30201B5
:102A08000161204602F0E0FE2068416921F4E051AE
:102A18004161204602F0D8FE2068816941F44021D6
:102A280081612068416921F000714161204602F00E
:102A3800CBFE206840F24815C2F220050022416909
:102A480041F4407141612846214602F01DFEA81C50
:102A58002146002202F018FE281D2146002202F01D
:102A680013FEA81D2146002202F00EFE2068022651
:102A780040F240150022C2F22005816B66F3D8416E
:102A880081632068816B41F4802181632846214657
:102A980002F0FAFDA81C2146002202F0F5FD281DCF
:102AA8002146002202F0F0FDA81D2146002202F076
:102AB800EBFD206840F2F4050322C2F2200581698B
:102AC80066F3051181612068816962F39C61816107
:102AD80028462146002202F0D7FDA81C21460022E4
:102AE80002F0D2FD281D2146002202F0CDFDA81DCE
:102AF8002146002202F0C8FD05F108002146002207
:102B080002F0C2FD2068172240F22015C2F220050B
:102B1800C16962F30501C16120680022C16941F001
:102B28004001C1612846214602F0AEFDA81C21469D
:102B3800002202F0A9FD281D2146002202F0A4FD72
:102B4800A81D2146002202F09FFD05F1080021463C
:102B5800002202F099FD05F10A002146002202F048
:102B680093FD05F10C002146002202F08DFD05F1D0
:102B78000E002146002202F087FD206840F2501521
:102B8800C2F220050322416A41F0400141622068F7
:102B9800416A66F3050141622846214602F074FD48
:102BA800A81C2146032202F06FFD281D214603229E
:102BB80002F06AFDA81D2146032202F065FD05F119
:102BC80008002146032202F05FFD05F10A002146B4
:102BD800032202F059FD05F10C002146032202F000
:102BE80053FD05F10E002146032202F04DFD05F1CB
:102BF80010002146032202F047FD05F1120021468C
:102C0800032202F041FD05F114002146032202F0DF
:102C18003BFD05F116002146032202F035FD05F1C2
:102C280018002146032202F02FFD05F11A00214663
:102C3800032202F029FD05F11C002146032202F0BF
:102C480023FD05F11E002146032202F01DFD05F1BA
:102C580020002146032202F017FD05F1220021463B
:102C6800032202F011FD05F124002146032202F09F
:102C78000BFD05F126002146032202F005FD05F1B2
:102C880028002146032202F0FFFC05F12A00214614
:102C9800032202F0F9FC05F12C002146032202F080
:102CA800F3FC05F12E002146032202F0EDFC05F1AC
:102CB80030002146032202F0E7FC05F132002146EC
:102CC800032202F0E1FC05F134002146032202F060
:102CD800DBFC05F136002146032202F0D5FC05F1A4
:102CE80038002146032202F0CFFC05F13A002146C4
:102CF800032202F0C9FC05F13C002146032202F040
:102D0800C3FC05F13E002146032202F0BDFC05F19B
:102D18004000214603225DF804BBBDE8F04002F004
:102D2800B3BCF0B503AF4DF8048D84B004682168D6
:102D380079BBD0E901124FF0FF33C06823600968FE
:102D4800D0F8008004F12000167804F000FE01ADF0
:102D5800CDE90101284604F014FE284604F058FE87
:102D6800002E18BF01262846314604F05DFE28468D
:102D7800012104F01EFE2846414604F028FE28469C
:102D880004F00BFE20680130206004B05DF8048B6D
:102D9800F0BD40F2042040F29413C2F2200003AACE
:102DA800009040F21010C2F22000C2F2200310215D
:102DB80005F05CFDFEDE704770477047084640F23C
:102DC8002C41C2F22001122206F0CAB8F0B503AFB6
:102DD8002DE9000FB3B048F23011044648F24850CC
:102DE800C2F20001C2F20000016001208DF810005B
:102DF80005F0BBFA46F2000541F23810C2F20005B0
:102E08002918BFF35F8F51E8000F40F0004241E8F6
:102E18000023002BF7D1B0F1FF3FBFF35F8F40F3E2
:102E2800118245F230000122C2F20000BFF35F8F29
:102E380000F5C070D0E84F1FC0E8432F002BF9D130
:102E480003940029BFF35F8F40F0088245F23000F9
:102E58004FF4C071C2F2000003F0C8FECDE93001A2
:102E680049F20000C4F20D0005F586512F900020AC
:102E7800C4F22E000DF19C0B2E9041F2381028441C
:102E88002D9006204FF0000ACDE92A0105F5805162
:102E9800299101212C904FF00109CDE9275058467E
:102EA800ADF8C8A002F00AFDBBE87E000DF11408D9
:102EB80008F104007EC09BE87E007EC040469DF875
:102EC80010108DF84890CDF814A003F091FE0399E6
:102ED8009DF848002A9104A9299126A9CDF898A01F
:102EE800CDE9278118B127A8FFF71BFF0DE005F0F2
:102EF80034FA044605F027FA05F037FA27A8FFF751
:102F080010FFE00708BF05F020FA48F2000AB8E809
:102F18005C00C2F2000A0AF10C0B40F2014158466B
:102F28005CC0B8E87C007CC098E87C007CC00020CD
:102F38000322CAF844008023CAF800004FF0FF308B
:102F4800AAF804100821CAF80800FF20CDE90021DA
:102F5800802102905846002204F088F80D46DAF8DD
:102F68000810C00701F10101CAF8081040F0828179
:102F7800DAF80000002840F084819AF80460002004
:102F88000029CAF8000006F101028AF8042040F07E
:102F980054814FF0FF310222CAF808104021CDE9D0
:102FA80000210021029058460022002304F05EF818
:102FB8000C46DAF80810C00701F10101CAF8081038
:102FC80040F06481002940F038814FF0FF304FF025
:102FD8004009CAF8080002204FF00008CDE90009AE
:102FE8005846802100228023CDF8088004F03EF85E
:102FF800DAF80820C00702F10102CAF8082040F0F8
:10300800488148F24C504FF40073C2F20000002A85
:1030180080F8261040F2FF3180F82D600AF144064E
:10302800A0F80F104FF00801818181804FF4FA5108
:10303800A0F82E8080F82C80A0F82730A0F82490E3
:103048000662A0F81B308476A0F818904661857354
:10305800866080F80680016040F0EF804FF0FF3016
:103068004021CAF808000020CDE9000100210290A3
:1030780058460122002303F0F9FF8946DAF80810C0
:10308800C00701F10101CAF8081040F016810029B3
:1030980040F0D3804FF0FF304021CAF808000020EC
:1030A800CDE900018021029058460122802303F0D7
:1030B800DDFF8846DAF80810C00701F10101CAF8F7
:1030C800081040F00181DAF80000002840F0108173
:1030D8004FF0FF300029CAF8000040F00E81CAF80E
:1030E8000800584604F04DF8DAF808000130CAF82C
:1030F8000800C0F007814FF0FF3005ADCAF808009E
:10310800E81CBFF35F8FCAF844B08021BFF35F8F1C
:1031180006F036FB5846812103F0C1FD58460121CF
:1031280003F0BDFD5846822103F0B9FD584602213F
:1031380003F0B5FD5846832103F0B1FD584603213D
:1031480003F0ADFD5846842103F0A9FD584604213B
:1031580003F0A5FD5846852103F0A1FD5846052139
:1031680003F09DFD5846862103F099FD5846062137
:1031780003F095FD5846872103F091FD5846072135
:1031880003F08DFD48F24804DDE92701C2F200048E
:10319800BDF8A4206281BDF89820C4F806109DF8F7
:1031A8009A10C4F8020004F12100A4F81520832223
:1031B800E175294606F019F94FF0806140F23E4268
:1031C800C4E937B13221C4F8D6100221C4F2000193
:1031D800C2F22002C4F8D2101021A4F8D01045F68B
:1031E8002401C2F2DD710020C4F8CC100921C4E921
:1031F8002F21402117F8D52C37F8D73C84F8E40064
:10320800C4F8C400C4E92B00C4F8B400C4F8A4008E
:10321800A4F81F0084F81E80A183A661A4F81300F7
:1032280084F812902182E6602080A4F8E53084F8C2
:10323800E72033B0BDE8000FF0BD40F24830C2F2DD
:10324800200063E040F2142040F29822C2F22000ED
:10325800C2F220021F2105F01AFAFEDE40F29400A5
:1032680040F2A822C2F22000C2F22002202105F07A
:103278000EFAFEDE40F298308DF81450C2F22000AB
:103288000DE040F28830C2F220003FE08DF8144093
:1032980001E08DF8141040F23830C2F2200040F2FC
:1032A800C823009040F2B82005AAC2F22000C2F25A
:1032B80020030F2105F0DAFAFEDE40F21C408DF8FB
:1032C8001490C2F2200005E040F20C408DF8148002
:1032D800C2F2200040F2C823009040F2540005AA30
:1032E800C2F22000C2F22003202105F0BFFAFEDE60
:1032F80040F27830C2F2200008E040F26830C2F2B2
:10330800200003E040F25830C2F2200040F294134B
:10331800009040F2101005AAC2F22000C2F2200369
:10332800102105F0A3FAFEDEF0B503AF2DE9000F7A
:1033380081B045F20C014FF0010CC2F20001BFF35D
:103348005F8FD1E84F2FC1E843CF002BF9D1BFF3EE
:103358005F8F002A01BF48F20001C4F20D0100226C
:10336800C4F22F0201BF02F5542C02F5502E02F5CB
:103378004C28A1F5004401BFA1F5003501F5F6166A
:1033880001F5F413C0E9683601BFC0E96A54C0E921
:103398006C8EC0E96EC101F5005E01BF01F5805673
:1033A80040F2040CC4F22E0C01F5021401BF0CF516
:1033B800FE7501F5004300F5C07888E8380001BFC4
:1033C80000F5C67383E81210C0E9666EA1F5404C9B
:1033D80001BF01F5881E01F5861801F5841401F571
:1033E800821301BF01F5003602F51025C0E95856D1
:1033F80000F5B47501BF85E81A41C0F87CC1A1F594
:10340800804C02F51C2E01BF02F5182802F5142481
:10341800A1F5E03301F5282601BF01F5EE15C0E955
:10342800505600F5A47585E8184101BFC0E9562C2F
:1034380002F5782802F5742902F5702401BF02F517
:103448006C234CF2000CC4F2070C0CF5004601BFCB
:1034580001F5E03E01F58E15C0E9485EC0E94A6114
:1034680001BF00F5987585E81802C0F83C8101F5A0
:10347800482801BF01F5442901F5402A01F53C2BF4
:1034880001F5382301BF01F5342401F5302501F594
:103498002C26C0E9406501BFC0E94243C0E944BAEF
:1034A800C0E9469802F5302801BF02F52C2902F53B
:1034B800282A02F5242B02F5861301BF02F584148D
:1034C80002F5821502F58016C0E9386501BFC0E92A
:1034D8003A43C0E93CBAC0E93E9801F5F01801BF8B
:1034E80001F59219A1F5503AA1F5403BA1F5303309
:1034F80001BF01F5901401F58C1501F58A16C0E994
:10350800306501BFC0E93243C0E934BAC0E9369832
:1035180044F2000B01BFC4F2002B0BF500490BF578
:10352800804A4FF0844801BF01F56C2601F56824F4
:1035380001F56425A1F5C03301BFC0E9283500F1C4
:10354800A80383E85009C0E92EA901BF01F5602846
:1035580001F5E61901F5E81AA1F5203601BF0BF5CA
:10356800E03301F5582401F55425C0E9205401BF82
:1035780000F1880484E84804C0E9259EC0F89C80CE
:1035880001BFA1F5103E01F5FE1801F5001902F57D
:10359800642A01BF02F5602302F55C2602F558256E
:1035A80001F5A03401BF00F1600B8BE87000C0E9A1
:1035B8001B3AC0E91D9801BFC0F87CE001F5803EC8
:1035C80002F540480CF5804901BF01F5804A01F534
:1035D800F21344F20806C4F2090601BF06F1100509
:1035E80006F10804C0E91064C0E9125301BFC0E93C
:1035F80014A9C0E9168E0CF5C03E01F5103801BFBC
:1036080001F5801901F57C2401F5782302F57C2663
:1036180001BF02F54825C0E9085600F1280585E8EC
:10362800180201BFC0E90D81C0F83CE002F5442E44
:1036380002F50C2601BF01F5D21501F5242402F587
:103648004022A1F5803301BFA1F5A031C0E90013E4
:10365800C0E9022C103001BF80E8704001B0BDE81D
:10366800000FF0BD40F2474040F2E042C2F22000B5
:10367800C2F22002352105F0C2F8FEDE80B56F46A1
:1036880000F077FD80BD80B56F464EF20C1C4FF4FC
:10369800003ECEF2000C44F2B822CCF880E0C2F230
:1036A8000002BFF35F8FD0E900318068C2E90031C2
:1036B8009060BFF35F8FCCF800E1CCF800E080BDEC
:1036C800F0B503AF4DF8048D86B045F21008C2F28C
:1036D8000008D8F8000028B106B05DF8048BBDE8F2
:1036E800F040004744F2B820C2F200000068062803
:1036F80032D100F08EFE00F08BFE039048F23010BD
:10370800C2F20000012200F21240BFF35F8FD0E83E
:103718004F1FC0E8432F002BF9D10029BFF35F8F5B
:1037280058D148F230144FF48061C2F200042046A8
:1037380006F02AF804F0F7FD0646204600F029FCBA
:1037480003A8FFF743FB41F6B570C0F2000000F094
:103758004EFF0546304635E000F05BFE00F058FEAF
:10376800029048F23010C2F20000012200F212402A
:10377800BFF35F8FD0E84F1FC0E8432F002BF9D16C
:10378800BFF35F8FC1BB48F230154FF48061C2F2BE
:103798000005284605F0F8FF04F0C5FD44F2B821FD
:1037A8000446C2F20001284600F0C5FC08BB02A886
:1037B800FFF70CFB41F6B570C0F2000000F017FFF0
:1037C8000546204604F0BAFDC8F8005006B05DF87A
:1037D800048BF0BD49F20000C4F20D0005900020F2
:1037E800C4F22E00CDE9030040F29C50C2F2200042
:1037F80010E0204604F0A2FD49F20000C4F20D00DA
:1038080005900020C4F22E00CDE9030040F28C5050
:10381800C2F2200040F21C53009040F2F04003AA8C
:10382800C2F22000C2F220032B2105F01FF8FEDEB1
:10383800FEE7F0B503AF4DF804BD84B0044690F838
:1038480034000E68D8B12068002858D14FF0FF31F5
:10385800204640F8201B314604F079F8CDE90101F3
:1038680001A804F0C6F860B301AD284604F0D0F80A
:10387800284604F0BEF80028F7D1012626E004F017
:103888006CFD054604F05FFD04F06FFD2068B0BBD9
:103898004FF0FF31204640F8201B314604F057F81E
:1038A800CDE9010101A804F0A4F8B8B101AE304691
:1038B80004F0AEF8304604F09CF80028F7D1012651
:1038C80011E001A804F053F880F0010620680130E7
:1038D8002060304604B05DF804BBF0BD01A804F0D8
:1038E80046F880F00106206801302060E80708BF2C
:1038F80004F02BFD304604B05DF804BBF0BD40F287
:103908001C6040F2AC53C2F2200003AA009040F2BF
:103918001010C2F22000C2F22003102104F0A6FF0A
:10392800FEDEF0B503AF4DF804BD84B0044690F850
:1039380034000E68E0B12068002840D14FF0FF3114
:10394800204640F8201B314604F001F8CDE901017A
:1039580001A804F081F800281CBF0DF1040003F051
:10396800FAFF20680130206004B05DF804BBF0BDA8
:1039780004F0F3FC054604F0E6FC04F0F6FC2068CD
:10398800E8B94FF0FF31204640F8201B314603F0DC
:10399800DEFFCDE9010101A804F05EF800281CBF94
:1039A8000DF1040003F0D7FF206801302060E8071C
:1039B80008BF04F0CAFC04B05DF804BBF0BD40F2D7
:1039C8001C6040F2AC53C2F2200003AA009040F2FF
:1039D8001010C2F22000C2F22003102104F046FFAA
:1039E800FEDEF0B503AF4DF804BD84B0044690F890
:1039F80034000D68A8B12068A0BB4FF0FF302946FD
:103A0800206004F1200003F0A2FFCDE9010101A824
:103A180003F0B7FF20680130206004B05DF804BBF4
:103A2800F0BD04F09AFC064604F08DFC04F09DFC01
:103A38002068B8B94FF0FF302946206004F1200013
:103A480003F085FFCDE9010101A803F09AFF206882
:103A580001302060F00708BF04F077FC04B05DF87F
:103A680004BBF0BD40F21C6040F2AC53C2F220002F
:103A780003AA009040F21010C2F22000C2F2200304
:103A8800102104F0F3FEFEDE002070477047082086
:103A980070477047006804F00FBF0A46D0E900314C
:103AA800184605F063BA70477047F0B503AF4DF894
:103AB80004BD84B00068802906684FF000000290B9
:103AC80003D28DF80810012434E0B1F5006F09D253
:103AD8000224084664F39F108DF80900C02040EACC
:103AE800911025E002200A4660F39F12B1F5803F4D
:103AF8000DD28DF80A208A0960F39F12E02040EA6F
:103B080011308DF809208DF80800032412E08DF893
:103B18000B208A0960F39F128DF80A200A0B0424EF
:103B280060F39F12880C1E218DF8092061F3DF00D5
:103B38008DF8080004F0F7FB0546B068B8B94FF0F7
:103B4800FF3006F10C02B06002A8214600F064FCC8
:103B58000446B0680130B060284604F0EFFBE0B2DC
:103B6800033818BF012004B05DF804BBF0BD40F273
:103B7800507040F2AC53C2F2200003AA009040F209
:103B88001010C2F22000C2F22003102104F06EFED1
:103B9800FEDEF0B503AF4DF8048D88B0D0F800C054
:103BA80002AA91E8714140F2A4611346C2F22001D1
:103BB80083E8714101A8CDF804C004F082FE08B082
:103BC8005DF8048BF0BDF0B503AF4DF8048D82B0FD
:103BD800006815460E46046804F0A5FB8046A068F8
:103BE800B8B94FF0FF3004F10C02A0603046294606
:103BF80000F012FC0546A0680130A060404604F0C1
:103C08009DFBE8B2033818BF012002B05DF8048BB1
:103C1800F0BD40F2507040F2AC53C2F2200001AA4D
:103C2800009040F21010C2F22000C2F220031021CE
:103C380004F01CFEFEDEF0B503AF4DF8048D05461A
:103C4800507A012802BF1646107A012802D05DF882
:103C5800048BF0BD95F82C008846748803F02CFF7F
:103C6800C0B28442F3D1B079212804BFB0880728B4
:103C780030D0B8F8000040F002000628E7D1D8F8A4
:103C88000C000921A8F800100068BFF35F8FA8B1E5
:103C980098F81210012203F07DFCD8F8180000688B
:103CA800BFF35F8F00281FBF98F81E1001225DF830
:103CB800048BBDE8F04018BF03F06CBC40F6300040
:103CC80040F6B802C2F22000C2F22002222104F01B
:103CD80096FDFEDEB8F800000428B8D1B8F8060052
:103CE800002329796A790728C8F8AC30AB792E689F
:103CF8004FF00105A8F80050C8F8246088F828306B
:103D080088F8292088F82A1028BF0720C8F8B000AA
:103D180040465DF8048BBDE8F04001F032B9F0B5DB
:103D280003AF4DF8048D84B00546507A012802BFD0
:103D38001646107A012803D004B05DF8048BF0BD54
:103D480095F82C008846748803F0B6FEC0B2844209
:103D5800F2D1B07988B1202814D0222847D1307800
:103D6800B8F8001000F0010285F82E20C0F34000DA
:103D780085F82F000629DFD121E0B8F800000628D1
:103D8800DAD11CE0D8F8B000812862D206282ED9F2
:103D980098F82800D8F82410296001F00FFC98F84A
:103DA8002910C0B2A871084601F00DFC98F82A2025
:103DB800C0B2B8F8001068712A710629BCD1D8F8C9
:103DC80018000168BFF35F8FB9B398F81E20002070
:103DD80040F68C13009002A8C2F2200303F056FAB2
:103DE8000820A8F8000004B05DF8048BF0BDB8F80E
:103DF800000040F0020006289ED1D8F80C000921E6
:103E0800A8F800100068BFF35F8FB0B198F81210DF
:103E1800012203F0BFFBD8F818000068BFF35F8FDA
:103E280000281FBF98F81E10012204B05DF8048B0B
:103E38001CBFBDE8F04003F0ADBB40F6300040F6D3
:103E4800B802C2F22000C2F22002222104F0D7FCFC
:103E5800FEDE40F294628021C2F2200205F0ACF846
:103E6800FEDEF0B503AF2DE9000B84B090F82C60AE
:103E7800814600250220CDE900050C46084631465A
:103E88000222022303F087FFC0B208286ED1204621
:103E9800314602220223009503F0D3FFC0B208285E
:103EA80064D140F2BC622046C2F2200224210323DE
:103EB80003F00EFEC0B2082858D140F2BF62204677
:103EC800C2F220022421022303F002FEC0B2082815
:103ED8004CD1304603F0F0FD99F82D800646404657
:103EE80003F0EAFD07F81C0C0620A7F11E0207F8EC
:103EF8001E0C20462421032307F81D6C03F0E8FD5F
:103F0800C0B2082832D1404603F0D6FD07F8190C94
:103F18000120A7F11B0227F81B0C204624210323AC
:103F280003F0D6FDC0B2082820D109F108012046C7
:103F380000F029F9C0B2082818D1002041460090A5
:103F480020460A22002303F07CFFC0B208280DD1C6
:103F580009F12001204600F016F9C0B2082805D161
:103F680009F11401204600F00EF9C0B204B0BDE812
:103F7800000BF0BDD0B502AF82B00446684601F030
:103F880027FBDDE90001C4E900010020E08502B05B
:103F9800D0BD45F22401C2F2000188600120BFF3C0
:103FA8005F8F08707047F0B503AF2DE9000748F23E
:103FB8008452D1F80080C2F200021368B8EB030201
:103FC80018BF0122984538BF4FF0FF32531C1CBF61
:103FD800D2B2002A29D142685AB300680025D1E933
:103FE800019A061D02EB4200840005E00C3C06F134
:103FF8000C0605F1010518D030688245F6D156F84F
:10400800040C4946524605F092FA0028EED1706831
:1040180000218045A0F10600B0FA80F098BF012188
:1040280040090843BDE80007F0BD0020BDE80007CF
:10403800F0BD0120BDE80007F0BDF0B503AF2DE9E4
:10404800000F93B0009048F28450C2F200008A46F4
:10405800D1F820900168B9EB010018BF012089450B
:1040680038BF4FF0FF30411C1CBFC0B2002822D11E
:104078000099486818B3096800EB4000DAE909B507
:104088004FF000080C1D860005E00C3E04F10C04FE
:1040980008F101080FD020688542F6D154F8040CC5
:1040A80059462A4605F043FA0028EED160680628EA
:1040B80018BF814505D913B0BDE8000FF0BDDAE996
:1040C80009B5009840F2A461019001A8029041F25C
:1040D800E570C0F200000DAA08900CA8079041F204
:1040E800EB70C0F20000C2F2200106900AA8059009
:1040F80046F22D20C0F20000CDF82490049009A8C3
:1041080003900AF12C000C900020119003201090CD
:1041180003A80F9004200E9040F2C860C2F220005D
:10412800CDE90AB50D9002A804F0CBFB13B0BDE8A9
:10413800000FF0BD7047D0B502AF0C4645F214022F
:104148004968C2F20002A3684FF0000C82E80A1026
:1041580040F26C71C2F22001D060104604F0D0F930
:10416800002801BF216848F28452C2F2000211609F
:10417800D0BD40F2BC620021C2F220020523C0E992
:10418800003281607047F0B503AF4DF8048D8C465E
:10419800816881B3C36841698B4249D20269D0F80A
:1041A80018E0D45C0134D4540EF102038B421ED8BB
:1041B8000EF58074A14238BF0C469C4248D3E41ADD
:1041C800052C14D39CF80640BCF80450D45413446E
:1041D8000EF107049CF808608C429CF807805E701A
:1041E8004FEA15269D7083F80480DE7007D90220F7
:1041F8005DF8048BF0BD07205DF8048BF0BD8E459B
:104208001ED2072302F80E300EF101038B423FBF86
:104218000521D154846108203CBF5DF8048BF0BDB2
:1042280040F61002C2F22002184604F0FFFAFEDE41
:1042380040F62002C2F22002184604F0F7FAFEDE29
:1042480040F600027046C2F2200204F0EFFAFEDEE9
:1042580040F2F0721846C2F22002214604F0CCFE69
:10426800FEDE7047F0B503AF2DE9000B84B040F6D1
:10427800C80048F2445848F24805C2F220000390AA
:10428800C2F2000808F10800C2F2000502A9029073
:104298002846012200F0CCFB04460021D5F8DC00BA
:1042A800029102A9FFF7C5FA064695F8E21098F8B8
:1042B8000000022937D168B9D5F8DC0002F095FE74
:1042C8000021D5F8DC00029102A9FFF72AFB0120A2
:1042D80088F80000D8F81C000168BFF35F8F002938
:1042E80000F08A80002098F8222040F6C803009049
:1042F80002A8C2F22003344303F08AF87CB1D8F84C
:1043080004000122BFF35F8F00F58264D4E84F1FD9
:10431800C4E8432F002BF9D1BFF35F8F91B104B0EC
:10432800BDE8000BF0BD30B10021D5F8DC000291EA
:1043380002A9FFF756FB002088F8000004B0BDE88A
:10434800000BF0BDD0F80014BFF35F8FD0F808243D
:10435800BFF35F8FD0F8043400F20445BFF35F8FDA
:10436800934205D199423EBFBFF35F8F00232B6074
:10437800994228BF0A469A4236D0D8F828100968C8
:10438800BFF35F8FC1B3A2EB030998F82E20034453
:1043980002A84E46B9F1400F28BF4026009602F009
:1043A80075FF9DF8080068B12078BFF35F8F00287B
:1043B800B5D0BFF35F8F55E8000F45E8000100292D
:1043C800F9D111E003982178BFF35F8F0029A6D0B7
:1043D800814538BF4846BFF35F8F55E8001F014449
:1043E80045E80012002AF8D10020BFF35F8F207043
:1043F80004B0BDE8000BF0BD40F6300040F6B8024E
:10440800C2F22000C2F22002222104F0F8F9FEDEF6
:1044180070474FF47A607047F0B503AF2DE9000F8D
:1044280081B0D2F8008089460446012108F211457E
:10443800BFF35F8FD5E84F0FC5E8421F002AF9D1B7
:10444800BFF35F8F20B1012001B0BDE8000FF0BDC0
:10445800D8F80004BFF35F8FD8F80414BFF35F8F58
:10446800814204D9C24311EB020B0BD176E0B0F5BF
:10447800806F05D1012971D9A1F1010B002001E05C
:10448800C0F5806BCA46CB4538BFDA460AEB000157
:104498004044BFF35F8FC8F80C142146524604F01D
:1044A800A4FF98F8110408F20C46BFF35F8F58B3C5
:1044B800D8F80004BFF35F8FBFF35F8F56E8001F83
:1044C80046E80012002AF9D1BFF35F8FB0F5806F7C
:1044D800D8F80824BFF35F8FD8F80C14BFF35F8FA8
:1044E80001D0814203D3914205D94FF48060BFF3D4
:1044F8005F8FC8F80804BFF35F8FC8F80014002066
:10450800BFF35F8F88F81104CB456BD204EB0A0127
:10451800A9EB0A020123BFF35F8FD5E84F0FC5E867
:10452800443F002CF9D10028BFF35F8F7FF48BAF95
:10453800D8F80004BFF35F8FD8F80434BFF35F8F57
:10454800834203D9C4431B1913D107E0B0F5806F28
:104558000DD1012B02D9013B00200AE000200021E7
:10456800BFF35F8F297001B0BDE8000FF0BDC0F543
:104578008063934238BF1A4613184044BFF35F8FD5
:10458800C8F80C3404F031FF98F81104BFF35F8FBA
:1045980040B3D8F80004BFF35F8FBFF35F8F56E8CE
:1045A800001F46E80012002AF9D1BFF35F8FB0F56B
:1045B800806FD8F80824BFF35F8FD8F80C14BFF3C6
:1045C8005F8F01D0814203D3914205D94FF48060B7
:1045D800BFF35F8FC8F808040320BFF35F8FC8F8E4
:1045E8000014BCE7032001B0BDE8000FF0BD704720
:1045F800F0B503AF2DE9000F87B01D4692468846F7
:1046080083468AB108EBCA064446D4E900012A4623
:104618004B6A59469847BBF8000040F0020006284C
:1046280028D10834B442F0D1687A38B3BBF8000016
:1046380040F0020006281DD11CD1DBF80C0009212E
:10464800ABF800100068BFF35F8F002800F01381FB
:104658009BF81210012202F09DFFDBF81800006899
:10466800BFF35F8F002800F006819BF81E1001221F
:1046780002F090FF07B0BDE8000FF0BD297AA879D5
:10468800022921D0012930D00029CFD1002859D0C2
:10469800062868D0082804BFBBF800000428C5D144
:1046A800BBF8061001229BF8E2300020ABF800208E
:1046B800002918BF0121CBE92B01981EB0FA80F020
:1046C80040098BF8240039E00028AFD16988DBF86D
:1046D800DC0001F08F0102F0DEFFBBF800100429B6
:1046E800A4D1ABF8240000201CE098B10A2804BF2C
:1046F800BBF80000042899D1BBF80610002001225D
:104708008BF82400ABF80020002918BF0121CBE961
:104718002B0113E0BBF8000004287FF487AF0020CA
:10472800ABF82400BBF806200121ABF80010022AE0
:1047380028BF0222CBF8AC00CBF8B020584600F0D6
:1047480020FC73E79BF8E00002229BF8E110059239
:1047580001AA41EA400004A9ADF8040058460492B1
:1047680000F0BAFD62E728890BF1B4096A68ADF870
:104778000C0001A82968CDF80090CDE9011203F0DA
:1047880098F94FF0FF3252FA80F00E2852D8DFE83D
:1047980000F0080D1651515151515151515151517B
:1047A80021006946584600F038FE3FE7684604A9EC
:1047B80004905846CDE9058A00F0B7FD36E7C8B23F
:1047C80003280DD8DFE800F0021F2227584600F022
:1047D80025FD2BE758464146524600F077FE25E76F
:1047E800084603F069F9BDF8065081464FEACA0643
:1047F80006B3F8E802012A464B6949469847083E3D
:104808000028F5D00FE00BF1B80108E00BF1C0016A
:104818000BF1BC0903E00BF1C8010BF1C409D9F88D
:10482800000038B10968CDE9040104A9584600F030
:104838009AFCFBE6BBF8000040F0020006287FF473
:10484800F5AEDBF80C000921ABF800100068BFF3E7
:104858005F8F80B19BF81210012202F09BFEDBF8FB
:1048680018000068BFF35F8F28B19BF81E10012263
:1048780002F090FEDAE640F6300040F6B802C2F2E6
:104888002000C2F22002222103F0B9FFFEDED4D4B8
:10489800F0B503AF4DF8048D84B01D4680468AB14B
:1048A80001EBC2040E46D6E900012A460B6A4146CE
:1048B8009847B8F8000040F00200062832D10836C0
:1048C800A642F0D1687A88B3B8F8000040F0020038
:1048D800062827D1B8F8000040F00200062821D1A8
:1048E800D8F80C000921A8F800100068BFF35F8F02
:1048F800002850D098F81210012202F04BFED8F888
:1049080018000068BFF35F8F00281FBF98F81E10BB
:10491800012204B05DF8048B1CBFBDE8F04002F032
:1049280039BE38E004B05DF8048BF0BD2A7AA87966
:104938002988022A3BD0012A10D0002ACAD101387E
:104948000828C7D8DFE800F006054F055605050515
:104958006000BFE70129BDD1002048E00B2808BF4F
:104968000029B7D1B8F800000628ADD1D8F818004A
:104978000168BFF35F8F71B198F81E20002040F6E0
:104988008C13009002A8C2F2200302F07FFC0820DA
:10499800A8F8000098E740F6300040F6B802C2F2E6
:1049A8002000C2F22002222103F029FFFEDE0128A6
:1049B8000DD0032808BF00297FF48CAF6988012235
:1049C800D8F8DC0001F08F0102F0E4FD28E00029AE
:1049D8007FF480AF69880022D8F8DC0001F08F01ED
:1049E80002F0D8FD1CE001297FF474AF012088F89B
:1049F800E00015E0481E80B27F28BFF46BAFD8F8FE
:104A0800DC0002F071FB08E021B101297FF462AFFC
:104A1800022003E098F8E20030B1012088F8E200B3
:104A2800404600F03EF94FE7404600F070FB4BE788
:104A3800F0B503AF2DE9000F8DB0D0F8DC40064685
:104A480005A888469246214602F077FE96F8E200CD
:104A5800BDF81450032816D1002D4FF0000018BFE0
:104A6800032D03D10DB0BDE8000FF0BD204602F0C4
:104A780063FE96F8E300042800F00781042186F815
:104A8800E20086F8E310DFE805F00308274A030090
:104A980000200DB0BDE8000FF0BDD6F8DC0002F034
:104AA800B4FB00204FF48061BAF1000F86F8E400EF
:104AB80086F8E000A6F8E2103080E9D008EBCA04D6
:104AC800A8F1080555F8080F69688969884705F14C
:104AD8000800A042F6D1DBE7BDF81600BDF81810B3
:104AE800BDF81A200290084340EA02090491039293
:104AF8005FEAC97052D00498C00702D0304600F06F
:104B08009FFA0398C0071AD10298C00720D1042041
:104B18008DF825009DF82500042821D13CE0D6F821
:104B2800DC0002F009FE96F8E20086F8E3000320B4
:104B380086F8E20000200DB0BDE8000FF0BD07A820
:104B4800314600F06FF99DF82500042808D123E0CC
:104B580007A8314600F0CEF89DF8250004281BD0A0
:104B68009DF8230000287AD0802815D1DDE90701B7
:104B78000AABBDF82420CDE90A013046ADF8302053
:104B880041465246FFF734FD29F00109B9F1000FFB
:104B9800CDE9008A07D14DE029F00109B9F1000FEC
:104BA800CDE9008A46D00199002953D00098012602
:104BB8004FF0020B00EBC108A0F1080503982C4642
:104BC8001BEA000F0AD054F8080F61688A6A314658
:104BD800904704F108004045F5D10EE002981BEA21
:104BE800000F0AD02C4654F8080F6168CA6A31468B
:104BF800904704F108004045F5D104981BEA000FDE
:104C08000DD066F07F04AA465AF8080FDAF80410A7
:104C18000A6B214690470AF108004045F4D129EA79
:104C28000B095FEA094005D0701C0F2E4FEA4B0BA9
:104C38000646C3D3019969B1009800EBC104A0F1FD
:104C4800080555F8080F6968C969884705F108001B
:104C5800A042F6D101200DB0BDE8000FF0BDDDE99E
:104C680007010AABBDF82420CDE90A013046ADF8AA
:104C7800302041465246FFF70BFE29F00109B9F1F1
:104C8800000FCDE9008A8ED1D4E740F6FC0040F64B
:104C98007C12C2F22000C2F220021C2103F0F7FCB1
:104CA800FEDED0B502AF84B004460088062812D1D3
:104CB800A0690168BFF35F8F81B10020A27F40F631
:104CC8008C13009002A8C2F2200302F0DFFA082039
:104CD800208004B0D0BD072004B0D0BD40F630001D
:104CE80040F6B802C2F22000C2F22002222103F0EC
:104CF80086FDFEDEF0B503AF4DF804BD86B0044670
:104D080008880D46411E032928D3052826D00728E0
:104D180036D1D5F8AC00D5F8063069898128D5F8A0
:104D28000220ADF80C10CDE9012373D2E9680968B7
:104D3800BFF35F8F002961D0C0F18003AA7C2844AB
:104D4800009300F1240304A802F062FB9DF8100010
:104D580000283ED09DF8110008BB34E0E8680168DF
:104D6800BFF35F8F002949D0AA7C40F68C1304A8B2
:104D78000026C2F22003009602F04AFB2E8022E0B1
:104D8800E8680168BFF35F8FC1B30020AA7C40F6D2
:104D98008C13009004A8C2F2200302F039FBE868E3
:104DA800092129800068BFF35F8F38B3A97C0122ED
:104DB80002F0F0FBA8690068BFF35F8FF0B1A97F2C
:104DC800012202F0E7FB0420607206B05DF804BB24
:104DD800F0BD0598D5E92B120844C5F8AC009042FF
:104DE800F1D3DDE901010623BDF80C202B802060FA
:104DF8006160228106B05DF804BBF0BD40F630006A
:104E080040F6B802C2F22000C2F22002222103F0CA
:104E1800F6FCFEDE40F6F4128021C2F2200204F015
:104E2800ABF8FEDEF0B503AF2DE9000F85B0044600
:104E3800C8680D460168BFF35F8F002900F08B80BA
:104E480005F124068020AA7C009002A8334602F0CF
:104E5800DFFA9DF8080018B19DF8090060B921E053
:104E6800039A812A80F0838002A8314602F003FE6B
:104E78009DF8110004281BD1E868092129800068E1
:104E8800BFF35F8F002866D0A97C012202F082FB65
:104E9800A8690068BFF35F8F00285CD0A97F012252
:104EA80002F078FB0420607205B0BDE8000FF0BD89
:104EB800E868BDF810A09DF80F609DF80E90BDF849
:104EC8000CB0DDF808800068BFF35F8F002842D07F
:104ED800A97C002202F05EFBBEB10420A5F80AA05E
:104EE8006E7285F80890A5F806B0C5F8028028808B
:104EF800A4F808A0E67184F80690A4F804B0C4F8F1
:104F0800008005B0BDE8000FF0BDBBF1000F11D067
:104F1800BBF1800FB0D80020A5F80AA0C5E92B0B7B
:104F28006872072085F80890A5F806B0C5F80280D1
:104F38002880B7E70620A4F808A028800020C5F834
:104F4800B000E07184F80690A080C4F8008005B035
:104F5800BDE8000FF0BD40F6300040F6B802C2F2DE
:104F68002000C2F22002222103F049FCFEDE40F6B6
:104F780004231046C2F2200380211A4604F01CF8CC
:104F8800FEDEB0B502AF84B00446D0E92951D0F8AE
:104F9800AC00D4F8B0C0002DA38BAE46ACEB000239
:104FA80008BF04F1240E9A4238BF1346002D03EBC4
:104FB800000C08BF80219C4525D38C452BD8A169BE
:104FC8000968BFF35F8F71B3A27F00930EEB0003F4
:104FD80002A802F05BF99DF8080008B104B0B0BD62
:104FE8000398D4E92B120144C4F8AC109142F5D3CC
:104FF8000021A28BC4F8A4100321904208BF02210B
:10500800218004B0B0BD40F614226146C2F22002ED
:1050180003F0F2FFFEDE40F614226046C2F22002E0
:1050280003F0CAFFFEDE40F6300040F6B802C2F2D6
:105038002000C2F22002222103F0E1FBFEDED4D4DC
:10504800B0B502AF84B0044600880138072834D8C8
:10505800DFE800F0040B24333333334B2046FFF7EB
:1050680090FF0025284604B0B0BDA0690168BFF3D1
:105078005F8F00293FD0A27F40F68C1302A800253D
:10508800C2F22003009502F001F99DF808000028FB
:1050980004BF03202080284604B0B0BDE068006843
:1050A800BFF35F8F38B3A17C0022002502F072FAAB
:1050B80005202080284604B0B0BDE0680921218081
:1050C8000068BFF35F8FB0B1A17C012202F062FAE1
:1050D800A0690068BFF35F8F68B1A17F012202F069
:1050E80059FA0025284604B0B0BD002001252080CB
:1050F800284604B0B0BD40F6300040F6B802C2F20F
:105108002000C2F22002222103F079FBFEDED0B596
:1051180002AF0446008840F00200062815D1E06876
:10512800092121800068BFF35F8F80B1A17C012233
:1051380002F030FAA0690068BFF35F8F38B1A17F31
:10514800012202F027FA0820D0BD0720D0BD40F682
:10515800300040F6B802C2F22000C2F2200222213A
:1051680003F04DFBFEDEF0B503AF2DE9000B88B070
:1051780004460088042830D1D1E90056E84604F1F5
:10518800240140468022B4F8069002F096FC40467E
:105198002946324602F0E0FEC0B2082819D1684616
:1051A80002F094FC80281DD9E0680921218000685C
:1051B800BFF35F8F30B3A17C012202F0EBF9A06945
:1051C8000068BFF35F8FE8B1A17F012202F0E2F926
:1051D800022008B0BDE8000BF0BD072008B0BDE80C
:1051E800000BF0BD484538BF8146012000212080D2
:1051F8002046C4E92B19FFF7C4FE082008B0BDE813
:10520800000BF0BD40F6300040F6B802C2F22000B4
:10521800C2F22002222103F0F2FAFEDEF0B503AF5B
:105228004DF804BD8AB004460088042833D101AD86
:1052380004F124018022E688284602F03EFC40F270
:105248000940A7F1120227F8120C2846032102236D
:1052580002F03EFCC0B2082819D101A802F036FCC1
:1052680080281DD9E068092121800068BFF35F8F7D
:1052780030B3A17C012202F08DF9A0690068BFF368
:105288005F8FE8B1A17F012202F084F902200AB001
:105298005DF804BBF0BD07200AB05DF804BBF0BDA3
:1052A800B04238BF06460120002120802046C4E9CC
:1052B8002B16FFF766FE08200AB05DF804BBF0BDA8
:1052C80040F6300040F6B802C2F22000C2F22002D6
:1052D800222103F094FAFEDEF0B503AF4DF804BDC9
:1052E80004460088042806D14D68802D07D902207D
:1052F8005DF804BBF0BD07205DF804BBF0BD09688C
:1053080004F124002A46E68804F06FF80020B5422C
:1053180038BF2E46C4E92B06012020802046FFF71F
:1053280030FE08205DF804BBF0BDF0B503AF2DE9F1
:10533800000788B08246008804284CD191E85002C2
:105348006D460AF1240128468022BAF8068002F048
:10535800B4FB2168284602F0A2FCC0B2082836D166
:10536800B9F1000F10D006EBC9046D46D6E900016B
:10537800CA6829469047C0B2082828D1284602F0B2
:10538800F6FC0836A642F1D16D46284602F0F2FC3A
:10539800284602F09BFB802822D9DAF80C00092164
:1053A800AAF800100068BFF35F8F50B39AF8121084
:1053B800012202F0EFF8DAF818000068BFF35F8FF7
:1053C800F8B19AF81E10012202F0E4F8022008B0A1
:1053D800BDE80007F0BD072008B0BDE80007F0BD34
:1053E800404538BF804601200021AAF800005046F9
:1053F800CAE92B18FFF7C5FD082008B0BDE800076B
:10540800F0BD40F6300040F6B802C2F22000C2F209
:105418002002222103F0F3F9FEDEF0B503AF4DF8C8
:10542800048D88B00446008804282ED10D686E4685
:1054380004F1240130468022B4F8068002F03DFBD6
:105448003046294602F091FBC0B2082819D16846B7
:1054580002F03CFB80281DD9E06809212180006802
:10546800BFF35F8F30B3A17C012202F093F8A069EB
:105478000068BFF35F8FE8B1A17F012202F08AF8CC
:10548800022008B05DF8048BF0BD072008B05DF875
:10549800048BF0BD404538BF8046012000212080A4
:1054A8002046C4E92B18FFF76CFD082008B05DF80A
:1054B800048BF0BD40F6300040F6B802C2F220007E
:1054C800C2F22002222103F09AF9FEDEF0B503AF02
:1054D8002DE9000F8BB083460088042826D10D469D
:1054E800E9460BF12401904648468022BBF806A005
:1054F80002F0E3FA08AE4946304602F0E9FD3046CC
:1055080002F0EAFDC0B208280CD108AE4FEAC80480
:105518008CB1F5E802010A6931469047083CC0B2EF
:105528000828F5D00BB0BDE8000FF0BD07200BB080
:10553800BDE8000FF0BD08A802F0A1FE684602F021
:10554800C5FA80281DD9DBF80C000921ABF800103A
:105558000068BFF35F8F28B39BF81210012202F096
:1055680019F8DBF818000068BFF35F8FD0B19BF81B
:105578001E10012202F00EF802200BB0BDE8000F49
:10558800F0BD504538BF824601200021ABF800002D
:105598005846CBE92B1AFFF7F4FC08200BB0BDE8FE
:1055A800000FF0BD40F6300040F6B802C2F220000D
:1055B800C2F22002222103F022F9FEDEC1B2032941
:1055C80028BF00207047C1B2052928BF00207047B6
:1055D80008218180002181714FF4FA5101607047E0
:1055E800022070470F207047B0B502AF0546086823
:1055F8000C4640F480300860086840F040000860BD
:10560800222063F31340486040F26850C0F20C1047
:10561800086240F29510C0F2B2004862DC20C0F285
:105628007A0088627D20C0F25800C8624B20C0F220
:10563800400008632F20C0F22E004863886346F6B6
:105648002010C86040F6A31088604FF4C840C861B5
:105658004FF4C860886140F6C410C0F68040086105
:105668003F204861086820F003001043086008687C
:1056780020F480300860C86F4021281D04F084F8A9
:1056880010202C606864B0BD90F800C0DFE80CF012
:1056980004080C1014181C20096801F1680C1AE0A1
:1056A800096801F16C0C16E0096801F1700C12E050
:1056B800096801F1740C0EE0096801F1780C0AE040
:1056C800096801F17C0C06E0096801F1800C02E030
:1056D800096801F1840C40780321DCF800304000AF
:1056E800C0B2824001FA00F023EA00001043CCF86F
:1056F80000007047F0B503AF2DE9000B44F2E0431A
:10570800C4F21F031B68C3F30B2E4FEA135CE64574
:105718001FBF0124C1F88841DBB24FF47A781FBF5C
:1057280003FB08F9ACEB0E04D1F8906149F6586513
:105738001FBFCFF6FF7513FB085393FBF4F3C2EAC0
:1057480006021FBFC1F8902180E80A40C0F80C90FB
:10575800BDE8000B18BFF0BD40F6B02040F6982217
:10576800C2F22000C2F22002192103F048F8FEDE3E
:1057780000F1340200F150011046704780B56F46C1
:1057880000684FF400514FF480524FF0400C4FF432
:10579800803E00E0416103699B04FBD50369DB049B
:1057A80001D44261F7E70369B3F1FF3FF3DC036912
:1057B800DB0306D403695B0648BF80BDC0F814C08C
:1057C800E9E7C0F818E0E6E7006803E0816C002923
:1057D80008BF7047816C29B1816C00291CBF816C9E
:1057E8000029F3D170470068426D22F0030211438B
:1057F8004165704740F22762914238BF0A46B2F5C8
:10580800487F98BF4FF44872A2F5487144F2AF73CD
:1058180000688AB25A43C368A1EB124189B24908A9
:1058280001EB124123F01F0242EA1111C16004E0AA
:105838000168B1F1FF3FD8BF70470168002905D45E
:10584800016800295CBF01680029F1D57047F0B5EF
:1058580003AF2DE90007ADF5047D6D468046284667
:105868004FF4007103F090FF44F2C42AA5F110062A
:10587800C2F2000A0DF5007900245546DAE9600104
:10588800CDE9820148468194809502F01DFD80ABE8
:1058980001340C35202C0FCB46F8100F06F104000C
:1058A8000EC0EBD1694640464FF4007203F06AFF20
:1058B8000DF5047DBDE80007F0BD704780B56F4663
:1058C800D0E9072E4FF0004C4FF08043CEF834C09B
:1058D800CEF838C0CEF838300023CEF80030022396
:1058E800C2F84031D2F840319B070CD5D2F840318C
:1058F8009B0744BFD2F840315FEA837303D5D2F8DF
:1059080040319B07EED44FF0000C0A23C2F840C187
:105918000029C2F8A831D2F8843123F0807308BF77
:1059280003F18073C2F88431D2F844110068C2F8D8
:105938004411C2F848C1C2F8580180BDF0B503AFA0
:105948002DE9000B9AB00446C069D0F8B811C0F828
:10595800B811E069D0F8BC11C0F8BC11E069D0F802
:105968007811C0F878110021E069C0F87C11E0696D
:10597800D0F8B01159B1D0F8B01100291CBFD0F837
:10598800B011002903D0D0F8B0110029F0D14FF0A0
:10599800FF31C0F8B411E069D0F8B41159B1D0F8AA
:1059A800B41100291CBFD0F8B411002903D0D0F8D5
:1059B800B4110029F0D10026082001ADCDE9066018
:1059C800012005F110090DF14808059000201094F8
:1059D8000C960896039601963EE0007C10F07F0135
:1059E80004D157E0007C10F07F013CD011910139BF
:1059F800062953D8DFE801F004080C1014181C001D
:105A0800E16901F5E27116E0E16901F5E47112E07E
:105A1800E16901F5E6710EE0E16901F5E8710AE076
:105A2800E16901F5EA7106E0E16901F5EC7102E06E
:105A3800E16901F5EE7140B2B0F1FF3F4FF400208B
:105A48006FF40C03C8BF08200A68C8BF6FF08C0346
:105A58001A40104308600198129500281EBF02984A
:105A680002960028BED10598019602280AD0484619
:105A780041462A4600F0B0FF20B1007C10F07F01BB
:105A8800B4D1E8E70398019600281EBF049804964D
:105A98000028A2D11AB0BDE8000BF0BD002040F6E6
:105AA800085116900220139040F69840C2F2200048
:105AB800C2F2200112900120159018A8149047F204
:105AC8001700C0F20000199011A8189012A802F04F
:105AD80080FEFEDE80B56F4602464368C8B24900C4
:105AE80041EAD011C8B2834216D9936901F00F0177
:105AF8001B68BFF35F8F9BB223FA01F1C9070BD074
:105B08005169814284BF012080BD40F63462C2F2EF
:105B1800200202F08BFEFEDE002080BDF0B503AF50
:105B28002DE9000F83B08046486800281FBF8869A8
:105B38000068BFF35F8F5FEAC0700BD140F6C920E1
:105B480040F65832C2F22000C2F220022B2102F0A5
:105B580056FEFEDE4869002800F0148151F81C4FFB
:105B680091460122082B51F80C0C90F910E0D4F85A
:105B7800AC510EF01F0C02FA0CF66ED316EA0502B1
:105B88006BD08568C4F8AC61D4F8402142F4005267
:105B9800C4F84021D5E90A36D4F84021920425D426
:105BA800D4F8402142F40052C4F84021D5E90A361D
:105BB800D4F8402192045FBFD4F8402142F4005247
:105BC800C4F84021D5E90A365CBFD4F840215FEA21
:105BD80082420BD4D4F8402142F40052C4F8402148
:105BE800D5E90A36D4F840219204CDD5D4F840211D
:105BF800012522F40052C4F84021C9F80460C9F80C
:105C08000030027CD4F8B86153B202F01F02002BB6
:105C180048BF360C95402E40360614D14FF48036D6
:105C2800B3F1FF3FC8BF01264FF47F0306FA02F223
:105C3800C8BFFF231A40C4F8782182681268C2F3EB
:105C48000A4200F045FE0820C8F80400002088F841
:105C5800000003B0BDE8000FF0BDC268526812F042
:105C6800680F01D0072009E0D4F8B821BEF1000F71
:105C780048BF120C3240120609D0002088F80100F3
:105C8800012088F8000003B0BDE8000FF0BD4FF414
:105C980080364FF47F02BEF1FF3FC8BF0126C8BF60
:105CA800FF2206FA0CF63240C4F8BC2190F9102005
:105CB8004FF4803A4FF47F05B2F1FF3F02F01F0224
:105CC800C4BFFF254FF0010A0AFA02F22A40C4F8BD
:105CD8007821D0E9026235685468D269C5F30A4C64
:105CE800C4F30E459C45A2EB050228BF9C4694458B
:105CF80028BF94469C454ED8D0F804B0DC4538BF40
:105D0800E346BBF1000F35D0D0F800A009EB0C0337
:105D1800ABF1010EABF1020200260292ABF10302D5
:105D28000192B44525D00AEB06044A46B6452578C3
:105D380002F8015B18BF9A421BD0627889F80120EB
:105D4800029AB2421CBF09F102029A4211D0A2780B
:105D580089F80220019AB2421CBF09F103029A4253
:105D680007D0E278043689F8032009F10409B3451D
:105D7800D7D186683268C2F30A4200F0A9FDC8F894
:105D880004B063E740F644620020C2F2200200211A
:105D980002F04CFDFEDE40F63C426046C2F22002B4
:105DA800194603F009F9FEDEF0B503AF2DE9000F3F
:105DB80085B0834648680228C0F0298188690E4664
:105DC8000068BFF35F8F800740F121817169012965
:105DD80040F20C813569296A496811F0680F01D0D1
:105DE800072015E0B24695F824105AF81C9F9046F3
:105DF80001244FFA81FC01F01F01D9F8B821BCF148
:105E0800000F48BF120C8C402240120609D0002017
:105E18008BF8010001208BF8000005B0BDE8000FE9
:105E2800F0BD4FF48032BCF1FF3FC8BF01224FF4F0
:105E38007F0402FA01F1C8BFFF242140C9F8781194
:105E4800D5E9062105F114000968C1F30A41994210
:105E580038BF0B46934238BF1A46002A4DD0D51E8C
:105E68000495056808EB0301541EA2F1020CCDE964
:105E7800029A4FF00009019010464B4529D042463E
:105E880005EB090A12F801EB4C458AF800E018BF47
:105E98008A421ED098F80120CC458AF801201CBF00
:105EA80008F102028A4214D098F802208AF80220E7
:105EB800049A4A451CBF08F103028A4209D098F89F
:105EC800032009F1040908F1040848458AF8032069
:105ED800D3D1012101EB541A0AF00309044602F058
:105EE80036FA4EF6707025F01F01CEF20000A0467B
:105EF800612C08D2DDF80CA017E09046514600222C
:105F080000F0E6FC23E02AF00302DDF80CA001F122
:105F180020030160036001F14003036001F16003A5
:105F2800043A01F180010360F1D1B9F1000F1CBFFF
:105F38000160B9F1010F50D102F009FA02F00AFA32
:105F480001985146424600F0C3FCDDF80890B0695C
:105F58000068BFF35F8FC00765D0706900284DD017
:105F680030690126017CD9F8B8314AB201F01F0125
:105F7800002A48BF1B0C8E4033401B0624D1B2F1C7
:105F8800FF3F4FF48032C8BF01224FF47F0502FA69
:105F980001F1C8BFFF252940C9F8BC1190F91010BC
:105FA8004FF480334FF47F060022B1F1FF3F01F038
:105FB8001F01C4BFFF26012303FA01F13140C9F8CC
:105FC8007811514600F084FC0020CBF804808BF84F
:105FD800000005B0BDE8000FF0BD01F1200202602D
:105FE800B9F1020F1CBF40310160A5E740F64462D9
:105FF8000120C2F2200202F019FCFEDE40F64462E3
:106008000020C2F22002002102F010FCFEDE40F661
:10601800C92040F66832C2F22000C2F220022B21C9
:1060280002F0EDFBFEDE40F6C92040F67832C2F2FF
:106038002000C2F220022B2102F0E1FBFEDEF0B5C7
:1060480003AF2DE9000F83B08046387A91460C469D
:106058004A68410041EAD011C8B2824240F2C48085
:10606800A26901F00F011268BFF35F8F92B222FAA2
:1060780001F1C90700F0B8806169814240F2AD8042
:10608800216900EB800001EB8000C168496811F0CC
:10609800680F01D0072012E02146027C51F81CCF7E
:1060A80002F01F0E56B20122DCF8B85102FA0EF2C5
:1060B800002E48BF2D0C2A40120609D0002088F86F
:1060C8000100012088F8000003B0BDE8000FF0BD12
:1060D800A28D06F00F04E240D207EFD0B6F1FF3FE1
:1060E8004FF480344FF47F06C8BF0124C8BFFF2691
:1060F80004FA0EF42640CCF8BC6190F910604FF415
:1061080080324FF47F05B6F1FF3F06F01F06C4BF8B
:10611800FF250122B2402A40CCF87821D0E902625A
:1061280035685468D269C5F30A4CC4F30E459C45DA
:10613800A2EB050228BF9C46944528BF94469C457F
:106148005ED8D0F804B0DC4538BFE346BBF1000F99
:1061580035D0D0F800A009EB0C03ABF1010EABF180
:10616800020200260292ABF103020192B44525D047
:106178000AEB06044A46B645257802F8015B18BFC3
:106188009A421BD0627889F80120029AB2421CBF59
:1061980009F102029A4211D0A27889F80220019AE4
:1061A800B2421CBF09F103029A4207D0E2780436D2
:1061B80089F8032009F10409B345D7D18668326804
:1061C800C2F30A4200F084FBC8F804B0002088F843
:1061D800000003B0BDE8000FF0BD40F64462C2F213
:1061E800200202F023FBFEDE40F6C92040F688328A
:1061F800C2F22000C2F220022B2102F000FBFEDED8
:1062080040F63C426046C2F22002194602F0D4FE33
:10621800FEDEF0B503AF2DE9000F83B08346387A70
:1062280096460D464A68410041EAD011C8B28242FA
:1062380040F2D380AA6901F00F011268BFF35F8FA3
:1062480092B222FA01F1C90700F0C7806969814258
:1062580040F2BC80296900EB800001EB8009D9F885
:106268000C00406810F0680F01D0072011E099F881
:106278001010012655F81C0F4CB201F01F01D0F880
:10628800B821002C48BF120C8E403240120609D0AB
:1062980000208BF8010001208BF8000003B0BDE856
:1062A800000FF0BD4FF48032B4F1FF3FC8BF0122A8
:1062B8004FF47F0602FA01F1C8BFFF263140C0F84B
:1062C8007811D9E901800068C0F30A40984238BFC4
:1062D8000346434538BF9846B8F1000F5FD0A8F190
:1062E8000200D9F800600290A8F103000EEB030148
:1062F800A8F1010A01900020834225D07246341883
:1063080012F801CB824584F800C018BF8A421BD01E
:106318009EF801206270029A82421CBF0EF10202AE
:106328008A4211D09EF80220A270019A82421CBFB4
:106338000EF103028A4207D09EF8032004300EF1C2
:10634800040E8045E270D7D1012000EB5A1404F006
:10635800030A01F0FCFF4EF6707026F01F01CEF222
:106368000000B8F1610F0FD324F0030201F12003FC
:106378000160036001F14003036001F16003043A26
:1063880001F180010360F1D1BAF1000F1CBF016077
:10639800BAF1010F11D101F0DAFF01F0DBFF484635
:1063A8002946424600F094FACBF8048000208BF886
:1063B800000003B0BDE8000FF0BD01F1200202604B
:1063C800BAF1020F1CBF40310160E4E740F64462B5
:1063D800C2F2200202F02AFAFEDE40F6C92040F698
:1063E8009832C2F22000C2F220022B2102F007FAF2
:1063F800FEDED4D4B0B502AF8AB003464468D0B24A
:10640800550045EAD015E8B2844240F2A1809C6963
:1064180005F00F052468BFF35F8FA4B224FA05F5D1
:10642800ED0700F09580D3F814C0844540F28880C9
:106438001D6900EB800005EB8000057C05F07F04FA
:106448000194072C00F2908003F11C0C4FFA85FE92
:10645800DFE804F004280D161F313A4BDCF8005031
:1064680005F5E0742368BEF1000F46D534E0DCF88A
:10647800005005F5E4742368BEF1000F3DD52BE00C
:10648800DCF8005005F5E6742368BEF1000F34D53A
:1064980022E0DCF8005005F5E8742368BEF1000F2F
:1064A8002BD519E0DCF8005005F5E2742368BEF13D
:1064B800000F22D510E0DCF8005005F5EA742368D7
:1064C800BEF1000F19D507E0DCF8005005F5EC74B3
:1064D8002368BEF1000F10D523F4803361F3104315
:1064E80052B2002A23600FD51EE0DCF8005005F5F3
:1064F800EE742368BEF1000FEED423F001030B44C1
:1065080052B2002A23600FD471B9D5F8B81101230B
:1065180090F91020002A02F01F0248BF090C03FA64
:1065280002F21140090601D00AB0B0BD81680968BD
:10653800C1F30A4261460AB0BDE8B04000F0C8B9EC
:1065480040F644626146C2F2200202F06FF9FEDEB4
:1065580040F6C92040F6A832C2F22000C2F220025A
:106568002B2102F04CF9FEDE002040F6085106907F
:106578000220039040F69840C2F22000C2F22001A7
:1065880002900120059008A8049047F21700C0F275
:106598000000099001A8089002A802F01AF9FEDE8E
:1065A80080B56F468AB0CBB2490041EAD311426840
:1065B800CBB29A4252D9826901F00F011268BFF337
:1065C8005F8F92B222FA01F1C90747D04169994217
:1065D8003CD9016903EB830201EB8201097C01F0DC
:1065E8007F020192072A45D849B2DFE802F0041475
:1065F800080C10181C20C06900F5E0701AE0C0698A
:1066080000F5E47016E0C06900F5E67012E0C069B4
:1066180000F5E8700EE0C06900F5E2700AE0C069B4
:1066280000F5EA7006E0C06900F5EC7002E0C069A8
:1066380000F5EE7000684FF48032B1F1FF3FC8BF3B
:106648000122104018BF01200AB080BD40F6346214
:106658001846C2F2200202F0E9F8FEDE40F6C92030
:1066680040F6B832C2F22000C2F220022B2102F01A
:10667800C6F8FEDE002040F608510690022003907E
:1066880040F69840C2F22000C2F220010290012098
:10669800059008A8049047F21700C0F2000009907E
:1066A80001A8089002A802F094F8FEDEF0B503AF46
:1066B8002DE900079AB0002680461090082001AD09
:1066C800CDE90660012008F11C0405F1100A0DF15E
:1066D8004809059000200C9608960396019644E018
:1066E800017C11F07F0204D15EE0017C11F07F0291
:1066F80042D01192013A062A00F2CE80DFE802F079
:1067080004080C1014181C00226802F5E27216E046
:10671800226802F5E47212E0226802F5E6720EE0E1
:10672800226802F5E8720AE0226802F5EA7206E0D9
:10673800226802F5EC7202E0226802F5EE72407CF3
:1067480049B21368002908D400F00F0023F00C01A7
:1067580041EA800040F0C00005E023F44C0141EA22
:10676800804040F4400010600198129500281EBF38
:10677800029802960028B8D10598019602280AD0F6
:10678800504649462A4600F027F920B1017C11F00D
:106798007F02AED1E8E70398019600281EBF04984F
:1067A800049600287FF49CAF00260820CDF840808E
:1067B8000DF14808CDE906600120059000200C96EF
:1067C80008960396019600E00198129500281EBFCE
:1067D8000298029600281BD10598019602280AD033
:1067E800504641462A4600F0F7F820B1017C11F0E6
:1067F8007F0211D13FE00398019600281EBF04983C
:106808000496002844D0017C11F07F0204D13FE0B7
:10681800017C11F07F02DFD01192013A062A3BD8A1
:10682800DFE802F004080C1014181C00226802F5B6
:10683800E27216E0226802F5E47212E0226802F5BC
:10684800E6720EE0226802F5E8720AE0226802F5B4
:10685800EA7206E0226802F5EC7202E0226802F5AC
:10686800EE724BB21268B3F1FF3F4FF40003C8BF9A
:1068780080231A42A8D049B2B1F1FF3FA4DD816854
:106888000968C1F30A42214600F022F801989CE702
:106898001AB0BDE80007F0BD002040F60851169078
:1068A8000220139040F69840C2F22000C2F2200164
:1068B80012900120159018A8149047F21700C0F202
:1068C8000000199011A8189012A801F082FFFEDEAE
:1068D800F0B503AF4DF8048D82B005468846EE68E2
:1068E8000121006831607168F26162F31E417160D4
:1068F800CAB1B06040F6FF71B068884300F58050B7
:10690800F060F0686FF30B0000F58050306130697B
:106918006FF30B0000F58050706170696FF30B0026
:1069280000F5805004E00020B060F06030617061D4
:10693800B0618021706840F400407060706861F355
:1069480007007060009601F002FD4EF6707468460C
:10695800CEF2000420F01C00206001F0F8FC01F0E9
:10696800F9FCA8688660C16821F0FF01C160019048
:1069780001F0EDFC01A820F01C0020602030206010
:1069880001F0E5FC01F0E6FC95F910204FF47F01D9
:10699800D8F800004FF48033B2F1FF3F02F01F0235
:1069A800C8BFFF21C8BF012303FA02F21140C0F893
:1069B800B011D0F8B01159B1D0F8B01100291CBFEE
:1069C800D0F8B011002903D0D0F8B0110029F0D1C7
:1069D80002B05DF8048BF0BDF0B503AF2DE9000FF0
:1069E80081B0C16800291CBFD0E9041A8A4540F06B
:1069F80087800168002971D0D0E9011E71456DD2E8
:106A0800D0F82CB002244FF0010A4FF0000906E03C
:106A1800C2F800A0C6454146C2F804905ED041F0D5
:106A28008003CDB201F101084E00446146EAD51158
:106A3800DBF8044045EA03230383CBB29C42C0F849
:106A48000480C0E903AA1DD9DBF8185001F00F0132
:106A58002D68BFF35F8FADB225FA01F1C90711D0D8
:106A6800DBF81410994240F2B880DBF8101003EB01
:106A78008303C2E900A901EB830C9CF810104906B6
:106A880002D026E0C2E900A9711CDBF804500224F8
:106A9800CBB29D420461BBD9DBF8186001F00F014D
:106AA8003668BFF35F8FB6B226FA01F1C907AFD0D7
:106AB800DBF81410994240F29080DBF8101003EBD9
:106AC8008303C2E900A901EB830C9CF81010490666
:106AD800A0D0604601B0BDE8000FF0BDC1694FF01D
:106AE800000CC0F80CC000291CBFD0E9081A8A4560
:106AF8003BD1C0F81CC0604601B0BDE8000FF0BD36
:106B0800C56A00F118094FF0000E4FF0010807E0C0
:106B1800C2F80080A2452146C2F804E03FF469AFFC
:106B28004C1C046119F801106E684B0043EAD1113E
:106B3800CBB29E42ECD9AE6901F00F013668BFF3C3
:106B48005F8FB6B226FA01F1C907E1D069699942A7
:106B580043D9296903EB8303C2E9008E01EB830C57
:106B68009CF810104906D5D0B3E7C56A00F128098A
:106B78004FF0000E4FF0010806E0C2F80080A24571
:106B88002146C2F804E0B4D04C1C046219F8011084
:106B98006E684B0043EAD111CBB29E42EDD9AE6983
:106BA80001F00F013668BFF35F8FB6B226FA01F124
:106BB800C907E2D0696999420FD9296903EB8303B0
:106BC800C2E9008E01EB83010B7C5B06D7D08C46B3
:106BD800604601B0BDE8000FF0BD40F644621846BB
:106BE800C2F2200201F022FEFEDE70470144704727
:106BF800F0B503AF4DF804BD82B0044690F83400F8
:106C08000D4698B12068C0BB206A4FF0FF31216063
:106C1800D0F8481121F0410165F3000165F38611B0
:106C2800C0F8481120680130206022E001F095FB8F
:106C3800064601F088FB01F098FB2068E8B9206A55
:106C48004FF0FF312160D0F8481121F0410165F380
:106C5800000165F38611C0F84811206801302060F2
:106C6800F00706D102B05DF804BBBDE8F04001F0C2
:106C78006CBB02B05DF804BBF0BD40F6C05040F6F6
:106C8800B053C2F2200001AA009040F21010C2F2E4
:106C98002000C2F22003102101F0E8FDFEDEF0B56D
:106CA80003AF4DF804BD82B0044690F834000E4698
:106CB80048B32068002869D14FF0FF307100206088
:106CC800F0B241EAD011A268C8B2824217D9E2698B
:106CD80001F00F011268BFF35F8F92B222FA01F13F
:106CE800C9070CD0A169814249D9616900EB8000CC
:106CF80001EB80008068016821F000510160206884
:106D08000130206037E001F028FB054601F01BFB4D
:106D180001F02BFB2068C8BB4FF0FF3071002060EA
:106D2800F0B241EAD011A268C8B2824217D9E2692A
:106D380001F00F011268BFF35F8F92B222FA01F1DE
:106D4800C9070CD0A169814219D9616900EB80009B
:106D580001EB80008068016821F000510160206823
:106D680001302060E80706D102B05DF804BBBDE839
:106D7800F04001F0EABA02B05DF804BBF0BD40F69D
:106D88004462C2F2200201F051FDFEDE40F6C0501E
:106D980040F6B053C2F2200001AA009040F2101051
:106DA800C2F22000C2F22003102101F05FFDFEDED6
:106DB800F0B503AF2DE9000F83B0066831680029EC
:106DC80040F0F580D0E90119B346D0E903854FF0CA
:106DD800FF304BF8040B087898B34D78B268680018
:106DE80040EAD511C8B2824211D9F26901F00F0107
:106DF8001268BFF35F8F92B222FA01F1C90706D079
:106E0800B169814240F2CC8001200521C1E0F26ADB
:106E18000120B9F8003004219A4222BFB46AD21A7C
:106E2800A242C0F0B680F262294698F800000090AD
:106E3800584600F00FFD002800F0CB8000202946BE
:106E4800A7E02878B26840F0010AC0F3C01040EA11
:106E58004A01C8B2824240F28680F26901F00F010D
:106E68001268BFF35F8F92B222FA01F1C9077AD094
:106E7800B169814240F294802878B26840F0020AF1
:106E8800C0F3C01040EA4A01C8B282426BD9F26925
:106E980001F00F011268BFF35F8F92B222FA01F17D
:106EA800C90760D0B16981427AD92878B26840F0C0
:106EB800030AC0F3C01040EA4A01C8B2824252D95C
:106EC800F26901F00F011268BFF35F8F92B222FAE4
:106ED80001F1C90747D0B169814261D92878B26800
:106EE80040F0040AC0F3C01040EA4A01C8B2824226
:106EF80039D9F26901F00F011268BFF35F8F92B2BE
:106F080022FA01F1C9072ED0B169814248D92878FF
:106F1800B26840F0050AC0F3C01040EA4A01C8B29E
:106F2800824220D9F26901F00F011268BFF35F8F26
:106F380092B222FA01F1C90715D0B16981422FD95D
:106F4800287840F0060A58465146FEF7C3FD50B16E
:106F5800287840F0070A58465146FEF7BBFD10B1A5
:106F68000120032115E0F26A0120B9F8003004215C
:106F78009A4222BFB56AD21AAA420AD3F26251468D
:106F880098F800000090584600F064FC08B3002010
:106F9800514632680132326003B0BDE8000FF0BDDF
:106FA80040F63462C2F2200201F040FCFEDE40F6F8
:106FB800C05040F6B053C2F2200002AA009040F23E
:106FC8001010C2F22000C2F22003102101F04EFC82
:106FD800FEDE40F6C92040F6C832C2F22000C2F2F6
:106FE80020022B2101F00BFCFEDEB0B502AF82B00F
:106FF800044690F8340060B1206828BB4FF0FF3099
:107008002060201DFFF752FB20680130206002B08D
:10701800B0BD01F0A2F9054601F095F901F0A5F916
:10702800206888B94FF0FF302060201DFFF73EFB35
:10703800206801302060E80704D102B0BDE8B04004
:1070480001F083B902B0B0BD40F6C05040F6B0536D
:10705800C2F2200001AA009040F21010C2F22000F3
:10706800C2F22003102101F001FCFEDEF0B503AFEF
:107078004DF804BD88B007F82D1CA7F12D01079124
:10708800A7F127010691A7F12601059190F8341080
:10709800D7E902568DF8042001AA8DF8053007F8C3
:1070A800275C27F8266CCDE9030221B103A8FFF776
:1070B8007FFE0C4611E001F050F9064601F043F955
:1070C80001F053F903A8FFF773FE0546F0070C46D5
:1070D80008BF01F03AF905F0010000F0010021466F
:1070E80008B05DF804BBF0BDF0B503AF4DF804BDC2
:1070F80082B0044690F834000D4670B1206870BB29
:10710800206A4FF0FF312160690601F18071C0F8F3
:1071180054112068013020601DE001F01EF9064678
:1071280001F011F901F021F92068C0B9206A4FF087
:10713800FF312160690601F18071C0F8541120689F
:1071480001302060F00706D102B05DF804BBBDE84D
:10715800F04001F0FAB802B05DF804BBF0BD40F6AB
:10716800C05040F6B053C2F2200001AA009040F28D
:107178001010C2F22000C2F22003102101F076FBA9
:10718800FEDEB0B502AF82B0044690F8340078B1A4
:107198002068002801BF206AD0F840110022226030
:1071A80001BF41F00101C0F8401102B0B0BD18E0C4
:1071B80001F0D3F8054601F0C6F801F0D6F82068CA
:1071C80078B9206A0022D0F84011226041F001010C
:1071D800C0F84011E80716D102B0BDE8B04001F090
:1071E800B4B840F6C05040F6B053C2F2200001AA2D
:1071F800009040F21010C2F22000C2F220031021C9
:1072080001F034FBFEDE02B0B0BDB0B502AF82B013
:10721800044690F8340060B1206828BB4FF0FF3076
:107228002060201DFEF78AFB20680130206002B034
:10723800B0BD01F092F8054601F085F801F095F827
:10724800206888B94FF0FF302060201DFEF776FBDC
:10725800206801302060E80704D102B0BDE8B040E2
:1072680001F073B802B0B0BD40F6C05040F6B0535C
:10727800C2F2200001AA009040F21010C2F22000D1
:10728800C2F22003102101F0F1FAFEDEF0B503AFDF
:107298002DE9000784B0044691F83400D7F8088037
:1072A8009A4616460D46B8B32868002840F09E80D6
:1072B8004FF0FF3071002860F0B241EAD011AA689F
:1072C800C8B282421DD9EA6901F00F011268BFF302
:1072D8005F8F92B222FA01F1C90712D0A9698142DF
:1072E8007DD9291D70065FD001A8524643460096F5
:1072F800FEF78FFF9DF8040000285ED09DF805007A
:1073080000E005206070012029682070481C286072
:1073180004B0BDE80007F0BD01F01FF8814601F098
:1073280012F801F022F8286800285FD14FF0FF30EA
:1073380071002860F0B241EAD011AA68C8B282424E
:107348001ED9EA6901F00F011268BFF35F8F92B28C
:1073580022FA01F1C90713D0A96981423FD9291D31
:1073680070062ED001A8524643460096FEF751FFFC
:107378009DF8040070B39DF805604FF0010802E025
:107388004FF0010805262868013028605FEAC970B7
:1073980008BF00F0DAFFF0B248EA0020C4E9000AAA
:1073A80004B0BDE80007F0BD01A852464346FEF709
:1073B800FBFC9DF804000028A0D102986060002022
:1073C800A2E701A852464346FEF7EEFC9DF80400EA
:1073D8000028D0D1DDF808A04FF00008D3E740F628
:1073E8003462C2F2200201F021FAFEDE40F6C050FB
:1073F80040F6B053C2F2200003AA009040F21010E9
:10740800C2F22000C2F22003102101F02FFAFEDEA2
:10741800F0B503AF2DE9000784B0044691F83400B5
:10742800D7F808809A4616460D46B8B3286800284B
:1074380040F09E804FF0FF3071002860F0B241EAC2
:10744800D011AA68C8B282421DD9EA6901F00F01B9
:107458001268BFF35F8F92B222FA01F1C90712D006
:10746800A96981427DD9291D70065FD001A85246BD
:1074780043460096FEF7E3FD9DF8040000285ED021
:107488009DF8050000E00520607001202968207043
:10749800481C286004B0BDE80007F0BD00F05DFF9F
:1074A800814600F050FF00F060FF286800285FD197
:1074B8004FF0FF3071002860F0B241EAD011AA689D
:1074C800C8B282421ED9EA6901F00F011268BFF3FF
:1074D8005F8F92B222FA01F1C90713D0A9698142DC
:1074E8003FD9291D70062ED001A852464346009662
:1074F800FEF7A5FD9DF8040070B39DF805604FF0F8
:10750800010802E04FF001080526286801302860CC
:107518005FEAC97008BF00F018FFF0B248EA00201F
:10752800C4E9000A04B0BDE80007F0BD01A852464E
:107538004346FEF7F3FA9DF804000028A0D102980C
:1075480060600020A2E701A852464346FEF7E6FA2B
:107558009DF804000028D0D1DDF808A04FF00008FD
:10756800D3E740F63462C2F2200201F05FF9FEDE92
:1075780040F6C05040F6B053C2F2200003AA009073
:1075880040F21010C2F22000C2F22003102101F0D4
:107598006DF9FEDEF0B503AF4DF8048D82B00446F8
:1075A80090F8340016460D4620B32068002860D1B4
:1075B8004FF0FF3069002060E8B241EAD011A268BC
:1075C800C8B2824212D9E26901F00F011268BFF312
:1075D8005F8F92B222FA01F1C90707D0A1698142EF
:1075E80040D9201D31462A46FEF704FF20680130A5
:1075F800206033E000F0B1FE804600F0A4FE00F009
:10760800B4FE2068A8BB4FF0FF3069002060E8B2E4
:1076180041EAD011A268C8B2824212D9E26901F0E7
:107628000F011268BFF35F8F92B222FA01F1C90706
:1076380007D0A169814215D9201D31462A46FEF797
:10764800D9FE2068013020605FEAC87006D102B018
:107658005DF8048BBDE8F04000F077BE02B05DF83D
:10766800048BF0BD40F63462C2F2200201F0DEF86D
:10767800FEDE40F6C05040F6B053C2F2200001AA28
:10768800009040F21010C2F22000C2F22003102134
:1076980001F0ECF8FEDEF0B503AF4DF804BD82B0A2
:1076A800044690F834000D4698B120684FF6FE71F4
:1076B800C7F6FF7188422DD801302060201D294669
:1076C800FEF76EFF21680139216002B05DF804BB46
:1076D800F0BD00F042FE064600F035FE00F045FE23
:1076E80020684FF6FE71C7F6FF71884212D8013044
:1076F8002060201D2946FEF753FF05462068013803
:107708002060F00708BF00F020FE284602B05DF8B0
:1077180004BBF0BD40F6A05040F63053C2F2200042
