:0200000460009A
:100000004643464200000156000000000101020084
:1000100000000000000000000000000000000000E0
:1000200000000000000000000000000000000000D0
:1000300000000000000000000000000000000000C0
:1000400000000000010403000000000000000000A8
:100050000000200000000000000000000000000080
:100060000000000000000000000000000000000090
:100070000000000000000000000000000000000080
:10008000EB04180A063204260000000000000000FD
:10009000050404240000000000000000000000002F
:1000A0000000000000000000000000000000000050
:1000B0000604000000000000000000000000000036
:1000C0000000000000000000000000000000000030
:1000D00020041808000000000000000000000000DC
:1000E0000000000000000000000000000000000010
:1000F0000000000000000000000000000000000000
:1001000000000000000000000000000000000000EF
:100110000204180804200000000000000000000095
:1001200000000000000000000000000000000000CF
:10013000600400000000000000000000000000005B
:1001400000000000000000000000000000000000AF
:10015000000000000000000000000000000000009F
:10016000000000000000000000000000000000008F
:10017000000000000000000000000000000000007F
:10018000000000000000000000000000000000006F
:10019000000000000000000000000000000000005F
:1001A000000000000000000000000000000000004F
:1001B000000000000000000000000000000000003F
:1001C000000100000010000001000000000000001D
:1001D000000000000000000000000000000000001F
:1001E000000000000000000000000000000000000F
:1001F00000000000000000000000000000000000FF
:10020000D4D4D4D4D4D4D4D4D4D4D4D4D4D4D4D4AE
:10100000D10020400020006000000000000000002F
:1010100020100060001000600000000000000000D0
:1010200000000060BCAE000000000000EFBEADDEBE
:10103000124880F3088812481249016000F036F81F
:10104000114812490022814201D004C0FBE7104838
:101050001049114A814202D008CA08C0FAE70F4875
:101060004FF47001026842EA01020260BFF34F8F41
:10107000BFF36F8F00F014F800DE00000040002086
:1010800008ED00E000400020005000209485002082
:10109000B842002058440020BCAE006088ED00E05B
:1010A00040F2B75CC0F2000C6047D4D41C4840F258
:1010B000924188420CBF1B4A1B4A1C4B5360136869
:1010C00023F0800313601A481A4901BF1A480A0C1A
:1010D0008264C1F30F014164016C41F004010164B9
:1010E0001648174A824205D01649814202D008CAE2
:1010F00008C0FAE71448154A824205D014498142D3
:1011000002D008CA08C0FAE71248134A824205D042
:101110001249814202D008CA08C0FAE770470000AD
:10112000240400000080034000C00B4020C528D9E3
:1011300000C00A40AAAAFAFF00400E4000000000CA
:10114000B82200607076000000400020002000609F
:10115000B84200200000202028990060941520202B
:10116000D4D4D4D4D4D4D4D4D4D4D4D4D4D4D4D43F
:10117000D4D4D4D4D4D4D4D4D4D4D4D4D4D4D4D42F
:10118000D4D4D4D4D4D4D4D4D4D4D4D4D4D4D4D41F
:10119000D4D4D4D4D4D4D4D4D4D4D4D4D4D4D4D40F
:102000000040002031100060C51A00005576000025
:10201000C51A0000C51A0000C51A00000000000023
:10202000000000000000000000000000C51A0000D1
:10203000C51A000000000000C51A000015070000C6
:10204000C51A0000C51A0000C51A0000C51A000014
:10205000C51A0000C51A0000C51A0000C51A000004
:10206000C51A0000C51A0000C51A0000C51A0000F4
:10207000C51A0000C51A0000C51A0000C51A0000E4
:10208000C51A000000000000000000000000000071
:10209000C51A0000C51A0000C51A0000C51A0000C4
:1020A000C51A0000C51A0000C51A0000C51A0000B4
:1020B000C51A0000C51A0000C51A0000C51A0000A4
:1020C000C51A0000C51A0000C51A0000C51A000094
:1020D000C51A0000C51A0000C51A0000C51A000084
:1020E000C51A0000C51A0000C51A0000C51A000074
:1020F000C51A0000C51A0000C51A0000C51A000064
:10210000C51A0000C51A0000C51A0000C51A000053
:1021100000000000C51A000000000000C51A000001
:10212000C51A0000C51A0000C51A0000C51A000033
:10213000C51A0000C51A000000000000C51A000002
:10214000C51A0000C51A0000C51A0000C51A000013
:10215000C51A0000C51A00000000000000000000C1
:10216000C51A0000C51A0000C51A0000C51A0000F3
:10217000C51A0000C51A0000C51A0000C51A0000E3
:10218000C51A0000C51A0000C51A0000C51A0000D3
:10219000C51A0000C51A0000C51A0000C51A0000C3
:1021A000C51A0000C51A0000C51A0000C51A0000B3
:1021B000C51A0000C51A0000C51A0000C51A0000A3
:1021C000C51A0000C51A0000C51A00000000000072
:1021D000C51A00003B030000C51A0000C51A000024
:1021E000C51A0000C51A0000C51A0000C51A000073
:1021F000C51A0000C51A0000C51A0000C51A000063
:10220000C51A000075190000C51A0000C51A0000A3
:10221000C51A0000C51A0000C51A0000C51A000042
:10222000C51A0000C51A0000C51A0000C51A000032
:10223000C51A0000C51A0000C51A00000000000001
:1022400000000000C51A0000C51A0000C51A0000F1
:10225000C51A0000C51A0000C51A0000C51A000002
:10226000C51A0000C51A0000C51A0000C51A0000F2
:10227000C51A0000C51A0000C51A0000C51A0000E2
:10228000C51A0000C51A0000C51A0000C51A0000D2
:10229000C51A0000C51A0000C51A0000C51A0000C2
:1022A000C51A0000C51A0000C51A00000000000091
:0822B000C51A0000C51A000068
:1022B800F0B503AF2DE9000F87B0044690F8600031
:1022C8008846B8B1032840F06E8194F85C00E0B10C
:1022D800032840F06E8194F8590004F11405002891
:1022E80000F0C680032840D040F24810C2F2200017
:1022F80007F03AF8256848F27C560020C2F200063A
:1023080084F85C00C4E9016501E0D4E901654FF097
:10231800000905F0F3FE014684F8599066654219F4
:10232800002D18BF511CE16204F11405C4E9030132
:102338002246002042F8301F82F82800317900290F
:1023480000F01F812146012341F8340F81F8243021
:102358000B4643F81C0F01F11800C1E9051141E9CA
:10236800082041E9066341E90463D8F8006005F0F4
:10237800C5FE2D682968A0EB010ABAF1FF3F0EDD02
:10238800A06C0168002962D0007B00281CBF0020D7
:1023980084F8580094F85800002877D1A2E0A06982
:1023A800D0F800B0DBF80000002840F0DD80D6E966
:1023B8000010096888478046DBF8000089462D68C8
:1023C80000281EBFC168DBF8040088470020CBE95D
:1023D8000195CBF810008BF80C00E569CBF800806C
:1023E80005F0CCFEBFF35F8F2968002900F09D80BF
:1023F8008B68DBF80820D31A00F195800B69002B55
:1024080000F0AB809E68961B00F19980196900293D
:1024180000F09D808E68961B00F19B800B69002B55
:1024280000F09B809E68961B00F18980196900293D
:1024380000F08D808E68961B00F18B800B69002B55
:1024480000F08B809E681D46961BDFD583E0002137
:10245800D4E9095084F85810066805F08FFEBFF3D8
:102468005F8F296869B10A698E4204D12A6008E041
:10247800E16A666D5CE722B1964215D113461A6986
:102488000A6105F086FE94F8580058B3D4E909505B
:10249800066805F073FEBFF35F8F296801B30A6908
:1024A8008E4217D12A601BE011690029E9D08E42BB
:1024B8004AD00A69002AE4D09642DFD0116900297F
:1024C800DFD08E4240D00A69002ADAD096421346FD
:1024D800EAD1D4E722B196420FD113461A690A61AC
:1024E80005F057FE002084F85800606B00281EBFD6
:1024F800C168A06B8847012037E011690029EFD037
:102508008E421ED00A69002AEAD09642E5D01169A7
:102518000029E5D08E4214D00A69002AE0D09642FC
:102528001346EAD1DAE7CBF81010C5F800B005F089
:1025380030FE206AC0F800B005F0F8FD14E01D4632
:1025480009E00B461146C9E70B46114697E71946BD
:1025580003E00D461946CBF81050C1F810B005F04D
:1025680018FE206AC0F800B0032084F8600084F8E0
:102578005C0084F859004FEADA7007B0BDE8000F34
:10258800F0BD01210590029140F2D001C2F2200174
:1025980004900420019140F23811039001A8C2F27E
:1025A800200106F052F840F26C00C2F2200006F05A
:1025B800DBFE40F25810C2F2200006F0D5FE45F2CC
:1025C80000000121C2F200000068BFF35F8F80F8AD
:1025D80069104EF20C20CEF20000202101607047F5
:1025E80080B56F4605F0EAFDFCE7F0B503AF2DE9CD
:1025F800000B92B045F20000C2F20000046894F8A3
:102608006800002800F0C88004F169000021D0E8C3
:102618004F2F012A22D1C0E8421F002AF7D140F2E9
:102628000F30BFF35F8FC0F2000048F2905802905D
:1026380041F25810C2F2200040F2C4190190002063
:10264800059001A92078C2F20008C2F22009CDE95C
:102658000311002852D0032803D03DE0BFF32F8F89
:102668009AE0201D03A9FFF723FE002840F08C8084
:1026780094F86400032807D194F86000032804BF85
:1026880094F85D00032862D0D8F8000002281DD90C
:10269800002001210B900A900420089140F2D011EB
:1026A800099040F2D810C2F22001C2F2200007912E
:1026B80005F0FEFE11900920CDE90F900DAACDE995
:1026C8000D9007A80321002305F08BFE002084F855
:1026D80064004FF47A706060201D03A9FFF7E8FDDD
:1026E800002853D194F86400032807D194F86000B7
:1026F800032804BF94F85D00032836D0D8F80000FA
:1027080002281DD9002001210B900A90042008916D
:1027180040F26C11099040F2B410C2F22001C2F2EA
:102728002000079105F0C4FE11900920CDE90F9013
:102738000DAACDE90D9007A80321002305F051FE4D
:10274800002084F864004FF47A70606089E7D4E967
:102758000A60056805F012FDBFF35F8F316841B369
:102768000A698D421FD1326023E0D4E90A60056806
:1027780005F004FDBFF35F8F3168002946D00A6970
:102788008D423DD1326041E0032000E004202070FA
:10279800DDE90110C9688847002005F011FD12B075
:1027A800BDE8000BF0BD22B1954213D113461A695A
:1027B8000A6105F0EEFCA06B002184F85C1000288B
:1027C8001EBFC168E06B8847D8F8000002283FF6B2
:1027D8005FAF7BE711690029EBD08D423DD00A69D4
:1027E800002AE6D09542E1D011690029E1D08D4256
:1027F80033D00A69002ADCD095421346EAD1D6E7DD
:1028080022B1954213D113461A690A6105F0C1FC39
:10281800A06B002184F85C1000281EBFC168E06B23
:102828008847D8F8000002283FF66CAF88E711699E
:102838000029EBD08D4213D00A69002AE6D09542D0
:10284800E1D011690029E1D08D4209D00A69002A36
:10285800DCD095421346EAD1D6E70B461146A6E7E7
:102868000B461146D0E780B56F46A2B005F096FC3E
:1028780048F288500121C2F2000048F294540170D5
:102888004EF26540CEF20000F02101704EF20C10BD
:10289800CEF20000202101600020ADF86C0045F266
:1028A8000000C2F2000001A9016044F20000C2F277
:1028B8000004C2F20000A04203D905F079FCA0424E
:1028C80003D900F015F8FFF78BFE012100201D91B8
:1028D80040F21421C2F2200120901F9004201C9184
:1028E80040F21C211E901CA8C2F2200105F0ADFE8A
:1028F800D0B502AFADF59E6DCCAC204600F099FD89
:1029080003A8214600F0B4F80DAA07CA8DE807000D
:10291800002069460590042004900520039003A830
:1029280001F063F94EF210000122CEF200000168B6
:1029380021F001010160016841F00401016042F2E7
:10294800BF71C0F209014160016841F002010160F4
:10295800016841F00101016048F27C51BFF35F8FCB
:10296800C2F200010A7145F20001BFF35F8FC2F2A3
:102978000001096801F16803D3E84F4F44B9BFF378
:102988005F8FC3E8442F5CB1D3E84F4F002CF8D0D9
:10299800BFF32F8F0DF59E6DBDE8D04005F000BC4C
:1029A8000022BFF35F8F01F8692B0122BFF35F8F0D
:1029B8000A702021C0F8FC110DF59E6DBDE8D040CD
:1029C80005F0EEBBF0B503AF2DE9000705F0B6FB47
:1029D80005F0D4FB48F27C580446C2F20008BFF365
:1029E8005F8F07E071685046884705F0C7FB0446CB
:1029F800BFF35F8FD8F800509DB3D5F8089005F065
:102A08007DFBA968401A0021B0F1FF3FC8BF012132
:102A18000028297317D42869C8F80000D5E90010E0
:102A2800096888470646287B04F001008A4605F0B5
:102A3800B0FB002ED6D105F061FBA0EB0900B0F188
:102A4800FF3FD2DC0AE004F0010005F0A2FB05F02C
:102A580055FBA0EB0900B0F1FF3FC6DCBDE800075D
:102A6800F0BD2046BDE80007BDE8F04005F091BB89
:102A7800F0B503AF2DE9000FADF52F7D8B46044669
:102A880001F1340038310BF1540200F07BFEDBF821
:102A98002801016841F001010160DBF8281108688C
:102AA80020F0020008600020C1F80801C1F81801F0
:102AB800C1F828011891C1F83801DBF8C060306806
:102AC80020F001003060306840F400403060306829
:102AD800000409D53068000444BF30685FEA00404C
:102AE80002D530680004F2D43F20B060306820F08E
:102AF80001003060DBF8C450286820F0010028602D
:102B0800286840F4004028602868000409D528682F
:102B1800000444BF28685FEA004002D52868000422
:102B2800F2D43F2040F26341A860286820F00100F9
:102B38002860DBF80080DBF85C011790D8F84800C3
:102B480040F00100C8F84800D8F844000843C8F825
:102B58004400D8F84400012161F38300C8F8440018
:102B6800D8F8440020F08000C8F84400D8F848009D
:102B780040F02000C8F84800D8F8440040F440402D
:102B8800C8F84400D8F8440040F44470C8F8440039
:102B9800D8F8480040F08000C8F84800D8F8580035
:102BA80000070CD0D8F8580000071CBFD8F8580008
:102BB8005FEA007003D0D8F858000007EED1D8F8C3
:102BC800480040F2634140F02000C8F84800D8F8B7
:102BD800440020F44040C8F84400D8F8440020F4E9
:102BE800447000F58870C8F84400DBF80490D9F800
:102BF800480040F00100C9F84800D9F844000843EB
:102C0800C9F84400D9F84400012161F38300C9F8E8
:102C18004400D9F8440020F08000C9F84400D9F8ED
:102C2800480040F02000C9F84800D9F8440040F4B2
:102C38004040C9F84400D9F8440040F44470C9F849
:102C48004400D9F8480040F08000C9F84800D9F895
:102C5800580000070CD0D9F8580000071CBFD9F855
:102C680058005FEA007003D0D9F858000007EED189
:102C7800D9F8480002220F2340F02000C9F8480084
:102C8800D9F8440020F44040C9F84400D9F8440079
:102C980020F4447000F58870C9F84400DBF87C1112
:102CA80019A802F03BFEDBF868112BA84FF48052FC
:102CB80002F0FCFDDBF89C000990DBF8A40008900A
:102CC800DBF8A8000590DBF8AC000490DBF8840181
:102CD8000390DBF890010290DBF89801DBE917120A
:102CE80001902FA802F080FEDBE90D10DBF83021FF
:102CF8001690DBF854001590DBF880000B90DBF899
:102D080084000790DBF888000690DBF8E000139059
:102D1800DBF8E8001290DBF8FC001190DBF81401F6
:102D28001090DBF804010E90DBF808010D90DBF839
:102D38000C010F90DBF81C0114910F210C904FF43B
:102D480070400A92A2F88C01A2F88E11DBF834A127
:102D5800AAF88C01AAF88E11DBF838210092A2F8A3
:102D68008C01A2F88E114FF40072DBF83CB1ABF87D
:102D78008C01ABF88E112FA9059820620498606227
:102D88000398A0620298E062019820631898C4E949
:102D98000465C4E90000C4E902000998A061089824
:102DA800E06104F58E7006F05BFD17990BF1600287
:102DB800009D01F13400503105F5907305F1C0060E
:102DC800C4E9C71004F1B8010798C4F8B40006981C
:102DD800C4E925630AF1600381E801030BF1C0012E
:102DE8000BF59070C4E929210AF1C002C4F8AC00BF
:102DF8000AF590710B98C4F8B00005F16000C4E9B9
:102E08001F320A9BC4E9235003F59070C4E92115C9
:102E180003F1C00103F16002C4E91B1019A9149859
:102E280060631698A0631598E0631398206412985D
:102E380060641198A06410980E9EE0640F9866650F
:102E48000D9E206504F1C400A6650C9EC4E91932E4
:102E58004822C4E927BBC4E91DAAC4E9176306F0E0
:102E6800FFFC2BAB04F5867C0FCB8CE80F000DF52F
:102E78002F7DBDE8000FF0BD007840F254320B46BC
:102E880040F2A471C2F22001C2F2200251F82010CF
:102E980052F82020184605F088BF084640F2BA517B
:102EA800C2F22001122205F080BFF0B503AF2DE970
:102EB800000FBFB048F2341248F2681146F200041D
:102EC800C2F20002C2F20001C2F20004116041F233
:102ED80038116218BFF35F8F52E8001F41F00043BA
:102EE80042E80036002EF7D1B1F1FF3FBFF35F8F04
:102EF80040F3348245F228020126C2F2000202F5AC
:102F0800A061BFF35F8FD1E84F3FC1E8456F002D47
:102F1800F9D10390002BBFF35F8F40F02A823C92D7
:102F280049F20002C4F20D023D913B92002241F2A7
:102F38003811C4F22E023A92214404F5865204F55F
:102F480080500DF1CC08399106214FF0000ACDE9E7
:102F58003410404638914FF00109CDE9361201216D
:102F68003394ADF8F8A002F057FEB8E87E000DF1F2
:102F7800100B0BF104007EC098E87E007EC0584616
:102F880001218DF84490CDF810A003F079FE9DF84A
:102F98004400012801D1049830E005F00CF90646F8
:102FA80005F0FCF80498F10728D1002840F03B828E
:102FB8004FF0FF3033AE049000203390039804683C
:102FC8000BF120003490304603F0E2FD304603F068
:102FD80025FE3046012103F02DFE3046012103F085
:102FE800EFFD3046214603F0F9FD304603F0DCFDE5
:102FF80004980130049005F0D3F825E0002840F04B
:1030080012824FF0FF3033AE0490002033900398C3
:1030180004680BF120003490304603F0B9FD3046C7
:1030280003F0FCFD3046012103F004FE3046012187
:1030380003F0C6FD3046214603F0D0FD304603F0CC
:10304800B3FD04980130049048F200080420C2F24D
:1030580000084FF0000C88F8050008F10C04C8F8C7
:1030680000C0BBE82D0021462DC1BBE86D006DC135
:103078009BE86D006DC14FF0FF300821C8F80800CB
:10308800012088F80400FF2003220290CDE90021E6
:103098002046802100228023C8F844C003F0EBFFBB
:1030A8000E46D8F80810C00701F10101C8F8081049
:1030B80040F06A81D8F80000002840F06C8198F848
:1030C8000490002909F1010088F8040040F04081CB
:1030D8004FF0FF304FF40071C8F8080000200222BA
:1030E8000290CDE90021204600210022002303F0B0
:1030F800C2FF8A46D8F80810C00701F10101C8F8D4
:10310800081040F04E81002940F022814FF0FF3036
:103118004FF0000BC8F8080002204FF400758DE846
:103128002108204680210022802303F0A4FFD8F83C
:103138000820C00702F10102C8F8082040F03481D5
:1031480048F23810002AC2F2000080F8261040F237
:10315800FF3180F82D9008F14409A0F80F104FF0C6
:103168000801818181804FF4FA51A0F82EB080F8CF
:103178002CB0A0F827508584C0F82090A0F81B50E8
:1031880080F81AA00583C0F814908673C0F80890D8
:1031980080F806B0016040F0DB804FF0FF3040213E
:1031A800C8F808000020CDE900010021029020465F
:1031B8000122002303F05FFF8A46D8F80810C007F1
:1031C80001F10101C8F8081040F00181002940F020
:1031D800BF804FF0FF304021C8F808000020CDE93B
:1031E80000018021029020460122802303F043FF42
:1031F8008B46D8F80810C00701F10101C8F808107B
:1032080040F0EC80D8F80000002840F0FA804FF039
:10321800FF300029C8F8000040F0F980C8F808001D
:10322800204603F0A3FFD8F808000130C8F80800CA
:10323800C0F0F3804FF0FF308021C8F80800BFF3DA
:103248005F8FC8F844400DF14808BFF35F8F08F15D
:10325800030006F0BAF92046812103F061FD2046FB
:10326800012103F05DFD2046822103F059FD20462F
:10327800022103F055FD2046832103F051FD20462D
:10328800032103F04DFD2046842103F049FD20462B
:10329800042103F045FD2046852103F041FD204629
:1032A800052103F03DFD2046862103F039FD204627
:1032B800062103F035FD2046872103F031FD204625
:1032C800072103F02DFD48F248064020C2F200060F
:1032D8000025B0834146308206F121008322A6F8FA
:1032E8001F5086F81EB0C6F81890A6F8135086F836
:1032F80012A0C6F80C90358006F0D0F94FF0806027
:1033080040F2CC51C6E937403220C6F8D600022038
:10331800C4F20000C2F22001C6F8D2001020A6F8BC
:10332800D00045F62400C2F2DD7086F8E450C6F8F5
:10333800CC000920C6E92F10C6F8C450C6E92B55A1
:10334800C6F8B450C6F8A4503FB0BDE8000FF0BDB1
:1033580040F24840C2F2200005F0BDF840F2A0203B
:1033680040F22432C2F22000C2F220021F2105F0EE
:10337800F0F840F2743040F2D432C2F22000C2F2C7
:103388002002202105F0E5F840F24C508DF810603D
:10339800C2F220000EE040F28840C2F2200005F0A0
:1033A8009AF88DF810A001E08DF8101040F23C500A
:1033B800C2F2200040F29843009040F22C5004AA38
:1033C800C2F22000C2F220030F2105F07BF940F27F
:1033D8001C508DF810A0C2F2200005E040F20C50FD
:1033E8008DF810B0C2F2200040F29843009040F2ED
:1033F800343004AAC2F22000C2F22003202105F0D2
:1034080061F940F27840C2F2200005F064F840F219
:103418006840C2F2200005F05EF840F25840C2F25F
:10342800200005F058F840F29020C2F2200005F084
:1034380052F8F0B503AF2DE9000F81B045F2040151
:103448004FF0010CC2F20001BFF35F8FD1E84F2F9C
:10345800C1E843CF002BF9D1BFF35F8F002A01BF2A
:1034680048F20001C4F20D010022C4F22F0201BF8C
:1034780002F5542C02F5502E02F54C28A1F5004413
:1034880001BFA1F5003501F5F61601F5F413C0E901
:10349800683601BFC0E96A54C0E96C8EC0E96EC1E4
:1034A80001F5005E01BF01F5805640F2040CC4F23C
:1034B8002E0C01F5021401BF0CF5FE7501F5004351
:1034C80000F5C07888E8380001BF00F5C67383E8C6
:1034D8001210C0E9666EA1F5404C01BF01F5881EC7
:1034E80001F5861801F5841401F5821301BF01F571
:1034F800003602F51025C0E9585600F5B47501BF2D
:1035080085E81A41C0F87CC1A1F5804C02F51C2E53
:1035180001BF02F5182802F51424A1F5E03301F5DE
:10352800282601BF01F5EE15C0E9505600F5A4752F
:1035380085E8184101BFC0E9562C02F5782802F544
:10354800742902F5702401BF02F56C234CF2000CBB
:10355800C4F2070C0CF5004601BF01F5E03E01F589
:103568008E15C0E9485EC0E94A6101BF00F598754B
:1035780085E81802C0F83C8101F5482801BF01F52B
:10358800442901F5402A01F53C2B01F5382301BFF8
:1035980001F5342401F5302501F52C26C0E94065F4
:1035A80001BFC0E94243C0E944BAC0E9469802F500
:1035B800302801BF02F52C2902F5282A02F5242B10
:1035C80002F5861301BF02F5841402F5821502F58F
:1035D8008016C0E9386501BFC0E93A43C0E93CBA82
:1035E800C0E93E9801F5F01801BF01F59219A1F55F
:1035F800503AA1F5403BA1F5303301BF01F59014D5
:1036080001F58C1501F58A16C0E9306501BFC0E9DE
:103618003243C0E934BAC0E9369844F2000B01BF1E
:10362800C4F2002B0BF500490BF5804A4FF0844893
:1036380001BF01F56C2601F5682401F56425A1F5A3
:10364800C03301BFC0E9283500F1A80383E8500959
:10365800C0E92EA901BF01F5602801F5E61901F5B9
:10366800E81AA1F5203601BF0BF5E03301F558241F
:1036780001F55425C0E9205401BF00F1880484E80D
:103688004804C0E9259EC0F89C8001BFA1F5103E02
:1036980001F5FE1801F5001902F5642A01BF02F5CB
:1036A800602302F55C2602F5582501F5A03401BF18
:1036B80000F1600B8BE87000C0E91B3AC0E91D9867
:1036C80001BFC0F87CE001F5803E02F540480CF5EA
:1036D800804901BF01F5804A01F5F21344F208065A
:1036E800C4F2090601BF06F1100506F10804C0E995
:1036F8001064C0E9125301BFC0E914A9C0E9168ECD
:103708000CF5C03E01F5103801BF01F5801901F52F
:103718007C2401F5782302F57C2601BF02F54825B3
:10372800C0E9085600F1280585E8180201BFC0E97C
:103738000D81C0F83CE002F5442E02F50C2601BFCD
:1037480001F5D21501F5242402F54022A1F58033B4
:1037580001BFA1F5A031C0E90013C0E9022C103067
:1037680001BF80E8704001B0BDE8000FF0BD40F235
:10377800D55040F27062C2F22000C2F22002352118
:1037880004F06EFFF0B503AF4DF804BD0E460021FE
:103798001546044602F021F9284640F2E24102F0BB
:1037A80058F8304602F01DF840F2B4352146C2F20E
:1037B800200500222846366802F039F8A81C214660
:1037C800002202F034F8281D2146002202F02FF8CA
:1037D800A81D2146002202F02AF805F1080021461A
:1037E800002202F024F805F10A002146002202F026
:1037F8001EF805F10C002146002202F018F805F128
:103808000E002146002202F012F805F110002146B0
:10381800002202F00CF805F112002146002202F005
:1038280006F805F114002146002202F000F805F11F
:1038380016002146002201F0FAFF05F11800214682
:10384800002201F0F4FF05F11A002146002201F0E0
:10385800EEFF05F11C002146002201F0E8FF05F10A
:103868001E002146002201F0E2FF2068416989011B
:1038780007D5416921F000714161204602F09EF8A8
:1038880020684169012221F0605141612068816905
:1038980062F30D318161204602F090F82068416999
:1038A80041F000714161204602F088F84FF48050E1
:1038B8003060642030604FF4005070603068002839
:1038C80009D4306800285CBF3068002803D4306809
:1038D800B0F1FF3FF2DC20680122016962F30201C6
:1038E8000161204602F06AF82068416921F4E0513C
:1038F8004161204602F062F82068816941F4402164
:1039080081612068416921F000714161204602F01F
:1039180055F8206840F28C65C2F220050022416902
:1039280041F4407141612846214601F080FFA81CFE
:103938002146002201F07BFF281D2146002201F0CC
:1039480076FFA81D2146002201F071FF206802269B
:1039580040F29C650022C2F22005816B66F3D841D3
:1039680081632068816B41F4802181632846214668
:1039780001F05DFFA81C2146002201F058FF281D18
:103988002146002201F053FFA81D2146002201F024
:103998004EFF206840F280650322C2F2200581694B
:1039A80066F3051181612068816962F39C61816118
:1039B80028462146002201F03AFFA81C2146002291
:1039C80001F035FF281D2146002201F030FFA81D17
:1039D8002146002201F02BFF05F1080021460022B4
:1039E80001F025FF2068172240F29415C2F2200545
:1039F800C16962F30501C16120680022C16941F013
:103A08004001C1612846214601F011FFA81C21464A
:103A1800002201F00CFF281D2146002201F007FFBB
:103A2800A81D2146002201F002FF05F108002146E9
:103A3800002201F0FCFE05F10A002146002201F0F7
:103A4800F6FE05F10C002146002201F0F0FE05F11A
:103A58000E002146002201F0EAFE206840F2A4652B
:103A6800C2F220050322416A41F040014162206808
:103A7800416A66F3050141622846214601F0D7FEF6
:103A8800A81C2146032201F0D2FE281D214603224C
:103A980001F0CDFEA81D2146032201F0C8FE05F164
:103AA80008002146032201F0C2FE05F10A00214662
:103AB800032201F0BCFE05F10C002146032201F0AF
:103AC800B6FE05F10E002146032201F0B0FE05F115
:103AD80010002146032201F0AAFE05F1120021463A
:103AE800032201F0A4FE05F114002146032201F08F
:103AF8009EFE05F116002146032201F098FE05F10D
:103B080018002146032201F092FE05F11A00214611
:103B1800032201F08CFE05F11C002146032201F06E
:103B280086FE05F11E002146032201F080FE05F104
:103B380020002146032201F07AFE05F122002146E9
:103B4800032201F074FE05F124002146032201F04E
:103B58006EFE05F126002146032201F068FE05F1FC
:103B680028002146032201F062FE05F12A002146C1
:103B7800032201F05CFE05F12C002146032201F02E
:103B880056FE05F12E002146032201F050FE05F1F4
:103B980030002146032201F04AFE05F13200214699
:103BA800032201F044FE05F134002146032201F00E
:103BB8003EFE05F136002146032201F038FE05F1EC
:103BC80038002146032201F032FE05F13A00214671
:103BD800032201F02CFE05F13C00214603225DF88A
:103BE80004BBBDE8F04001F022BE80B56F464EF23E
:103BF8000C1C4FF4003ECEF2000C44F2B822CCF874
:103C080080E0C2F20002BFF35F8FD0E90031806824
:103C1800C2E900319060BFF35F8FCCF800E1CCF8C7
:103C280000E080BDF0B503AF4DF804BD86B045F2A5
:103C38000806C2F20006306830B106B05DF804BB71
:103C4800BDE8F04001F0C8B944F2B820C2F2000063
:103C58000068062829D14FF47A600122039048F2BF
:103C68006810C2F20000BFF35F8F00F21240D0E884
:103C78004F1FC0E8432F002BF9D10029BFF35F8FF6
:103C88004BD148F268144FF48061C2F20004204618
:103C980005F0FEFB04F072FA0546204600F02FFD01
:103CA80003A8FFF702F928462CE04FF47A600122B6
:103CB800029048F26810C2F20000BFF35F8F00F272
:103CC8001240D0E84F1FC0E8432F002BF9D1BFF3B3
:103CD8005F8FA1BB48F268154FF48061C2F20005FE
:103CE800284605F0D5FB04F049FA44F2B821044609
:103CF800C2F20001284600F0D7FDE8B902A8FFF794
:103D0800D4F8204604F045FA42F62950C0F20000E3
:103D1800306006B05DF804BBF0BD49F20000C4F2A3
:103D28000D0005900020C4F22E00CDE9030040F2FA
:103D38009470C2F2200010E0204604F02AFA49F2FA
:103D48000000C4F20D0005900020C4F22E00CDE959
:103D5800030040F28470C2F2200040F2E463009055
:103D680040F2F46003AAC2F22000C2F220032B2121
:103D780004F0A8FCFEE7D0B502AF84B0018806299C
:103D880011D181690968BFF35F8F79B10023827F00
:103D9800009302AB04461846012303F048FA0820B2
:103DA800208004B0D0BD072004B0D0BD40F660002C
:103DB80040F6E802C2F22000C2F22002222104F0FA
:103DC8004FFCF0B503AF4DF804BD86B00446088833
:103DD8000D46411E032927D3052825D0072832D1AF
:103DE800D5F8AC00D5F8063069898028D5F80220C6
:103DF800ADF80C10CDE901236BD8E9680968BFF369
:103E08005F8F00295AD0C0F18003AA7C2844009310
:103E180000F1240304A803F003FB9DF81000C0B3CD
:103E28009DF81100D8B92EE0E8680168BFF35F8FEC
:103E3800002943D0AA7C04A800260123009603F099
:103E4800EFFA2E801FE0E8680168BFF35F8FA9B31F
:103E58000020AA7C009004A8012303F0E1FAE86896
:103E6800092129800068BFF35F8F38B3A97C01223C
:103E780003F0CFFBA8690068BFF35F8FF0B1A97F9B
:103E8800012203F0C6FB0420607206B05DF804BB93
:103E9800F0BD0598D5E92B120844C5F8AC0090424E
:103EA800F1D3DDE901010623BDF80C202B80206049
:103EB8006160228106B05DF804BBF0BD40F6600089
:103EC80040F6E802C2F22000C2F22002222104F0E9
:103ED800C7FB40F630028021C2F2200204F06FFFD7
:103EE800F0B503AF2DE9000F85B00446C8680D464C
:103EF8000168BFF35F8F002900F08B8005F124066D
:103F08008020AA7C009002A8334603F089FA9DF825
:103F1800080018B19DF8090060B921E0039A812AC8
:103F280080F0828002A8314603F0CCFC9DF8110095
:103F380004281BD1E868092129800068BFF35F8F36
:103F4800002866D0A97C012203F063FBA8690068F9
:103F5800BFF35F8F00285CD0A97F012203F059FBD3
:103F68000420607205B0BDE8000FF0BDE868BDF838
:103F780010A09DF80F609DF80E90BDF80CB0DDF80C
:103F880008800068BFF35F8F002842D0A97C002218
:103F980003F03FFBBEB10420A5F80AA06E7285F8B5
:103FA8000890A5F806B0C5F802802880A4F808A0F3
:103FB800E67184F80690A4F804B0C4F8008005B04F
:103FC800BDE8000FF0BDBBF1000F11D0BBF1800FB1
:103FD800B0D80020A5F80AA0C5E92B0B6872072005
:103FE80085F80890A5F806B0C5F802802880B7E7DC
:103FF8000620A4F808A028800020C5F8B000E071C9
:1040080084F80690A080C4F8008005B0BDE8000FD1
:10401800F0BD40F6600040F6E802C2F22000C2F2AD
:104028002002222104F01CFB40F640031046C2F295
:10403800200380211A4604F0E1FEB0B502AF84B037
:104048000446D0E92951D0F8AC00D4F8B0C0002D0E
:10405800A38BAE46ACEB000208BF04F1240E9A42D3
:1040680038BF1346002D03EB000C08BF80219C4588
:1040780023D38C4528D8A1690968BFF35F8F51B352
:10408800A27F00930EEB000302A803F0D0F89DF87E
:10409800080080B90398D4E92B120144C4F8AC1085
:1040A800914208D30021A28BC4F8A41003219042A6
:1040B80008BF0221218004B0B0BD40F6500261461D
:1040C800C2F2200204F0B9FE40F650026046C2F285
:1040D800200204F093FE40F6600040F6E802C2F2C7
:1040E8002000C2F22002222104F0BAFAB0B502AFD1
:1040F80084B001880139072939D8DFE801F0041CA8
:104108000A3838383832FFF798FF0024204604B0C0
:10411800B0BDC1680A68BFF35F8F002A41D0817CB7
:10412800054610460022002403F073FA0520288073
:10413800204604B0B0BD81690968BFF35F8F81B3C1
:10414800827F054602A800240123009403F06FF83B
:104158009DF80800002804BF03202880204604B0EA
:10416800B0BD002101240180204604B0B0BDC16863
:10417800092202800A68BFF35F8F92B1817C0446EE
:104188001046012203F045FAA0690068BFF35F8F6B
:1041980038B1A17F012203F03CFA0024204604B084
:1041A800B0BD40F6600040F6E802C2F22000C2F25C
:1041B8002002222104F054FAB0B502AF8AB00446B6
:1041C8000088042833D1002080210790A7F10A0233
:1041D8008DF8200002230390019040F209400691D7
:1041E80004F1240127F80A0C01A805910321E588A8
:1041F80003F086FBC0B2082817D10798802819D980
:10420800E068092121800068BFF35F8F08B3A17CB3
:10421800012203F0FEF9A0690068BFF35F8FC0B107
:10422800A17F012203F0F5F902200AB0B0BD0720F2
:104238000AB0B0BD85424FF0000138BF2846C4E936
:104248002B10012020802046FFF7F7FE08200AB037
:10425800B0BD40F6600040F6E802C2F22000C2F2AB
:104268002002222104F0FCF9B0B502AF88B0044660
:10427800008804282DD1D1E900120020802306905F
:104288008DF81C00029000906846059304F1240301
:10429800E588049303F06FFDC0B2082817D106988B
:1042A800802819D9E068092121800068BFF35F8F51
:1042B80008B3A17C012203F0ACF9A0690068BFF340
:1042C8005F8FC0B1A17F012203F0A3F9022008B0DB
:1042D800B0BD072008B0B0BD85424FF0000138BF1F
:1042E8002846C4E92B10012020802046FFF7A5FEB0
:1042F800082008B0B0BD40F6600040F6E802C2F2FF
:104308002000C2F22002222104F0AAF9F0B503AF7E
:104318002DE9000788B004460088042848D1D1E96F
:10432800000680228D680021059204F1240206917E
:1043380004928DF81C100291009101686846B4F847
:10434800068003F0C4FBC0B208282DD18DB106EB5E
:10435800C505E9464FF0000AD6E90001CA68494692
:104368009047C1B208291FD10836CDF808A0AE423F
:10437800F2D1684603F00FFC069880281DD9E06842
:10438800092121800068BFF35F8F38B3A17C012227
:1043980003F03FF9A0690068BFF35F8FF0B1A17F18
:1043A800012203F036F9022008B0BDE80007F0BD8D
:1043B800072008B0BDE80007F0BD80454FF00001B8
:1043C80038BF4046C4E92B10012020802046FFF763
:1043D80034FE082008B0BDE80007F0BD40F66000D4
:1043E80040F6E802C2F22000C2F22002222104F0C4
:1043F80037F9B0B502AF88B00446008804282CD13C
:1044080009680020802206908DF81C000290009018
:104418006846059204F12402E588049203F0BEFA86
:10442800C0B2082817D10698802819D9E068092150
:1044380021800068BFF35F8F08B3A17C012203F0DD
:10444800E8F8A0690068BFF35F8FC0B1A17F0122BF
:1044580003F0DFF8022008B0B0BD072008B0B0BDF7
:1044680085424FF0000138BF2846C4E92B100120CF
:1044780020802046FFF7E1FD082008B0B0BD40F6D7
:10448800600040F6E802C2F22000C2F220022221B7
:1044980004F0E6F8F0B503AF2DE9000B8CB00C463C
:1044A8000188042926D1B0F806908046243005906A
:1044B80001A80B9009A800211546802207910692B1
:1044C8008DF8201003910191099103F00DFDC0B200
:1044D80008280BD1EE0009AD8EB1F4E802010A6993
:1044E80029469047083EC1B20829F5D00CB0BDE86E
:1044F800000BF0BD07200CB0BDE8000BF0BD09A80B
:1045080003F0C3FD079980291DD9D8F80C000922AA
:10451800A8F800200068BFF35F8F30B398F8121036
:10452800012203F076F8D8F818000068BFF35F8F0F
:10453800D8B198F81E10012203F06BF802200CB0D5
:10454800BDE8000BF0BD894540464FF0000238BF7A
:104558004946C0E92B210121A8F80010FFF76DFD9D
:1045680008200CB0BDE8000BF0BD40F6600040F636
:10457800E802C2F22000C2F22002222104F070F800
:104588000288042A1CBF07207047F0B503AF4DF816
:1045980004BD4C68802C03D902205DF804BBF0BD33
:1045A800096800F12402C68805461046224605F02F
:1045B80075F80020A64238BF3446C5E92B0401200F
:1045C80028802846FFF739FD08205DF804BBF0BDB8
:1045D800D0B502AF0446C068092121800068BFF346
:1045E8005F8F78B1A17C012203F013F8A0690068FD
:1045F800BFF35F8F00281FBFA17F0122BDE8D04015
:1046080003F007B840F6600040F6E802C2F2200066
:10461800C2F22002222104F023F8006804F077B8DF
:104628000A46D0E9000104F0C4BBF0B503AF4DF869
:1046380004BD82B000228029019201D2012431E018
:10464800B1F5006F09D202240A4664F39F128DF86F
:104658000520C02242EA911124E002220B4662F3AF
:104668009F13B1F5803F0DD28DF806308B0962F3A8
:104678009F13E02242EA11318DF805308DF80410BD
:10468800032411E08DF807308B0962F39F138DF82E
:1046980006300B0B042462F39F13F02242EA914187
:1046A8008DF805308DF80410066803F067FD05469F
:1046B800B068B8B94FF0FF3006F10C02B06001A83D
:1046C800214600F0A3FF0446B0680130B0602846D8
:1046D80003F05FFDE0B2033818BF012002B05DF8B7
:1046E80004BBF0BD40F6A410C2F2200003F0F3FEB4
:1046F8000A4640F6F801C2F2200104F00DB845F26E
:104708001C01C2F2000188600120BFF35F8F0870AE
:104718007047F0B503AF2DE9000B48F29052D1F87D
:104728000080C2F200021268904503D90020BDE85B
:10473800000BF0BD4268F2B10068D1E90195061D91
:1047480002EB4200840003E00C3C06F10C06EDD0BD
:104758003068A842F8D156F8040C49462A4604F0B5
:10476800FAFE0028F0D171680020884598BF012022
:10477800BDE8000BF0BD0120BDE8000BF0BDF0B5B1
:1047880003AF2DE9000F91B0804648F29050C2F275
:104798000000D1F82090006881451ED8D8F80400A0
:1047A8008A46F0B1D8F8001000EB4000DAE909B603
:1047B8000C1D850003E00C3D04F10C040DD02068AD
:1047C800B042F8D154F8040C5946324604F0C3FEFE
:1047D8000028F0D16068814505D911B0BDE8000F07
:1047E800F0BDDAE909B6002040F6F801059004208A
:1047F800029040F61810C2F2200001AA019003208E
:10480800049007A8039042F26B30C0F20000C2F295
:1048180020010C9010A80B9042F27130C0F20000F9
:10482800CDF800800A900EA8099046F28500C0F2E3
:104838000000CDF8349008900DA807900AF12C00DC
:1048480010906846CDE90EB603F066FF11B0BDE8DA
:10485800000FF0BD7047F0B503AF4DF8048D154655
:104868000E46046803F08AFC8046A068B0B94FF091
:10487800FF3004F10C02A0603046294600F0C6FE65
:104888000546A0680130A060404603F082FCE8B20B
:10489800033818BF01205DF8048BF0BD40F6A41062
:1048A800C2F2200003F017FED0B502AF45F20C02A9
:1048B8000C46D1E90113C2F200024FF0000CD0609F
:1048C80082E80A1040F6B411C2F22001104603F043
:1048D80043FD002801BF216848F29052C2F200024D
:1048E8001160D0BD0020704770470820704770479E
:1048F800F0B503AF4DF804BD84B00D460646D0E9C7
:10490800000148F248044B6AC2F2000421462A46D4
:104918009847208840F0020106291CD1697AF1B134
:10492800218841F00200062815D1E068092121807C
:104938000068BFF35F8F002873D0A17C012202F0CA
:1049480068FEA0690068BFF35F8F002869D0A17F67
:10495800012202F05EFE04B05DF804BBF0BD2A7AC5
:10496800A9791AB3012A10D0022A08BF0029D7D181
:104978006988D4F8DC0001F08F0102F0B9FE2188C3
:104988000429CED1A084002027E011B30A2908BF4A
:104998000428C5D1E1880020012284F8240022805F
:1049A800002918BF0121C4E92B011EE039B30629EB
:1049B8001FD00829B4D194F8E20001210391A7F18E
:1049C8001A0102380291B0FA80F0400907F81A0C6F
:1049D80022E00428A4D10020A084E28801212180BB
:1049E800022A28BF0222C4E92B022046FFF725FB32
:1049F80096E76A883046298800F0D4F890E794F85A
:104A0800E000022294F8E1100392A7F11A0260F381
:104A18004101029227F81A1C02A92046FFF7B0FDAF
:104A28007EE740F6600040F6E802C2F22000C2F2DB
:104A38002002222103F014FEB0B502AF84B048F280
:104A480048040B6AC2F2000415462146984722889A
:104A580042F0020006282AD1697A51B3228842F02E
:104A68000200062823D1E068092121800068BFF3ED
:104A78005F8F88B1A17C012202F0CBFDA06900689C
:104A8800BFF35F8F00281FBFA17F012204B0BDE8DC
:104A9800B04018BF02F0BDBD40F6600040F6E80225
:104AA800C2F22000C2F22002222103F0D9FD04B094
:104AB800B0BD2B7A95F806C029885BB3012B12D0BC
:104AC800022BCED1BCF1010F35D0BCF1030F08BFCA
:104AD8000029C6D169880122D4F8DC0001F08F01D1
:104AE80002F097FD50E0BCF10B0F08BF0029B8D1C8
:104AF800062AB3D1A0690168BFF35F8F0029CBD024
:104B0800A27F0020009002A8012302F090FB082059
:104B18002080A3E7ACF10103082BA2D8DFE803F05B
:104B2800060521051705050528009AE701297FF4E0
:104B380098AF002019E000297FF493AF698800221C
:104B4800D4F8DC0001F08F0102F063FD1CE04A1E7E
:104B580092B27F2ABFF485AFD4F8DC0002F0C2FA23
:104B68000FE001297FF47DAF012084F8E0000BE01D
:104B780021B101297FF475AF022003E094F8E21017
:104B880031B1012084F8E2002046FFF7F4F865E728
:104B980006287FF464AF48F24800C2F20000FFF72D
:104BA80017FD5BE7F0B503AF4DF804BD84B048F2DC
:104BB80048068CB2C2F2000606F1B4034FF0FF3586
:104BC80005EB14240E2C009300F26880DFE804F053
:104BD80008271366666666666666666666663700F2
:104BE80048F248006946C2F20000FFF702FC04B030
:104BF8005DF804BBF0BDCCB2032C3DD806F1B8017A
:104C0800DFE804F0022F2B3248F24800C2F200001D
:104C180004B05DF804BBBDE8F040FFF7CDBA012150
:104C2800CDE902016846019048F2480001A9C2F2A4
:104C38000000FFF76BFB04B05DF804BBF0BD48F261
:104C480048020146C2F200021046012204B05DF893
:104C580004BBBDE8F040FFF71DBC06F1C00106F13A
:104C6800BC03186830B919E006F1C80106F1C4039D
:104C7800186898B1096804E0D0E900035B699847AF
:104C880060B1CDE9010148F2480001A9C2F2000073
:104C9800FFF7EAFA04B05DF804BBF0BD308840F0D5
:104CA80002000628A3D1F068092131800068BFF30B
:104CB8005F8F98B1B17C012202F0ABFCB06900684B
:104CC800BFF35F8F00281FBFB17F012204B05DF8DA
:104CD80004BB1CBFBDE8F04002F09BBC40F660007E
:104CE80040F6E802C2F22000C2F22002222103F0BC
:104CF800B7FCD0B502AF537A012B07D1137A012B39
:104D080002BF90F82C3054889C4200D0D0BD9379D3
:104D1800212B04BF9288072A28D0088840F0020077
:104D28000628F3D1C86809220A800068BFF35F8F9C
:104D380088B18A7C0C461146012202F06AFCA069FF
:104D48000068BFF35F8F00281FBFA17F0122BDE865
:104D5800D04002F05EBC40F6600040F6E802C2F2C5
:104D68002000C2F22002222103F07AFC0A88042AD9
:104D780018BFD0BDCA88002390F804C0012490F859
:104D880005E0072AC1F8AC30837900684862084614
:104D98000C8081F8283081F829E081F82AC028BFE2
:104DA8000722C1F8B020BDE8D040FFF746B9D0B51A
:104DB80002AF84B0537A012B07D1137A012B02BFBB
:104DC80090F82C3054889C4201D004B0D0BD93791F
:104DD800002B5BD0202B0ED0222B2CD112780B88E5
:104DE80002F0010480F82E40062BC2F3400280F83E
:104DF8002F20EAD14DE0D1F8B030812B5CD2062BC0
:104E080019D991F8282091F8294091F82AE0032A25
:104E18004B6AB1F800C003604FF0000380F804E06B
:104E280028BF1A46052C827138BF2346BCF1060FED
:104E38004371CAD12DE0088840F002000628C4D189
:104E4800C86809220A800068BFF35F8F98B18A7C1E
:104E58000C461146012202F0DCFBA0690068BFF392
:104E68005F8F00281FBFA17F012204B0BDE8D0409A
:104E780018BF02F0CEBB40F6600040F6E802C2F26E
:104E88002000C2F22002222103F0EAFB088806284B
:104E98009BD188690368BFF35F8F002BEBD08A7FB3
:104EA8000020009002A80C461946012302F0BFF921
:104EB8000820208004B0D0BD40F6C8221846C2F2AF
:104EC8002002802103F09AFFF0B503AF4DF8048D5E
:104ED80084B090F82C60804600250220CDE90005BA
:104EE8000C46084631460222022302F064FEC0B294
:104EF800082864D12046314602220223009502F098
:104F0800B1FEC0B208285AD140F6D8222046C2F2D3
:104F180020022421032302F0F3FCC0B208284ED15A
:104F280040F6DB222046C2F220022421022302F0AE
:104F3800E7FCC0B2082842D10620A7F1160207F8FC
:104F4800156C242198F82D60032307F8160C2046C9
:104F580007F8146C02F0D4FCC0B208282FD1012045
:104F6800A7F1130227F8130C20462421032307F87E
:104F7800116C02F0C5FCC0B2082820D108F1080164
:104F8800204600F0DAFAC0B2082818D100203146CD
:104F9800009020460A22002302F064FEC0B20828CE
:104FA8000DD108F12001204600F0C7FAC0B2082848
:104FB80005D108F11401204600F0BFFAC0B204B0D0
:104FC8005DF8048BF0BD0021C185817108218180C5
:104FD8004FF4FA5101607047F0B503AF2DE9000FA7
:104FE80089B040F6E02048F2480A48F23016C2F28A
:104FF8002000C2F2000A0390C2F2000606F108007F
:10500800DAF8DC10029004A802F0B4FB9AF8E21077
:10501800BDF81000032910D100284FF0000418BF74
:10502800032800F0A6809AF8E310042900F06181B3
:1050380004228AF8E2108AF8E320DFE800F020036F
:10504800221B2000DAF8DC0002F0C1F800204FF43F
:1050580080618AF8E40000248AF8E000AAF80000D9
:10506800F086B0730820B0814FF4FA50AAF8E21025
:10507800B0607EE003208AF8E3108AF8E20000249A
:1050880077E0BDF81290BDF814B0BDF816604BEA91
:10509800090040EA0605E8073DD05FEACB7005D075
:1050A80048F24800C2F20000FFF720F8F0070AD1E2
:1050B8005FEAC97013D104208DF821009DF8210002
:1050C800042817D125E048F2480106A8C2F20001D9
:1050D800FEF706FF9DF8210004280BD119E048F2DD
:1050E800480106A8C2F20001FEF76BFE9DF82100F8
:1050F80004280ED09DF81F00002800F0E4808028C6
:1051080007D102A806A9FFF7F3FB25F001051DB991
:1051180026E025F001051DB34FF00208012418EA26
:10512800060F01D0282103E018EA090F05D02C2129
:10513800DDE9020252582146904718EA0B0F05D0C4
:10514800DDE902010A6B64F07F01904725EA080552
:10515800280405D0601C0F2C4FEA48080446DED10D
:10516800DDE90201C969884748F230160124C2F214
:1051780000060021DAF8DC00069106A900F0C4F860
:105188009AF8E2203178022A34D179B9DAF8DC10B9
:105198000546084601F03FFF0021DAF8DC000691D9
:1051A80006A900F075F9284601213170F1690968EE
:1051B800BFF35F8F002900F091800443002096F828
:1051C80022200123009006A8012502F029F96CB1DC
:1051D8007068BFF35F8F00F58264D4E84F1FC4E89E
:1051E800425F002AF9D1BFF35F8F89B109B0BDE8EA
:1051F800000FF0BD31B10021DAF8DC00069106A9F4
:1052080000F0FFF80020307009B0BDE8000FF0BDD5
:10521800D0F80014BFF35F8FD0F80824BFF35F8F76
:10522800D0F8043400F20445BFF35F8F934205D1F0
:1052380099423EBFBFF35F8F00232B60994228BF7E
:105248000A469A4237D0B16A0968BFF35F8F0029CE
:1052580044D0A2EB030896F82E20034406A846463D
:10526800B8F5007F28BF4FF40076009601F0DFFF05
:105278009DF8180068B12078BFF35F8F0028B5D07B
:10528800BFF35F8F55E8000F45E800010029F9D109
:1052980011E007982178BFF35F8F0029A6D08045D9
:1052A80038BF4046BFF35F8F55E8001F014445E80B
:1052B8000012002AF8D10020BFF35F8F207009B0D8
:1052C800BDE8000FF0BDDDE9020106AAFFF7B4FB57
:1052D80025F00105002D7FF41FAF41E740F660007F
:1052E80040F6E802C2F22000C2F22002222103F0B6
:1052F800B7F940F6CC1040F64C22C2F22000C2F2B8
:1053080020021C2103F025F9F0B503AF4DF804BDC8
:1053180082B0044690F83400012819D1206800288A
:1053280069D14FF0FF30224642F8200B68460968E1
:10533800CDE9001201F064FC002841D06D462846F2
:1053480001F06CFC284601F05BFC0028F7D135E041
:105358000E6802F030FF054602F020FF2068E907DA
:1053680017D1002847D14FF0FF30214641F8200BD4
:105378006846CDE9006101F043FC68B36D462846F4
:1053880001F04CFC284601F03BFC0028F7D1012530
:1053980027E080BB4FF0FF30214641F8200B6846DC
:1053A800CDE9006101F02CFC50B16D46284601F0B2
:1053B80035FC284601F024FC0028F7D1012004E040
:1053C800684601F0DBFB80F00100216801312160B3
:1053D80002B05DF804BBF0BD684601F0CFFB80F079
:1053E800010520680130206002F0DAFE284602B08C
:1053F8005DF804BBF0BD40F67830C2F2200003F03F
:105408006AF8F0B503AF4DF804BD82B0044690F8D1
:105418003400012807D12068A0BB4FF0FF3009688D
:105428002060009121E00E6802F0C5FE054602F0FA
:10543800B5FE2068E90713D120BB4FF0FF30009676
:10544800206004F120000190684601F0A1FB20686B
:105458000130206002F0A4FE02B05DF804BBF0BD8C
:1054680080B94FF0FF300096206004F120000190D1
:10547800684601F08DFB20680130206002B05DF8BD
:1054880004BBF0BD40F67830C2F2200003F023F8E8
:10549800F0B503AF4DF804BD82B0044690F834006F
:1054A80001280BD12068002841D14FF0FF30224657
:1054B80042F8200B0968CDE9001229E00E6802F0D5
:1054C8007AFE054602F06AFE2068E90718D170BB2B
:1054D8004FF0FF30214641F8200B6846CDE90061C6
:1054E80001F0C0FB00281CBF684601F03BFB2068A8
:1054F8000130206002F054FE02B05DF804BBF0BD3C
:10550800A8B94FF0FF30214641F8200BCDE90061E2
:10551800684601F0A7FB00281CBF684601F022FB83
:1055280020680130206002B05DF804BBF0BD40F691
:105538007830C2F2200002F0CEFFF0B503AF4DF88C
:1055480004BD8268012A2FD10D46C36841698B4288
:1055580046D20269D0F818C0D45C0134D4540CF196
:1055680002038B421CD80CF58074A142A64638BFB2
:105578008E469C423BD3AEEB0304052C10D3AC798A
:1055880095F807E02E7AAD88D45413440CF107043B
:105598005E702E0A8C429D7083F804E0DE7007D995
:1055A80002205DF804BBF0BD07205DF804BBF0BD28
:1055B8008C4524D2072302F80C300CF101038B42EE
:1055C8003FBF0521D154846108203CBF5DF804BB6E
:1055D800F0BD40F610421846C2F2200203F054F81B
:1055E80040F620421846C2F2200203F04DF840F679
:1055F800F0321846C2F22002714603F01EFC40F653
:1056080000426046C2F2200203F03EF8F0B503AF54
:105618002DE9000F81B0D2F8008004460122BFF3C3
:105628005F8F08F21146D6E84F0FC6E8432F002BCC
:10563800F9D1BFF35F8F20B1012001B0BDE8000FA1
:10564800F0BDD8F80004BFF35F8FD8F80424BFF387
:105658005F8F904204D2C34312EB030A0BD177E069
:10566800B0F5806F05D1012A72D9A2F1010A002094
:1056780001E0C0F5806A89468A4538BFD1468B4625
:1056880009EB00014044BFF35F8FC8F80C142146B2
:105698004A4604F003F898F8110408F20C45BFF3E1
:1056A8005F8F58B3D8F80004BFF35F8FBFF35F8FE5
:1056B80055E8001F45E80012002AF9D1BFF35F8FB3
:1056C800B0F5806FD8F80824BFF35F8FD8F80C14B2
:1056D800BFF35F8F01D0814203D3914205D94FF4C4
:1056E8008060BFF35F8FC8F80804BFF35F8FC8F806
:1056F80000140020BFF35F8F88F81104DA456BD2DD
:1057080004EB0901ABEB09020123BFF35F8FD6E875
:105718004F0FC6E8443F002CF9D10028BFF35F8F34
:105728007FF48AAFD8F80004BFF35F8FD8F8043449
:10573800BFF35F8F984203D2C4431B1913D107E00C
:10574800B0F5806F0DD1012B02D9013B00200AE092
:1057580000200021BFF35F8F317001B0BDE8000F5A
:10576800F0BDC0F58063934238BF1A461318404411
:10577800BFF35F8FC8F80C3403F090FF98F811045A
:10578800BFF35F8F40B3D8F80004BFF35F8FBFF358
:105798005F8F55E8001F45E80012002AF9D1BFF3D2
:1057A8005F8FB0F5806FD8F80824BFF35F8FD8F803
:1057B8000C14BFF35F8F01D0814203D3914205D906
:1057C8004FF48060BFF35F8FC8F808040320BFF36D
:1057D8005F8FC8F80014BCE7032001B0BDE8000FD4
:1057E800F0BD80B56F4600684FF400514FF4805209
:1057F8004FF0400C4FF4803E00E0416103699B0488
:10580800FBD50369DB0401D44261F7E70369B3F10F
:10581800FF3FF3DC0369DB0306D403695B0648BF7B
:1058280080BDC0F814C0E9E7C0F818E0E6E70378DF
:105838004078096801EB83014000C0B20323D1F826
:1058480068C0834002FA00F02CEA03031843886614
:10585800704740F22762914238BF0A46B2F5487F46
:1058680098BF4FF44872A2F5487144F2AF730068CC
:105878008AB25A43C368A1EB124189B2490801EBC5
:10588800124123F01F0242EA1111C16004E00168CD
:10589800B1F1FF3FD8BF70470168002905D40168FE
:1058A80000295CBF01680029F1D57047F0B503AF46
:1058B8002DE9000B44F2E043C4F21F031B68C3F355
:1058C8000B2E4FEA135CE6451FBF0124C1F888413F
:1058D800DBB24FF47A781FBF03FB08F9ACEB0E0478
:1058E800D1F8906149F658651FBFCFF6FF7513FBD5
:1058F800085393FBF4F3C2EA06021FBFC1F89021D4
:1059080080E80A40C0F80C90BDE8000B18BFF0BD55
:1059180040F6A440C2F2200003F013FDB0B502AF78
:10592800054608680C4640F480300860086840F076
:1059380040000860222063F31340486040F268503A
:10594800C0F20C10086240F29510C0F2B200486232
:10595800DC20C0F27A0088627D20C0F25800C8625C
:105968004B20C0F2400008632F20C0F22E0048638D
:10597800886346F62010C86040F6A31088604FF48C
:10598800C840C8614FF4C860886140F6C410C0F6CA
:10599800804008613F204861086820F003001043F8
:1059A8000860086820F480300860C86F4021281D0E
:1059B80003F06EFD10202C606864B0BD006803E041
:1059C800816C002908BF7047816C29B1816C00295E
:1059D8001CBF816C0029F3D170470068426D22F02A
:1059E8000302114341657047F0B503AF2DE9000F7D
:1059F800ADF5057D0DF1040B80464FF40071584656
:105A080003F046FD44F2C4290DF5017AC2F20009FB
:105A180000244E460025D9E96001CDE983015046AE
:105A28008295819602F044FB81AB0C3601350FCB91
:105A38004BF804000BEB040010340430B4F5007F7D
:105A48000EC0E8D101A940464FF4007203F008FFE8
:105A58000DF5057DBDE8000FF0BDF0B503AF4DF8BD
:105A680004BD84B00168022905D10023184604B09A
:105A78005DF804BBF0BDC268012A2ED1D0E904321A
:105A88009A422AD0C26A00F1180503E0D0E904312D
:105A9800994221D0591C0161E95C54684B0043EAE2
:105AA800D111CBB29C42F1D9946901F00F0124685D
:105AB800BFF35F8FA4B224FA01F1C907E6D0516998
:105AC800994240F29B80116903EB830301EB830346
:105AD800197C4906DAD0C9E7016801AD8446C907CF
:105AE8002CCD4CF8102FCCE9013540D0D0E901126B
:105AF80091423CD2C26A00F1180E0224012503E04B
:105B0800D0E90113994232D24B1C436041F0800323
:105B1800C9B2446141EA032101830021C56003E061
:105B2800D0E904138B42EBD04B1CCCF800301EF8A4
:105B3800011056684B0043EAD111CBB29E42EFD90F
:105B4800966901F00F013668BFF35F8FB6B226FA87
:105B580001F1C907E4D0516999424FD9116903EBA2
:105B6800830301EB8303197C4906D9D07EE701AE94
:105B7800C569002346CE012DC3608CE8460003D1D9
:105B8800D0E908128A420AD101AE46CEC0E90926F8
:105B9800C0E90731184604B05DF804BBF0BDC26A1D
:105BA80000F1280503E0D0E908168E42ECD04E1C1F
:105BB8000662695C56684C0044EAD1115FFA81FCC0
:105BC8006645F0D9966901F00F013668BFF35F8F1B
:105BD800B6B226FA01F1C907E5D05169614514D971
:105BE80011690CEB8C0601EB86010E7C7606DAD087
:105BF8000B46184604B05DF804BBF0BD40F60C62D5
:105C08001846C2F2200202F03FFD40F60C626046E0
:105C1800C2F2200202F038FD80B56F46D0E9072EA7
:105C28004FF0004C4FF08043CEF834C0CEF838C067
:105C3800CEF838300023CEF800300223C2F84031C5
:105C4800D2F840319B070CD5D2F840319B0744BFAE
:105C5800D2F840315FEA837303D5D2F840319B070D
:105C6800EED44FF0000C0A23C2F840C10029C2F854
:105C7800A831D2F8843123F0807308BF03F1807310
:105C8800C2F88431D2F844110068C2F84411C2F84D
:105C980048C1C2F8580180BDB0B502AF9AB00446F9
:105CA800C069D0F8B811C0F8B811D0F8BC11C0F864
:105CB800BC11D0F87811C0F878110021C0F87C1117
:105CC800D0F8B01159B1D0F8B01100291CBFD0F8E4
:105CD800B011002903D0D0F8B0110029F0D14FF04D
:105CE800FF31C0F8B411D0F8B41159B1D0F8B411DB
:105CF80000291CBFD0F8B411002903D0D0F8B41182
:105D08000029F0D100200821CDE9060101210C90DD
:105D180008900390019001A800F1100510940591D6
:105D28002846FFF79AFEF8B1007C10F07F01F7D003
:105D3800E2690829119119D2013940B2B0F1FF3F47
:105D48006FF40C00C9B202EB8101D1F8C421C8BFBD
:105D58006FF08C0000EA02004FF40022C8BF08224E
:105D68001043C1F8C401DBE71AB0B0BD002040F60B
:105D7800FC6116900220139040F68860C2F2200061
:105D8800C2F2200112900120159018A8149047F231
:105D9800DF00C0F20000199011A8189012A802F0B4
:105DA80054FC02464368C8B2490041EAD011C8B25F
:105DB800834217D9936901F00F011B68BFF35F8F06
:105DC8009BB223FA01F1C9070CD05169814284BF03
:105DD8000120704780B56F4640F6FC52C2F220029F
:105DE80002F052FC00207047F0B503AF2DE9000F18
:105DF80083B08046486800281FBF88690068BFF3E1
:105E08005F8F5FEAC07005D140F61850C2F22000DB
:105E180002F095FB4869002800F01D8151F81C4FDD
:105E28009A460125BAF1080F51F80C0CD4F8AC3198
:105E380090F9106006F01F0C05FA0CF56ED32B4094
:105E48006CD0D0F808C0C4F8AC51D4F8406146F41E
:105E58000056C4F84061DCE90A56D4F840319B0486
:105E680025D4D4F8403143F40053C4F84031DCE978
:105E78000A56D4F840319B045FBFD4F8403143F44C
:105E88000053C4F84031DCE90A565CBFD4F840310D
:105E98005FEA83430BD4D4F8403143F40053C4F889
:105EA8004031DCE90A56D4F840319B04CDD5D4F80A
:105EB800403123F40053C4F8403190F910C0D4F8AD
:105EC800B8315660BCF1000F15600CF01F024FF09E
:105ED800010648BF1B0C964033401B0614D14FF4F3
:105EE8008033BCF1FF3FC8BF01234FF47F0603FA9C
:105EF80002F2C8BFFF263240C4F8782182681268CF
:105F0800C2F30A4200F0AAFD0820C8F804000020E5
:105F180088F8000003B0BDE8000FF0BDC3685B68F7
:105F280013F0680F01D0072008E0D4F8B831002E2C
:105F380048BF1B0C2B401B0609D0002088F8010025
:105F4800012088F8000003B0BDE8000FF0BDB6F1ED
:105F5800FF3F4FF480364FF47F03CDF80880C8BF69
:105F68000126C8BFFF2306FA0CF63340C4F8BC313B
:105F78004FF4803E90F910304FF47F05B3F1FF3FA6
:105F880003F01F03C4BFFF254FF0010E0EFA03F301
:105F98002B40C4F87831C668D0E9013EDEF80050DD
:105FA8007468F669C5F30A45554538BFAA46C4F36F
:105FB8000E45761BB24528BFB246534538BF9A46B0
:105FC800BAF1000F36D0D0F800B00AF00305BAF1E4
:105FD800040F01D200261EE040F2FC730AEA03090E
:105FE80002F10108002601950BEB06041BF8065088
:105FF80008EB060394F801C008F806C00436B1455A
:1060080094F802C003F8015C83F801C0E5789D703C
:10601800EAD1019DB3446DB19BF80030012D935531
:1060280008D032449BF80130022D53701CBF9BF8F6
:1060380002309370DEF80020C2F30A4200F00EFD31
:10604800DDF808800020C8F804A088F8000003B034
:10605800BDE8000FF0BD40F60C620020C2F220023D
:10606800002102F011FBF0B503AF2DE9000F87B056
:106078004E68022EC0F00D81D1F818A0DAF8006041
:10608800BFF35F8FB60740F104814D69012D40F2DF
:106098000681D1F810B0DBF82060766816F0680F3A
:1060A80001D0072112E09BF8246051F81C9F06F0EC
:1060B8001F0C75B20126D9F8B84106FA0CF6002D66
:1060C80048BF240C2640360607D000214170012124
:1060D800017007B0BDE8000FF0BD4FF480344FF4F5
:1060E8007F060590B5F1FF3FC8BF0124C8BFFF2652
:1060F80004FA0CF52E40C9F878610BF11400DBE9BD
:1061080006563668C6F30A469E4238BF33469D4255
:1061180038BF2B46002B06936BD0D0F8008003F0D5
:106128000306042B039002D20020C64624E0CDF8D3
:10613800109040F2FC7003EA000E02F10109002001
:10614800CDE9016A09EB000519F8004008EB0006E3
:1061580015F801CC95F801A0AD7808F800C0043016
:106168008645747086F802A0F570EBD1DDF81090C2
:1061780008EB000EDDE9016A04916EB1115C012E95
:106188008EF8001008D01044022E41788EF80110C5
:106198001CBF80788EF80200581E012101EB5015B3
:1061A80005F0030401F0FEFF069A4EF6707028F021
:1061B8001F01CEF20000612A0FD325F0030201F17E
:1061C80020030160036001F14003036001F16003F3
:1061D800043A01F180010360F1D1002C1CBF016079
:1061E800012C4ED101F0DEFF01F0DFFF069BDDE957
:1061F80003011A460D4600F031FCDAF80000BFF33F
:106208005F8FC00753D09BF81000D9F8B83100F061
:106218001F0142B201208840002A48BF1B0C1840C9
:106228000006059825D1B2F1FF3F4FF48032C8BF70
:1062380001224FF47F0602FA01F1C8BFFF26314060
:10624800C9F8BC119BF910104FF480304FF47F034C
:106258000022B1F1FF3F01F01F01C4BFFF2301205D
:10626800884029461840C9F87801584600F0F6FBDE
:106278000598069941600021017007B0BDE8000F3C
:10628800F0BD01F120020260022C1CBF4031016008
:10629800A8E740F62850C2F2200002F050F940F674
:1062A8000C620120C2F22002294602F0EDF940F604
:1062B8003850C2F2200002F042F9F0B503AF2DE9E0
:1062C800000F83B08446387A4D68460046EAD016F7
:1062D800F0B2854240F2C4808D6906F00F062D6841
:1062E800BFF35F8FADB225FA06F6F60700F0B88067
:1062F800D1F814E0864540F2B9800E6900EB8000C1
:1063080006EB8000C668766816F0680F01D0072093
:1063180012E0057C8E4651F81C9F05F01F0A6CB2EE
:106328000125D9F8B86105FA0AF5002C48BF360CE2
:1063380035402D0609D000208CF8010001208CF88A
:10634800000003B0BDE8000FF0BDBEF82C6004F0FB
:106358000F05EE40F607EED04FF480354FF47F0678
:10636800CDF808C0B4F1FF3FC8BF0125C8BFFF265C
:1063780005FA0AF52E40C9F8BC614FF4803C90F943
:1063880010604FF47F04B6F1FF3F06F01F06C4BF4C
:10639800FF244FF0010C0CFA06F62640C9F8786184
:1063A800C568D0E9016EDEF80040D5F804C0ED6993
:1063B800C4F30A449C4238BF2346CCF30E442D1B39
:1063C800AB4228BF2B469E4238BF3346B3B3D0F802
:1063D80000A003F00304042B01D200261FE001945F
:1063E80040F2FC7403EA040902F1010B00260AEBEF
:1063F80006041AF806500BEB060C94F801800BF80B
:1064080006800436B14594F802800CF8015C8CF8DB
:106418000180E4788CF80240E9D1019CB2446CB167
:106428009AF80050012C955508D032449AF801503A
:10643800022C55701CBF9AF802609670DEF8002096
:106448001C46C2F30A4200F009FBDDF808C0002030
:10645800CCF804408CF8000003B0BDE8000FF0BD94
:1064680040F64850C2F2200002F069F840F60C628B
:106478007146C2F2200202F007F9F0B503AF2DE928
:10648800000F81B03E7A4D68740044EAD616F4B223
:10649800A54240F2CD808D6906F00F062D68BFF346
:1064A8005F8FADB225FA06F6F60700F0C180D1F885
:1064B80014C0A44540F2C2800E6904EB840506EBC3
:1064C800850BDBF80C60766816F0680F01D00721A1
:1064D80012E09BF8105051F81CCF05F01F0E6CB25B
:1064E8000125DCF8B86105FA0EF5002C48BF360C1A
:1064F80035402D0607D0002141700121017001B0FF
:10650800BDE8000FF0BD00904FF48030B4F1FF3FBC
:10651800C8BF01204FF47F0400FA0EF0C8BFFF2463
:106528002040CCF87801DBE901063668C6F30A4654
:106538009E4238BF3346984238BF0346002B62D08C
:10654800DBF8008003F0030C042B02D2002640463F
:106558001BE040F2FC7003EA000E02F1010900267C
:1065680009EB060519F806A015F8014C6878AD780E
:1065780008F8064008EB06040436B64584F801A07E
:10658800A070E570ECD108EB06008946BCF1000F5D
:106598000CD0915DBCF1010F017007D09119BCF1CD
:1065A800020F4A7842701CBF89788170581E0121F9
:1065B8009A4601EB501404F0030601F0F3FD4EF681
:1065C800707028F01F01CEF20000BAF1610F0FD3EE
:1065D80024F0030201F120030160036001F140038C
:1065E800036001F16003043A01F180010360F1D115
:1065F800002E1CBF0160012E12D101F0D3FD01F065
:10660800D4FD5346494658461A461C4600F026FA19
:10661800009800214460017001B0BDE8000FF0BD92
:1066280001F120020260022E1CBF40310160E4E744
:1066380040F65850C2F2200001F081FF40F60C628B
:106648002046C2F22002614602F01EF8B0B502AF41
:106658008AB0D3B2540044EAD314D0F804C05FFA25
:1066680084FEF44555D9836904F00F041B68BFF311
:106678005F8F9BB2E340DB074BD0D0F814C0F445E2
:106688004DD950F81CCF0EEB8E0450F80C3C03EBA0
:10669800840E9EF8103003F07F040194082C46D233
:1066A8005DB205F03F03002D0CEB8303D3F8C04126
:1066B80008D424F001040C4452B2002AC3F8C041A3
:1066C80009D518E024F4803461F3104452B2002A4A
:1066D800C3F8C0410FD471B9DCF8B81101239EF991
:1066E8001020002A02F01F0248BF090C03FA02F228
:1066F8001140090601D00AB0B0BDDEF808100968DB
:10670800C1F30A42014670460AB0BDE8B04000F045
:10671800A5B940F66850C2F2200001F010FF40F61B
:106728000C627046C2F22002614601F0ADFF002003
:1067380040F6FC6106900220039040F68860C2F2A1
:106748002000C2F2200102900120059008A80490C0
:1067580047F2DF00C0F20000099001A8089002A8E3
:1067680001F073FF80B56F468AB002464368C8B22D
:10677800490041EAD011C8B2834227D9936901F090
:106788000F011B68BFF35F8F9BB223FA01F1C907A2
:106798001CD0516981421FD9136900EB8000D1696F
:1067A80003EB8000007C00F07F020192082A19D2D6
:1067B80040B200F03F02002801EB8201D1F8C0117D
:1067C80048BF090C01F001000AB080BD40F67850BE
:1067D800C2F2200001F0B3FE40F6FC52C2F22002E1
:1067E80001F052FF002040F6FC6106900220039061
:1067F80040F68860C2F22000C2F220010290012017
:10680800059008A8049047F2DF00C0F20000099044
:1068180001A8089002A801F018FFF0B503AF2DE910
:10682800000B84464668C8B24D0045EAD014E0B271
:10683800864269D9DCF8189004F00F04D7F808806C
:10684800012606FA04FEBFF35F8F59E8006F46EA97
:106858000E0449E80045002DF7D116EA0E0FBFF3E4
:106868005F8F51D1DCF80CE0864553D9DCF814E091
:10687800864556D9DCF800908601B3F5806F4CB296
:1068880059F8065045F0005549F8065040F2000501
:1068980059F806E0C0F2FF7505EA034588BF4FF0D6
:1068A80080656FF31A4E754449F8065059F806503A
:1068B80025F4004E5FEA0865754608BF05F50045F2
:1068C800B4F1FF3FD8BF7546DCF80840DCF810C0CB
:1068D80049F8065046010125A55104EB4016756894
:1068E80025F0FF05756000EB800509EB80104CF87A
:1068F80025200CEB850282F811801174C2E9013061
:10690800D660BDE8000BF0BD40F68850C2F220000A
:1069180001F015FE40F61C627146C2F2200201F039
:10692800B3FE40F62C627146C2F2200201F0ACFEC2
:10693800F0B503AF2DE9000F99B080460F9000F134
:106948001C04684600F110054FF0000B4FF00809D1
:106958004FF0010ACDF82CB0CDF81CB0CDE905B93F
:10696800CDF810A0CDF808B0CDF800B007E022F0BF
:106978000C0242EA810141F0C001C0F8C411284666
:10698800FFF76BF8D8B1017C11F07F02F7D02368CC
:10699800082A109247D24EB2417C501EB6F1FF3FF2
:1069A800C0B203EB8000D0F8C421E0DC22F44C0232
:1069B80042EA814101F54001C0F8C411DFE7CDF892
:1069C8003C80CDF82CB0CDE9069BCDE904ABCDF8E1
:1069D80008B0CDF800B009E0B1F1FF3F06DD8168ED
:1069E8000968C1F30A42214600F038F82846FFF743
:1069F80034F8A0B1017C11F07F0249B2ECD02368D1
:106A0800082A10920FD2013A0029D2B203EB82026F
:106A1800D2F8C421EAD412F08001E0D1E6E719B037
:106A2800BDE8000FF0BD002040F6FC611590022083
:106A3800129040F68860C2F22000C2F22001119044
:106A48000120149017A8139047F2DF00C0F200004D
:106A5800189010A8179011A801F0F7FDF0B503AF32
:106A68004DF8048D82B005468846EE68012100681D
:106A780031607168F26162F31E417160CAB1B06041
:106A880040F6FF71B068884300F58050F060F06808
:106A98006FF30B0000F58050306130696FF30B0025
:106AA80000F58050706170696FF30B0000F580503D
:106AB80004E00020B060F06030617061B061802156
:106AC800706840F400407060706861F3070070609F
:106AD800019601F067FB4EF6707401A8CEF200042F
:106AE80020F01C00206001F05DFB01F05EFBA8684F
:106AF8008660C16821F0FF01C160009001F052FB7F
:106B0800684620F01C0020602030206001F04AFB1D
:106B180001F04BFB95F910204FF47F01D8F80000E5
:106B28004FF48033B2F1FF3F02F01F02C8BFFF21CC
:106B3800C8BF012303FA02F21140C0F8B011D0F81F
:106B4800B01159B1D0F8B01100291CBFD0F8B0115C
:106B5800002903D0D0F8B0110029F0D102B05DF8B7
:106B6800048BF0BDD0E9000184220968002818BF11
:106B78008C22885840F0004088507047D0E90001C6
:106B880084220968002818BF8C228858C00F7047D3
:106B9800D0E9000184220968002818BF8C2288588F
:106BA80020F0004088507047D0E90001842209682D
:106BB800002818BF8C22885840F0804088507047C1
:106BC800D0E9000284231268002818BF8C23D0580B
:106BD80020F0807040EA0160D0507047D0E9000290
:106BE8008023002818BF88236FF07F4012688142F5
:106BF80038BF0846012898BF01200138D050704797
:106C0800D0E90001182209680028D1F8441118BFFA
:106C1800192221FA02F000F001007047D0E90001C2
:106C28004FF080720968002818BF4FF00072C1F851
:106C380044217047D0E900024FF0807312680028A1
:106C480018BF4FF000736FF08070D2F848C118BFBA
:106C58006FF00070002900EA0C0018BF1843C2F852
:106C680048017047D0E90001182209680028D1F8C6
:106C7800481118BF192221FA02F000F001007047EC
:106C8800F0B503AF4DF804BD044690F834000D4646
:106C9800012801D1206829E001F08DFA064601F0AB
:106CA8007DFA2068F10721D1002801BF206A4FF042
:106CB800FF312160D0F8481101BF21F0410165F38F
:106CC800000165F38611C0F8481101BF2068013042
:106CD80020605DF804BB04BFBDE8F04001F060BA75
:106CE80040F68070C2F2200001F0F5FB002801BFD9
:106CF800206A4FF0FF312160D0F8481101BF21F020
:106D0800410165F3000165F38611C0F8481101BF20
:106D18002068013020605DF804BB08BFF0BDDFE7E4
:106D2800F0B503AF4DF804BD044690F834000D46A5
:106D3800012801D1206835E001F03DFA064601F04E
:106D48002DFA2068F1072DD1002855D14FF0FF30DA
:106D580069002060E8B241EAD011A268C8B2824254
:106D680017D9E26901F00F011268BFF35F8F92B281
:106D780022FA01F1C9070CD0A169814242D961699F
:106D880000EB800001EB80008068016821F0005171
:106D980001602068013020605DF804BBBDE8F04068
:106DA80001F0FEB940BB4FF0FF3069002060E8B247
:106DB80041EAD011A268C8B2824217D9E26901F04B
:106DC8000F011268BFF35F8F92B222FA01F1C9076F
:106DD8000CD0A169814215D9616900EB800001EBF3
:106DE80080008068016821F000510160206801304E
:106DF80020605DF804BBF0BD40F68070C2F2200050
:106E080001F069FB40F60C62C2F2200201F03CFC82
:106E1800F0B503AF2DE9000782B006683168002994
:106E280040F0EC8000F1040A04694FF0FF3230466C
:106E38009AE8220440F8042B0A78DAB14C78B26850
:106E4800610041EAD411CBB29A4240F2BC80F269A7
:106E580001F00F011268BFF35F8F92B222FA01F1BD
:106E6800C90700F0B080B169994240F2CD80012095
:106E78000521BCE02178B26841F001094FEA4903D5
:106E880043EAD111CBB29A4240F28C80F26901F008
:106E98000F011268BFF35F8F92B222FA01F1C9079E
:106EA80000F08080B169994240F2AE802178B268E2
:106EB80041F002094FEA490343EAD111CBB29A42A1
:106EC80070D9F26901F00F011268BFF35F8F92B2B7
:106ED80022FA01F1C90765D0B169994240F294805C
:106EE8002178B26841F003094FEA490343EAD11116
:106EF800CBB29A4256D9F26901F00F011268BFF37A
:106F08005F8F92B222FA01F1C9074BD0B169994259
:106F18007AD92178B26841F004094FEA490343EA73
:106F2800D111CBB29A423DD9F26901F00F01126832
:106F3800BFF35F8F92B222FA01F1C90732D0B1696B
:106F4800994261D92178B26841F005094FEA4903AD
:106F580043EAD111CBB29A4224D9F26901F00F0168
:106F68001268BFF35F8F92B222FA01F1C90719D0F4
:106F7800B169994248D92178804641F006094946C5
:106F8800FEF70FFF0146404661B1207840F007093F
:106F980040464946FEF705FF0146404611B101202B
:106FA800032124E0F16A2B88994214D3CA1AB16AE2
:106FB8008A4210D3F2629AF8001000914946FFF70E
:106FC8002CFC494612E0F16A2B88994203D3CA1A6D
:106FD800B16A8A4202D20120042108E0F2629AF8DA
:106FE800001000912146FFF718FC21460020326866
:106FF8000132326002B0BDE80007F0BD40F6807093
:10700800C2F2200001F067FA40F6FC521846C2F2BC
:10701800200201F039FBB0B502AF044690F8340005
:10702800012801D1206815E001F0C5F8054601F0F6
:10703800B5F82068E9070DD1B8B94FF0FF302060E6
:10704800201DFFF775FC206801302060BDE8B040C6
:1070580001F0A6B848B94FF0FF302060201DFFF7B7
:1070680067FC206801302060B0BD40F68070C2F235
:10707800200001F030FAB0B502AF88B007F8221C42
:10708800A7F122010791A7F11F010691A7F11E019F
:10709800059190F83410D7E9024507F8212CA7F19B
:1070A8002102012907F8203C07F81F4C27F81E5C2D
:1070B800CDE9030204D103A8FFF7AAFE08B0B0BDCA
:1070C80001F079F8044601F069F803A8FFF7A0FE7B
:1070D800E20705D104460D4601F062F8294620462C
:1070E80008B0B0BDF0B503AF4DF804BD044690F844
:1070F80034000D46012801D1206823E001F05BF837
:10710800064601F04BF82068F1071BD1002801BFA3
:10711800206A4FF0FF312160690601BF01F18071DB
:10712800C0F854112068013001BF20605DF804BB2D
:10713800BDE8F04001F034B840F68070C2F220009B
:1071480001F0C9F9002801BF206A4FF0FF31216022
:10715800690601BF01F18071C0F85411206801303F
:1071680002BF20605DF804BBF0BDE5E7B0B502AF33
:10717800044690F83400012801D120681BE001F092
:107188001AF8054601F00AF82068E90713D1002823
:1071980001BF206AD0F8401141F00101C0F8401148
:1071A80004BFBDE8B04000F0FBBF40F68070C2F2FB
:1071B800200001F090F9002801BF206AD0F84011A2
:1071C80041F00101C0F8401108BFB0BDEDE7B0B50E
:1071D80002AF044690F83400012801D1206815E078
:1071E80000F0E9FF054600F0D9FF2068E9070DD156
:1071F800B8B94FF0FF302060201DFEF74DFD206824
:1072080001302060BDE8B04000F0CABF48B94FF077
:10721800FF302060201DFEF73FFD20680130206010
:10722800B0BD40F68070C2F2200001F054F9F0B50C
:1072380003AF2DE9000784B0824691F83400D7F8EF
:107248000880994616460D4601282FD1286800283F
:1072580040F0DA804FF0FF3071002860F0B241EA68
:10726800D011AA68C8B2824256D9EA6901F00F0162
:107278001268BFF35F8F92B222FA01F1C9074BD0AF
:10728800A969814240F2C680291D700600F09380EA
:1072980002A84A4643460096FFF7EFF89DF8080013
:1072A800002800F092809DF8090036E000F083FF86
:1072B800044600F073FF2868E1073AD1002840F03F
:1072C800A3804FF0FF3071002860F0B241EAD0117E
:1072D800AA68C8B2824258D9EA6901F00F01126857
:1072E800BFF35F8F92B222FA01F1C9074DD0A969A5
:1072F800814240F28F80291D70066BD002A84A4651
:1073080043460096FFF7B9F89DF8080000286AD0B0
:107318009DF8096001243AE005208AF8010001205F
:1073280029688AF80000481C286004B0BDE80007F6
:10733800F0BD002868D14FF0FF3071002860F0B22E
:1073480041EAD011AA68C8B2824226D9EA6901F096
:107358000F011268BFF35F8F92B222FA01F1C907D9
:107368001BD0A969814255D9291D70063FD002A8B2
:107378004A4643460096FFF780F89DF80800002823
:107388003ED09DF80960012409E0012405262868FB
:107398000130286000F004FF04E001240526286875
:1073A80001302860F0B244EA0020CAE9000804B0BD
:1073B800BDE80007F0BD02A84A464346FEF753FE63
:1073C8009DF8080000287FF46EAF0398CAF80400FF
:1073D8000020A5E702A84A464346FEF744FE9DF86A
:1073E8000800002894D1DDF80C800024CFE702A81B
:1073F8004A464346FEF737FE9DF808000028C0D1EC
:10740800DDF80C800024CAE740F68070C2F2200044
:1074180001F061F840F6FC52C2F2200201F034F9A2
:10742800F0B503AF2DE9000784B0824691F8340027
:10743800D7F80880994616460D4601282FD12868A6
:10744800002840F0DA804FF0FF3071002860F0B279
:1074580041EAD011AA68C8B2824256D9EA6901F055
:107468000F011268BFF35F8F92B222FA01F1C907C8
:107478004BD0A969814240F2C680291D700600F0F0
:10748800938002A84A4643460096FEF716FF9DF8E9
:107498000800002800F092809DF8090036E000F00E
:1074A8008AFE044600F07AFE2868E1073AD10028EF
:1074B80040F0A3804FF0FF3071002860F0B241EA3D
:1074C800D011AA68C8B2824258D9EA6901F00F01FE
:1074D8001268BFF35F8F92B222FA01F1C9074DD04B
:1074E800A969814240F28F80291D70066BD002A8DD
:1074F8004A4643460096FEF7E0FE9DF8080000283D
:107508006AD09DF8096001243AE005208AF8010054
:10751800012029688AF80000481C286004B0BDE8EA
:107528000007F0BD002868D14FF0FF3071002860D7
:10753800F0B241EAD011AA68C8B2824226D9EA69F3
:1075480001F00F011268BFF35F8F92B222FA01F1C6
:10755800C9071BD0A969814255D9291D70063FD09A
:1075680002A84A4643460096FEF7A7FE9DF8080083
:1075780000283ED09DF80960012409E00124052671
:1075880028680130286000F00BFE04E0012405267D
:10759800286801302860F0B244EA0020CAE90008EF
:1075A80004B0BDE80007F0BD02A84A464346FEF70E
:1075B8001BFC9DF8080000287FF46EAF0398CAF8FA
:1075C80004000020A5E702A84A464346FEF70CFC43
:1075D8009DF80800002894D1DDF80C800024CFE73E
:1075E80002A84A464346FEF7FFFB9DF8080000281C
:1075F800C0D1DDF80C800024CAE740F68070C2F2E2
:10760800200000F068FF40F6FC52C2F2200201F0B0
:107618003BF8F0B503AF4DF8048D044690F83400FC
:1076280090460D46012801D1206830E000F0C3FDE6
:10763800064600F0B3FD2068F10728D100284BD199
:107648004FF0FF3069002060E8B241EAD011A2682B
:10765800C8B2824212D9E26901F00F011268BFF381
:107668005F8F92B222FA01F1C90707D0A16981425E
:1076780038D9201D41462A46FEF7E8FF2068013028
:1076880020605DF8048BBDE8F04000F089BD18BBB0
:107698004FF0FF3069002060E8B241EAD011A268DB
:1076A800C8B2824212D9E26901F00F011268BFF331
:1076B8005F8F92B222FA01F1C90707D0A16981420E
:1076C80010D9201D41462A46FEF7C0FF2068013028
:1076D80020605DF8048BF0BD40F68070C2F2200097
:1076E80000F0F9FE40F6FC52C2F2200200F0CCFF96
:1076F800F0B503AF4DF804BD044690F834000128F6
:1077080005D120686FF00042904222D32CE00E464B
:1077180000F051FD054600F041FD2068E90713D14E
