:020000042020BA
:025F0C00000093
:0200000460009A
:100000004643464200000156000000000101020084
:1000100000000000000000000000000000000000E0
:1000200000000000000000000000000000000000D0
:1000300000000000000000000000000000000000C0
:1000400000000000010403000000000000000000A8
:100050000000200000000000000000000000000080
:100060000000000000000000000000000000000090
:100070000000000000000000000000000000000080
:10008000EB04180A063204260000000000000000FD
:10009000050404240000000000000000000000002F
:1000A0000000000000000000000000000000000050
:1000B0000604000000000000000000000000000036
:1000C0000000000000000000000000000000000030
:1000D00020041808000000000000000000000000DC
:1000E0000000000000000000000000000000000010
:1000F0000000000000000000000000000000000000
:1001000000000000000000000000000000000000EF
:100110000204180804200000000000000000000095
:1001200000000000000000000000000000000000CF
:10013000600400000000000000000000000000005B
:1001400000000000000000000000000000000000AF
:10015000000000000000000000000000000000009F
:10016000000000000000000000000000000000008F
:10017000000000000000000000000000000000007F
:10018000000000000000000000000000000000006F
:10019000000000000000000000000000000000005F
:1001A000000000000000000000000000000000004F
:1001B000000000000000000000000000000000003F
:1001C000000100000010000001000000000000001D
:1001D000000000000000000000000000000000001F
:1001E000000000000000000000000000000000000F
:1001F00000000000000000000000000000000000FF
:10020000D4D4D4D4D4D4D4D4D4D4D4D4D4D4D4D4AE
:10100000D10020400020006000000000000000002F
:1010100020100060001000600000000000000000D0
:10102000000000603415020000000000EFBEADDEDD
:10103000124880F3088812481249016000F036F81F
:10104000114812490022814201D004C0FBE7104838
:101050001049114A814202D008CA08C0FAE70F4875
:101060004FF47001026842EA01020260BFF34F8F41
:10107000BFF36F8F00F014F800DE00000040002086
:1010800008ED00E00040002000500020AC8A002065
:10109000B84200204C4400203415026088ED00E086
:1010A00041F6055CC0F2000C6047D4D4204840F201
:1010B0009C41884219D040F24C418842CCBF1D4A25
:1010C0001D4A1E4B5360136823F0800313601C48B5
:1010D0001C49C1BF1C480A0C8264C1F30F01416462
:1010E000016C41F00401016402E0184815490160F7
:1010F0001748184A824205D01749814202D008CACF
:1011000008C0FAE71548164A824205D015498142BF
:1011100002D008CA08C0FAE71348144A824205D030
:101120001349814202D008CA08C0FAE7704700009C
:10113000240400000080034000C00B4020C528D9D3
:1011400000C00A40AAAAFAFF00400E4060004F44C7
:1011500000000000B82200607093010000400020F1
:1011600000200060B84200200000202028B6016066
:101170000C5F2020D4D4D4D4D4D4D4D4D4D4D4D4D4
:10118000D4D4D4D4D4D4D4D4D4D4D4D4D4D4D4D41F
:10119000D4D4D4D4D4D4D4D4D4D4D4D4D4D4D4D40F
:1011A000D4D4D4D4D4D4D4D4D4D4D4D4D4D4D4D4FF
:1011B000D4D4D4D4D4D4D4D4D4D4D4D4D4D4D4D4EF
:1020000000400020311000605BDE00004B930100B7
:102010005BDE00005BDE00005BDE00000000000015
:102020000000000000000000000000005BDE000077
:102030005BDE0000000000005BDE0000EB1B000028
:102040005BDE00005BDE00005BDE00005BDE0000AC
:102050005BDE00005BDE00005BDE00005BDE00009C
:102060005BDE00005BDE00005BDE00005BDE00008C
:102070005BDE00005BDE00005BDE00005BDE00007C
:102080005BDE000000000000000000000000000017
:102090005BDE00005BDE00005BDE00005BDE00005C
:1020A0005BDE00005BDE00005BDE00005BDE00004C
:1020B0005BDE00005BDE00005BDE00005BDE00003C
:1020C0005BDE00005BDE00005BDE00005BDE00002C
:1020D0005BDE00005BDE00005BDE00005BDE00001C
:1020E0005BDE00005BDE00005BDE00005BDE00000C
:1020F0005BDE00005BDE00005BDE00005BDE0000FC
:102100005BDE00005BDE00005BDE00005BDE0000EB
:10211000000000005BDE0000000000005BDE00004D
:102120005BDE00005BDE00005BDE00005BDE0000CB
:102130005BDE00005BDE0000000000005BDE0000F4
:102140005BDE00005BDE00005BDE00005BDE0000AB
:102150005BDE00005BDE000000000000000000000D
:102160005BDE00005BDE00005BDE00005BDE00008B
:102170005BDE00005BDE00005BDE00005BDE00007B
:102180005BDE00005BDE00005BDE00005BDE00006B
:102190005BDE00005BDE00005BDE00005BDE00005B
:1021A0005BDE00005BDE00005BDE00005BDE00004B
:1021B0005BDE00005BDE00005BDE00005BDE00003B
:1021C0005BDE00005BDE00005BDE00000000000064
:1021D0005BDE0000D11B00005BDE00005BDE000068
:1021E0005BDE00005BDE00005BDE00005BDE00000B
:1021F0005BDE00005BDE00005BDE00005BDE0000FB
:102200005BDE0000F91B00005BDE00005BDE00000F
:102210005BDE00005BDE00005BDE00005BDE0000DA
:102220005BDE00005BDE00005BDE00005BDE0000CA
:102230005BDE00005BDE00005BDE000000000000F3
:10224000000000005BDE00005BDE00005BDE0000E3
:102250005BDE00005BDE00005BDE00005BDE00009A
:102260005BDE00005BDE00005BDE00005BDE00008A
:102270005BDE00005BDE00005BDE00005BDE00007A
:102280005BDE00005BDE00005BDE00005BDE00006A
:102290005BDE00005BDE00005BDE00005BDE00005A
:1022A0005BDE00005BDE00005BDE00000000000083
:0822B0005BDE00005BDE0000B4
:1022B80080B56F468CB00192029007F8051C0B920E
:1022C80021B9FFE70299002008600FE0019903A8EF
:1022D800009000F04DFB02980099B1E80C10A0E8BE
:1022E8000C1091E80C5080E80C50FFE70CB080BD52
:1022F80080B56F4688B00193029203910490B86844
:10230800059006920793086860B1FFE7039904985F
:10231800B1E80C10A0E80C1091E80C5080E80C50C3
:1023280008B080BD059A0199029818F061FB80B544
:102338006F4688B000930192029103900491059230
:102348000068C00738B1FFE70399486889680690B4
:10235800079108B080BD009A0199029818F048FBCF
:10236800B0B502AF8CB00A460290099003A901915A
:1023780092E8385081E8385004F02FF8019A029812
:10238800014692E8385081E83850006838B1FFE7D4
:1023980002980A90089008980B900CB0B0BD0020E5
:1023A800089041F65420C2F2200002F0A3FCFFE797
:1023B800FEDE80B56F4681B000900068B0FA80F00C
:1023C800400901B080BD80B56F4684B0019102908C
:1023D8000390FFE70199029800F004F8FFE70298DC
:1023E80004B080BD80B56F468EB001910A9041F669
:1023F8006421C2F220010B91D2210C91E0B9FFE7D0
:10240800019A41F66420C2F220000890D220099077
:1024180008A80D9002900120039041F64830C2F2BE
:10242800200001684068069107900420049000216C
:10243800059102A818F0E0FB0EB080BD80B56F468C
:1024480098B0019302910390B868049007F8492C5A
:10245800139348F27C61C2F2000106A802F023FB44
:10246800069860B9FFE7029908A803F017FC0399DA
:102478000898099A0A9B8B604A60086024E00398D0
:102488000499DDF808E0019BDDF818C0CDF850C0CC
:10249800079A1592CDF858C01792CDF82CC00C9316
:1024A800DEF80030DEF804C0DEF808E0CDF83CE0E5
:1024B800CDF838C00D93A7F14903109311921291EA
:1024C8000BA904F0ADFFFFE718B080BD80B56F46DB
:1024D8008EB001910290086849680AF0E9FF07F890
:1024E800290CA7F1290000F091F9C8B9FFE7019973
:1024F8008868CA680B690C930B920A9048698A69C4
:10250800CB6901780AA804F0EEFF48F61360C0F220
:1025180000000BF021F8029948600020086012E0E2
:10252800019A9068D168126909920891079004A8E5
:1025380007A903F0B3FB02990498059A069B8B60E0
:102548004A600860FFE70EB080BD80B56F468AB06C
:1025580002920191049007F8012C05A803900AF053
:102568005AFC08F0A3FD08F0A6FD0199029A039B06
:1025780084460498CDF820C0EE460DF1200CCEF824
:1025880000C0FFF75BFF0AB080BD80B56F4682B020
:1025980000900190006802B080BD80B56F4682B09F
:1025A80000900190006802B080BD80B56F4682B08F
:1025B80000900190006802B080BD80B56F4682B07F
:1025C80000900190006802B080BD80B56F4682B06F
:1025D80000900190006802B080BD80B56F4682B05F
:1025E80000900190006802B080BD80B56F4682B04F
:1025F80000900190006802B080BD80B56F4682B03F
:1026080000900190006802B080BD80B56F4682B02E
:1026180000900190006802B080BD80B56F4682B01E
:1026280000900190006802B080BD80B56F4682B00E
:1026380000900190006802B080BD80B56F4681B0FF
:1026480007F8030C17F8030CC00720B1FFE70020B8
:1026580007F8020C03E0012007F8020CFFE717F85F
:10266800030CC00708B1FFE7FFE717F8020C01B039
:1026780080BD80B56F468CB00193029007F8221C8C
:1026880007F8212C17F8220CC00748B1FFE7029978
:1026980017F8210C07F8010C0870042008721EE0D6
:1026A800DDF804C017F8212C07F8022CDCF800002C
:1026B800DCF80410DCF80830DCF80CC0CDF828C0D1
:1026C80009930891079004A807A901F06FFF0299E0
:1026D8000498059A069B8B604A600860FFE70CB077
:1026E80080BD80B56F468CB00193029007F8221C1C
:1026F80007F8212C17F8220CC00748B1FFE7029908
:1027080017F8210C07F8010C0870042008721EE065
:10271800DDF804C017F8212C07F8022CDCF80000BB
:10272800DCF80410DCF80830DCF80CC0CDF828C060
:1027380009930891079004A807A901F055FF029989
:102748000498059A069B8B604A600860FFE70CB006
:1027580080BD80B56F4681B0009001780120884324
:1027680001B080BD80B56F468AB002930392049190
:102778000590B868069008920993087A042811D140
:10278800FFE702990398069A049B1B7807F8093C0F
:102798006B461A6041F66033C2F22003A7F10902C2
:1027A80018F04CF90599049B18685A689B688B6067
:1027B8004A6008600AB080BD80B56F468AB002934F
:1027C800039204910590B868069008920993087AD4
:1027D800042811D1FFE702990398069A049B1B78F5
:1027E80007F8093C6B461A6041F66033C2F22003D1
:1027F800A7F1090218F022F90599049B18685A688C
:102808009B688B604A6008600AB080BD80B56F46DF
:1028180081B00090007800F0010001B080BD80B563
:102828006F4694B002920191014601980691129068
:1028380027F8022C01F032FF0199049007A808221A
:102848000392FF2301F05BFF019801F027FF019934
:10285800029A05900AA801F0E4FD0199029A0DA8D0
:1028680001F0BAFDDDF80CC0049B059A069900201A
:102878008DF846008DF844C08DF845004FF4FA5C99
:10288800CDF840C081F82C30079BDDF820C0DDF87A
:1028980024E0C1F810E0C1F80CC08B6081F82D204D
:1028A8000A9A0B9BDDF830C0C1F81CC08B614A61E5
:1028B8000D9A0E9BDDF83CC0C1F828C04B620A6235
:1028C800109A119B4B600A6081F82E0081F82F0046
:1028D80014B080BDD0B502AF83B094468E46014691
:1028E800F868BA68CDF800E007F80ECC07F80D3C98
:1028F800ADF8082007F8090CC1F800E081F806C017
:102908000B728A80C87103B0D0BDD0B502AF83B056
:1029180094468E460146F868BA68CDF800E007F894
:102928000ECC07F80D3CADF8082007F8090CC1F8E3
:1029380000E081F806C00B728A80C87103B0D0BD70
:1029480080B56F4684B000910190029141F2381031
:1029580008444FF00041042201F018F8009A01469B
:1029680001980391C943C90FFFF7A2FC04B080BDC9
:10297800F0B503AF4DF804BD8AB0079108900991EE
:10298800062002901021039114F07AF90146079865
:1029980041F67032C2F2200203F066FA079A054641
:1029A80002980C46039902F58052019214F068F9D6
:1029B8000146019841F68032C2F2200203F0A8FADB
:1029C800079A0346029806930B460399059302F566
:1029D8008652049214F054F90146049841F6903254
:1029E800C2F2200203F06AFADDF814C0DDF818E03C
:1029F800034607980A46089941F2381630440D6094
:102A08004C60C1F808E0C1F80CC00B614A618861EC
:102A18000AB05DF804BBF0BD80B56F4686B0009182
:102A28000146009804910590FFF7D7FD01460098EC
:102A38000191FFF7D2FD0146009860310291FFF73E
:102A4800CCFD01460098C0310391FFF7C6FDDDF8C3
:102A580004C0029B039A049900F59070C1F800C065
:102A68004B608A60C86006B080BD80B56F4686B08E
:102A780000910146009804910590FFF786FD0146F4
:102A880000980191FFF781FD01460098603102919D
:102A9800FFF77BFD01460098C0310391FFF775FDF4
:102AA800DDF804C0029B039A049900F59070C1F800
:102AB80000C04B608A60C86006B080BD80B56F46B4
:102AC80086B000910146009804910590FFF765FDD6
:102AD800014600980191FFF760FD014600986031BA
:102AE8000291FFF75AFD01460098C0310391FFF7A4
:102AF80054FDDDF804C0029B039A049900F5907018
:102B0800C1F800C04B608A60C86006B080BD80B55F
:102B18006F4686B000910146009804910590FFF732
:102B280064FD014600980191FFF75FFD014600989A
:102B380060310291FFF759FD01460098C0310391B9
:102B4800FFF753FDDDF804C0029B039A049900F5D2
:102B58009070C1F800C04B608A60C86006B080BD44
:102B680080B56F46F2B0009002A801900BF0B5F95D
:102B7800009801994FF4E07218F032FC72B080BDF1
:102B880080B56F4686B001920A46019903920246C3
:102B980003980292049207F8010C02F00BFF0298C6
:102BA800039900F01BFA06B080BD80B56F4688B067
:102BB800019304920A4601990392034604980293EA
:102BC8000593069207F8010C02F016FF0298039984
:102BD800049A00F031FA08B080BD000080B56F4655
:102BE80094B00190109007F8091C41F6D430C2F255
:102BF8002000129041F60440C2F220001390C8B29F
:102C080002900299DFE801F0040822284200FEDE63
:102C18000198006803903FE041F60440C2F22000AA
:102C280004900120059041F64830C2F22000016866
:102C3800406808910990042006900020079041F60A
:102C48000C41C2F2200104A818F02FF8019800687E
:102C5800BFF35F8F03901FE041F6D430C2F220002B
:102C68000A9001200B9041F64830C2F2200001681A
:102C780040680E910F9004200C9000200D9041F6B2
:102C88001C41C2F220010AA818F00FF80198006848
:102C9800BFF35F8F0390FFE7039814B080BD000077
:102CA80080B56F4694B00190109007F8091C41F662
:102CB800D430C2F22000129041F60440C2F2200043
:102CC8001390C8B202900299DFE801F004082228A4
:102CD8004200FEDE0198006803903FE041F60440A0
:102CE800C2F2200004900120059041F64830C2F25B
:102CF800200001684068089109900420069000208F
:102D0800079041F60C41C2F2200104A817F0CDFF4C
:102D180001980068BFF35F8F03901FE041F6D4303D
:102D2800C2F220000A9001200B9041F64830C2F20E
:102D38002000016840680E910F9004200C9000203C
:102D48000D9041F61C41C2F220010AA817F0ADFF10
:102D580001980068BFF35F8F0390FFE7039814B0F2
:102D680080BD000080B56F4694B0009101900F902F
:102D7800109107F8092C41F66040C2F22000129029
:102D880041F69440C2F220001390D0B2029002990A
:102D9800DFE801F004080E284200FEDE00980199E1
:102DA800086041E000980199BFF35F8F08603BE03D
:102DB80041F69440C2F2200003900120049041F6AD
:102DC8004830C2F22000016840680791089004204A
:102DD80005900020069041F69C41C2F2200103A80C
:102DE80017F063FF41F66040C2F22000099001200D
:102DF8000A9041F64830C2F22000016840680D91FF
:102E08000E9004200B9000200C9041F6AC41C2F2C9
:102E1800200109A817F049FF00980199BFF35F8FB7
:102E28000860BFF35F8FFFE714B080BD80B56F46C1
:102E380094B0009101900F90109107F8092C41F679
:102E48006040C2F22000129041F69440C2F2200085
:102E58001390D0B202900299DFE801F004080E281E
:102E68004200FEDE00980199086041E0009801994F
:102E7800BFF35F8F08603BE041F69440C2F2200048
:102E880003900120049041F64830C2F22000016806
:102E9800406807910890042005900020069041F6AC
:102EA8009C41C2F2200103A817F0FFFE41F66040E2
:102EB800C2F22000099001200A9041F64830C2F27F
:102EC8002000016840680D910E9004200B900020AE
:102ED8000C9041F6AC41C2F2200109A817F0E5FEBA
:102EE80000980199BFF35F8F0860BFF35F8FFFE71A
:102EF80014B080BD80B56F4694B0009101900F90DA
:102F0800109107F8092C41F66040C2F22000129097
:102F180041F69440C2F220001390D0B20290029978
:102F2800DFE801F004080E284200FEDE009801994F
:102F3800086041E000980199BFF35F8F08603BE0AB
:102F480041F69440C2F2200003900120049041F61B
:102F58004830C2F2200001684068079108900420B8
:102F680005900020069041F69C41C2F2200103A87A
:102F780017F09BFE41F66040C2F220000990012044
:102F88000A9041F64830C2F22000016840680D916D
:102F98000E9004200B9000200C9041F6AC41C2F238
:102FA800200109A817F081FE00980199BFF35F8FEF
:102FB8000860BFF35F8FFFE714B080BD80B56F4630
:102FC80082B001900090009802B080BD80B56F4635
:102FD80082B001900090009802B080BD80B56F4625
:102FE80084B0019007F8051C0390FFF759FE04B060
:102FF80080BD80B56F4684B0019007F8051C03902A
:10300800FFF7ECFD04B080BD80B56F4684B000903A
:10301800019107F8052C0390FFF708FF04B080BD65
:1030280080B56F4684B00090019107F8052C039095
:10303800FFF798FE04B080BD80B56F4684B000905D
:10304800019107F8052C0390FFF754FF04B080BDE9
:10305800D0B502AF9EB08446CDF81CC0B8680890C1
:103068009646CDF824E00C460A94CDF864C08DF855
:10307800681007F8172C07F8163C07F8150C41F6E6
:10308800F040C2F220001B9041F63850C2F22000F6
:103098001C90D8B20B900B99DFE801F00413253788
:1030A8004900FEDE0898C0B201460691002856D0B5
:1030B800FFE70698022869D0FFE7069804287ED023
:1030C80047E00898C0B201460591002800F0A180A9
:1030D800FFE70598022800F0B580FFE70598042867
:1030E80000F0CB8035E00898C0B201460491002872
:1030F80000F0DE80FFE70498022800F0F280FFE786
:103108000498042800F0068123E00898C0B201461C
:103118000391002800F01981FFE70398022800F0C6
:103128002F81FFE70398042800F0458111E00898F3
:10313800C0B201460291002800F05881FFE70298CA
:10314800022800F06E81FFE70298042800F08481CD
:10315800FFE70898C0B2012800F0AD81C5E10A98E0
:10316800079BDDF824C0C0B2D3E84F1F014503D147
:10317800C3E842CF002AF7D1C0B2081AB0FA80F0EB
:10318800400907F84E1C07F84D0C33E00A98079BD6
:10319800DDF824C0C0B2D3E84F1F014503D1C3E80E
:1031A80042CF002AF7D1C0B2081AB0FA80F040091D
:1031B800BFF35F8F07F84E1C07F84D0C1AE00A980A
:1031C800079BDDF824C0BFF35F8FC0B2D3E84F1F61
:1031D800014503D1C3E842CF002AF7D1C0B2081A8B
:1031E800B0FA80F04009BFF35F8F07F84E1C07F86C
:1031F8004D0CFFE717F84E0C0146019107F80A0C31
:1032080017F84D0C07F8090CC007002840F0468154
:103218003DE10A98079BDDF824C0BFF35F8FC0B279
:10322800D3E84F1F014503D1C3E842CF002AF7D1A5
:10323800C0B2081AB0FA80F0400907F84E1C07F827
:103248004D0CD7E70A98079BDDF824C0BFF35F8FC2
:10325800C0B2D3E84F1F014503D1C3E842CF002ACB
:10326800F7D1C0B2081AB0FA80F04009BFF35F8FF7
:1032780007F84E1C07F84D0CBCE70A98079BDDF8C9
:1032880024C0BFF35F8FC0B2D3E84F1F014503D1FD
:10329800C3E842CF002AF7D1C0B2081AB0FA80F0CA
:1032A8004009BFF35F8F07F84E1C07F84D0CA1E7E4
:1032B8000A98079BDDF824C0C0B2D3E84F1F014528
:1032C80003D1C3E842CF002AF7D1C0B2081AB0FA36
:1032D80080F04009BFF35F8F07F84E1C07F84D0CCC
:1032E80088E70A98079BDDF824C0C0B2D3E84F1FCF
:1032F800014503D1C3E842CF002AF7D1C0B2081A6A
:10330800B0FA80F04009BFF35F8F07F84E1C07F84A
:103318004D0C6FE70A98079BDDF824C0BFF35F8F59
:10332800C0B2D3E84F1F014503D1C3E842CF002AFA
:10333800F7D1C0B2081AB0FA80F04009BFF35F8F26
:1033480007F84E1C07F84D0C54E70A98079BDDF860
:1033580024C0BFF35F8FC0B2D3E84F1F014503D12C
:10336800C3E842CF002AF7D1C0B2081AB0FA80F0F9
:103378004009BFF35F8F07F84E1C07F84D0C39E77B
:103388000A98079BDDF824C0BFF35F8FC0B2D3E86B
:103398004F1F014503D1C3E842CF002AF7D1C0B27D
:1033A800081AB0FA80F04009BFF35F8F07F84E1C87
:1033B80007F84D0C1EE70A98079BDDF824C0BFF3F9
:1033C8005F8FC0B2D3E84F1F014503D1C3E842CF96
:1033D800002AF7D1C0B2081AB0FA80F04009BFF34A
:1033E8005F8F07F84E1C07F84D0C03E70A98079BF8
:1033F800DDF824C0BFF35F8FC0B2D3E84F1F01458B
:1034080003D1C3E842CF002AF7D1C0B2081AB0FAF4
:1034180080F04009BFF35F8F07F84E1C07F84D0C8A
:10342800E8E60A98079BDDF824C0BFF35F8FC0B2B7
:10343800D3E84F1F014503D1C3E842CF002AF7D193
:10344800C0B2081AB0FA80F04009BFF35F8F07F8DE
:103458004E1C07F84D0CCDE60A98079BDDF824C0F2
:10346800BFF35F8FC0B2D3E84F1F014503D1C3E854
:1034780042CF002AF7D1C0B2081AB0FA80F040094A
:10348800BFF35F8F07F84E1C07F84D0CB2E60198A2
:103498008DF8310001208DF8300006E001988DF894
:1034A800310000208DF83000FFE79DF830009DF8CE
:1034B80031101EB0D0BD41F6F040C2F2200013908A
:1034C8000120149041F64830C2F22000016840689B
:1034D80017911890042015900020169041F640513D
:1034E800C2F2200113A817F0E0FB41F63850C2F2EF
:1034F80020000D9001200E9041F64830C2F22000C5
:10350800016840681191129004200F9000201090DB
:1035180041F65051C2F220010DA817F0C6FB80B544
:103528006F4614F006FF80BD80B56F4614F0FFFEAD
:1035380080BD80B56F4684B0019000F0FCFE02901B
:1035480007F8010CFFF7F0FF14F01EFF0198F91EB1
:1035580001F073F9029800F005FF10B9FFE704B015
:1035680080BDFFF7DCFFFAE7D0B502AF88B0FC6892
:10357800D7F808C0049007F8121C07F8112C8DF82A
:10358800183007F80FCC0790EE46CEF80440CEF876
:1035980000C001F0DBF800F0010007F81A0C07F88A
:1035A800191C17F81A0CC00768B1FFE717F8190CAF
:1035B80007F80D0C002818BF01208DF80D00012018
:1035C8008DF80C000CE017F8190C07F80E0C002801
:1035D80018BF01208DF80D0000208DF80C00FFE7C2
:1035E8009DF80C009DF80D1008B0D0BD80B56F4651
:1035F80081B007F8020C07F8010C07F8030C17F85C
:10360800030C01B080BD80B56F4684B0019007F807
:10361800051C039001F0C3F8C0B2002818BF0120B0
:1036280004B080BD80B56F4684B0019007F8061CD1
:1036380007F8052C039001F0C7F804B080BD80B5E9
:103648006F4682B0009007F8011C084302B080BDA5
:1036580080B56F4614F07BFE80BD80B56F4682B0A2
:10366800019040F0020002B080BD80B56F4682B084
:10367800019040F0040002B080BD80B56F4682B072
:10368800019020F0040002B080BD80B56F4681B083
:1036980007F8010C07F8020C17F8020C01B080BDFE
:1036A80080B56F4684B0019007F8051C039008F0B8
:1036B800A9FFC0B2002818BF012004B080BD0000D7
:1036C80080B56F4694B00A900E9007F8121C07F860
:1036D800112C01238DF8403007F80F3C002307F820
:1036E8000E3C07F80D3C1190129008460B9007F815
:1036F800011CD0B20C900C99DFE801F0042344655A
:103708008800FEDE0A9800780990FFE709990A9B6D
:10371800DDF82CC0C9B2D3E84F0F084503D1C3E880
:1037280042CF002AF7D10890C9B2411AB1FA81F103
:10373800490901290990E9D1FFE7089807F8190C08
:1037480087E00A98BFF35F8F00780790FFE7079933
:103758000A9BDDF82CC0C9B2D3E84F0F084503D146
:10376800C3E842CF002AF7D10690C9B2411AB1FA8C
:1037780081F1490901290790E9D1FFE7069807F87F
:10378800190C66E00A9800780590FFE705990A9BEE
:10379800DDF82CC0C9B2D3E84F0F084503D1C3E800
:1037A80042CF002AF7D10490C9B2411AB1FA81F187
:1037B800490901290590E9D1FFE70498BFF35F8F14
:1037C80007F8190C45E00A98BFF35F8F007803905B
:1037D800FFE703990A9BDDF82CC0C9B2D3E84F0F65
:1037E800084503D1C3E842CF002AF7D10290C9B2F5
:1037F800411AB1FA81F1490901290390E9D1FFE79A
:103808000298BFF35F8F07F8190C22E00A98BFF3FC
:103818005F8F00780190FFE701990A9BDDF82CC0C3
:10382800C9B2D3E84F0F084503D1C3E842CF002AF5
:10383800F7D10090C9B2411AB1FA81F149090129B9
:103848000190E9D1FFE70098BFF35F8F07F8190CE3
:10385800FFE717F8190C002818BF012014B080BD25
:1038680080B56F4684B0019007F8061C07F8052C50
:10387800039008F08FFF04B080BD80B56F4682B01A
:1038880001900090009802B080BD80B56F4684B06A
:10389800019007F8051C039015F0A4FC04B080BD46
:1038A80080B56F4684B00090019107F8052C03900D
:1038B80015F0FAFC04B080BD80B56F468AB007F8F1
:1038C800050C41F68C51C2F220010991C0B2019059
:1038D8000199DFE801F0041E21242700FEDE41F6ED
:1038E8008C50C2F2200002900120039041F648302B
:1038F800C2F22000016840680691079004200490F5
:103908000020059041F69451C2F2200102A817F058
:10391800CCF9BFF35F8F08E0BFF35F8F05E0BFF31B
:103928005F8F02E0BFF35F8FFFE70AB080BD80B50D
:103938006F4684B0D7F808C001908DF8081007F8D2
:10394800072C07F8063C07F805CC0390EE46CEF89E
:1039580000C0FFF77DFB04B080BD80B56F4684B022
:10396800019007F8051C039008F04CFE04B080BDD8
:1039780080B56F4684B0019007F8061C07F8052C3F
:10398800039008F007FF04B080BD000080B56F46C3
:1039980093B00A910B900E900F9107F8092C119093
:1039A8001290D0B20C900C99DFE801F00421405F2E
:1039B8008000FEDE0B9800680990FFE709990B9BD1
:1039C8000A9841EA000C53E8000F084503D143E880
:1039D80000C2002AF7D10890411AB1FA81F14909C9
:1039E80001290990EAD1FFE708980D907FE00B982C
:1039F800BFF35F8F00680790FFE707990B9B0A9852
:103A080041EA000C53E8000F084503D143E800C21F
:103A1800002AF7D10690411AB1FA81F14909012922
:103A28000790EAD1FFE706980D9060E00B980068D0
:103A38000590FFE705990B9B0A9841EA000C53E8AB
:103A4800000F084503D143E800C2002AF7D10490CB
:103A5800411AB1FA81F1490901290590EAD1FFE734
:103A68000498BFF35F8F0D9041E00B98BFF35F8F11
:103A780000680390FFE703990B9B0A9841EA000C42
:103A880053E8000F084503D143E800C2002AF7D1E4
:103A98000290411AB1FA81F1490901290390EAD14A
:103AA800FFE70298BFF35F8F0D9020E00B98BFF3FC
:103AB8005F8F00680190FFE701990B9B0A9841EA24
:103AC800000C53E8000F084503D143E800C2002A60
:103AD800F7D10090411AB1FA81F149090129019001
:103AE800EAD1FFE70098BFF35F8F0D90FFE70D98CD
:103AF80013B080BDF0B503AF2DE9000FADF5657DBE
:103B08000A460692279002F1340002F13801543235
:103B18000AF0A5F90699D1F8C8000CF079FE02F070
:103B280014FC069901F594700090FEF76EFD0146AD
:103B380000980191FEF769FDE090E49041F6B451D8
:103B4800C2F2200114F039FA0146019841F001014E
:103B5800E190E291E39041F6C452C2F2200214F0DF
:103B6800AAFA0699D1F8281128A801F00FF80699A1
:103B7800D1F8C00003F06AFE2C902CA803F022FFB5
:103B88000699D1F8C40003F0BFFE2D902DA803F0CC
:103B98003CFF0699D1F85C010CF042FE02461692F1
:103BA800084606991190DC92DD900868022102917E
:103BB8000322039201F0E4FC0299039A0346069853
:103BC8002493DE93406801F07FFD06992590DF90ED
:103BD800D1F87C0104900CF051FE05900CF04AFEDF
:103BE8000499059A03462EA826900CF04BFE0699D8
:103BF800D1F8681140A84FF480520CF0E0FF069904
:103C08002C980E902D980F90D1F89C0001F03DFF54
:103C180006990A90D1F8A40001F049FF0699079087
:103C2800D1F8A80001F03DFF06990890D1F8AC0042
:103C380001F031FF014606980991D0F88431D0F897
:103C48009021D0F89811449345924691C16D026E27
:103C580047A810900CF00CFD0699D1F8E0001A90D6
:103C6800D1F8E8001B90D1F8F0001C90D1F8F400CE
:103C78001D90D1F8F8001E90D1F8FC001F90D1F8E3
:103C880014012090D1F80C012190D1F80401229060
:103C9800D1F808B1D1F81CA1D1F80091D1F81801D8
:103CA8002390D1F810011290486B1790886B1890E8
:103CB800486D1990D1F88040D1F884001590D1F85A
:103CC80088001490D1F83011C7A8139002F010FDA5
:103CD8000699D1F83411CCAD284602F0D1FC0699EA
:103CE800D1F838110DF55178404602F091FC06994B
:103CF800D1F83C11D6AE304602F052FCDDF81CC0BB
:103D0800089B099A2798DDF828E028990D912999A8
:103D18000C912A990B912B99C1600B98279988606F
:103D28000C99279841600D98279908600E99279853
:103D380001610F982799486110992798C0F818E0F1
:103D4800C0F81CC003624262449A459BDDF818C162
:103D5800C0F830C0C362826200F59A704FF40072F6
:103D680017F03EFB1199129B139ADDF850C0279863
:103D7800DDF854E0C0F8341316982799C1F83803D1
:103D8800179927984163189827998863199927984C
:103D9800C1631A98279908641B99279841641C984D
:103DA800279988641D992798C1641E9827990865E2
:103DB8001F99279841652098279988652199279800
:103DC800C16522982799086623992798C0F864B096
:103DD800C0F868A0C0F86C900367416700F17801EB
:103DE80092E8090E81E8090E249B279800F18C01BE
:103DF80095E8050E81E8050E259A279800F1A0059B
:103E080098E8030E85E8030E2699279800F1B40573
:103E180096E8010F85E8010F2798C0F8C840C0F858
:103E2800CCE0C0F8D0C0C0F8D430C0F8D820DC301E
:103E3800482217F0D5FA27994098419A429BDDF815
:103E48000CC1C1F830C1C1F82C31C1F82821C1F822
:103E580024010DF5657DBDE8000FF0BD80B56F4606
:103E6800F2B0009041F6A452C2F2200202A80190DA
:103E780000F0F4FD00980199FFF73CFE72B080BD98
:103E880080B56F4682B0012007F8010C03F063F893
:103E9800002000F01CFF02B080BD80B56F4613F013
:103EA800B7FD02F0E4FE80BD80B56F4682B0012008
:103EB80007F8010C03F065F9002000F008FF02B0D4
:103EC80080BD80B56F4682B0019002F0ADF802B0B7
:103ED80080BD80B56F46E0B045F20000C2F2000038
:103EE8002690279041F6E452C2F220020021069162
:103EF80002F0B1FF06990246079223902590683098
:103F080041F60463C2F220036A465360116001223D
:103F18000323FFF729FB00F0010007F8EE0C07F870
:103F2800ED1CA7F1EE00FEF714FC20B9FFE7012015
:103F38008DF823002BE009A8029000F033F80299CD
:103F4800079842905E9043A803906822059217F064
:103F580047FA0399059A28A8049017F041FA04999A
:103F6800059A07985D9017F03BFA07985F906930BB
:103F780041F6F453C2F2200301221146FFF752FB27
:103F8800652000F0AEFE00208DF82300FFE79DF8C5
:103F9800230060B080BD80B56F4682B0FFE7FFF7B1
:103FA80057FBFCE780B56F4681B0014600200870DA
:103FB80001B080BD80B56F46ADF5047DFFF7B4FA5A
:103FC80001F07BFD41F61460C2F2200000F0B8FE5B
:103FD800012002900421039100F0D6FC02460DF165
:103FE800330004906521019100F0AFFE019800F0C4
:103FF8002BFF0298039900F0C7FC02460498712130
:10400800059100F0A2FE059800F01EFF0020069022
:104018000D904FA8079069A96822089217F0E0F957
:104028000698FFF7E3FA0146069807F8021C17F806
:10403800021C8DF80C12FFF7D9FA0799089A07F8AD
:10404800010C17F8010C07F8030C29A8099017F0C0
:10405800C7F909999DF80C028DF80C0117F8030CA3
:104068008DF80D010EA80A906C2217F0B9F90A987C
:1040780002F0CDFB0D99084402460B92884216D3F4
:10408800FFE70B980D9045F20000C2F200004D903A
:104098000EA94E9141F6D453C2F22003002202F039
:1040A800E4FE44F20000C2F2000030B910E041F62C
:1040B8001460C2F2200016F0F9FC44F20000C2F2CB
:1040C80000004B9048F6AC20C2F2000030B911E075
:1040D80041F61460C2F2200016F0A2FD48F6AC21A9
:1040E800C2F200014C9144F20000C2F20000884282
:1040F8000BD805E041F61460C2F2200016F090FDDE
:104108000DA802F0BAFFFFF746FF00F014FE48F6CC
:10411800AC21C2F200018842F2D8FFE741F65061B3
:10412800C2F2200144A8009015F097FB009841F6D0
:104138001461C2F2200116F0B8FD80B56F4688B050
:10414800019101460198049105900291039002AAF9
:10415800069249680792884708B080BD80B56F46C7
:1041680082B00090019102B080BD80B56F4682B0E8
:1041780000910146009801900860486041F6483077
:10418800C2F22000026840688A60C86002B080BD40
:1041980080B56F4681B00090006801B080BD80B5E1
:1041A8006F4683B00091014600980191029003B0D8
:1041B80080BD80B56F4682B001900168406809688B
:1041C800884702B080BD80B56F4681B001B080BD20
:1041D800B0B502AF81B007F8092C81F82220B1E808
:1041E8001C50A0E81C5091E83C5080E83C5001B0BD
:1041F800B0BDB0B502AF84B000910190D0B2114605
:10420800029107F8092C08281AD0FFE70298C0B2D3
:10421800102815D0FFE70298C0B2202810D0FFE779
:104228000298C0B240280BD0FFE741F65860C2F2AE
:10423800200041F67462C2F22002192116F022FD14
:1042480000990198029A81F82520B1E81C50A0E84D
:104258001C5091E83C5080E83C5004B0B0BDD0B54B
:1042680002AF8CB094460A91ADF82CC0ADF82E3050
:1042780000228DF81E208DF81F208DF820204FF089
:10428800080E8DF821E0ADF818C0ADF81A301023EB
:10429800ADF81C300092029204928DF823208DF81C
:1042A80024208DF8252032228DF8222040F8041B86
:1042B8006946B1E81C50A0E81C5091E81C5080E801
:1042C8001C500CB0D0BDF0B503AF4DF8048D8AB0CA
:1042D8008C465CF8041B6A461346BCE87041A3E8A8
:1042E80070419CE8704183E8704102F0CEF80AB052
:1042F8005DF8048BF0BDB0B502AF82B000920193B7
:10430800CA600B61B1E81C50A0E81C5091E83C5011
:1043180080E83C5002B0B0BD80B56F4684B00090D4
:1043280001910078029009780391401AB0FA80F060
:10433800400904B080BD80B56F4682B014F004F81F
:10434800019000F00100012804D0FFE7002007F8E1
:10435800050C03E0012007F8050CFFE717F8050C2A
:1043680002B080BD80B56F4682B007F8010C40F6F8
:10437800A001C2F22001781EFFF7CEFF02B080BD77
:10438800B0B502AF96B0029003A8019001F038FDD5
:1043980000200090FEF71AFE0099159015981290CB
:1043A80013A8042201F053FD019A029901F10800B3
:1043B800B2E83850A0E83850B2E83850A0E8385091
:1043C80092E8385080E83850129848641398149A44
:1043D8004A60086016B0B0BD80B56F468CB00492D4
:1043E8000246049805920A9127F8020C6B460022AF
:1043F8009A6058600220186007A8069000F086F8B6
:104408000598069941F69462C2F220026B461A603A
:1044180041F68462C2F220020F23FEF7CDF90CB0F8
:1044280080BD80B56F468CB0049202460498059210
:104438000A9127F8020C6B4600229A605860022005
:10444800186007A8069000F011F80598069941F63B
:104458009462C2F220026B461A6041F68462C2F28C
:1044680020020F23FEF77EF90CB080BDD0B502AF55
:1044780092B0049303928E4605903869F968D7F88C
:1044880008C0CDF820E007F829CCADF8281007F8C7
:10449800250C07F80A2C07F8093C0898083041F65B
:1044A800A461C2F2200101F019FC0B900C910BA839
:1044B800079001F05EFD039A049B17F8291CBDF8CC
:1044C80028E017F8254CEC46CCF80840CCF804E076
:1044D800CCF80010002111F0D5F802460598069294
:1044E8000A46069908AB0D93A7F129030E930AAB68
:1044F8000F93A7F12503109301F001010DABFEF70F
:10450800B8F8079801F07FFF12B0D0BDD0B502AF60
:1045180092B0049303928E4605903869F968D7F8EB
:1045280008C0CDF820E007F829CCADF8281007F826
:10453800250C07F80A2C07F8093C0898083041F6BA
:10454800A461C2F2200101F0C9FB0B900C910BA8E9
:10455800079001F00EFD039A049B17F8291CBDF87B
:1045680028E017F8254CEC46CCF80840CCF804E0D5
:10457800CCF80010802111F085F8024605980692C3
:104588000A46069908AB0D93A7F129030E930AABC7
:104598000F93A7F12503109301F001010DABFEF76E
:1045A800A0F8079801F02FFF12B0D0BDD0B502AF28
:1045B80084B08E4607F8092CDEF80010DEF80430C7
:1045C800DEF808C0DEF80CE0096844311B78BCF856
:1045D80000C09EF80040EE46CEF80440CEF800C079
:1045E800FEF793F904B0D0BDD0B502AF84B08E46C3
:1045F80007F8092CDEF80010DEF80430DEF808C0F1
:10460800DEF80CE0096844311B78BCF800C09EF85D
:104618000040EE46CEF80440CEF800C0FEF75AF946
:1046280004B0D0BD80B56F468AB00290089041F6BC
:10463800B461C2F2200101F03CFB02F00EF90298CD
:104648000830019041F6C461C2F2200101F046FB36
:104658000490059104A8009001F08BFC10F0F6FF7F
:10466800009801F0D0FE019841F6D461C2F2200111
:1046780001F034FB0690079106A801F07AFC014688
:1046880002980391099144300422FEF7C9FC069868
:10469800079902F0CFF803980AB080BD80B56F463D
:1046A80088B0069041F6E461C2F2200101F001FBF6
:1046B8000490059104A8009001F054FC014600986C
:1046C80009780A46019207F8011C01F059FC0146D5
:1046D800029101784A1CD0B20392884209D3FFE7BD
:1046E80003980299087004A801F096FE019808B092
:1046F80080BD41F6F460C2F2200016F0D7F980B50B
:104708006F468CB004920246049805920A91ADF85F
:104718002C0007F8013C6A46936050600320106043
:1047280007A806900022FFF7F1FE0598069941F6C2
:104738000472C2F220026B461A6041F68462C2F229
:1047480020020F23FEF738F80CB080BDD0B502AFB9
:1047580088B00593134604938C46CDF80CC0864662
:104768000598CDF808E0FA68B9680191CDF818E025
:104778008DF81CC007F80B3C07F80A0C07F8091C51
:1047880001F05CF9DDF804C002980399049A059BCE
:10479800EE46CEF800C0FFF7CAF808B0D0BD80B525
:1047A8006F4686B001920A46019903920246039821
:1047B8000292049207F8010C01F0FCF802980399A0
:1047C800FFF7CBF806B080BD80B56F4686B0009382
:1047D80003920A46009902920346039801930493B0
:1047E80007F8022C07F8010C01F006F90198029964
:1047F800039AFFF7BDF806B080BD80B56F4688B054
:104808000B4601460691029118685A689B68059301
:104818000492039011F8340F0191C00738B1FFE7F3
:104828000198411C079102A800F007F803E002A8CC
:10483800FEF77FFEFFE708B080BD80B56F468AB0FF
:104848000190089100680CF03BFB099041F6147147
:10485800C2F2200110F05AFB019A039004915068AB
:104868009168D26807920691059003A8029010F00B
:10487800FDFF014605A800F078F802980EF064FDE7
:104888000AB080BDD0B502AF8AB0069305920491F4
:104898000390B86802900792089307F8090C13F080
:1048A80073FDDDF808C003980499059A069BEE4647
:1048B8000124CEF80440CEF800C000F002F80AB097
:1048C800D0BDF0B503AF4DF804BDBCB00590F86895
:1048D8000690D7F808C0CDF804C039923A9307F883
:1048E80012CC07F8110C07A8029002F0C9FA019936
:1048F80002980DF01EF8029A2DA90846B2E87850E1
:10490800A0E8785092E8785080E8785020A8039082
:1049180001F057FA039913A8049001F026F8049BB4
:10492800059906980A46B3E83050A2E83050B3E833
:104938003050A2E8305093E8705082E8705081F807
:1049480034003CB05DF804BBF0BD80B56F4688B05C
:10495800019105900692079301A90291039204938D
:1049680002A9FFF74AFF08B080BD80B56F4682B044
:10497800009103460098019019685A689B68096875
:1049880002F0D2FA02B080BD80B56F4686B002460A
:10499800C8B20B4603931346049307F8022C07F892
:1049A800011C07280CD8FFE70498039901F00702B7
:1049B800012191400A1AC0B2029288420ED805E03D
:1049C80041F62470C2F2200016F0A9F80398C0F14D
:1049D8000801C0B2019108280BD805E041F63470EF
:1049E800C2F2200016F0AEF80198C0B2082806D32B
:1049F8000CE041F64470C2F2200016F0A3F80298C9
:104A0800019901F00701884006B080BD41F6347075
:104A1800C2F2200016F083F880B56F4684B000918A
:104A28000190029101F5A06001210422FEF748FEE1
:104A380070B9FFE7009803904FF4A0610CF05EFE98
:104A48000246084601994A6088600120086003E030
:104A5800019900200860FFE704B080BD80B56F466B
:104A680002F073FE80BD80B56F4684B0019002915C
:104A780013F086F907F80D0C17F80D0C02280AD068
:104A8800FFE717F80D0C07F8010CC043C0B2C009C6
:104A980007F80E0C03E0002007F80E0CFFE717F8E4
:104AA8000E0C04B080BD80B56F4692B001910290A3
:104AB800039101F212401090012107F8021C032211
:104AC80007F8012CFEF7FCFDA0BBFFE701980F904B
:104AD800049007900890002207F8212C01210A91E0
:104AE8000C9007F8112C0E9107F8192C17F8192CAF
:104AF80041F65473C2F2200302F02EFE01984FF4DF
:104B0800806116F012FD019841F66471C2F220012D
:104B1800FDF759FC014601980091059141F6747121
:104B2800C2F22001FDF74FFC009A029906900A6034
:104B3800486005E002990220087100200860FFE73C
:104B480012B080BD80B56F4682B00090FDF75DFD64
:104B5800019002B080BD80B56F4682B00090FDF72D
:104B680054FD019002B080BD80B56F4682B00090C0
:104B7800FDF74BFD019002B080BD80B56F4682B055
:104B88000090FDF742FD019002B080BD80B56F46F0
:104B98009AB00790089108A80390FDF736FD0146E2
:104BA80003980091FDF731FD0990199041F6847141
:104BB800C2F2200113F001FA0146009821F0020127
:104BC80012901391149041F69472C2F2200202924C
:104BD80013F071FA0398FDF718FD029A00F5847036
:104BE8001090002101911191159013F064FA039827
:104BF800FDF70BFD0199029A00F58C700E900F914C
:104C0800169013F058FA0398FDF7FFFC0199029AE1
:104C180000F594700C900D91179013F04CFA0398CE
:104C2800FDF7F3FC0199029A00F59C700A900B912C
:104C3800189013F040FA0398FFF796FF014603987F
:104C48000491FFF79AFF014603980591FFF783FF48
:104C5800014603980691FFF775FFDDF810C0059B24
:104C6800069A0799C1F800C04B608A60C8601AB0FC
:104C780080BD80B56F468C460146DCF80000DCF844
:104C88000420DCF80830DCF80CC0C1F80CC08B60DC
:104C98004A60086080BD80B56F468C460146DCF8E6
:104CA8000000DCF80420DCF80830DCF80CC0C1F89F
:104CB8000CC08B604A60086080BD80B56F4684B0C8
:104CC80001900291039001F065FF04B080BD80B5AA
:104CD8006F4682B007F8010CC0B213F03AFB02B07D
:104CE80080BD80B56F4682B007F8010C00F067F808
:104CF80002B080BD80B56F468CB0024641F6A47103
:104D0800C2F220010991C7200A900791089007A8CC
:104D18000B9001900120029041F64830C2F2200029
:104D280001684068059106900420039000210491D1
:104D380001A815F061FF80B56F4613F002FB80BD36
:104D480080B56F4681B001B080BD80B56F468CB02C
:104D58000091014600981346019303918DF81000C5
:104D680007F81F2C07F8010CC0B227F81E0C0A918F
:104D780027F8160C0146029100091E2816D8FFE7ED
:104D8800019902984EF20042CEF2000210440590BA
:104D980007F8171C079007F80D1C099042F26C02DF
:104DA800C2F2200213F09BF90CB080BD029842F2C7
:104DB8007C02C2F220024FF4F87115F0FFFE80B5B4
:104DC8006F468CB007F81F0C07F8010CC0B20146FB
:104DD800029127F81E0C400927F8120C014603918E
:104DE8000F2810D8FFE70298039A4EF20021CEF25E
:104DF800000101EB8201009100F01F0001460191C2
:104E0800202808D31AE0039842F28C02C2F220024A
:104E1800102115F0D3FE0098019901F01F0201211D
:104E2800914005900691089009910A9042F26C020F
:104E3800C2F2200213F03FF90CB080BD42F29C0090
:104E4800C2F2200015F06BFE80B56F468CB007F8F3
:104E58001F0C07F8010CC0B20146029127F81E0C7E
:104E6800400927F8120C014603910F2810D8FFE7D4
:104E78000298039A4EF20011CEF2000101EB820172
:104E8800009100F01F0001460191202808D31AE084
:104E9800039842F2AC02C2F22002102115F08EFEF5
:104EA8000098019901F01F02012191400590069197
:104EB800089009910A9042F26C02C2F2200213F0A3
:104EC800FAF80CB080BD42F2BC00C2F2200015F026
:104ED80026FE80B56F4682B0009101460098019089
:104EE8000860002081F8600002B080BD80B56F4680
:104EF800BAB003900591369090F86000014604918D
:104F080030B1FFE7049801281AD0FFE71CE0FEDE65
:104F1800039850F8042B0190389248F69821C2F271
:104F280000011EA8009001F00DFF009907A802904B
:104F380001F0D9FC019802995C2216F051FA04E0BC
:104F480000200028FCD10DE0FFE7039804303990D9
:104F5800059901F006FF07F8110C17F8110CC007A6
:104F680030B910E042F2CC00C2F2200015F0FDFD8D
:104F78000399012007F8CD0C032081F8600017F889
:104F8800CD0C3AB080BD0398043001F0E5F90399DF
:104F9800002007F8CD0C012081F8600017F8CD0C2F
:104FA8003AB080BD80B56F4688B00146059101F5DD
:104FB800FA7002460392884211D3FFE7039844F639
:104FC800D351C1F26201A0FB01014FF0FF3000EBA9
:104FD800911002900020B0EB911F0CD005E042F236
:104FE800DC00C2F2200015F061FD02980790B0F1D4
:104FF800807F11D305E042F2DC00C2F2200015F0F8
:10500800A1FD42F2EC00C2F2200042F21412C2F2F8
:105018002002272115F036FE029858B9FFE742F220
:105028002410C2F2200042F24012C2F220021C21D7
:1050380015F028FEA7F10D00019000F080FD019801
:10504800002100F0C0FD0299019800F03FFD019891
:1050580000F097FD019800F050FD48F69820C2F244
:10506800000001F08FFC08B080BD80B56F46642257
:1050780016F0B6F980BD80B56F4682B00090FDF796
:10508800D4FA019002B080BD80B56F4682B000901E
:105098000830FDF7B2FA019002B080BD80B56F46C6
:1050A80096B0069104900A4603920A9007F8291CC4
:1050B800FDF78BFA0146049848310591FDF785FA0A
:1050C80048300D90149042F25011C2F2200112F0B3
:1050D80074FF069920F020000790080618B9FFE72A
:1050E8000020089002E001200890FFE70598079942
:1050F800089A02F0010241EA4211109011911290AF
:1051080042F26012C2F2200212F0D5FF0498FDF7B5
:105118005CFA0146049844310091FDF756FA443090
:105128000C90159042F25011C2F2200112F045FF86
:105138000146039821F440410191C0B20146029111
:1051480002280BD0FFE7029803280AD0FFE702984D
:10515800042809D0FFE70020099008E00120099001
:1051680005E00220099002E003200990FFE700987B
:105178000199099A920392B211430E900F911390DC
:1051880042F26012C2F2200212F095FF16B080BD02
:1051980080B56F4696B0069104900A4603920A902D
:1051A80007F8291CFDF739FA01460498483105919A
:1051B800FDF733FA48300D90149042F25011C2F2C4
:1051C800200112F0FAFE069920F020000790080648
:1051D80018B9FFE70020089002E001200890FFE7D7
:1051E80005980799089A02F0010241EA42111090C5
:1051F8001191129042F26012C2F2200212F05BFF8B
:105208000498FDF70AFA0146049844310091FDF725
:1052180004FA44300C90159042F25011C2F2200169
:1052280012F0CBFE0146039821F440410191C0B22F
:105238000146029102280BD0FFE7029803280AD002
:10524800FFE70298042809D0FFE70020099008E04A
:105258000120099005E00220099002E0032009904E
:10526800FFE700980199099A920392B211430E90B0
:105278000F91139042F26012C2F2200212F01BFF4B
:1052880016B080BD80B56F468AB00191009003903A
:1052980007F8151CFDF7C1F9014600984431029141
:1052A800FDF7BBF944300590099042F25011C2F263
:1052B800200112F082FE019A0146029862F38301EE
:1052C80006900791089042F26012C2F2200212F092
:1052D800F2FE0AB080BD80B56F468AB00191009099
:1052E800039007F8151CFDF770F901460098443142
:1052F8000291FDF76AF944300590099042F2501185
:10530800C2F2200112F059FE019A0146029862F396
:10531800830106900791089042F26012C2F22002BF
:1053280012F0C9FE0AB080BD80B56F468CB00291FC
:105338000090059007F8151CFDF76FF901460098D5
:1053480044310191FDF769F9443007900B9042F21E
:105358005011C2F2200112F030FE029920F08000B4
:10536800039019B9FFE70020049002E0012004909F
:10537800FFE701980399049AD201D2B21143089029
:1053880009910A9042F26012C2F2200212F093FED2
:105398000CB080BD80B56F468CB00291009005902E
:1053A80007F8151CFDF711F90146009844310191E1
:1053B800FDF70BF9443007900B9042F25011C2F2FE
:1053C800200112F0FAFD029920F08000039019B92B
:1053D800FFE70020049002E001200490FFE7019815
:1053E8000399049AD201D2B21143089009910A9004
:1053F80042F26012C2F2200212F05DFE0CB080BDD3
:1054080080B56F4692B0069104900A4603920B90BD
:1054180007F8151CFDF701F9014604984431059178
:10542800FDF7FBF844300D90119042F25011C2F292
:10543800200112F0C2FD069920F444700790C8B20A
:1054480008900899DFE801F00306090CFEDE032046
:10545800099008E00120099005E00320099002E086
:1054680000200990FFE703980799099A02F00302C0
:1054780041EA02210191C0B202900299DFE801F0ED
:105488000205080B01200A9008E001200A9005E0B7
:1054980000200A9002E000200A90FFE70598019991
:1054A8000A9A02F0010241EA02110E900F9110903F
:1054B80042F26012C2F2200212F0FDFD12B080BD6D
:1054C80080B56F4692B0069104900A4603920B90FD
:1054D80007F8151CFDF779F8014604984431059141
:1054E800FDF773F844300D90119042F25011C2F25A
:1054F800200112F062FD069920F444700790C8B2AA
:1055080008900899DFE801F00306090CFEDE032085
:10551800099008E00120099005E00320099002E0C5
:1055280000200990FFE703980799099A02F00302FF
:1055380041EA02210191C0B202900299DFE801F02C
:105548000205080B01200A9008E001200A9005E0F6
:1055580000200A9002E000200A90FFE705980199D0
:105568000A9A02F0010241EA02110E900F9110907E
:1055780042F26012C2F2200212F09DFD12B080BD0C
:1055880080B56F469CB0CBB20B93134607930B467E
:1055980008930D9007F82A1C07F8292C0DA80990E4
:1055A800FDF73BF80146099848310A91FDF735F8AF
:1055B800483013901A9042F25011C2F2200112F0B2
:1055C800FCFC01460B9821F001010C91022803D143
:1055D800FFE701200E9002E000200E90FFE70A98F6
:1055E8000C990E9A02F00102114316901791189027
:1055F80042F26012C2F2200212F05DFD0DA8039083
:10560800FDF70BF80146039844310491FDF705F8BE
:10561800443012901B9042F25011C2F2200112F055
:10562800CCFC0146089840F2634291430591C0B210
:105638000146069130B1FFE70698012805D0FFE73B
:1056480006E0FEDE00200F9005E001200F9002E04A
:1056580003200F90FFE70498079A05990F9B03F022
:105668000303194302F0030241EA421141F4806145
:1056780014901591199042F26012C2F2200212F0B1
:105688001AFD0D98109010A8019001210291FFF7C2
:10569800F9FD019800210091FFF746FE01980421C9
:1056A800FFF776FD00990198FFF7AAFE019800F030
:1056B800AFF801980299FFF76BFD01980299FFF77F
:1056C8009FFE10981CB080BD80B56F469CB0CBB2D1
:1056D8000B93134607930B4608930D9007F82A1C63
:1056E80007F8292C0DA80990FCF76FFF01460998C7
:1056F80048310A91FCF769FF483013901A9042F23A
:105708005011C2F2200112F058FC01460B9821F00A
:1057180001010C91022803D1FFE701200E9002E05D
:1057280000200E90FFE70A980C990E9A02F00102E9
:10573800114316901791189042F26012C2F220029B
:1057480012F0B9FC0DA80390FCF73FFF014603983F
:1057580044310491FCF739FF443012901B9042F217
:105768005011C2F2200112F028FC0146089840F2BC
:10577800634291430591C0B20146069130B1FFE7FB
:105788000698012805D0FFE706E0FEDE00200F900E
:1057980005E001200F9002E003200F90FFE7049836
:1057A800079A05990F9B03F00303194302F00302BC
:1057B80041EA421141F4806114901591199042F226
:1057C8006012C2F2200212F076FC0D98109010A818
:1057D800019001210291FFF77EFD019800210091BF
:1057E800FFF7D8FD01980421FFF758FC00990198AC
:1057F800FFF766FE019800F042F801980299FFF75A
:105808004DFC01980299FFF75BFE10981CB080BD13
:1058180080B56F468CB001900390FCF7FEFE014600
:10582800019848310291FCF7F8FE483006900A903A
:1058380042F25011C2F2200112F0BFFB0146029859
:1058480041F0800107900891099042F26012C2F27B
:10585800200212F030FCFFE70198FCF7DEFE58301A
:1058680005900B9042F25011C2F2200112F0A5FBF4
:10587800049000070028EFD1FFE70CB080BD80B589
:105888006F468CB001900390FCF79FFE014601988B
:1058980048310291FCF799FE483006900A9042F28E
:1058A8005011C2F2200112F088FB0146029841F023
:1058B800800107900891099042F26012C2F220021A
:1058C80012F0F9FBFFE70198FCF77FFE58300590CE
:1058D8000B9042F25011C2F2200112F06EFB0490BC
:1058E80000070028EFD1FFE70CB080BDD0B502AFAC
:1058F800A8B002920C46039000200490ADF8140062
:1059080008A800908021019115F00FFE0099019AD6
:105918000398DDF808E02368D4F804C0A46844615B
:10592800C0F810C0C360DEF80030DEF804C0DEF84E
:1059380008E0C0F820E0C0F81CC08361059BDDF8D2
:1059480018C0DDF81CE0C0F808E0C0F804C0036027
:10595800243015F0CCFB03990498C1F8A400C1F8D1
:10596800AC00C1F8B00028B0D0BDF0B503AF4DF819
:1059780004BD8DB00B4669460A46B3E83050A2E82C
:105988003050B3E83050A2E8305093E8705082E8C5
:105998007050B1E80C50A0E80C50B1E80C50A0E8E9
:1059A8000C5091E81C5080E81C500DB05DF804BB09
:1059B800F0BD000080B56F4684B0019107F8010C76
:1059C800C0B202900299DFE801F00406040E040058
:1059D800FEDE04B080BD019A42F27010C2F22000CF
:1059E800282115F04FF9019A42F29810C2F22000CE
:1059F800312115F047F9000080B56F4684B0019158
:105A080007F8010CC0B202900299DFE801F0040423
:105A1800060E0400FEDE04B080BD019A42F2C910F1
:105A2800C2F220002A2115F02DF9019A42F2F31052
:105A3800C2F22000322115F025F9000080B56F462A
:105A480084B001920A46029207F8020C07F8011C7A
:105A580000E0FEDE0298C0B200900099DFE801F095
:105A68000305030D030004B080BD019A42F225200E
:105A7800C2F22000342115F005F9019A42F25920AA
:105A8800C2F220003D2115F0FDF880B56F4681B0C7
:105A9800009001B080BD80B56F4681B0009001B024
:105AA80080BD80B56F4681B0009001B080BD80B5E3
:105AB8006F4681B0009001B080BD80B56F4648F652
:105AC800A021C2F200010120087080BD80B56F4698
:105AD80088B00090019107904EF21400CEF20000B9
:105AE8000290039104900591069042F2A822C2F216
:105AF800200212F0E0FA08B080BD80B56F468AB087
:105B0800029009904EF21000CEF20000019003902E
:105B18000490059042F29821C2F2200112F04DFA49
:105B280012F0B8FB0146019806900791089042F2DE
:105B3800A822C2F2200212F0BEFA0AB080BD80B5D7
:105B48006F468AB0029009904EF21000CEF2000023
:105B5800019003900490059042F29821C2F220012E
:105B680012F02BFA12F09EFB01460198069007915D
:105B7800089042F2A822C2F2200212F09CFA0AB05F
:105B880080BD80B56F468AB0029009904EF2100031
:105B9800CEF20000019003900490059042F2982103
:105BA800C2F2200112F009FAFDF757FD01460198EB
:105BB80006900791089042F2A822C2F2200212F041
:105BC8007AFA0AB080BD80B56F4694B0039004900D
:105BD80007F8391CF1B1FFE7039812904EF2100054
:105BE800CEF20000029006900A900B9042F29821A3
:105BF800C2F2200112F0E1F9FDF73FFD01460298DB
:105C08000F901091119042F2A822C2F2200212F0D5
:105C180052FA1DE0039813904EF21000CEF20000E5
:105C2800019007900890099042F29821C2F2200151
:105C380012F0C3F9FDF719FD014601980C900D917A
:105C48000E9042F2A822C2F2200212F034FAFFE7C4
:105C580014B080BD80B56F4686B00090FFF70BFA90
:105C680001460098019105910291FFF70DFA01464E
:105C780001980491039106B080BD80B56F4684B049
:105C88000191014601980291039042F2B821C2F2B3
:105C98002001122214F00AFB04B080BD80B56F46C3
:105CA8000B46014618685A689B688B604A60086012
:105CB80080BD80B56F4688B00191049000F052F81D
:105CC80002900391029818B9FFE7019814F064FD57
:105CD800029803990690079108B080BD80B56F4679
:105CE80088B00191049000F00EF802900391029898
:105CF80018B9FFE7019814F04FFD02980399069030
:105D0800079108B080BD80B56F468EB003900790AC
:105D18004FF0FF3108910990006870B9FFE70398C8
:105D28004FF0FF3101600690069901910A91043005
:105D38000B90014602910C9002E0002004900DE0C7
:105D4800029842F2CC21C2F22001FCF74BFBFFE79C
:105D5800019802990D9104910590FFE7049805991F
:105D68000EB080BD80B56F468EB0039007904FF09F
:105D7800FF3108910990006870B9FFE703984FF068
:105D8800FF3101600690069901910A9104300B9049
:105D9800014602910C9002E0002004900DE0029868
:105DA80042F2CC21C2F22001FCF71CFBFFE701986C
:105DB80002990D9104910590FFE7049805990EB09A
:105DC80080BDF0B503AF4DF8048D8CB00B46694625
:105DD8000A46B3E87051A2E8705193E8705182E81E
:105DE8007051002240F8042BB1E83C50A0E83C5028
:105DF80091E83C5080E83C500CB05DF8048BF0BD55
:105E0800F0B503AF4DF804BD8EB00B4669460A469F
:105E1800B3E83050A2E83050B3E87050A2E87050B0
:105E280093E8705082E87050002240F8042BB1E8E3
:105E38000C50A0E80C50B1E81C50A0E81C5091E8A8
:105E48001C5080E81C500EB05DF804BBF0BD80B556
:105E58006F4681B007F8021C07F8012C0023036085
:105E68000171427101B080BD80B56F4696B0019254
:105E7800029103460393059306910793062208921D
:105E880009910A910B930C9200200F901091119395
:105E98001292139114900E9101200D900E98049077
:105EA8001590072906D3FFE7019B029900200622D7
:105EB80014F02DFD0499039816B080BD80B56F4687
:105EC80096B00192029103460393059306910793B6
:105ED8000622089209910A910B930C9200200F90C8
:105EE800109111931292139114900E9101200D901C
:105EF8000E9804901590072906D3FFE7019B029995
:105F08000020062214F003FD0499039816B080BD02
:105F180080B56F4696B001920291034603930593AC
:105F2800069107930622089209910A910B930C9205
:105F380000200F90109111931292139114900E91CA
:105F480001200D900E9804901590072906D3FFE7BD
:105F5800019B02990020062214F0D9FC04990398A9
:105F680016B080BD80B56F4681B00090006801B062
:105F780080BD80B56F4681B00090006801B080BDDB
:105F880080B56F4681B00090006801B080BD80B5D3
:105F98006F468DB000900690012107910891016825
:105FA8000391406801900990FFE7019803A90A91BD
:105FB800049004A80B9003980499884205D0FFE741
:105FC800009903980130086002E00020029009E07F
:105FD8000398059005A80C9003980290FFE7029893
:105FE8000DB080BDFBE780B56F4684B0009001918D
:105FF8000290039104B080BD80B56F4682B00090D6
:10600800019100F01EFC02B080BD80B56F4684B0DF
:10601800009001910078029009780391401AB0FA33
:1060280080F0400904B080BD80B56F4682B0019011
:106038000068804702B080BD80B56F4683B000908D
:10604800029018B9FFE70020019002E00098019043
:10605800FFE7019803B080BD80B56F4684B000911A
:1060680001900020FCF7AAFFDDF800C00199039019
:1060780003980290DCF80000DCF80420DCF8083013
:10608800DCF80CC0C1F80CC08B604A60086002984C
:10609800086104B080BD80B56F4682B00091019060
:1060A800694601F008FA02B080BD80B56F4692B02B
:1060B800059106900C900D910420FDF7FDFB0698C4
:1060C8000021FCF796FF014607910F90FFF7B4FFF8
:1060D8000890089848B1FFE707980599089A04922C
:1060E8001092096888420AD001E012B080BD049875
:1060F800099010300021FCF77CFF0A900BE004980F
:10610800103000210391FCF774FF039A01460698AA
:10611800FCF77AFFE9E70A98FFF78EFF0B900B98D8
:106128000028E2D0FFE705990B98029011900A9891
:106138000968884208D0FFE70298099010300021CA
:10614800FCF757FF0A90E6E7029809991031019188
:10615800103000210091FCF74CFF009A014601988D
:10616800FCF752FFC1E780B56F4684B00191014644
:1061780001980290039102A801F067F904B080BD6C
:1061880080B56F4698B007910F9010910068059000
:10619800014606911790129013900420FDF78CFB8E
:1061A80007980021FCF725FF014608911490FFF796
:1061B80043FF0B900B9840B1FFE706980B990491A9
:1061C800159100F069FB98B90AE006990798002232
:1061D800FCF71AFF059801218DF824100A9050E069
:1061E80004980C9010300021FCF703FF0D9011E08B
:1061F80006980899103000220392FCF705FF0798CB
:106208000699039AFCF700FF059801218DF82410E0
:106218000A9036E00D98FFF70FFF0E900E9840B1E8
:10622800FFE706980E990291169100F035FBA8B980
:106238000CE006990C98103000220192FCF7E4FE5D
:10624800019905988DF824100A901AE002980C908C
:1062580010300021FCF7CDFE0D90DBE706981030DA
:106268000D9900220092FCF7CFFE0699009A0C982F
:106278001030FCF7C9FE009905988DF824100A9093
:10628800FFE70A999DF8240018B080BD80B56F46D5
:1062980082B00091019201F0F4F802B080BD80B59F
:1062A8006F4690B00490069107920020059007F879
:1062B8000A0C012007F80A0C0420FDF7FDFA0599DD
:1062C8000698FCF796FE0E90FFF7B6FE0890089821
:1062D80058B1FFE7089903910F91002007F80A0CBD
:1062E800079800F00FFD40B9FFE704990020086007
:1062F80017F80A0CC007F8B91CE003980699029130
:10630800103000210191FCF774FE019A01460298B1
:10631800FCF77AFE039909A800F0F8FA049909989D
:106328000A9A0B9BDDF830C0C1F80CC08B604A603C
:106338000860FFE710B080BDFCE780B56F4682B00B
:10634800B81E00F079FE02B080BD80B56F4682B0FD
:10635800FDF739FF02B080BD80B56F4684B000906C
:10636800029090F858000146019130B1FFE701987A
:10637800032804D0FFE704B080BD04B080BD0098B6
:10638800103000F00AF804B080BD80B56F4682B0C6
:10639800019000F04AF802B080BD80B56F4684B025
:1063A8000090029090F845000146019130B1FFE756
:1063B8000198032804D0FFE704B080BD04B080BD75
:1063C8000098103000F017F80098002180F8441069
:1063D800203000F002F804B080BD80B56F4682B06E
:1063E80000900190006810B9FFE702B080BD0098E6
:1063F800FFF7CBFFF9E780B56F4682B0019000F058
:1064080035F802B080BD80B56F4682B00190043087
:1064180013F0EFF902B080BD80B56F4682B00190ED
:10642800043013F0E6F902B080BD80B56F4682B043
:10643800019011F00DFA02B080BD80B56F4684B0AE
:106448000090029090F860000146019130B1FFE79A
:106458000198032804D0FFE704B080BD04B080BDD4
:1064680000980430FFF778FF04B080BD80B56F4610
:1064780082B00090019042F2DC21C2F2200100F0CB
:1064880029FA00F075FB02B080BDF0B503AF4DF8F6
:1064980004BDCCB00D9209910F904A9142F2EC21C3
:1064A800C2F220010020109006F04FFC09990D9AC5
:1064B8000346109892F821C06A469060C2F804C05A
:1064C800106014A8049001220592FDF7CFFF0499EB
:1064D80042F29C30C2F220006A46106042F2FC226E
:1064E800C2F22002079211A80A9020230893FCF711
:1064F80039F942F2AC31C2F22001802006F025FCC5
:10650800059A0999DDF834C0034610989CF821E0F3
:10651800EC46CCF80800CCF804E0CCF800001AA847
:106528000690FDF7F3FF0699079A089B42F2BC30E4
:10653800C2F22000EC46CCF8000017A80B90FCF73C
:106548003BF90998FEF76EF80A990B9A0C904B9054
:106558001DA80E90FFF7CAF90C9A0D9B0E990F987B
:10656800C0F8DC2000F1B402B3E87050A2E8705023
:1065780093E8705082E87050B42214F031FF0F99FC
:10658800109881F8E20081F8E00081F8E100042227
:1065980081F8E32081F8E4004CB05DF804BBF0BD5D
:1065A80080B56F468EB00290039103A80190FCF766
:1065B80014F800F5C6700A904FF4704127F80A1CC9
:1065C8000C9042F2CC32C2F22002009211F09DFDF2
:1065D8000198FCF702F8009A00F5C77008900F219F
:1065E80027F8121C0D9011F090FD019904A8FCF7F2
:1065F80013FA0299039808600498059A069BDDF837
:106608001CC0C1F810C0CB608A6048600EB080BD65
:1066180080B56F468EB00290039103A80190FBF7F6
:10662800B4FF00F5C6700A904FF4704127F80A1CB1
:106638000C9042F2CC32C2F22002009211F065FDB9
:106648000198FBF7A2FF009A00F5C77008900F2188
:1066580027F8121C0D9011F058FD019904A8FCF7B9
:1066680004FA0299039808600498059A069BDDF8D5
:106678001CC0C1F810C0CB608A6048600EB080BDF5
:1066880080B56F468EB00290039103A80190FBF786
:10669800ACFF00F5C6700A904FF4704127F80A1C49
:1066A8000C9042F2CC32C2F22002009211F02DFD81
:1066B8000198FBF79AFF009A00F5C77008900F2120
:1066C80027F8121C0D9011F020FD019904A8FCF781
:1066D8001EFA0299039808600498059A069BDDF84B
:1066E8001CC0C1F810C0CB608A6048600EB080BD85
:1066F80080B56F468EB00290039103A80190FBF716
:106708004CFF00F5C6700A904FF4704127F80A1C38
:106718000C9042F2CC32C2F22002009211F0F5FC49
:106728000198FBF73AFF009A00F5C77008900F210F
:1067380027F8121C0D9011F0E8FC019904A8FCF749
:10674800BDF90299039808600498059A069BDDF83C
:106758001CC0C1F810C0CB608A6048600EB080BD14
:1067680080B56F4686B0009104900591007801903D
:106778000199DFE801F0050D151D252D353DFEDEDB
:1067880042F2DC30C2F2200002900A20039037E087
:1067980042F2E630C2F2200002900A2003902FE075
:1067A80042F2F030C2F2200002900E20039027E05F
:1067B80042F21040C2F220000290102003901FE025
:1067C80042F25040C2F2200002901620039017E0D7
:1067D80042F26640C2F2200002900F2003900FE0C0
:1067E80042F27540C2F2200002900B20039007E0AD
:1067F80042F28040C2F2200002900C200390FFE792
:1068080000980299039A13F051FD06B080BD80B537
:106818006F4682B000906C200190019802B080BD54
:1068280080B56F4682B0009001916846FFF7E3FD9E
:1068380002B080BD80B56F4682B00090019102B071
:1068480080BD80B56F4682B00090019102B080BDD6
:1068580080B56F4681B001B080BD80B56F4682B00B
:106868000090019102B080BD80B56F468CB0009059
:1068780002900221039104910591069007910890D6
:1068880009910A90FFE700980B9002300190FFE70A
:10689800009801990CB080BD80B56F4684B0019016
:1068A800029100F05DF807F80D0C17F80D0C02289E
:1068B80008D0FFE717F80D0C07F8010CC00907F816
:1068C8000E0C03E0002007F80E0CFFE717F80E0C7B
:1068D80004B080BD80B56F4681B00146009108685C
:1068E800496801B080BD80B56F465C2214F078FD20
:1068F80080BD80B56F46482214F072FD80BD80B51A
:106908006F4681B00090006801B080BD80B56F46C9
:1069180088B000910146009803910690FDF749FC64
:1069280001900846009902908868049001F10C00D3
:106938000021FCF7B5FEFCF7A8FE019B029A03991B
:106948008446049807F801CC17F801CC07F809CC5D
:106958000B604A60886017F8090C087308B080BD9E
:1069680080B56F4682B0009001910830083111F06F
:1069780007FA02B080BD80B56F4681B0009000680C
:1069880001B080BD80B56F4682B00090043001210F
:106998000422FCF765FFFFF75BFF02B080BD80B5FE
:1069A8006F4683B0009101460098019002920864F6
:1069B8008A61002081F8450003B080BD80B56F462C
:1069C800A8B009900B91209090F8450001460A91D3
:1069D80030B1FFE70A98012810D0FFE712E0FEDE89
:1069E800099B002183F84410186C089022909A693A
:1069F800DA610430FCF754FEA0B904E00020002856
:106A0800FCD162E055E042F2E041C2F220010DA85B
:106A1800079012F022FF079842F2E841C2F22001E3
:106A280014F043F9099800220392014641F8202FF7
:106A380040F8341FFFF763FF0899099A0346039843
:106A480042F8383F04922391FCF717FF0999024650
:106A580008982492249A41F83C2F05912591FFF734
:106A6800C2FA049A099B864605988C460899C3F889
:106A780010E0C3F814C04FF0010C83F844C01C3375
:106A88001B931C921D911E9017A806901BA9FEF738
:106A9800F0F8069913A8FEF7FEF809991398149AC6
:106AA800159BDDF858C0C1F80CC08B604A600860BF
:106AB800FFE7099827900B99FEF7FFF807F8210CD4
:106AC80017F8210CC00730B910E042F2F840C2F2C2
:106AD800200014F04AF80999012007F86D0C0320EA
:106AE80081F8450017F86D0C28B080BD099834303E
:106AF800FFF741FF01460291006840B1FFE70298A5
:106B080026900C300021FCF7CBFD50B908E009991C
:106B1800002081F8440008694969FFF781FE09E00F
:106B280008E00999002081F8440008694969FFF7DD
:106B380063FAFFE7099890F84400C00798B9FFE79F
:106B480009980021019180F844102030FFF745FC96
:106B58000198099907F86D0C012081F8450017F88C
:106B68006D0C28B080BD09981030FFF744FCE7E7AA
:106B780080B56F4684B0009101460098019102915A
:106B880003900021FCF781FE01460198FFF783FA84
:106B980004B080BD80B56F469EB0089109901690EC
:106BA800179111F021F9014609980B9101680BA87A
:106BB800FDF759FF58B9FFE709984068FFF7DBFE72
:106BC800014607911890FBF7F4FB40B903E0002059
:106BD80007F84D0C47E0012007F84D0C43E00898F2
:106BE800FDF7D6FAFDF7E5FA0246099801920291F7
:106BF80000680068039000200590FCF746FD019AA4
:106C080002990346039807F8113C17F8113C07F856
:106C1800213C11921291139017F8210C8DF8500015
:106C28000CA8049011A9FFF717FA07980499FBF725
:106C380097FB014609981A9180681D91FFF793FA0E
:106C4800059A0346099803F00103069307F8093CDF
:106C58001C91C068FCF724FE06980028BBD0FFE70B
:106C680011F0BAF8B7E717F84D0C1EB080BD80B523
:106C78006F4694B00090139011F0B3F811F094F8A7
:106C8800FFE700990020019003A801AAFFF7FEFA88
:106C980001990298039A049BDDF814C0DDF818E006
:106CA800CDF828E0CDF824C0089307920B910C90FA
:106CB800079868B1FFE707980899099A0A9B109303
:106CC8000F920E910D900D980E99FDF736FAD8E7B0
:106CD8000B98C00788B1FFE70C98119011F061F884
:106CE800119811F058F811F07FF8129012A811A914
:106CF800FDF7B9FE0028C4D102E011F06AF8FFE7F9
:106D080014B080BD80B56F4686B00A46014603912F
:106D1800049252F8080F009201220A60486011F0AC
:106D280063F80099029002A8FDF79DFE01460098BD
:106D3800019107F8011C04300022FCF791FD01982D
:106D480006B080BD80B56F4683B0009101460098BB
:106D58000190029208604A60002081F8580003B050
:106D680080BD80B56F46B4B0069008912F9090F81A
:106D780058000146079130B1FFE7079801281DD058
:106D8800FFE71FE0FEDE0698016803913191406835
:106D98000490329011F028F804990246069840F8B9
:106DA800082F0590006810F013FE06990246059812
:106DB80041F80C2F10F043FEC0B904E00020002871
:106DC800FCD128E01AE006980399C2681CA8019033
:106DD800FFF7E5FD01990AA80290FFF78AFD0698DA
:106DE80002991030482214F0FBFA07E00698C068B0
:106DF800012110F0EDFD0699C860E4E7069810300F
:106E080033900899FFF7DAFD07F8150C17F8150CF9
:106E1800C00730B910E042F20850C2F2200013F067
:106E2800A4FE0699012007F8A90C032081F8580050
:106E380017F8A90C34B080BD06981030FFF7ADFAEA
:106E48000699002007F8A90C012081F8580017F8C6
:106E5800A90C34B080BD80B56F4682B0009007F8A9
:106E6800011CFBF78DFE02B080BD80B56F4684B073
:106E78000190029107F8012CFBF797FE04B080BD42
:106E8800D0B502AFA0B003930592029101460298D3
:106E98000A911C921D93FEF7DDFE024609920846F0
:106EA800039907901E921F9012A80490FBF748FDC3
:106EB800049942F23850C2F220006A46106042F249
:106EC8001852C2F220020BA808901F23FBF710FAF1
:106ED800059919A80690FDF79FFD069842F21C3106
:106EE800C2F2200142F24853C2F220032022FBF7EB
:106EF8001EFADDF81CC0089ADDF824E003460846AF
:106F08000A99C1F81CE0C1F820C04B6288620846A3
:106F1800B2E80850A0E8085092E8185080E81850E5
:106F28000020888520B0D0BD80B56F4688B0019319
:106F3800009204900591069207931C300AF04DF9CF
:106F4800034600980A4601990293039202AA00F0A8
:106F5800D3FB08B080BD80B56F469AB045F20000FB
:106F6800C2F200000890099042F21062C2F22002B8
:106F780000210491FFF76FFF0499024605920790DC
:106F8800109044F28B02C0F2000211921590683002
:106F980042F22062C2F22002FCF735FB002849D0F9
:106FA800FFE705981790693042F24062C2F220026A
:106FB80069464A6000220A6001210223FCF7D4FADC
:106FC80000F0010007F80E0C07F80D1CA7F10E00E1
:106FD800FBF7BFFB70B3FFE70598189044F28B00EE
:106FE800C0F20000199045F23011C2F22001FDF7FD
:106FF800D6F8FDF7B3F80A900B910CA803900AA9EC
:10700800FDF7B3F80598039914901390129000F0C7
:1070180000F920B1FFE70AA810F01AFC0AE0059869
:10702800683042F25063C2F2200300210122FCF7CB
:10703800F9FAF0E71AB080BD80B56F4686B00190C6
:1070480045F20000C2F200000490059042F210627E
:10705800C2F220020021FFF7FEFE02900390693081
:1070680042F23063C2F2200301221146FCF7DAFA39
:107078006520FDF736FE06B080BD80B56F4682B04C
:10708800019000F002F802B080BD80B56F46ADF502
:107098000F6D0290799042F29450C2F22000FDF7F1
:1070A8004FFE029800680390EF907FA80490FBF7CA
:1070B80057FD03980499789008A805904FF4E0725A
:1070C800069214F08DF90599069A0DF5E16007907E
:1070D80014F086F90799F3A8FCF7C0FEFD98FE990D
:1070E800FF9AF292F191F090A7F12800F0A90122FD
:1070F800FBF72BFA57F8280CF8B1FFE757F8280CDC
:1071080057F8241C57F8202C47F8102C47F8141C63
:1071180047F8180C42F2A450C2F2200069460860F1
:1071280042F26850C2F2200042F25853C2F22003E1
:107138002B21A7F1180213F081FC57F8240C0190B9
:1071480047F80C0C47F81C0C44F20060C2F2C3303C
:10715800FDF728FFFCF7BDFEFBF76FFA01987B905F
:1071680045F61071C2F2200147F8081C47F8041CC4
:107178007C907D917E900860FCF7D1F90DF50F6D3C
:1071880080BD80B56F4686B045F61070C2F220000B
:107198000490059001460191800730B9FFE745F654
:1071A8001070C2F2200040B911E0019942F29452E5
:1071B800C2F22002042013F045FD45F61070C2F219
:1071C8002000039001460091800730B10BE042F2A5
:1071D8009450C2F2200013F023FD45F61070C2F25D
:1071E800200070B907E0009942F29452C2F22002DE
:1071F800042013F027FD42F29450C2F2200013F04D
:107208000FFD45F61070C2F22000FCF75AFE06B0DA
:1072180080BD80B56F46ADF50E7D069008918A90C9
:1072280000780146079130B1FFE70798032803D09B
:10723800FFE702E0FEDE01E00CE019E003200A901F
:1072480042F2B451C2F220010AA804F06AFC0028F4
:1072580040D12AE0069804308C900899FDF746FE44
:107268008DF827019DF82701C007002860D16AE042
:10727800069804308D900899FDF738FE07F8110C30
:1072880017F8110CC00758B1FFE7069901208DF8CF
:107298002700042008709DF827000DF50E7D80BD9D
:1072A80006980430FFF7C9F8C8E74FF47A7000F081
:1072B8009CF8014630A80490FDF70BFE049917A826
:1072C8000590FDF7D2FE069805990430642214F063
:1072D80087F8BFE748F6A420C2F200000021FCF7B7
:1072E800D4FA0B900AA80BA904F01BFC0028DCD0E8
:1072F800FFE742F2D051C2F220010CA8039012F02D
:10730800ACFA42F2E450C2F2200011F05FFE0146EE
:10731800039842F2D853C2F220031293092213921F
:107328001493159216910A9912AA11F01FFABCE744
:10733800069901208DF82700032008709DF8270082
:107348000DF50E7D80BD06980430FFF776F8032012
:107358004A9042F2B451C2F220014AA804F0E1FB7B
:10736800A8B9FFE74FF47A7000F03FF8014670A81B
:107378000190FDF7AEFD019957A80290FDF775FE43
:10738800069802990430642214F02AF870E748F647
:10739800A420C2F200000021FCF777FA4B904AA81B
:1073A8004BA904F0BEFB0028DCD0FFE742F2F851FD
:1073B800C2F220014CA8009012F04FFA42F200608D
:1073C800C2F2200011F002FE0146009842F2D853A2
:1073D800C2F2200352930922539254935592569124
:1073E8004A9952AA11F0C2F9BCE780B56F4682B03B
:1073F800019000F002F802B080BD80B56F4682B0FF
:1074080001900090002028B9FFE7009810F09CFC3C
:1074180002B080BD42F26060C2F2200013F06CFB43
:1074280080B56F4684B00191029010F072FF019907
:107438000246029807F8012C07F8022CFBF746F8D9
:10744800B81E12F0DEF904B080BD80B56F4688B072
:10745800009101900590069110F05BFF009902469B
:10746800019807F8012C07F80D2CFEF789FE029009
:107478000391A7F10D0012F0C4F90298039908B01E
:1074880080BD80B56F4688B0029201910390059146
:10749800069210F03EFF0199029A0346039807F8F6
:1074A800013C07F80D3CFEF7FAFEA7F10D0012F0BB
:1074B800A8F908B080BD80B56F4686B000910190EC
:1074C8000390049110F025FF00990246019807F8EF
:1074D800012C07F80D2CFEF7E8FDA7F10D0012F0BE
:1074E80090F906B080BDF0B503AF2DE9000BADF5FE
:1074F800BD6D0A930891014608988DF85F00BF9208
:10750800C09348F26860C2F2000047F8B40C47F82C
:10751800B02C02606A4601201690106048F2000202
:10752800C2F2000246F20003C2F2000318A80B9050
:10753800FDF7A8F942F27061C2F220010DF15F0077
:107548000990FEF762FD01460B980DF0FCF8099AC8
:107558000A9B0B980021FDF7F8F90B9A38A9084601
:10756800B2E81850A0E81850B2E83850A0E83850EF
:1075780092E8385080E8385026A80C90FCF700FFB5
:107588000C9948F20450C2F20000119047F81C0C04
:10759800A7F164000D9048220F9213F021FF0D9976
:1075A8000F9AA7F1AC000E9013F01AFF0E990F9ADC
:1075B800119813F015FF1199C19146A810904FF436
:1075C8000072FBF72CF9109B119948F25050C2F247
:1075D8000000DD900DF5517C6246B3E87043A2E8E7
:1075E800704393E8704382E87043C5AA1346BCE829
:1075F8007043A3E870439CE8704383E87043B2E8A3
:107608007850A0E8785092E8785080E87850ADA893
:10761800129045F6240242F2DD73FCF720FE12991F
:1076280042F27162C2F22002A2A813900923FCF769
:1076380062FE139997A814900222FCF7C9FD1499C9
:107648008CA815904022FCF7D4FD159952A8FCF798
:107658003AFE1698082112F052F9B890B991FFE74E
:10766800B8A812F044F9BA90BB91BA98C00760B1B3
:10767800FFE7BB980790C29040F64F70C2F2200017
:10768800FFF7F2F8BC90BD911EE048F28050C2F2BC
:107698000000049047F8B80C0DF58C60039052A9CF
:1076A800E822069213F09CFE0399069ADEA805903C
:1076B80013F096FE04980599069A13F091FE0DF5BD
:1076C800BD6DBDE8000BF0BDBCA8FEF760FCBE9028
:1076D800BE980028C4D0FFE70798BE99C3910978DF
:1076E800FBF7ADFF02908DF8130352A802F017FACA
