:0200000460009A
:100000004643464200000156000000000101020084
:1000100000000000000000000000000000000000E0
:1000200000000000000000000000000000000000D0
:1000300000000000000000000000000000000000C0
:1000400000000000010403000000000000000000A8
:100050000000200000000000000000000000000080
:100060000000000000000000000000000000000090
:100070000000000000000000000000000000000080
:10008000EB04180A063204260000000000000000FD
:10009000050404240000000000000000000000002F
:1000A0000000000000000000000000000000000050
:1000B0000604000000000000000000000000000036
:1000C0000000000000000000000000000000000030
:1000D00020041808000000000000000000000000DC
:1000E0000000000000000000000000000000000010
:1000F0000000000000000000000000000000000000
:1001000000000000000000000000000000000000EF
:100110000204180804200000000000000000000095
:1001200000000000000000000000000000000000CF
:10013000600400000000000000000000000000005B
:1001400000000000000000000000000000000000AF
:10015000000000000000000000000000000000009F
:10016000000000000000000000000000000000008F
:10017000000000000000000000000000000000007F
:10018000000000000000000000000000000000006F
:10019000000000000000000000000000000000005F
:1001A000000000000000000000000000000000004F
:1001B000000000000000000000000000000000003F
:1001C000000100000010000001000000000000001D
:1001D000000000000000000000000000000000001F
:1001E000000000000000000000000000000000000F
:1001F00000000000000000000000000000000000FF
:10020000D4D4D4D4D4D4D4D4D4D4D4D4D4D4D4D4AE
:10100000D10020400020006000000000000000002F
:1010100020100060001000600000000000000000D0
:1010200000000060ACC0000000000000EFBEADDEBC
:10103000124880F3088812481249016000F036F81F
:10104000114812490022814201D004C0FBE7104838
:101050001049114A814202D008CA08C0FAE70F4875
:101060004FF47001026842EA01020260BFF34F8F41
:10107000BFF36F8F00F014F800DE00000040002086
:1010800008ED00E000400020005000209485002082
:10109000B84200205C440020ACC0006088ED00E055
:1010A00041F2850CC0F2000C6047D4D41C4840F2D9
:1010B000924188420CBF1B4A1B4A1C4B5360136869
:1010C00023F0800313601A481A4901BF1A480A0C1A
:1010D0008264C1F30F014164016C41F004010164B9
:1010E0001648174A824205D01649814202D008CAE2
:1010F00008C0FAE71448154A824205D014498142D3
:1011000002D008CA08C0FAE71248134A824205D042
:101110001249814202D008CA08C0FAE770470000AD
:10112000240400000080034000C00B4020C528D9E3
:1011300000C00A40AAAAFAFF00400E4000000000CA
:10114000B8220060C486000000400020002000603B
:10115000B8420020000020207CA900603017202029
:10116000D4D4D4D4D4D4D4D4D4D4D4D4D4D4D4D43F
:10117000D4D4D4D4D4D4D4D4D4D4D4D4D4D4D4D42F
:10118000D4D4D4D4D4D4D4D4D4D4D4D4D4D4D4D41F
:10119000D4D4D4D4D4D4D4D4D4D4D4D4D4D4D4D40F
:102000000040002031100060952A0000A9860000E1
:10201000952A0000952A0000952A00000000000083
:10202000000000000000000000000000952A0000F1
:10203000952A000000000000952A0000E11500002C
:10204000952A0000952A0000952A0000952A000094
:10205000952A0000952A0000952A0000952A000084
:10206000952A0000952A0000952A0000952A000074
:10207000952A0000952A0000952A0000952A000064
:10208000952A000000000000000000000000000091
:10209000952A0000952A0000952A0000952A000044
:1020A000952A0000952A0000952A0000952A000034
:1020B000952A0000952A0000952A0000952A000024
:1020C000952A0000952A0000952A0000952A000014
:1020D000952A0000952A0000952A0000952A000004
:1020E000952A0000952A0000952A0000952A0000F4
:1020F000952A0000952A0000952A0000952A0000E4
:10210000952A0000952A0000952A0000952A0000D3
:1021100000000000952A000000000000952A000041
:10212000952A0000952A0000952A0000952A0000B3
:10213000952A0000952A000000000000952A000062
:10214000952A0000952A0000952A0000952A000093
:10215000952A0000952A0000000000000000000001
:10216000952A0000952A0000952A0000952A000073
:10217000952A0000952A0000952A0000952A000063
:10218000952A0000952A0000952A0000952A000053
:10219000952A0000952A0000952A0000952A000043
:1021A000952A0000952A0000952A0000952A000033
:1021B000952A0000952A0000952A0000952A000023
:1021C000952A0000952A0000952A000000000000D2
:1021D000952A0000310C0000952A0000952A000085
:1021E000952A0000952A0000952A0000952A0000F3
:1021F000952A0000952A0000952A0000952A0000E3
:10220000952A000045290000952A0000952A000023
:10221000952A0000952A0000952A0000952A0000C2
:10222000952A0000952A0000952A0000952A0000B2
:10223000952A0000952A0000952A00000000000061
:1022400000000000952A0000952A0000952A000051
:10225000952A0000952A0000952A0000952A000082
:10226000952A0000952A0000952A0000952A000072
:10227000952A0000952A0000952A0000952A000062
:10228000952A0000952A0000952A0000952A000052
:10229000952A0000952A0000952A0000952A000042
:1022A000952A0000952A0000952A000000000000F1
:0822B000952A0000952A0000A8
:1022B800F0B503AF2DE9000F85B016680446052078
:1022C80093463061306840F001003060B068C00764
:1022D80009D1B068C00704BFB0685FEAC07002D116
:1022E800B068C007F2D0B068022240F00100B060C8
:1022F8003068D1E9009A20F001000391306045F67A
:102308002470A7F11E0127F81E0C20464B46CDE984
:1023180000AB00F099FA17F81E0CA7F11E016074C3
:102328004FF60675204602224B4627F81E5CCDE97B
:1023380000AB00F089FA17F81D1C022217F81E0CD2
:102348004B46607401F0D70007F81D0C2620A7F152
:102358001E0107F81E0C2046CDE900AB00F074FA08
:1023680017F81E0CA7F11E016074204602224B4686
:1023780027F81E5CCDE900AB00F066FA17F81E0CD2
:10238800A7F11E0160744FF61D78204602224B46C5
:1023980027F81E8CCDE900AB00F056FA17F81E0C92
:1023A800A7F11E016074502007F81E0C2046012278
:1023B8004B4617F81D5CCDE900AB00F045FA17F85D
:1023C8001E0CA7F11E016074204602224B4627F816
:1023D8001E8CCDE900AB00F037FA17F81D0C17F882
:1023E8001E1C6174291AB1FA81F14FEA5111E17684
:1023F800F8B185420ED15020A7F11E0107F81E0C36
:10240800204601224B46CDE900AB00F01DFA17F833
:102418001E0C60743D20A7F11E0127F81E0C2046F3
:1024280002224B46CDE900AB00F00EFA17F81E0C5D
:1024380060743C20A7F11E01002527F81E0C2046D9
:1024480002224B466576CDE900AB00F0FDF917F89E
:102458001E0CA7F11E01607443F6217027F81E0CAC
:10246800204602224B46A576CDE900AB00F0ECF9F8
:1024780017F81E0CA7F11E01607440F2223027F8ED
:102488001E0C204602224B46CDE900AB00F0DCF9D9
:10249800039A202117F81E0C5B46607420464FF003
:1024A800200800F057F940F22330A7F11E0127F861
:1024B8001E0C204602224B46CDE900AB00F0C4F9C1
:1024C80017F81E0CA7F11E0160740520207444F64D
:1024D800254027F81E0C204602224B46CDE900ABCA
:1024E80000F0B2F917F81E0CA7F11E01607447F24C
:1024F800270027F81E0C204602224B46CDE900ABE8
:1025080000F0A2F917F81E0CA7F11E0160744FF62F
:10251800E27027F81E0C204602224B46CDE900AB9C
:1025280000F092F94FF6E170A7F11E0127F81E0C92
:10253800204602224B46CDE900AB00F085F94FF466
:102548004260A7F11E0127F81E0C204602224B46C6
:10255800CDE900AB00F078F917F81E0CA7F11E01C1
:1025680060744FF47F4027F81E0C204602224B4629
:10257800CDE900AB00F068F917F81D5C17F81E0CE0
:102588006074A80725762ED4A7F11E0120460222E2
:102598004B4645F00205257607F81D5C07F81E8CAA
:1025A800CDE900AB00F050F917F81E0C607440F24A
:1025B800DC503061306840F001003060B068C0071E
:1025C80009D1B068C00704BFB0685FEAC07002D123
:1025D800B068C007F2D0B06840F00100B060306861
:1025E80020F00100306022200E2D08BF232005B006
:1025F800BDE8000FF0BDF0B503AF2DE9000B84B0C6
:10260800057E0446D1E900891646A80730D4202063
:10261800A7F11E0107F81E0C20460222434645F08A
:102628000205257607F81D5CCDE9009600F00CF947
:1026380017F81E0C40F2DC516074306801610168C3
:1026480041F0010101608168C90709D18168C907A2
:1026580004BF81685FEAC17102D18168C907F2D0FD
:10266800816841F001018160016821F00101016088
:1026780045F00100207607F81D0C2020A7F11E0167
:1026880007F81E0C204602224346CDE9009600F0CA
:10269800DBF817F81E0CA7F11E01607447F227003B
:1026A80027F81E0C204602224346CDE9009600F08A
:1026B800CBF817F81E0C01226074D4E9000101F070
:1026C8001F01237F02FA01F1C0F88410BBB1E17D3C
:1026D8002A22D4F81300434607F8191CA7F11E0153
:1026E80047F81D0C2046627407F81E2C0622CDE917
:1026F800009600F0A9F804B0BDE8000BF0BD4FF655
:102708000270A7F11E0127F81E0C2046022243463C
:10271800CDE9009600F098F817F81D1C022217F86A
:102728001E0C4346607401F0FE0007F81D0C2220C1
:10273800A7F11E0107F81E0C2046CDE9009600F00F
:1027480083F817F81E0C60740020207704B0BDE8E9
:10275800000BF0BDF0B503AF2DE9000B86B00446C1
:10276800C8B2D2E900852028064603A928BF20263A
:1027780000284FF0310008BF012699468DF80C005B
:10278800204602224346A6748DF80D60CDE9005913
:1027980000F05AF89DF80C00A7F12201607432206D
:1027A80007F8220C20460222434607F8216CCDE99F
:1027B800005900F049F817F8220C04A96074332076
:1027C8008DF810002046022243468DF81160CDE9AD
:1027D800005900F039F89DF81000A7F11E01607447
:1027E800342007F81E0C20460222434607F81D6CC9
:1027F800CDE9005900F028F817F81E0C05A96074F7
:1028080035208DF814002046022243468DF81560C5
:10281800CDE9005900F018F89DF81400A7F11A0145
:102828006074362007F81A0C20460222434607F83F
:10283800196CCDE9005900F007F817F81A0C607404
:1028480006B0BDE8000BF0BDF0B503AF2DE9000FF1
:1028580085B0D0E90280012500F01F00BE6805FAA6
:1028680000FAFD68C8F888A0706982B110F080701D
:102878000DD13069894608211C4640F4407030610A
:1028880002A8934604F082F80298022821D1286809
:102898000021C8F884A00161016841F001010160CC
:1028A8008168C90709D18168C90704BF81685FEADF
:1028B800C17102D18168C907F2D0816841F0010174
:1028C8008160016821F00101016005B0BDE8000FD9
:1028D800F0BD9DF80E204FF0000E9DF80F304FF020
:1028E800010C9DF8125092059DF80C009DF80D10F2
:1028F80002EBC452019502EBC3429DF8105061F3FC
:102908000B20104401220021012300EB8540FD68C3
:10291800009058460BE086454FF0000238BF012270
:1029280081424FF0000334BF01238645AFD2DB0755
:102938004ED019F801B001310B1A08BF9C467369D3
:102948001B05A4D4F36DDB0611D573691B059ED452
:10295800F36DDB060BD573691B0598D4F36DDB06A5
:1029680005D573691B0592D4F36DDB06E7D4336E86
:102978005FFA8CF5009C04EB45554FF20004CFF646
:10298800037423402B44FD68019C43EA04533366D7
:1029980073691B053FF57BAFF36DDB0614D57369CF
:1029A8001B053FF574AFF36DDB060DD573691B0589
:1029B8003FF56DAFF36DDB0606D573691B053FF573
:1029C80066AFF36DDB06E3D40123C6F864B0019368
:1029D800D207A0D07269D2043FF559AF326F92077F
:1029E80099D4726FB2F5807F28BF4FF0FF3209F893
:1029F8000E200EF1010E8EE7F0B503AF2DE9000FA2
:102A080095B0D1E90054D1F808A006F0FFFB804644
:102A1800F02006F0F8FB06F0F9FB0646F02006F079
:102A2800F2FB41F2507941F2587BC2F220094FF68D
:102A38001771D9E90030C2F2200BADF830100CA99B
:102A4800CDE9000B28460222FFF7FEFE9DF8311063
:102A58009DF830006874C80740F0DF804FF0FF3001
:102A68006121CDF84D000522CDF84900CDF845008B
:102A7800CDF84100CDF83D00CDF83900CDF835004E
:102A8800CDF83100D9E900308DF830100CA9CDE926
:102A9800000B2846CDE90348FFF7D6FED9E90031F7
:102AA80002229DF83000687444F22700CDE9001B2B
:102AB8000CA9DDF83180ADF830002846FFF7C4FED8
:102AC8009DF83000687448F29050CAF80080C2F24D
:102AD80000000068032827D3002040F20C01109062
:102AE80001200D90C2F220010F9005A80E9048F227
:102AF8003310C0F200000C91CDE905A040F22C0083
:102B0800C2F2200006F0FEFC40F23C010B900E20C1
:102B1800C2F220010A9007AACDE907100CA8099172
:102B28000321002306F087FC03980021012401708B
:102B3800D5E9002303F01F03DBF8000004FA03F3D0
:102B4800C2F888300161016841F0010101608168C3
:102B5800C90709D18168C90704BF81685FEAC171E3
:102B680002D18168C907F2D0816841F00101816012
:102B7800016821F001010160687EDDF810800128FC
:102B88000CD1D9E900304FF6E171ADF830100CA93D
:102B9800CDE9000B28460222FFF756FE287E0222C6
:102BA800D9E9003120F0010028768DF83100202085
:102BB800CDE9001B0CA98DF830002846FFF744FE2C
:102BC800D9E9003102229DF8300068744FF602708E
:102BD800CDE9001B0CA9ADF830002846FFF734FEFC
:102BE8009DF831109DF83000687441F00100D9E972
:102BF80000320CA98DF8310022208DF830002846CB
:102C0800CDE9002B0222FFF71FFE9DF83000687403
:102C1800DAF800000130CAF80000304606F0FAFA87
:102C2800404606F0F7FA15B0BDE8000FF0BDF0B564
:102C380003AF2DE9000F97B0D1E90060CC6804908C
:102C48008868039006F0E2FA0690F02006F0DBFAB6
:102C580006F0DCFA0590F02006F0D5FA4FF0FF30C8
:102C680041F2507ACDF85500C2F2200ACDF8510051
:102C780041F25875CDF84D00C2F22005CDF8490053
:102C88000EA9CDF845000522CDF84100CDF83D004C
:102C9800A0208DF838002068CDF83900DAE9003036
:102CA800CDE900053046FFF7CFFD9DF838004FF01D
:102CB800010970744FF0FF08D6E90001012201F004
:102CC8001F0109FA01F1C0F884100EA9DAE90030F1
:102CD8008DF83880CDE900053046FFF7B5FD9DF841
:102CE8003800707410F0300F00F09980D6E90001B8
:102CF80001F01F01DAE9003209FA01F1C0F8881081
:102D080047F227000EA9ADF83800CDE90025304676
:102D18000222FFF799FD9DF838007074C0063ED472
:102D280048F29050C2F200000068032828D300201F
:102D380040F28001129001200F90C2F22001119000
:102D480007A8109048F23310C0F200000E910890C6
:102D58000398079040F28800C2F2200006F0D2FBE8
:102D680040F23C010D900E20C2F220010C9009AAFD
:102D7800CDE909100EA80B910321002306F05BFB97
:102D88000499012041F25872C2F22002087041F2FF
:102D98005071C2F220013046FFF72DFC35E0DAE928
:102DA80000304FF6E171ADF838100EA9CDE90005F5
:102DB80030460222FFF748FD48F29050C2F2000068
:102DC8000068032821D300200121129011900420CB
:102DD8000F9140F26001109040F26800C2F22001A9
:102DE800C2F220000E9106F08DFB40F23C010D90DE
:102DF8000E20C2F220010C9009AACDE909100EA8F4
:102E08000B910321002306F016FB059806F002FA41
:102E1800069806F0FFF917B0BDE8000FF0BD0EAC3C
:102E28004FF0000B19E08168012241F00101816037
:102E3800016821F001010160DAE9003021468DF8CE
:102E48003880CDE900053046FFF7FEFC9DF83800D4
:102E5800707410F0300F7FF449AF2868C0F810B0D4
:102E6800016841F0010101608168C907DBD181680F
:102E7800C90704BF81685FEAC171D4D18168C907F5
:102E8800F2D0D0E7084640F21411C2F22001022223
:102E980006F0B2BE45F200000121C2F2000040680F
:102EA800BFF35F8F80F869104EF20C20CEF200005D
:102EB80020210160704745F200000121C2F20000A4
:102EC8008068BFF35F8F41744EF20C20CEF2000091
:102ED80020210160704780B56F4606F092F9FCE743
:102EE800F0B503AF2DE9000F93B045F20009C2F227
:102EF8000009D9F80840207CE8B104F1110000214C
:102F0800D0E84F2F012A14D1C0E8421F002AF7D178
:102F1800BFF35F8F207B002840F0E88194E807002A
:102F28000B7873B10DAB07C304A80DA9FFF764FDB7
:102F380012E0BFF32F8FD9F8045095F86800B8BB9A
:102F480096E113680DF1340C089308AB8CE80F0078
:102F580004A80DA9FFF76BFED9F8040000F1680179
:102F6800D1E84F2F5AB90122BFF35F8FC1E8432F31
:102F7800002B00F0EF80D1E84F3F002BF6D0BFF3D5
:102F88002F8F012020730020BFF35F8F207441F240
:102F9800F420C2F22000C16840F60740C0F20000E9
:102FA8008847D9F8045095F86800002800F0608137
:102FB80005F169000021D0E84F2F012A3CD1C0E873
:102FC800421F002AF7D140F6E530BFF35F8FC0F209
:102FD800000002A9039041F2F420C2F22000CDE9DA
:102FE800041102900020069095F8640038B3032875
:102FF80040F07C812A4612F8600F002850D0032840
:1030080040F08C81AA4601921AF85C0F002800F063
:10301800C380032840F08881AB461BF8591FABF1E9
:103028004500002900F0BB80032978D040F2E01069
:10303800C2F2200007F0C2F9BFF32F8F18E148F25F
:103048009050C2F200000068022821D90020012116
:103058001190109004200E9140F2A0210F9040F2A0
:10306800A820C2F22001C2F220000D9106F04AFA0F
:1030780040F2B8210C900E20C2F220010B9008AA51
:10308800CDE908100DA80A910321002306F0D3F911
:103098004FF47A7400202A462C6002F8600F00E092
:1030A8002C680020AA4648F27C560AF85C0FC2F247
:1030B800000601924AE916644FF0000806F041F84C
:1030C800AB4601460BF8598F0219002C4BF8056CDA
:1030D80018BF511C4BF84D0CABF145004BF82D1C9B
:1030E8004BF8491C2A4642F8301F002182F8281064
:1030F8003379002B00F000812B46012443F8341F5C
:1031080083F824401C4644F81C1F03F11801C3E946
:10311800053343E9082143E9066443E9046404A943
:1031280000F0C0FD48B1032085F8640085F8600010
:1031380085F85C0085F8590096E0A86C0168D1B163
:10314800007B00281CBF002085F8580095F858001F
:1031580098BB5FE00021BFF35F8F80F86410012106
:10316800BFF35F8F80F869104EF20C202021CEF259
:103178000000016005E70021D5E9094085F85810ED
:10318800066806F01EF8BFF35F8F216881B10A69EF
:103198008E4207D122600BE0D5E901648CE7E96A29
:1031A8006E6D9FE722B1964215D113461A690A61DE
:1031B80006F012F895F8580060B3D5E9094006689A
:1031C80005F0FFFFBFF35F8F216809B30A698E42DC
:1031D80018D122601CE011690029E9D08E4200F064
:1031E80082800A69002AE3D09642DED0116900295C
:1031F800DED08E4277D00A69002AD9D0964213468B
:10320800E9D1D3E722B1964239D113461A690A6146
:1032180005F0E2FF686B002185F8581000281EBFF2
:10322800C168A86B8847019801218BF800108AF8BB
:1032380000100170D9F8080000F11002D2E84F3FE1
:1032480043B9BFF35F8FC2E8431F73B3D2E84F3F60
:10325800002BF8D0BFF32F8F012085F864000020E1
:10326800BFF35F8F85F86800DDE90210C9688847F9
:10327800002005F0CFFF13B0BDE8000FF0BD1169C5
:103288000029C5D08E422BD00A69002AC0D09642A8
:10329800BBD011690029BBD08E4221D00A69002A0F
:1032A800B6D096421346EAD1B0E70021BFF35F8F4C
:1032B80041F23072017344F2B821C2F22002C2F224
:1032C8000001C0F80890C0E900210121BFF35F8F19
:1032D80041744EF20C202021CEF200000160BBE7C1
:1032E8000B46114692E70B4611465FE740F2C820AD
:1032F800C2F2200007F062F8012011910E9040F20E
:103308006810C2F2200010910D90042040F2D011F4
:103318000F900DA8C2F2200106F0C1F940F2041086
:10332800C2F2200007F04AF840F2F010C2F2200082
:1033380007F044F880B56F46A6B005F052FF48F292
:1033480088500121C2F200006A4601704EF26540C1
:10335800CEF20000F02101704EF20C10CEF2000007
:103368002021016045F200010020C2F20001ADF801
:10337800680048F294544A60C2F20004ADF87C0038
:103388001BA8886044F20000C2F20000A04203D9E2
:1033980005F031FFA04203D900F015F8FFF79BFDB7
:1033A80001210020219140F20431C2F22001249031
:1033B80023900420209140F2C821229020A8C2F234
:1033C800200106F06CF9F0B503AF2DE9000FADF25E
:1033D800045DD1AC204601F014F805A8214600F0A0
:1033E8005DFA0FAA02AB4FF000094FF0050807CAB3
:1033F800DDE90A6407C3042002A9069005A8CDF8F0
:103408001C90CDF8148001F0D8FB4EF2100140F268
:10341800E732CEF200014CF210050868C4F2390513
:1034280020F001000860086840F00400086042F2DB
:10343800BF70C0F209004860086840F002000860E8
:10344800086840F00100086048F27C510120C2F28F
:103458000001BFF35F8F0871BFF35F8F316821F000
:1034680001013160716862F30B017160316821F408
:10347800B86180313160316821F001013160B16893
:1034880041F02001B160F16821F02001F16031685C
:1034980021F400713160316841F002013160B16896
:1034A80041F00101B160F16821F00101F160B168FA
:1034B80041F00201B160F16821F00201F160B168E8
:1034C80041F00401B160F16821F00401F160CE9689
:1034D80048F22C16C4F21F060221B26861F30302F7
:1034E800B260B26842F01002B26048F21052C4F200
:1034F8001F029060736861F303037360736843F09D
:10350800100373605060F36861F30303F360F368BA
:1035180043F01003F3601060326861F30302326015
:10352800326842F010023260C6F8E00329600321D5
:10353800C5F80090696129682A6822F001022A60AA
:103548002A6D22F040422A652A6861F300022A6047
:10355800A5F110024FF00F11A96444F6403128601C
:10356800C0F24C01CDE9CF92286840F44070286041
:10357800D5F800B0286820F00100286042F6001055
:10358800C0F2DE7003F015FA286D4FF4802120F0A8
:103598004040286528686BF30000286056F8080C3E
:1035A80068F3030046F8080C606840F080606060CB
:1035B80056F8280C68F3030046F8280C606840F4B5
:1035C800802060604FF08060C4F88800C4F88410E0
:1035D800C4F88800CE98C4F884106421CDF82790E8
:1035E8008DF82B908DF82E908DF82480ADF82F90C3
:1035F800ADF82C90ADF8259001611221CDE9074175
:103608001A21CDE90541016841F001010160816895
:10361800C90709D18168C90704BF81685FEAC17118
:1036280002D18168C907F2D081680DF54E7941F061
:103638000101816001684A4621F00101016005A885
:10364800CFA9FEF735FEC0B2232840F00E81DDE990
:10365800CF560DF114084FF60670D1A9ADF8440302
:10366800404602222B46CDE90069FFF7EDF89DF8A8
:10367800451302229DF844032B468DF8250001F0DE
:10368800F80006308DF845032620D1A98DF84403AB
:103698004046CDE90069FFF7D7F8DDE9CF310222CE
:1036A8009DF844038DF8250046F62520CDE900193C
:1036B800D1A9ADF844034046FFF7C6F89DF8440386
:1036C800CFAA8DF82500404604214B46FFF742F863
:1036D800DDE9CF562A20D1A94FF0E73B6FF0180A51
:1036E8008DF825008DF84403404606222B46CDF878
:1036F80045B38DF849A3CDE90069FFF7A5F8302057
:10370800D1A98DF8250006228DF8440340462B46A2
:10371800CDF845B38DF849A3CDE90069FFF794F8D2
:10372800DDE9CF564FF0C330CDF845032B208DF897
:103738002500D1A98DF84403C1208DF849034046DE
:1037480006222B46CDE90069FFF77EF84FF6027096
:10375800D1A9ADF84403404602222B46CDE90069C1
:10376800FFF772F89DF84513D1AC9DF84403022287
:103778008DF8250041F002008DF8450322208DF8D0
:103788004403404621462B46CDE90069FFF75CF823
:103798009DF84403CFA98DF8250040464A46FEF718
:1037A8002AFF45F20001C2F20001886800F1100208
:1037B800D2E84F3F4BB90123BFF35F8FC2E8453FC3
:1037C800B5B1D2E84F5F002DF8D040F2502040F25A
:1037D8000023C2F22000BFF32F8F009040F2102088
:1037E800D1AAC2F22000C2F220032B2105F094FFD7
:1037F8000022BFF35F8F44F2B823027341F23072A4
:10380800C2F20003C2F220028160C0E90023012154
:10381800BFF35F8F41744EF210012020CEF20001F9
:103828002646C1F8FC01DDF84093DDE9CEECB8E8A6
:103838002B002BC698E82B002BC641F25070C2F221
:103848002000C0E900C941F25870C2F22000C0F857
:1038580000E04BCC4BC294E84B004BC205F0C3FCD4
:103868000DF2045DBDE8000FF0BD01210020D291EA
:1038780040F28021C2F22001D590D4900420D19149
:1038880040F28821D390D1A8C2F2200105F007FFA9
:1038980048F27C50C2F2000000F088BAF0B503AFDD
:1038A8002DE9000FADF52F7D8B46044601F134005C
:1038B80038310BF1540200F04DFFDBF828010168A4
:1038C80041F001010160DBF82811086820F00200CE
:1038D80008600020C1F80801C1F81801C1F82801E2
:1038E8001891C1F83801DBF8C060306820F0010099
:1038F8003060306840F4004030603068000409D51A
:103908003068000444BF30685FEA004002D5306880
:103918000004F2D43F20B060306820F0010030602D
:10392800DBF8C450286820F001002860286840F4BB
:10393800004028602868000409D52868000444BFAE
:1039480028685FEA004002D528680004F2D43F20C6
:1039580040F26341A860286820F001002860DBF885
:103968000080DBF85C011790D8F8480040F00100AF
:10397800C8F84800D8F844000843C8F84400D8F804
:103988004400012161F38300C8F84400D8F84400DA
:1039980020F08000C8F84400D8F8480040F0200023
:1039A800C8F84800D8F8440040F44040C8F844003B
:1039B800D8F8440040F44470C8F84400D8F84800E7
:1039C80040F08000C8F84800D8F8580000070CD02C
:1039D800D8F8580000071CBFD8F858005FEA0070F4
:1039E80003D0D8F858000007EED1D8F8480040F2C4
:1039F800634140F02000C8F84800D8F8440020F49B
:103A08004040C8F84400D8F8440020F4447000F559
:103A18008870C8F84400DBF80490D9F8480040F0F2
:103A28000100C9F84800D9F844000843C9F844001F
:103A3800D9F84400012161F38300C9F84400D9F89A
:103A4800440020F08000C9F84400D9F8480040F04C
:103A58002000C9F84800D9F8440040F44040C9F8AB
:103A68004400D9F8440040F44470C9F84400D9F837
:103A7800480040F08000C9F84800D9F8580000070D
:103A88000CD0D9F8580000071CBFD9F858005FEAD5
:103A9800007003D0D9F858000007EED1D9F84800D3
:103AA80002220F2340F02000C9F84800D9F844004A
:103AB80020F44040C9F84400D9F8440020F4447088
:103AC80000F58870C9F84400DBF87C1119A802F0E9
:103AD8000DFFDBF868112BA84FF4805202F0CEFEE0
:103AE800DBF89C000990DBF8A4000890DBF8A8003C
:103AF8000590DBF8AC000490DBF884010390DBF858
:103B080090010290DBF89801DBE9171201902FA8C9
:103B180002F08DFFDBE90D10DBF830211690DBF8A1
:103B280054001590DBF880000B90DBF884000790B8
:103B3800DBF888000690DBF8E0001390DBF8E8007B
:103B48001290DBF8FC001190DBF814011090DBF800
:103B580004010E90DBF808010D90DBF80C010F90C2
:103B6800DBF81C0114910F210C904FF470400A925D
:103B7800A2F88C01A2F88E11DBF834A1AAF88C0106
:103B8800AAF88E11DBF838210092A2F88C01A2F86D
:103B98008E114FF40072DBF83CB1ABF88C01ABF836
:103BA8008E112FA905982062049860620398A0627C
:103BB8000298E062019820631898C4E90465C4E992
:103BC8000000C4E902000998A0610898E06104F5C2
:103BD8008E7006F06FFE17990BF16002009D01F1DF
:103BE8003400503105F5907305F1C006C4E9C710DB
:103BF80004F1B8010798C4F8B4000698C4E925632D
:103C08000AF1600381E801030BF1C0010BF5907024
:103C1800C4E929210AF1C002C4F8AC000AF5907180
:103C28000B98C4F8B00005F16000C4E91F320A9B84
:103C3800C4E9235003F59070C4E9211503F1C001CC
:103C480003F16002C4E91B1019A91498606316985F
:103C5800A0631598E0631398206412986064119823
:103C6800A06410980E9EE0640F9866650D9E20650E
:103C780004F1C400A6650C9EC4E919324822C4E9BF
:103C880027BBC4E91DAAC4E9176306F013FE2BABD2
:103C980004F5867C0FCB8CE80F000DF52F7DBDE871
:103CA800000FF0BDF0B503AF2DE9000F81B08046DD
:103CB8000C6805F046FAD8F800603168451AB5F185
:103CC800FF3F04DDE80F01B0BDE8000FF0BDD8F8F4
:103CD8000400D0F800B0DBF800000028F2D1D4E9E5
:103CE8000010096888470446DBF8000089463668F2
:103CF80000281EBFC168DBF8040088470020D8F8F8
:103D080008A0CBF810008BF80C00CBE90049CBF8E1
:103D1800086005F056FABFF35F8FDAF8001009B3B0
:103D28008B68DBF80820D31A1AD40B698BB39E680A
:103D3800961B26D4196931B38E68961B25D40B6956
:103D48003BB39E68961B1CD41969E1B18E68961B1B
:103D58001BD40B69EBB19E68961B1E46EAD516E08C
:103D6800CBF81010CAF800B005F036FAD8F80C00F5
:103D7800C0F800B005F0FDF9E80F01B0BDE8000F8C
:103D8800F0BD1E4603E0194603E00E461946CBF87F
:103D98001060C1F810B005F01FFAD8F80C00C0F890
:103DA80000B0E80F01B0BDE8000FF0BDF0B503AFFB
:103DB8002DE90007804605F0E4F902E06168504605
:103DC800884705F0FEF9BFF35F8F0546D8F8006015
:103DD8009EB3D6F8089005F0B4F9B168401AB0F16E
:103DE800FF3F4FF00000C8BF0120307317DD306976
:103DF800C8F80000D6E90010096888470446307BF7
:103E080005F001008A4605F0E7F9002CD6D105F047
:103E180098F9A0EB0900B0F1FF3FD2DC0AE005F009
:103E2800010005F0D9F905F08CF9A0EB0900B0F113
:103E3800FF3FC6DCBDE80007F0BD2846BDE8000727
:103E4800BDE8F04005F0C8B9007840F234420B46AE
:103E580040F6B401C2F22001C2F2200251F820104B
:103E680052F82020184605F0CABF084640F2CC6137
:103E7800C2F22001122205F0C2BFF0B503AF2DE94E
:103E8800000FBFB048F2341248F2681146F200043D
:103E9800C2F20002C2F20001C2F20004116041F253
:103EA80038116218BFF35F8F52E8001F41F00043DA
:103EB80042E80036002EF7D1B1F1FF3FBFF35F8F24
:103EC80040F3348245F230020126C2F2000202F5C4
:103ED800A061BFF35F8FD1E84F3FC1E8456F002D68
:103EE800F9D10390002BBFF35F8F40F02A823C92F8
:103EF80049F20002C4F20D023D913B92002241F2C8
:103F08003811C4F22E023A92214404F5865204F57F
:103F180080500DF1CC08399106214FF0000ACDE907
:103F28003410404638914FF00109CDE9361201218D
:103F38003394ADF8F8A002F092FEB8E87E000DF1D7
:103F4800100B0BF104007EC098E87E007EC0584636
:103F580001218DF84490CDF810A003F0B4FE9DF82F
:103F68004400012801D1049830E005F047F90646DD
:103F780005F037F90498F10728D1002840F03B8272
:103F88004FF0FF3033AE049000203390039804685C
:103F98000BF120003490304603F01DFE304603F04C
:103FA80060FE3046012103F068FE3046012103F02F
:103FB8002AFE3046214603F034FE304603F017FE51
:103FC80004980130049005F00EF925E0002840F02F
:103FD80012824FF0FF3033AE0490002033900398E4
:103FE80004680BF120003490304603F0F4FD3046AD
:103FF80003F037FE3046012103F03FFE3046012131
:1040080003F001FE3046214603F00BFE304603F074
:10401800EEFD04980130049048F200080420C2F232
:1040280000084FF0000C88F8050008F10C04C8F8E7
:1040380000C0BBE82D0021462DC1BBE86D006DC155
:104048009BE86D006DC14FF0FF300821C8F80800EB
:10405800012088F80400FF2003220290CDE9002106
:104068002046802100228023C8F844C004F026F8A6
:104078000E46D8F80810C00701F10101C8F8081069
:1040880040F06A81D8F80000002840F06C8198F868
:104098000490002909F1010088F8040040F04081EB
:1040A8004FF0FF304FF40071C8F8080000200222DA
:1040B8000290CDE90021204600210022002303F0D0
:1040C800FDFF8A46D8F80810C00701F10101C8F8B9
:1040D800081040F04E81002940F022814FF0FF3057
:1040E8004FF0000BC8F8080002204FF400758DE867
:1040F8002108204680210022802303F0DFFFD8F822
:104108000820C00702F10102C8F8082040F03481F5
:1041180048F23810002AC2F2000080F8261040F257
:10412800FF3180F82D9008F14409A0F80F104FF0E6
:104138000801818181804FF4FA51A0F82EB080F8EF
:104148002CB0A0F827508584C0F82090A0F81B5008
:1041580080F81AA00583C0F814908673C0F80890F8
:1041680080F806B0016040F0DB804FF0FF3040215E
:10417800C8F808000020CDE900010021029020467F
:104188000122002303F09AFF8A46D8F80810C007D6
:1041980001F10101C8F8081040F00181002940F040
:1041A800BF804FF0FF304021C8F808000020CDE95B
:1041B80000018021029020460122802303F07EFF27
:1041C8008B46D8F80810C00701F10101C8F808109B
:1041D80040F0EC80D8F80000002840F0FA804FF05A
:1041E800FF300029C8F8000040F0F980C8F808003E
:1041F800204603F0DEFFD8F808000130C8F80800B0
:10420800C0F0F3804FF0FF308021C8F80800BFF3FA
:104218005F8FC8F844400DF14808BFF35F8F08F17D
:10422800030006F0DCFA2046812103F09CFD2046BD
:10423800012103F098FD2046822103F094FD2046D9
:10424800022103F090FD2046832103F08CFD2046D7
:10425800032103F088FD2046842103F084FD2046D5
:10426800042103F080FD2046852103F07CFD2046D3
:10427800052103F078FD2046862103F074FD2046D1
:10428800062103F070FD2046872103F06CFD2046CF
:10429800072103F068FD48F248064020C2F20006F4
:1042A8000025B0834146308206F121008322A6F81A
:1042B8001F5086F81EB0C6F81890A6F8135086F856
:1042C80012A0C6F80C90358006F0F2FA4FF0806024
:1042D80040F2DE61C6E937403220C6F8D600022037
:1042E800C4F20000C2F22001C6F8D2001020A6F8DD
:1042F800D00045F62400C2F2DD7086F8E450C6F816
:10430800CC000920C6E92F10C6F8C450C6E92B55C1
:10431800C6F8B450C6F8A4503FB0BDE8000FF0BDD1
:1043280040F22850C2F2200005F0FFF840F2803039
:1043380040F20442C2F22000C2F220021F2105F01E
:1043480032F940F2544040F2B442C2F22000C2F2C4
:104358002002202105F027F940F22C608DF810602A
:10436800C2F220000EE040F26850C2F2200005F0D0
:10437800DCF88DF810A001E08DF8101040F21C60F8
:10438800C2F2200040F27853009040F20C6004AA78
:10439800C2F22000C2F220030F2105F0BDF940F25D
:1043A800FC508DF810A0C2F2200005E040F2EC505D
:1043B8008DF810B0C2F2200040F27853009040F21D
:1043C800144004AAC2F22000C2F22003202105F002
:1043D800A3F940F25850C2F2200005F0A6F840F2C6
:1043E8004850C2F2200005F0A0F840F23850C2F25E
:1043F800200005F09AF840F27030C2F2200005F073
:1044080094F8F0B503AF2DE9000F81B045F20C0127
:104418004FF0010CC2F20001BFF35F8FD1E84F2FBC
:10442800C1E843CF002BF9D1BFF35F8F002A01BF4A
:1044380048F20001C4F20D010022C4F22F0201BFAC
:1044480002F5542C02F5502E02F54C28A1F5004433
:1044580001BFA1F5003501F5F61601F5F413C0E921
:10446800683601BFC0E96A54C0E96C8EC0E96EC104
:1044780001F5005E01BF01F5805640F2040CC4F25C
:104488002E0C01F5021401BF0CF5FE7501F5004371
:1044980000F5C07888E8380001BF00F5C67383E8E6
:1044A8001210C0E9666EA1F5404C01BF01F5881EE7
:1044B80001F5861801F5841401F5821301BF01F591
:1044C800003602F51025C0E9585600F5B47501BF4D
:1044D80085E81A41C0F87CC1A1F5804C02F51C2E74
:1044E80001BF02F5182802F51424A1F5E03301F5FF
:1044F800282601BF01F5EE15C0E9505600F5A47550
:1045080085E8184101BFC0E9562C02F5782802F564
:10451800742902F5702401BF02F56C234CF2000CDB
:10452800C4F2070C0CF5004601BF01F5E03E01F5A9
:104538008E15C0E9485EC0E94A6101BF00F598756B
:1045480085E81802C0F83C8101F5482801BF01F54B
:10455800442901F5402A01F53C2B01F5382301BF18
:1045680001F5342401F5302501F52C26C0E9406514
:1045780001BFC0E94243C0E944BAC0E9469802F520
:10458800302801BF02F52C2902F5282A02F5242B30
:1045980002F5861301BF02F5841402F5821502F5AF
:1045A8008016C0E9386501BFC0E93A43C0E93CBAA2
:1045B800C0E93E9801F5F01801BF01F59219A1F57F
:1045C800503AA1F5403BA1F5303301BF01F59014F5
:1045D80001F58C1501F58A16C0E9306501BFC0E9FF
:1045E8003243C0E934BAC0E9369844F2000B01BF3F
:1045F800C4F2002B0BF500490BF5804A4FF08448B4
:1046080001BF01F56C2601F5682401F56425A1F5C3
:10461800C03301BFC0E9283500F1A80383E8500979
:10462800C0E92EA901BF01F5602801F5E61901F5D9
:10463800E81AA1F5203601BF0BF5E03301F558243F
:1046480001F55425C0E9205401BF00F1880484E82D
:104658004804C0E9259EC0F89C8001BFA1F5103E22
:1046680001F5FE1801F5001902F5642A01BF02F5EB
:10467800602302F55C2602F5582501F5A03401BF38
:1046880000F1600B8BE87000C0E91B3AC0E91D9887
:1046980001BFC0F87CE001F5803E02F540480CF50A
:1046A800804901BF01F5804A01F5F21344F208067A
:1046B800C4F2090601BF06F1100506F10804C0E9B5
:1046C8001064C0E9125301BFC0E914A9C0E9168EED
:1046D8000CF5C03E01F5103801BF01F5801901F550
:1046E8007C2401F5782302F57C2601BF02F54825D4
:1046F800C0E9085600F1280585E8180201BFC0E99D
:104708000D81C0F83CE002F5442E02F50C2601BFED
:1047180001F5D21501F5242402F54022A1F58033D4
:1047280001BFA1F5A031C0E90013C0E9022C103087
:1047380001BF80E8704001B0BDE8000FF0BD40F255
:10474800E76040F28072C2F22000C2F220023521F6
:1047580004F0B0FFF0B503AF4DF804BD0E460021DC
:104768001546044602F05CF9284640F2E24102F0A0
:1047780058F8304602F01DF840F294452146C2F23E
:10478800200500222846366802F039F8A81C214680
:10479800002202F034F8281D2146002202F02FF8EA
:1047A800A81D2146002202F02AF805F1080021463A
:1047B800002202F024F805F10A002146002202F046
:1047C8001EF805F10C002146002202F018F805F148
:1047D8000E002146002202F012F805F110002146D1
:1047E800002202F00CF805F112002146002202F026
:1047F80006F805F114002146002202F000F805F140
:1048080016002146002201F0FAFF05F118002146A2
:10481800002201F0F4FF05F11A002146002201F000
:10482800EEFF05F11C002146002201F0E8FF05F12A
:104838001E002146002201F0E2FF2068416989013B
:1048480007D5416921F000714161204602F0D9F88D
:1048580020684169012221F0605141612068816925
:1048680062F30D318161204602F0CBF8206841697E
:1048780041F000714161204602F0C3F84FF48050C6
:104888003060642030604FF4005070603068002859
:1048980009D4306800285CBF3068002803D4306829
:1048A800B0F1FF3FF2DC20680122016962F30201E6
:1048B8000161204602F0A5F82068416921F4E05121
:1048C8004161204602F09DF82068816941F4402149
:1048D80081612068416921F000714161204602F040
:1048E80090F8206840F29C75C2F2200500224169C8
:1048F80041F4407141612846214601F080FFA81C1F
:104908002146002201F07BFF281D2146002201F0EC
:1049180076FFA81D2146002201F071FF20680226BB
:1049280040F2AC750022C2F22005816B66F3D841D3
:1049380081632068816B41F4802181632846214688
:1049480001F05DFFA81C2146002201F058FF281D38
:104958002146002201F053FFA81D2146002201F044
:104968004EFF206840F290750322C2F2200581694B
:1049780066F3051181612068816962F39C61816138
:1049880028462146002201F03AFFA81C21460022B1
:1049980001F035FF281D2146002201F030FFA81D37
:1049A8002146002201F02BFF05F1080021460022D4
:1049B80001F025FF2068172240F28065C2F2200529
:1049C800C16962F30501C16120680022C16941F033
:1049D8004001C1612846214601F011FFA81C21466B
:1049E800002201F00CFF281D2146002201F007FFDC
:1049F800A81D2146002201F002FF05F1080021460A
:104A0800002201F0FCFE05F10A002146002201F017
:104A1800F6FE05F10C002146002201F0F0FE05F13A
:104A28000E002146002201F0EAFE206840F2B4752B
:104A3800C2F220050322416A41F040014162206828
:104A4800416A66F3050141622846214601F0D7FE16
:104A5800A81C2146032201F0D2FE281D214603226C
:104A680001F0CDFEA81D2146032201F0C8FE05F184
:104A780008002146032201F0C2FE05F10A00214682
:104A8800032201F0BCFE05F10C002146032201F0CF
:104A9800B6FE05F10E002146032201F0B0FE05F135
:104AA80010002146032201F0AAFE05F1120021465A
:104AB800032201F0A4FE05F114002146032201F0AF
:104AC8009EFE05F116002146032201F098FE05F12D
:104AD80018002146032201F092FE05F11A00214632
:104AE800032201F08CFE05F11C002146032201F08F
:104AF80086FE05F11E002146032201F080FE05F125
:104B080020002146032201F07AFE05F12200214609
:104B1800032201F074FE05F124002146032201F06E
:104B28006EFE05F126002146032201F068FE05F11C
:104B380028002146032201F062FE05F12A002146E1
:104B4800032201F05CFE05F12C002146032201F04E
:104B580056FE05F12E002146032201F050FE05F114
:104B680030002146032201F04AFE05F132002146B9
:104B7800032201F044FE05F134002146032201F02E
:104B88003EFE05F136002146032201F038FE05F10C
:104B980038002146032201F032FE05F13A00214691
:104BA800032201F02CFE05F13C00214603225DF8AA
:104BB80004BBBDE8F04001F022BE80B56F464EF25E
:104BC8000C1C4FF4003ECEF2000C44F2BC22CCF890
:104BD80080E0C2F20002BFF35F8FD0E90031806845
:104BE800C2E900319060BFF35F8FCCF800E1CCF8E8
:104BF80000E080BDF0B503AF4DF804BD86B045F2C6
:104C08001006C2F20006306830B106B05DF804BB89
:104C1800BDE8F04001F0C8B944F2BC20C2F200007F
:104C28000068062829D14FF47A600122039048F2DF
:104C38006810C2F20000BFF35F8F00F21240D0E8A4
:104C48004F1FC0E8432F002BF9D10029BFF35F8F16
:104C58004BD148F268144FF48061C2F20004204638
:104C680005F040FC04F0ADFA0546204600F02FFDA3
:104C780003A8FFF702F928462CE04FF47A600122D6
:104C8800029048F26810C2F20000BFF35F8F00F292
:104C98001240D0E84F1FC0E8432F002BF9D1BFF3D3
:104CA8005F8FA1BB48F268154FF48061C2F200051E
:104CB800284605F017FC04F084FA44F2BC210446A7
:104CC800C2F20001284600F0D7FDE8B902A8FFF7B4
:104CD800D4F8204604F080FA43F6F940C0F2000008
:104CE800306006B05DF804BBF0BD49F20000C4F2C4
:104CF8000D0005900020C4F22E00CDE9030040F617
:104D0800A400C2F2200010E0204604F065FA49F23F
:104D18000000C4F20D0005900020C4F22E00CDE979
:104D2800030040F69400C2F2200040F2F4730090B1
:104D380040F6040003AAC2F22000C2F220032B218D
:104D480004F0EAFCFEE7D0B502AF84B0018806297A
:104D580011D181690968BFF35F8F79B10023827F20
:104D6800009302AB04461846012303F083FA082097
:104D7800208004B0D0BD072004B0D0BD40F670102C
:104D880040F6F812C2F22000C2F22002222104F0FA
:104D980091FCF0B503AF4DF804BD86B00446088811
:104DA8000D46411E032927D3052825D0072832D1CF
:104DB800D5F8AC00D5F8063069898028D5F80220E6
:104DC800ADF80C10CDE901236BD8E9680968BFF389
:104DD8005F8F00295AD0C0F18003AA7C2844009331
:104DE80000F1240304A803F03EFB9DF81000C0B3B3
:104DF8009DF81100D8B92EE0E8680168BFF35F8F0D
:104E0800002943D0AA7C04A800260123009603F0B9
:104E18002AFB2E801FE0E8680168BFF35F8FA9B303
:104E28000020AA7C009004A8012303F01CFBE8687A
:104E3800092129800068BFF35F8F38B3A97C01225C
:104E480003F00AFCA8690068BFF35F8FF0B1A97F7F
:104E5800012203F001FC0420607206B05DF804BB77
:104E6800F0BD0598D5E92B120844C5F8AC0090426E
:104E7800F1D3DDE901010623BDF80C202B80206069
:104E88006160228106B05DF804BBF0BD40F6701089
:104E980040F6F812C2F22000C2F22002222104F0E9
:104EA80009FC40F640128021C2F2200204F0B1FF52
:104EB800F0B503AF2DE9000F85B00446C8680D466C
:104EC8000168BFF35F8F002900F08B8005F124068D
:104ED8008020AA7C009002A8334603F0C4FA9DF80B
:104EE800080018B19DF8090060B921E0039A812AE9
:104EF80080F0828002A8314603F007FD9DF811007A
:104F080004281BD1E868092129800068BFF35F8F56
:104F1800002866D0A97C012203F09EFBA8690068DE
:104F2800BFF35F8F00285CD0A97F012203F094FBB8
:104F38000420607205B0BDE8000FF0BDE868BDF858
:104F480010A09DF80F609DF80E90BDF80CB0DDF82C
:104F580008800068BFF35F8F002842D0A97C002238
:104F680003F07AFBBEB10420A5F80AA06E7285F89A
:104F78000890A5F806B0C5F802802880A4F808A013
:104F8800E67184F80690A4F804B0C4F8008005B06F
:104F9800BDE8000FF0BDBBF1000F11D0BBF1800FD1
:104FA800B0D80020A5F80AA0C5E92B0B6872072025
:104FB80085F80890A5F806B0C5F802802880B7E7FC
:104FC8000620A4F808A028800020C5F8B000E071E9
:104FD80084F80690A080C4F8008005B0BDE8000FF2
:104FE800F0BD40F6701040F6F812C2F22000C2F28E
:104FF8002002222104F05EFB40F650131046C2F254
:10500800200380211A4604F023FFB0B502AF84B014
:105018000446D0E92951D0F8AC00D4F8B0C0002D2E
:10502800A38BAE46ACEB000208BF04F1240E9A42F3
:1050380038BF1346002D03EB000C08BF80219C45A8
:1050480023D38C4528D8A1690968BFF35F8F51B372
:10505800A27F00930EEB000302A803F00BF99DF862
:10506800080080B90398D4E92B120144C4F8AC10A5
:10507800914208D30021A28BC4F8A41003219042C6
:1050880008BF0221218004B0B0BD40F6601261461D
:10509800C2F2200204F0FBFE40F660126046C2F243
:1050A800200204F0D5FE40F6701040F6F812C2F265
:1050B8002000C2F22002222104F0FCFAB0B502AFAF
:1050C80084B001880139072939D8DFE801F0041CC8
:1050D8000A3838383832FFF798FF0024204604B0E1
:1050E800B0BDC1680A68BFF35F8F002A41D0817CD8
:1050F800054610460022002403F0AEFA0520288059
:10510800204604B0B0BD81690968BFF35F8F81B3E1
:10511800827F054602A800240123009403F0AAF820
:105128009DF80800002804BF03202880204604B00A
:10513800B0BD002101240180204604B0B0BDC16883
:10514800092202800A68BFF35F8F92B1817C04460E
:105158001046012203F080FAA0690068BFF35F8F50
:1051680038B1A17F012203F077FA0024204604B069
:10517800B0BD40F6701040F6F812C2F22000C2F23C
:105188002002222104F096FAB0B502AF8AB0044694
:105198000088042833D1002080210790A7F10A0253
:1051A8008DF8200002230390019040F209400691F7
:1051B80004F1240127F80A0C01A805910321E588C8
:1051C80003F0C1FBC0B2082817D10798802819D965
:1051D800E068092121800068BFF35F8F08B3A17CD4
:1051E800012203F039FAA0690068BFF35F8FC0B1EC
:1051F800A17F012203F030FA02200AB0B0BD0720D7
:105208000AB0B0BD85424FF0000138BF2846C4E956
:105218002B10012020802046FFF7F7FE08200AB057
:10522800B0BD40F6701040F6F812C2F22000C2F28B
:105238002002222104F03EFAB0B502AF88B004463D
:10524800008804282DD1D1E900120020802306907F
:105258008DF81C00029000906846059304F1240321
:10526800E588049303F0AAFDC0B2082817D1069870
:10527800802819D9E068092121800068BFF35F8F71
:1052880008B3A17C012203F0E7F9A0690068BFF325
:105298005F8FC0B1A17F012203F0DEF9022008B0C0
:1052A800B0BD072008B0B0BD85424FF0000138BF3F
:1052B8002846C4E92B10012020802046FFF7A5FED0
:1052C800082008B0B0BD40F6701040F6F812C2F2DF
:1052D8002000C2F22002222104F0ECF9F0B503AF5D
:1052E8002DE9000788B004460088042848D1D1E990
:1052F800000680228D680021059204F1240206919F
:1053080004928DF81C100291009101686846B4F867
:10531800068003F0FFFBC0B208282DD18DB106EB43
:10532800C505E9464FF0000AD6E90001CA684946B2
:105338009047C1B208291FD10836CDF808A0AE425F
:10534800F2D1684603F04AFC069880281DD9E06827
:10535800092121800068BFF35F8F38B3A17C012247
:1053680003F07AF9A0690068BFF35F8FF0B1A17FFD
:10537800012203F071F9022008B0BDE80007F0BD72
:10538800072008B0BDE80007F0BD80454FF00001D8
:1053980038BF4046C4E92B10012020802046FFF783
:1053A80034FE082008B0BDE80007F0BD40F67010D4
:1053B80040F6F812C2F22000C2F22002222104F0C4
:1053C80079F9B0B502AF88B00446008804282CD11A
:1053D80009680020802206908DF81C000290009039
:1053E8006846059204F12402E588049203F0F9FA6C
:1053F800C0B2082817D10698802819D9E068092171
:1054080021800068BFF35F8F08B3A17C012203F0FD
:1054180023F9A0690068BFF35F8FC0B1A17F0122A3
:1054280003F01AF9022008B0B0BD072008B0B0BDDB
:1054380085424FF0000138BF2846C4E92B100120EF
:1054480020802046FFF7E1FD082008B0B0BD40F6F7
:10545800701040F6F812C2F22000C2F22002222197
:1054680004F028F9F0B503AF2DE9000B8CB00C4619
:105478000188042926D1B0F806908046243005908A
:1054880001A80B9009A800211546802207910692D1
:105498008DF8201003910191099103F048FDC0B2E5
:1054A80008280BD1EE0009AD8EB1F4E802010A69B3
:1054B80029469047083EC1B20829F5D00CB0BDE88E
:1054C800000BF0BD07200CB0BDE8000BF0BD09A82B
:1054D80003F0FEFD079980291DD9D8F80C00092290
:1054E800A8F800200068BFF35F8F30B398F8121057
:1054F800012203F0B1F8D8F818000068BFF35F8FF5
:10550800D8B198F81E10012203F0A6F802200CB0BA
:10551800BDE8000BF0BD894540464FF0000238BF9A
:105528004946C0E92B210121A8F80010FFF76DFDBD
:1055380008200CB0BDE8000BF0BD40F6701040F636
:10554800F812C2F22000C2F22002222104F0B2F8BE
:105558000288042A1CBF07207047F0B503AF4DF836
:1055680004BD4C68802C03D902205DF804BBF0BD53
:10557800096800F12402C68805461046224605F04F
:1055880097F90020A64238BF3446C5E92B0401200C
:1055980028802846FFF739FD08205DF804BBF0BDD8
:1055A800D0B502AF0446C068092121800068BFF366
:1055B8005F8F78B1A17C012203F04EF8A0690068E2
:1055C800BFF35F8F00281FBFA17F0122BDE8D04035
:1055D80003F042B840F6701040F6F812C2F220000C
:1055E800C2F22002222104F065F8006804F0B9B87C
:1055F8000A46D0E9000104F006BCF0B503AF4DF847
:1056080004BD82B000228029019201D2012431E038
:10561800B1F5006F09D202240A4664F39F128DF88F
:105628000520C02242EA911124E002220B4662F3CF
:105638009F13B1F5803F0DD28DF806308B0962F3C8
:105648009F13E02242EA11318DF805308DF80410DD
:10565800032411E08DF807308B0962F39F138DF84E
:1056680006300B0B042462F39F13F02242EA9141A7
:105678008DF805308DF80410066803F0A2FD054684
:10568800B068B8B94FF0FF3006F10C02B06001A85D
:10569800214600F0A3FF0446B0680130B0602846F8
:1056A80003F09AFDE0B2033818BF012002B05DF89C
:1056B80004BBF0BD40F6B420C2F2200003F035FF71
:1056C8000A4640F60821C2F2200104F04FB845F21C
:1056D8002401C2F2000188600120BFF35F8F0870C7
:1056E8007047F0B503AF2DE9000B48F29052D1F89E
:1056F8000080C2F200021268904503D90020BDE87C
:10570800000BF0BD4268F2B10068D1E90195061DB1
:1057180002EB4200840003E00C3C06F10C06EDD0DD
:105728003068A842F8D156F8040C49462A4605F0D4
:105738001CF80028F0D171680020884598BF012026
:10574800BDE8000BF0BD0120BDE8000BF0BDF0B5D1
:1057580003AF2DE9000F91B0804648F29050C2F295
:105768000000D1F82090006881451ED8D8F80400C0
:105778008A46F0B1D8F8001000EB4000DAE909B623
:105788000C1D850003E00C3D04F10C040DD02068CD
:10579800B042F8D154F8040C5946324604F0E5FFFB
:1057A8000028F0D16068814505D911B0BDE8000F27
:1057B800F0BDDAE909B6002040F60821059004207A
:1057C800029040F62820C2F2200001AA019003208E
:1057D800049007A8039043F23B30C0F20000C2F2E5
:1057E80020010C9010A80B9043F24130C0F2000049
:1057F800CDF800800A900EA8099047F2D900C0F2AF
:105808000000CDF8349008900DA807900AF12C00FC
:1058180010906846CDE90EB603F0A8FF11B0BDE8B8
:10582800000FF0BD7047F0B503AF4DF8048D154675
:105838000E46046803F0C5FC8046A068B0B94FF076
:10584800FF3004F10C02A0603046294600F0C6FE85
:105858000546A0680130A060404603F0BDFCE8B2F0
:10586800033818BF01205DF8048BF0BD40F6B42062
:10587800C2F2200003F059FED0B502AF45F214027F
:105888000C46D1E90113C2F200024FF0000CD060BF
:1058980082E80A1040F6C421C2F22001104603F043
:1058A80085FD002801BF216848F29052C2F200022B
:1058B8001160D0BD002070477047082070477047BE
:1058C800F0B503AF4DF804BD84B00D460646D0E9E7
:1058D800000148F248044B6AC2F2000421462A46F5
:1058E8009847208840F0020106291CD1697AF1B155
:1058F800218841F00200062815D1E068092121809D
:105908000068BFF35F8F002873D0A17C012202F0EA
:10591800A3FEA0690068BFF35F8F002869D0A17F4C
:10592800012202F099FE04B05DF804BBF0BD2A7AAA
:10593800A9791AB3012A10D0022A08BF0029D7D1A1
:105948006988D4F8DC0001F08F0102F0F4FE2188A8
:105958000429CED1A084002027E011B30A2908BF6A
:105968000428C5D1E1880020012284F8240022807F
:10597800002918BF0121C4E92B011EE039B306290B
:105988001FD00829B4D194F8E20001210391A7F1AE
:105998001A0102380291B0FA80F0400907F81A0C8F
:1059A80022E00428A4D10020A084E28801212180DB
:1059B800022A28BF0222C4E92B022046FFF725FB52
:1059C80096E76A883046298800F0D4F890E794F87A
:1059D800E000022294F8E1100392A7F11A0260F3A2
:1059E8004101029227F81A1C02A92046FFF7B0FDD0
:1059F8007EE740F6701040F6F812C2F22000C2F2BC
:105A08002002222103F056FEB0B502AF84B048F25E
:105A180048040B6AC2F200041546214698472288BA
:105A280042F0020006282AD1697A51B3228842F04E
:105A38000200062823D1E068092121800068BFF30D
:105A48005F8F88B1A17C012202F006FEA069006880
:105A5800BFF35F8F00281FBFA17F012204B0BDE8FC
:105A6800B04018BF02F0F8BD40F6701040F6F812CA
:105A7800C2F22000C2F22002222103F01BFE04B071
:105A8800B0BD2B7A95F806C029885BB3012B12D0DC
:105A9800022BCED1BCF1010F35D0BCF1030F08BFEA
:105AA8000029C6D169880122D4F8DC0001F08F01F1
:105AB80002F0D2FD50E0BCF10B0F08BF0029B8D1AD
:105AC800062AB3D1A0690168BFF35F8F0029CBD044
:105AD800A27F0020009002A8012302F0CBFB08203F
:105AE8002080A3E7ACF10103082BA2D8DFE803F07C
:105AF800060521051705050528009AE701297FF401
:105B080098AF002019E000297FF493AF698800223C
:105B1800D4F8DC0001F08F0102F09EFD1CE04A1E63
:105B280092B27F2ABFF485AFD4F8DC0002F0FDFA08
:105B38000FE001297FF47DAF012084F8E0000BE03D
:105B480021B101297FF475AF022003E094F8E21037
:105B580031B1012084F8E2002046FFF7F4F865E748
:105B680006287FF464AF48F24800C2F20000FFF74D
:105B780017FD5BE7F0B503AF4DF804BD84B048F2FC
:105B880048068CB2C2F2000606F1B4034FF0FF35A6
:105B980005EB14240E2C009300F26880DFE804F073
:105BA8000827136666666666666666666666370012
:105BB80048F248006946C2F20000FFF702FC04B050
:105BC8005DF804BBF0BDCCB2032C3DD806F1B8019A
:105BD800DFE804F0022F2B3248F24800C2F200003E
:105BE80004B05DF804BBBDE8F040FFF7CDBA012171
:105BF800CDE902016846019048F2480001A9C2F2C5
:105C08000000FFF76BFB04B05DF804BBF0BD48F281
:105C180048020146C2F200021046012204B05DF8B3
:105C280004BBBDE8F040FFF71DBC06F1C00106F15A
:105C3800BC03186830B919E006F1C80106F1C403BD
:105C4800186898B1096804E0D0E900035B699847CF
:105C580060B1CDE9010148F2480001A9C2F2000093
:105C6800FFF7EAFA04B05DF804BBF0BD308840F0F5
:105C780002000628A3D1F068092131800068BFF32B
:105C88005F8F98B1B17C012202F0E6FCB069006830
:105C9800BFF35F8F00281FBFB17F012204B05DF8FA
:105CA80004BB1CBFBDE8F04002F0D6BC40F6701043
:105CB80040F6F812C2F22000C2F22002222103F0BC
:105CC800F9FCD0B502AF537A012B07D1137A012B17
:105CD80002BF90F82C3054889C4200D0D0BD9379F4
:105CE800212B04BF9288072A28D0088840F0020098
:105CF8000628F3D1C86809220A800068BFF35F8FBD
:105D080088B18A7C0C461146012202F0A5FCA069E4
:105D18000068BFF35F8F00281FBFA17F0122BDE885
:105D2800D04002F099BC40F6701040F6F812C2F26A
:105D38002000C2F22002222103F0BCFC0A88042AB7
:105D480018BFD0BDCA88002390F804C0012490F879
:105D580005E0072AC1F8AC30837900684862084634
:105D68000C8081F8283081F829E081F82AC028BF02
:105D78000722C1F8B020BDE8D040FFF746B9D0B53A
:105D880002AF84B0537A012B07D1137A012B02BFDB
:105D980090F82C3054889C4201D004B0D0BD93793F
:105DA800002B5BD0202B0ED0222B2CD112780B8805
:105DB80002F0010480F82E40062BC2F3400280F85E
:105DC8002F20EAD14DE0D1F8B030812B5CD2062BE0
:105DD80019D991F8282091F8294091F82AE0032A46
:105DE8004B6AB1F800C003604FF0000380F804E08C
:105DF80028BF1A46052C827138BF2346BCF1060F0E
:105E08004371CAD12DE0088840F002000628C4D1A9
:105E1800C86809220A800068BFF35F8F98B18A7C3E
:105E28000C461146012202F017FCA0690068BFF376
:105E38005F8F00281FBFA17F012204B0BDE8D040BA
:105E480018BF02F009BC40F6701040F6F812C2F212
:105E58002000C2F22002222103F02CFC0888062828
:105E68009BD188690368BFF35F8F002BEBD08A7FD3
:105E78000020009002A80C461946012302F0FAF906
:105E88000820208004B0D0BD40F6D8321846C2F2AF
:105E98002002802103F0DCFFF0B503AF4DF8048D3C
:105EA80084B090F82C60804600250220CDE90005DA
:105EB8000C46084631460222022302F09FFEC0B279
:105EC800082864D12046314602220223009502F0B8
:105ED800ECFEC0B208285AD140F6E8322046C2F299
:105EE80020022421032302F02EFDC0B208284ED13F
:105EF80040F6EB322046C2F220022421022302F0AF
:105F080022FDC0B2082842D10620A7F1160207F8E0
:105F1800156C242198F82D60032307F8160C2046E9
:105F280007F8146C02F00FFDC0B208282FD1012029
:105F3800A7F1130227F8130C20462421032307F89E
:105F4800116C02F000FDC0B2082820D108F1080148
:105F5800204600F0DAFAC0B2082818D100203146ED
:105F6800009020460A22002302F09FFEC0B20828B3
:105F78000DD108F12001204600F0C7FAC0B2082868
:105F880005D108F11401204600F0BFFAC0B204B0F0
:105F98005DF8048BF0BD0021C185817108218180E5
:105FA8004FF4FA5101607047F0B503AF2DE9000FC7
:105FB80089B040F6F03048F2480A48F23016C2F28A
:105FC8002000C2F2000A0390C2F2000606F108009F
:105FD800DAF8DC10029004A802F0EFFB9AF8E2105D
:105FE800BDF81000032910D100284FF0000418BF95
:105FF800032800F0A6809AF8E310042900F06181D4
:1060080004228AF8E2108AF8E320DFE800F020038F
:10601800221B2000DAF8DC0002F0FCF800204FF424
:1060280080618AF8E40000248AF8E000AAF80000F9
:10603800F086B0730820B0814FF4FA50AAF8E21045
:10604800B0607EE003208AF8E3108AF8E2000024BA
:1060580077E0BDF81290BDF814B0BDF816604BEAB1
:10606800090040EA0605E8073DD05FEACB7005D095
:1060780048F24800C2F20000FFF720F8F0070AD102
:106088005FEAC97013D104208DF821009DF8210022
:10609800042817D125E048F2480106A8C2F20001F9
:1060A800FEF706FF9DF8210004280BD119E048F2FD
:1060B800480106A8C2F20001FEF76BFE9DF8210018
:1060C80004280ED09DF81F00002800F0E4808028E6
:1060D80007D102A806A9FFF7F3FB25F001051DB9B2
:1060E80026E025F001051DB34FF00208012418EA47
:1060F800060F01D0282103E018EA090F05D02C214A
:10610800DDE9020252582146904718EA0B0F05D0E4
:10611800DDE902010A6B64F07F01904725EA080572
:10612800280405D0601C0F2C4FEA48080446DED12D
:10613800DDE90201C969884748F230160124C2F234
:1061480000060021DAF8DC00069106A900F0C4F880
:106158009AF8E2203178022A34D179B9DAF8DC10D9
:106168000546084601F07AFF0021DAF8DC000691BE
:1061780006A900F075F9284601213170F16909680E
:10618800BFF35F8F002900F091800443002096F848
:1061980022200123009006A8012502F064F96CB1C1
:1061A8007068BFF35F8F00F58264D4E84F1FC4E8BE
:1061B800425F002AF9D1BFF35F8F89B109B0BDE80A
:1061C800000FF0BD31B10021DAF8DC00069106A914
:1061D80000F0FFF80020307009B0BDE8000FF0BDF6
:1061E800D0F80014BFF35F8FD0F80824BFF35F8F97
:1061F800D0F8043400F20445BFF35F8F934205D111
:1062080099423EBFBFF35F8F00232B60994228BF9E
:106218000A469A4237D0B16A0968BFF35F8F0029EE
:1062280044D0A2EB030896F82E20034406A846465D
:10623800B8F5007F28BF4FF40076009602F01AF8F0
:106248009DF8180068B12078BFF35F8F0028B5D09B
:10625800BFF35F8F55E8000F45E800010029F9D129
:1062680011E007982178BFF35F8F0029A6D08045F9
:1062780038BF4046BFF35F8F55E8001F014445E82B
:106288000012002AF8D10020BFF35F8F207009B0F8
:10629800BDE8000FF0BDDDE9020106AAFFF7B4FB77
:1062A80025F00105002D7FF41FAF41E740F670107F
:1062B80040F6F812C2F22000C2F22002222103F0B6
:1062C800F9F940F6DC2040F65C32C2F22000C2F256
:1062D80020021C2103F067F9F0B503AF4DF804BDA7
:1062E80082B0044690F83400012819D120680028AB
:1062F80069D14FF0FF30224642F8200B6846096802
:10630800CDE9001201F09FFC002841D06D462846D7
:1063180001F0A7FC284601F096FC0028F7D135E0EB
:106328000E6802F06BFF054602F05BFF2068E90784
:1063380017D1002847D14FF0FF30214641F8200BF4
:106348006846CDE9006101F07EFC68B36D462846D9
:1063580001F087FC284601F076FC0028F7D10125DA
:1063680027E080BB4FF0FF30214641F8200B6846FC
:10637800CDE9006101F067FC50B16D46284601F097
:1063880070FC284601F05FFC0028F7D1012004E0EA
:10639800684601F016FC80F0010021680131216097
:1063A80002B05DF804BBF0BD684601F00AFC80F05D
:1063B800010520680130206002F015FF284602B070
:1063C8005DF804BBF0BD40F68840C2F2200003F03F
:1063D800ACF8F0B503AF4DF804BD82B0044690F8B0
:1063E8003400012807D12068A0BB4FF0FF300968AE
:1063F8002060009121E00E6802F000FF054602F0DF
:10640800F0FE2068E90713D120BB4FF0FF3000965B
:10641800206004F120000190684601F0DCFB206850
:106428000130206002F0DFFE02B05DF804BBF0BD71
:1064380080B94FF0FF300096206004F120000190F1
:10644800684601F0C8FB20680130206002B05DF8A2
:1064580004BBF0BD40F68840C2F2200003F065F8A6
:10646800F0B503AF4DF804BD82B0044690F834008F
:1064780001280BD12068002841D14FF0FF30224677
:1064880042F8200B0968CDE9001229E00E6802F0F5
:10649800B5FE054602F0A5FE2068E90718D170BBD5
:1064A8004FF0FF30214641F8200B6846CDE90061E6
:1064B80001F0FBFB00281CBF684601F076FB206852
:1064C8000130206002F08FFE02B05DF804BBF0BD21
:1064D800A8B94FF0FF30214641F8200BCDE9006103
:1064E800684601F0E2FB00281CBF684601F05DFB2E
:1064F80020680130206002B05DF804BBF0BD40F6B2
:106508008840C2F2200003F010F8F0B503AF4DF850
:1065180004BD8268012A2FD10D46C36841698B42A8
:1065280046D20269D0F818C0D45C0134D4540CF1B6
:1065380002038B421CD80CF58074A142A64638BFD2
:106548008E469C423BD3AEEB0304052C10D3AC79AA
:1065580095F807E02E7AAD88D45413440CF107045B
:106568005E702E0A8C429D7083F804E0DE7007D9B5
:1065780002205DF804BBF0BD07205DF804BBF0BD48
:106588008C4524D2072302F80C300CF101038B420E
:106598003FBF0521D154846108203CBF5DF804BB8E
:1065A800F0BD40F620521846C2F2200203F096F8D9
:1065B80040F630521846C2F2200203F08FF840F637
:1065C80000521846C2F22002714603F060FC40F601
:1065D80010526046C2F2200203F080F8F0B503AF13
:1065E8002DE9000F81B0D2F8008004460122BFF3E4
:1065F8005F8F08F21146D6E84F0FC6E8432F002BED
:10660800F9D1BFF35F8F20B1012001B0BDE8000FC1
:10661800F0BDD8F80004BFF35F8FD8F80424BFF3A7
:106628005F8F904204D2C34312EB030A0BD177E089
:10663800B0F5806F05D1012A72D9A2F1010A0020B4
:1066480001E0C0F5806A89468A4538BFD1468B4645
:1066580009EB00014044BFF35F8FC8F80C142146D2
:106668004A4604F025F998F8110408F20C45BFF3DE
:106678005F8F58B3D8F80004BFF35F8FBFF35F8F05
:1066880055E8001F45E80012002AF9D1BFF35F8FD3
:10669800B0F5806FD8F80824BFF35F8FD8F80C14D2
:1066A800BFF35F8F01D0814203D3914205D94FF4E4
:1066B8008060BFF35F8FC8F80804BFF35F8FC8F826
:1066C80000140020BFF35F8F88F81104DA456BD2FD
:1066D80004EB0901ABEB09020123BFF35F8FD6E896
:1066E8004F0FC6E8443F002CF9D10028BFF35F8F55
:1066F8007FF48AAFD8F80004BFF35F8FD8F804346A
:10670800BFF35F8F984203D2C4431B1913D107E02C
:10671800B0F5806F0DD1012B02D9013B00200AE0B2
:1067280000200021BFF35F8F317001B0BDE8000F7A
:10673800F0BDC0F58063934238BF1A461318404431
:10674800BFF35F8FC8F80C3404F0B2F898F811045E
:10675800BFF35F8F40B3D8F80004BFF35F8FBFF378
:106768005F8F55E8001F45E80012002AF9D1BFF3F2
:106778005F8FB0F5806FD8F80824BFF35F8FD8F823
:106788000C14BFF35F8F01D0814203D3914205D926
:106798004FF48060BFF35F8FC8F808040320BFF38D
:1067A8005F8FC8F80014BCE7032001B0BDE8000FF4
:1067B800F0BD80B56F4600684FF400514FF4805229
:1067C8004FF0400C4FF4803E00E0416103699B04A8
:1067D800FBD50369DB0401D44261F7E70369B3F130
:1067E800FF3FF3DC0369DB0306D403695B0648BF9C
:1067F80080BDC0F814C0E9E7C0F818E0E6E7037800
:106808004078096801EB83014000C0B20323D1F846
:1068180068C0834002FA00F02CEA03031843886634
:10682800704740F22762914238BF0A46B2F5487F66
:1068380098BF4FF44872A2F5487144F2AF730068EC
:106848008AB25A43C368A1EB124189B2490801EBE5
:10685800124123F01F0242EA1111C16004E00168ED
:10686800B1F1FF3FD8BF70470168002905D401681E
:1068780000295CBF01680029F1D57047F0B503AF66
:106888002DE9000B44F2E043C4F21F031B68C3F375
:106898000B2E4FEA135CE6451FBF0124C1F888415F
:1068A800DBB24FF47A781FBF03FB08F9ACEB0E0498
:1068B800D1F8906149F658651FBFCFF6FF7513FBF5
:1068C800085393FBF4F3C2EA06021FBFC1F89021F4
:1068D80080E80A40C0F80C90BDE8000B18BFF0BD76
:1068E80040F6B450C2F2200003F055FDB0B502AF37
:1068F800054608680C4640F480300860086840F097
:1069080040000860222063F31340486040F268505A
:10691800C0F20C10086240F29510C0F2B200486252
:10692800DC20C0F27A0088627D20C0F25800C8627C
:106938004B20C0F2400008632F20C0F22E004863AD
:10694800886346F62010C86040F6A31088604FF4AC
:10695800C840C8614FF4C860886140F6C410C0F6EA
:10696800804008613F204861086820F00300104318
:106978000860086820F480300860C86F4021281D2E
:1069880003F0B0FD10202C606864B0BDA1F10802CE
:1069980040F6F87392B29A4221BF02220271026055
:1069A800704700220139C0F8062081808272026097
:1069B800704780B56F46C1B181421CD8B0FBF1F376
:1069C800B0FBF3F0884288BF0133981E38BF00201F
:1069D800FF2828BFFF2000F0FE0140EAC11040F068
:1069E800F85040F4F810106480BD40F63060C2F2F0
:1069F800200003F0D0FC40F64060C2F2200003F013
:106A0800CAFC006803E0816C002908BF7047816CEC
:106A180029B1816C00291CBF816C0029F3D1704712
:106A28000068426D22F00302114341657047F0B5DA
:106A380003AF2DE9000FADF5057D0DF1040B804680
:106A48004FF40071584603F04DFD44F2C8290DF586
:106A5800017AC2F2000900244E460025D9E96001F6
:106A6800CDE9830150468295819602F044FB81ABC3
:106A78000C3601350FCB4BF804000BEB0400103437
:106A88000430B4F5007F0EC0E8D101A940464FF4A8
:106A9800007203F00FFF0DF5057DBDE8000FF0BD96
:106AA800F0B503AF4DF804BD84B00168022905D1E3
:106AB8000023184604B05DF804BBF0BDC268012A83
:106AC8002ED1D0E904329A422AD0C26A00F11805C0
:106AD80003E0D0E90431994221D0591C0161E95CF5
:106AE80054684B0043EAD111CBB29C42F1D9946966
:106AF80001F00F012468BFF35F8FA4B224FA01F1FB
:106B0800C907E6D05169994240F29B80116903EBAD
:106B1800830301EB8303197C4906DAD0C9E70168CE
:106B280001AD8446C9072CCD4CF8102FCCE90135AE
:106B380040D0D0E9011291423CD2C26A00F1180E4D
:106B48000224012503E0D0E90113994232D24B1CFB
:106B5800436041F08003C9B2446141EA03210183E3
:106B68000021C56003E0D0E904138B42EBD04B1C35
:106B7800CCF800301EF8011056684B0043EAD111DA
:106B8800CBB29E42EFD9966901F00F013668BFF388
:106B98005F8FB6B226FA01F1C907E4D0516999426C
:106BA8004FD9116903EB830301EB8303197C490671
:106BB800D9D07EE701AEC569002346CE012DC3605A
:106BC8008CE8460003D1D0E908128A420AD101AE06
:106BD80046CEC0E90926C0E90731184604B05DF879
:106BE80004BBF0BDC26A00F1280503E0D0E908162D
:106BF8008E42ECD04E1C0662695C56684C0044EA32
:106C0800D1115FFA81FC6645F0D9966901F00F0150
:106C18003668BFF35F8FB6B226FA01F1C907E5D02F
:106C28005169614514D911690CEB8C0601EB860199
:106C38000E7C7606DAD00B46184604B05DF804BB25
:106C4800F0BD40F6A8721846C2F2200202F046FDD6
:106C580040F6A8726046C2F2200202F03FFD80B5FD
:106C68006F46D0E9072E4FF0004C4FF08043CEF826
:106C780034C0CEF838C0CEF838300023CEF8003013
:106C88000223C2F84031D2F840319B070CD5D2F824
:106C980040319B0744BFD2F840315FEA837303D584
:106CA800D2F840319B07EED44FF0000C0A23C2F80B
:106CB80040C10029C2F8A831D2F8843123F080738A
:106CC80008BF03F18073C2F88431D2F84411006818
:106CD800C2F84411C2F848C1C2F8580180BDB0B525
:106CE80002AF9AB00446C069D0F8B811C0F8B8111C
:106CF800D0F8BC11C0F8BC11D0F87811C0F87811E0
:106D08000021C0F87C11D0F8B01159B1D0F8B011F9
:106D180000291CBFD0F8B011002903D0D0F8B01159
:106D28000029F0D14FF0FF31C0F8B411D0F8B411F8
:106D380059B1D0F8B41100291CBFD0F8B4110029FA
:106D480003D0D0F8B4110029F0D100200821CDE9F2
:106D5800060101210C9008900390019001A800F110
:106D68001005109405912846FFF79AFEF8B1007CAB
:106D780010F07F01F7D0E2690829119119D2013981
:106D880040B2B0F1FF3F6FF40C00C9B202EB8101D1
:106D9800D1F8C421C8BF6FF08C0000EA02004FF49C
:106DA8000022C8BF08221043C1F8C401DBE71AB0AB
:106DB800B0BD002041F2980116900220139041F2D4
:106DC8002400C2F22000C2F2200112900120159086
:106DD80018A8149048F23310C0F20000199011A8B6
:106DE800189012A802F05BFC02464368C8B249003A
:106DF80041EAD011C8B2834217D9936901F00F0153
:106E08001B68BFF35F8F9BB223FA01F1C9070CD04F
:106E18005169814284BF0120704780B56F4640F6B2
:106E28009872C2F2200202F059FC00207047F0B5B7
:106E380003AF2DE9000F83B08046486800281FBFC4
:106E480088690068BFF35F8F5FEAC07005D140F6BC
:106E5800B460C2F2200002F09CFB4869002800F0F0
:106E68001D8151F81C4F9A460125BAF1080F51F8B7
:106E78000C0CD4F8AC3190F9106006F01F0C05FA30
:106E88000CF56ED32B406CD0D0F808C0C4F8AC51C8
:106E9800D4F8406146F40056C4F84061DCE90A566B
:106EA800D4F840319B0425D4D4F8403143F400533E
:106EB800C4F84031DCE90A56D4F840319B045FBF7E
:106EC800D4F8403143F40053C4F84031DCE90A56A1
:106ED8005CBFD4F840315FEA83430BD4D4F8403127
:106EE80043F40053C4F84031DCE90A56D4F8403181
:106EF8009B04CDD5D4F8403123F40053C4F8403175
:106F080090F910C0D4F8B8315660BCF1000F156084
:106F18000CF01F024FF0010648BF1B0C964033408F
:106F28001B0614D14FF48033BCF1FF3FC8BF0123C7
:106F38004FF47F0603FA02F2C8BFFF263240C4F8B6
:106F4800782182681268C2F30A4200F0AAFD08207C
:106F5800C8F80400002088F8000003B0BDE8000F5E
:106F6800F0BDC3685B6813F0680F01D0072008E024
:106F7800D4F8B831002E48BF1B0C2B401B0609D093
:106F8800002088F80100012088F8000003B0BDE85F
:106F9800000FF0BDB6F1FF3F4FF480364FF47F038A
:106FA800CDF80880C8BF0126C8BFFF2306FA0CF633
:106FB8003340C4F8BC314FF4803E90F910304FF4A0
:106FC8007F05B3F1FF3F03F01F03C4BFFF254FF058
:106FD800010E0EFA03F32B40C4F87831C668D0E9E5
:106FE800013EDEF800507468F669C5F30A45554558
:106FF80038BFAA46C4F30E45761BB24528BFB24631
:10700800534538BF9A46BAF1000F36D0D0F800B0D1
:107018000AF00305BAF1040F01D200261EE040F27F
:10702800FC730AEA030902F10108002601950BEB3B
:1070380006041BF8065008EB060394F801C008F88C
:1070480006C00436B14594F802C003F8015C83F821
:1070580001C0E5789D70EAD1019DB3446DB19BF8FC
:107068000030012D935508D032449BF80130022D91
:1070780053701CBF9BF802309370DEF80020C2F3F7
:107088000A4200F00EFDDDF808800020C8F804A0D0
:1070980088F8000003B0BDE8000FF0BD40F6A87204
:1070A8000020C2F22002002102F018FBF0B503AF65
:1070B8002DE9000F87B04E68022EC0F00D81D1F87F
:1070C80018A0DAF80060BFF35F8FB60740F10481BB
:1070D8004D69012D40F20681D1F810B0DBF820602F
:1070E800766816F0680F01D0072112E09BF824603B
:1070F80051F81C9F06F01F0C75B20126D9F8B8414B
:1071080006FA0CF6002D48BF240C2640360607D098
:10711800002141700121017007B0BDE8000FF0BDEA
:107128004FF480344FF47F060590B5F1FF3FC8BF98
:107138000124C8BFFF2604FA0CF52E40C9F878616F
:107148000BF11400DBE906563668C6F30A469E4280
:1071580038BF33469D4238BF2B46002B06936BD071
:10716800D0F8008003F00306042B039002D200201D
:10717800C64624E0CDF8109040F2FC7003EA000EF9
:1071880002F101090020CDE9016A09EB000519F8AF
:10719800004008EB000615F801CC95F801A0AD7881
:1071A80008F800C004308645747086F802A0F570AF
:1071B800EBD1DDF8109008EB000EDDE9016A0491CF
:1071C8006EB1115C012E8EF8001008D01044022E0A
:1071D80041788EF801101CBF80788EF80200581E86
:1071E800012101EB501505F0030401F0FEFF069A9A
:1071F8004EF6707028F01F01CEF20000612A0FD3FE
:1072080025F0030201F120030160036001F140034E
:10721800036001F16003043A01F180010360F1D1D8
:10722800002C1CBF0160012C4ED101F0DEFF01F0E3
:10723800DFFF069BDDE903011A460D4600F031FC2D
:10724800DAF80000BFF35F8FC00753D09BF8100037
:10725800D9F8B83100F01F0142B201208840002A55
:1072680048BF1B0C18400006059825D1B2F1FF3F16
:107278004FF48032C8BF01224FF47F0602FA01F1B1
:10728800C8BFFF263140C9F8BC119BF910104FF454
:1072980080304FF47F030022B1F1FF3F01F01F015E
:1072A800C4BFFF230120884029461840C9F8780147
:1072B800584600F0F6FB05980699416000210170D8
:1072C80007B0BDE8000FF0BD01F120020260022CFA
:1072D8001CBF40310160A8E740F6C460C2F220003C
:1072E80002F057F940F6A8720120C2F2200229469E
:1072F80002F0F4F940F6D460C2F2200002F049F935
:10730800F0B503AF2DE9000F83B08446387A4D6895
:10731800460046EAD016F0B2854240F2C4808D6934
:1073280006F00F062D68BFF35F8FADB225FA06F69B
:10733800F60700F0B880D1F814E0864540F2B9802D
:107348000E6900EB800006EB8000C668766816F0D0
:10735800680F01D0072012E0057C8E4651F81C9F6B
:1073680005F01F0A6CB20125D9F8B86105FA0AF5CB
:10737800002C48BF360C35402D0609D000208CF86B
:10738800010001208CF8000003B0BDE8000FF0BD3B
:10739800BEF82C6004F00F05EE40F607EED04FF46F
:1073A80080354FF47F06CDF808C0B4F1FF3FC8BF61
:1073B8000125C8BFFF2605FA0AF52E40C9F8BC61A9
:1073C8004FF4803C90F910604FF47F04B6F1FF3F12
:1073D80006F01F06C4BFFF244FF0010C0CFA06F696
:1073E8002640C9F87861C568D0E9016EDEF800402A
:1073F800D5F804C0ED69C4F30A449C4238BF23465B
:10740800CCF30E442D1BAB4228BF2B469E4238BFFF
:107418003346B3B3D0F800A003F00304042B01D221
:1074280000261FE0019440F2FC7403EA040902F10B
:10743800010B00260AEB06041AF806500BEB060CA3
:1074480094F801800BF806800436B14594F8028060
:107458000CF8015C8CF80180E4788CF80240E9D1E2
:10746800019CB2446CB19AF80050012C955508D093
:1074780032449AF80150022C55701CBF9AF80260E9
:107488009670DEF800201C46C2F30A4200F009FBA1
:10749800DDF808C00020CCF804408CF8000003B0E8
:1074A800BDE8000FF0BD40F6E460C2F2200002F033
:1074B80070F840F6A8727146C2F2200202F00EF986
:1074C800F0B503AF2DE9000F81B03E7A4D68740026
:1074D80044EAD616F4B2A54240F2CD808D6906F092
:1074E8000F062D68BFF35F8FADB225FA06F6F607D3
:1074F80000F0C180D1F814C0A44540F2C2800E69E2
:1075080004EB840506EB850BDBF80C60766816F057
:10751800680F01D0072112E09BF8105051F81CCFDA
:1075280005F01F0E6CB20125DCF8B86105FA0EF5FE
:10753800002C48BF360C35402D0607D0002141707D
:107548000121017001B0BDE8000FF0BD00904FF4BB
:107558008030B4F1FF3FC8BF01204FF47F0400FA28
:107568000EF0C8BFFF242040CCF87801DBE9010603
:107578003668C6F30A469E4238BF3346984238BF3B
:107588000346002B62D0DBF8008003F0030C042BC9
:1075980002D2002640461BE040F2FC7003EA000ECF
:1075A80002F10109002609EB060519F806A015F8ED
:1075B800014C6878AD7808F8064008EB06040436F4
:1075C800B64584F801A0A070E570ECD108EB060080
:1075D8008946BCF1000F0CD0915DBCF1010F017020
:1075E80007D09119BCF1020F4A7842701CBF897804
:1075F8008170581E01219A4601EB501404F00306CD
:1076080001F0F3FD4EF6707028F01F01CEF2000075
:10761800BAF1610F0FD324F0030201F120030160D6
:10762800036001F14003036001F16003043A01F1D2
:1076380080010360F1D1002E1CBF0160012E12D120
:1076480001F0D3FD01F0D4FD5346494658461A4689
:107658001C4600F026FA009800214460017001B031
:10766800BDE8000FF0BD01F120020260022E1CBF30
:1076780040310160E4E740F6F460C2F2200001F016
:1076880088FF40F6A8722046C2F22002614602F046
:1076980025F8B0B502AF8AB0D3B2540044EAD31487
:1076A800D0F804C05FFA84FEF44555D9836904F024
:1076B8000F041B68BFF35F8F9BB2E340DB074BD01F
:1076C800D0F814C0F4454DD950F81CCF0EEB8E04F9
:1076D80050F80C3C03EB840E9EF8103003F07F0446
:1076E8000194082C46D25DB205F03F03002D0CEB47
:1076F8008303D3F8C04108D424F001040C4452B2E7
:10770800002AC3F8C04109D518E024F4803461F395
:10771800104452B2002AC3F8C0410FD471B9DCF842
